:020000040800F2
:1000000060070020CD010008D5010008D7010008D5
:10001000D9010008DB010008DD0100080000000034
:10002000000000000000000000000000DF010008E8
:10003000E101000800000000E3010008E5010008FC
:10004000E7010008E7010008E7010008E7010008F0
:10005000E7010008E7010008E7010008E7010008E0
:10006000E7010008E7010008E7010008E7010008D0
:10007000E7010008E7010008E7010008E7010008C0
:10008000E7010008E7010008E7010008E7010008B0
:10009000E7010008E7010008E7010008E7010008A0
:1000A000E7010008E7010008E7010008E701000890
:1000B000E7010008E7010008E7010008E701000880
:1000C000E7010008E7010008E7010008E701000870
:1000D000E701000819120008E7010008E70100081D
:1000E000E7010008E7010008E7010008E701000850
:1000F000E7010008E7010008E7010008E701000840
:10010000E7010008E7010008E7010008E70100082F
:10011000E7010008E7010008E7010008E70100081F
:10012000E7010008E7010008E7010008E70100080F
:1001300000F002F800F03AF80AA090E8000C8244BF
:100140008344AAF10107DA4501D100F02FF8AFF29C
:10015000090EBAE80F0013F0010F18BFFB1A43F0A5
:10016000010318470454030024540300103A24BF29
:1001700078C878C1FAD8520724BF30C830C144BF0C
:1001800004680C607047000000230024002500264E
:10019000103A28BF78C1FBD8520728BF30C148BFEA
:1001A0000B6070471FB51FBD10B510BD00F033F8D0
:1001B0001146FFF7F7FF01F0C5F900F051F803B45D
:1001C000FFF7F2FF03BC01F086F900000948804701
:1001D00009480047FEE7FEE7FEE7FEE7FEE7FEE729
:1001E000FEE7FEE7FEE7FEE704480549054A064B41
:1001F000704700006911000831010008600100200B
:1002000060070020600300206003002070477047F3
:10021000704770477047754600F02CF8AE460500F1
:100220006946534620F00700854618B020B5FFF711
:10023000DBFFBDE820404FF000064FF000074FF015
:1002400000084FF0000B21F00701AC46ACE8C009F4
:10025000ACE8C009ACE8C009ACE8C0098D467047FD
:1002600010B50446AFF300802046BDE81040FFF70C
:10027000A6BF0000004870470001002010B56FF0D5
:10028000040000F05DFF0A4800680A49B0FBF1F085
:10029000094908700846007800EB4001C1EBC01026
:1002A0004FF6FF7101EAC0000449088010BD00004C
:1002B0002400002000127A0000000020020000202C
:1002C00008B501210D2000F0C3FD4FF40070ADF81A
:1002D000000003208DF8020018208DF80300694605
:1002E0001A4800F037F84FF48060ADF800000420A1
:1002F0008DF803006946154800F02CF8A020ADF8F1
:10030000000003208DF8020018208DF803006946D4
:100310000E4800F01FF82020ADF8000003208DF8F3
:10032000020010208DF803006946094800F012F819
:100330001E20ADF8000003208DF8020010208DF87B
:1003400003006946014800F005F808BD00080140B7
:10035000000C01402DE9F041024600250026002056
:1003600000230024002791F803C00CF00F0591F83A
:1003700003C00CF0100CBCF1000F03D091F802C0C8
:100380004CEA050591F800C0BCF1000F31D01468AB
:1003900000202BE04FF0010C0CFA00F3B1F800C084
:1003A0000CEA03069E4220D183004FF00F0C0CFA9A
:1003B00003F7BC4305FA03FC4CEA040491F803C0BC
:1003C000BCF1280F06D14FF0010C0CFA00FCC2F86A
:1003D00014C00AE091F803C0BCF1480F05D14FF0FA
:1003E000010C0CFA00FCC2F810C0401C0828D1D344
:1003F0001460B1F800C0BCF1FF0F34DD5468002078
:100400002EE000F1080C4FF0010808FA0CF3B1F8E7
:1004100000C00CEA03069E4221D183004FF00F0C6E
:100420000CFA03F7BC4305FA03FC4CEA040491F808
:1004300003C0BCF1280F05D100F1080C08FA0CF834
:10044000C2F8148091F803C0BCF1480F07D100F145
:10045000080C4FF0010808FA0CF8C2F81080401C94
:100460000828CED35460BDE8F08141617047016136
:10047000704710B5C26821EA020302EA010443EAA8
:100480000443036110BD000008B500F07BFCFFF7DA
:10049000F5FEFFF715FF4FF4E13000F095FE00F098
:1004A0006DFD00F041F805488088009003484388BE
:1004B00002880021084600F011F808BD060000205F
:1004C00070B504460D4616462B4622462946204660
:1004D00000F0C2FB304600F03DFC70BD2DE9F04756
:1004E00006460F4614461D46DDF820A0681E83B25E
:1004F000601E82B23946304600F0AEFBB8460EE0D0
:10050000B14606E0504600F025FC09F101001FFA53
:1005100080F9A145F6DB08F101001FFA80F8A84533
:10052000EEDBBDE8F087000010B50821A848FFF712
:100530009CFF642000F0D2FF0821A548FFF797FF39
:10054000642000F0CBFF0221A148FFF790FF642058
:1005500000F0C4FF112000F0E9FB782000F0BEFF9E
:10056000B12000F0E3FB052000F0CCFB3C2000F0C4
:10057000C9FB3C2000F0C6FBB22000F0D7FB0520F1
:1005800000F0C0FB3C2000F0BDFB3C2000F0BAFBBB
:10059000B32000F0CBFB052000F0B4FB3C2000F0C2
:1005A000B1FB3C2000F0AEFB052000F0ABFB3C2093
:1005B00000F0A8FB3C2000F0A5FBB42000F0B6FB47
:1005C000032000F09FFBC02000F0B0FBAB2000F048
:1005D00099FB0B2000F096FB042000F093FBC12058
:1005E00000F0A4FBC52000F08DFBC22000F09EFBB4
:1005F0000D2000F087FB002000F084FBC32000F0FA
:1006000095FB8D2000F07EFB6A2000F07BFBC42070
:1006100000F08CFB8D2000F075FBEE2000F072FBEB
:10062000C52000F083FB0F2000F06CFBE02000F001
:100630007DFB072000F066FB0E2000F063FB082026
:1006400000F060FB072000F05DFB102000F05AFB7B
:10065000072000F057FB022000F054FB072000F0B9
:1006600051FB092000F04EFB0F2000F04BFB252032
:1006700000F048FB362000F045FB002000F042FB74
:10068000082000F03FFB042000F03CFB102000F0AD
:1006900039FBE12000F04AFB0A2000F033FB0D207B
:1006A00000F030FB082000F02DFB072000F02AFBB3
:1006B0000F2000F027FB072000F024FB022000F0B1
:1006C00021FB072000F01EFB092000F01BFB0F2080
:1006D00000F018FB252000F015FB352000F012FB80
:1006E000002000F00FFB092000F00CFB042000F0BC
:1006F00009FB102000F006FBFC2000F017FB802017
:1007000000F000FB3A2000F011FB052000F0FAFA9F
:10071000362000F00BFB022030B101280DD002285A
:1007200014D0032824D11AE0082000F0EBFA50205E
:1007300028490880A02048801AE0C82000F0E2FA8A
:10074000502024490880A020488011E0782000F043
:10075000D9FAA0201F4908805020488008E0A8202E
:1007600000F0D0FAA0201B4908805020488000BF2C
:1007700000BF212000F0DAFA292000F0D7FA2A2061
:1007800000F0D4FA002000F0BDFA1A2000F0BAFA06
:10079000002000F0B7FA692000F0B4FA2B2000F036
:1007A000C5FA002000F0AEFA012000F0ABFA0020FC
:1007B00000F0A8FAA02000F0A5FA2C2000F0B6FA6C
:1007C0000020044988804FF6FF70C88010BD0000EB
:1007D00000080140060000202DE9FE4F80468B46B0
:1007E00016461F4600200190384607EBD071C1F332
:1007F00047042046E21704EB5272D2102146E31759
:1008000004EB5373DB10A4EBC3030BB1012300E033
:1008100000231A447A4392B20092C246A6F1200005
:10082000C6B20BEB0700401E83B208EB0400401E6B
:1008300082B25946404600F00FFA00256CE00C2FBA
:1008400006D0102F0CD0182F10D0202F1CD115E05F
:1008500006EB4600334901EB8000405D029015E055
:10086000314800EB0610405D02900FE006EB4600B9
:100870002E4901EB0010405D029007E02C4800EB90
:100880008610405D029001E0BDE8FE8F00BF4FF092
:1008900000093BE00C98D8B9012000FA09F0029950
:1008A000084020B12349C88800F054FA03E02149E8
:1008B000888800F04FFA0198401CC0B2019001985E
:1008C00090FBF4F104FB1100E0B90020019020E05E
:1008D000012000FA09F00299084028B11548C288A1
:1008E00059464046FFF7ECFD08F101001FFA80F879
:1008F000A8EB0A00A04205D1D0460BF101001FFA77
:1009000080FB06E009F1010000F0FF09B9F1080FD2
:10091000C0DB00BF681C85B2009885428FDB00BF3A
:10092000B2E70000541D0308C8210308B8270308D4
:1009300088390308060000202DE9F84306460F46D3
:1009400014461D46DDF820800EE0CDF8008014F836
:10095000012B2B4639463046FFF73EFF284605EB74
:10096000D07106EB61018EB220780028EDD1BDE890
:10097000F88300002DE9FE4F81468B4616461C4643
:1009800000200290CDF804902046E21704EB52724A
:10099000D2102146E31704EB5373DB10A4EBC3031F
:1009A0000BB1012300E000231A44624392B200928B
:1009B0000C2C06D0102C07D0182C08D0202C0CD1D1
:1009C00008E04FF0040A08E04FF0040A05E04FF099
:1009D000040A02E04FF0040A00BF00BF2BE100252B
:1009E00021E105EB850000EBC500964911F81000E8
:1009F000317888420CD105EB850000EBC5009149A8
:100A000001EB400040787178884201D10C2C3CD039
:100A100005EB05108C4911F81000317888420AD195
:100A200005EB0510884901EB400040787178884259
:100A300001D1102C29D005EB850000EB451083492E
:100A400011F81000317888420CD105EB850000EBDD
:100A500045107E4901EB400040787178884201D111
:100A6000182C12D005EB8510794911F81000317857
:100A7000884271D105EB8510754901EB4000407843
:100A800071788842F5D1202CF3D10BEB0400401E85
:100A900083B209EB0400401E82B25946484600F07A
:100AA000DBF80027B8E04FF00008AEE00C98E8BB98
:100AB00005EB850000EBC500624901EB4000801C9E
:100AC000C05D012101FA08F1084008B10C2C2BD0BF
:100AD00005EB05105C4901EB4000801CC05D012165
:100AE00001FA08F1084008B1102C1DD005EB850073
:100AF00000EB4510554901EB4000801CC05D012111
:100B000001FA08F1084008B1182C0DD005EB85104A
:100B10004F4901EB4000801CC05D012101FA08F142
:100B2000084040B1202C06D14A4900E015E0C888B1
:100B300000F010F903E04749888800F00BF90298AB
:100B4000401CC0B20290029890FBF4F104FB11002B
:100B5000F0BB002002905CE062E005EB850000EB5A
:100B6000C500384901EB4000801CC15D012000FA3E
:100B700008F0014009B10C2C2DD005EB05103249CD
:100B800001EB4000801CC15D012000FA08F001402B
:100B900009B1102C1FD005EB850000EB45102B4947
:100BA00001EB4000801CC05D012101FA08F1084002
:100BB00008B1182C0FD005EB8510254901EB40003A
:100BC000801CC05D012101FA08F1084048B100E035
:100BD00017E0202C05D11F48C28859464846FFF728
:100BE0006FFC09F101001FFA80F90198A9EB0000E0
:100BF000A04206D1DDF804900BF101001FFA80FB42
:100C000007E008F1010000F0FF08B8F1080FFFF657
:100C10004DAF00BF781CC7B200988742FFF643AFC4
:100C200000BF681C85B25545FFF6DBAEB61C09EB6C
:100C300004001FFA80F9307800287FF4D0AEBDE8B8
:100C4000FE8F000048510308B051030838520308D2
:100C500060530308060000202DE9F04104460D46CC
:100C600016461F462A2000F061F8611C88B200F089
:100C700071F8711C88B200F06DF82B2000F056F866
:100C800005F11A0188B200F065F807F11A0188B27F
:100C900000F060F82C2000F049F8BDE8F0812DE963
:100CA000F05F0746884614461D46DDF8289000266A
:100CB00008EB0500401E83B23819401E82B241463F
:100CC0003846FFF7C9FFB24618E04FF0000B0FE0BF
:100CD00019F8160000F016F8012101EB460119F889
:100CE000010000F00FF8761C0BF101001FFA80FBE9
:100CF000AB45EDDB0AF101001FFA80FAA245E4DB07
:100D0000BDE8F09F10B5044610210648FFF7ADFB83
:100D10002146054800F089F910210248FFF7A7FB9A
:100D200010BD0000000801400030014010B504462D
:100D300014210648FFF799FB2146054800F075F994
:100D400014210248FFF793FB10BD0000000801408A
:100D50000030014010B5044610210848FFF785FB1C
:100D60002112074800F061F9E1B2054800F05DF991
:100D700010210248FFF77BFB10BD00000008014076
:100D80000030014008B54FF4A06000F047F825207E
:100D90008DF8000003208DF801008DF8020001207D
:100DA0008DF80300684600F001F808BD70B5002119
:100DB00000230F22C47804B3154C246804F4E064C3
:100DC000C4F5E064210AC1F10403CA40447804FA7E
:100DD00003F184781440214309010E4C0678A15593
:100DE000047804F01F050124AC4005786D11AD00B6
:100DF00005F1E025C5F8004109E0047804F01F057D
:100E00000124AC40044D0678761145F8264070BDAB
:100E10000CED00E000E400E080E100E00249014365
:100E2000024A1160704700000000FA050CED00E076
:100E300029B1064A12690243044B1A6104E0034ACD
:100E400012698243014B1A61704700000010024092
:100E500029B1064A92690243044B9A6104E0034AAD
:100E600092698243014B9A61704700000010024072
:100E700029B1064AD2680243044BDA6004E0034A0F
:100E8000D2688243014BDA607047000000100240D4
:100E900030B500210022002400232D4D6D6805F09F
:100EA0000C0121B1042905D0082923D105E0294DE1
:100EB000056022E0274D05601FE0254D6D6805F4B3
:100EC0007012234D6D6805F48034022505EB9242C3
:100ED0001CB9214D554305600BE01D4D6D6805F4AF
:100EE00000351DB11C4D5543056002E0194D5543B9
:100EF000056002E0174D056000BF00BF144D6D682E
:100F000005F0F0010909154D6B5C0568DD40456091
:100F10000F4D6D6805F4E061090A104D6B5C456882
:100F2000DD4085600A4D6D6805F46051C90A0B4DBE
:100F30006B5C4568DD40C560054D6D6805F440415A
:100F4000890B074D6B5CC568B5FBF3F5056130BDDA
:100F50000010024000127A0000093D000E0000203F
:100F60001E00002021B1028842F04002028004E00D
:100F700002884FF6BF731A400280704700B585B0F3
:100F800001210803FFF764FF4FF44040ADF8000073
:100F90004FF48270ADF802000020ADF80400ADF807
:100FA0000600ADF808004FF40070ADF80A0000200C
:100FB000ADF80C00ADF80E000720ADF81000694642
:100FC000044800F014F801210248FFF7CBFF05B0F8
:100FD00000BD0000003001400246002013890B4094
:100FE0000BB1012000E0002070478181704710B5EF
:100FF0000022028802F441520B884C8823438C88DB
:101000002343CC8823430C8923434C8923438C8975
:101010002343CC8923431A430280838B4FF2FF740E
:10102000234083830B8A038210BD70B504460D46AE
:1010300000BF02212046FFF7CFFF0028F9D0294644
:101040002046FFF7D2FF00BF80212046FFF7C4FFF4
:101050000128F9D070BD10B500F002F810BD0000F5
:101060000CB50020019000903348006840F48030B7
:101070003149086000BF3048006800F4003000903B
:101080000198401C0190009818B90198B0F5A06F24
:10109000F1D12948006800F4003010B1012000901F
:1010A00001E0002000900098012843D12348006807
:1010B00040F01000214908600846006820F0070051
:1010C00008600846006840F0020008601A4840685E
:1010D000194948600846406848600846406840F43E
:1010E000806048600846406820F47C1048600846EC
:1010F000406840F4E81048600846006840F080709E
:10110000086000BF0C48006800F000700028F9D0AB
:101110000948406820F003000749486008464068D5
:1011200040F00200486000BF0348406800F00C0037
:101130000828F9D10CBD0000001002400020024038
:10114000042808D14FF0E021096941F004014FF073
:10115000E022116107E04FF0E021096921F004016C
:101160004FF0E0221161704710B51348006840F05D
:1011700001001149086008464068104908400E49BE
:101180004860084600680E4908400B490860084658
:10119000006820F4802008600846406820F4FE00C3
:1011A00048604FF41F008860FFF755FF4FF0006064
:1011B0000449086010BD0000001002400000FFF864
:1011C000FFFFF6FE08ED00E01FB50446012188038D
:1011D000FFF73EFE0F4800F06FF800940020ADF8D6
:1011E0000400ADF80600ADF80800ADF80C000C20C6
:1011F000ADF80A006946074800F0FCF8012240F209
:101200002551044800F0D0F80121024800F048F8C8
:101210001FBD00000038014010B540F225511D48A7
:1012200000F098F818B31B4800F050F9C4B21A48FF
:10123000008800F4004001282BD01748008800F4F3
:10124000804060B10A2C03D000201349088020E0C0
:101250001148008840F400400F49088019E00D2C27
:1012600006D10D48008840F480400B49088010E00A
:1012700009480088C0F30D0008490C54064800884E
:10128000401C0549088008460088C72801DD002069
:10129000088010BD00380140040000203800002004
:1012A00021B1828942F40052828104E082894DF6A4
:1012B000FF731A408281704710B50446204884426B
:1012C00009D101218803FFF7D3FD00214FF48040AD
:1012D000FFF7CEFD32E01B48844209D101214804CA
:1012E000FFF7A6FD00214FF40030FFF7A1FD25E038
:1012F0001548844209D101218804FFF799FD002196
:101300004FF48020FFF794FD18E01048844209D183
:101310000121C804FFF78CFD00214FF40020FFF7E6
:1013200087FD0BE00A48844208D101210805FFF738
:101330007FFD00214FF48010FFF77AFD10BD000003
:10134000003801400044004000480040004C00408C
:101350000050004070B50246002400230025002004
:1013600040F66A16B14200D100BFC1F3421501F048
:101370001F03012606FA03F3012D02D1968933409B
:1013800006E0022D02D1168A334001E0968A3340EE
:101390000C12012606FA04F41688344013B10CB17D
:1013A000012000E0002070BDF0B5034600240026B7
:1013B0000025002040F66A17B94200D100BF184648
:1013C000C1F3421401F01F06012707FA06F5012CAC
:1013D00001D10C3004E0022C01D1103000E01430B7
:1013E0001AB107682F43076002E00768AF43076040
:1013F000F0BD00002DE9F04786B005460E460024FA
:10140000A24600BFA1460027B08900B100BF2F4609
:101410002C8A4CF6FF700440F08804432C82AC897F
:101420004EF6F3100440B0883189084371890843AF
:101430000443AC81AC8A4FF6FF400440B0890443BA
:10144000AC8201A8FFF724FD1F48874202D1DDF8D6
:1014500010A001E0DDF80CA0A88900F4004040B124
:101460000AEBCA0000EB0A1031684900B0FBF1F842
:1014700007E00AEBCA0000EB0A1031688900B0FBF4
:10148000F1F86420B8FBF0F004012009642101FBAD
:101490001089A88900F4004040B1322000EBC90057
:1014A000B0FBF1F000F00700044308E0322000EB4D
:1014B00009106421B0FBF1F000F00F0004432C810F
:1014C00006B0BDE8F087000000380140014688887A
:1014D000C0F30800704700BF704700000146114A82
:1014E00012884A434FF0E0235A6100229A611A465B
:1014F000126942F001021A6100BF4FF0E022106948
:1015000000F001021AB100F48032002AF5D04FF049
:10151000E022126922F001024FF0E0231A6100225A
:101520009A6170470200002010B5044603E04FF4B2
:101530007A70FFF7D3FF201EA4F10101CCB2F6D1DF
:1015400010BD000008B5FEF79FFF0020102334A255
:10155000194600902420FFF70DFA0020102332A234
:10156000194600904420FFF7E7F9002010232FA22E
:10157000194600905420FFF7FDF9002010232DA2FA
:10158000194600907420FFF7D7F9002010232AA2F3
:10159000302100901C20FFF7CFF90220FFF7C4FF95
:1015A00029488088009028484388028800210846FE
:1015B000FEF794FF33E000240FE004EBC40000EBDF
:1015C0000410224901EB002028235022142100900E
:1015D0001846FFF764FB601CC4B21F2CEDDB40F221
:1015E000DC50FFF77BFF1F2410E0601E00EBC00102
:1015F00001EB0010154901EB002028235022142193
:1016000000901846FFF74BFB601EC4B2002CECDCC8
:101610000520FFF789FF20210D48FEF72AFFCAE7C2
:10162000C4E3BAC3000000002C200000CAC0BDE71C
:10163000000000002120000048656C6C6F2C2077B2
:101640006F726C6421000000060000205416000830
:10165000000C01400020002000200020002000405D
:10166000004000400040004000400040004000407A
:10167000004000400040004000400040004000406A
:10168000004000400040004000400040004000405A
:1016900000400040004000200020002000200020EA
:1016A000002000200020002000200020002000203A
:1016B000002000400040004000400040004000404A
:1016C000004000400040004000400040004000401A
:1016D000004000400040004000400040004000400A
:1016E000004000400040004000400020002000205A
:1016F00000200020002000200020002000400040AA
:1017000000400040004000400040004000400060B9
:1017100000600060006000600060006000600060C9
:101720000060006000600040004000400040004059
:101730000040004000400040004000200020002009
:101740000020002000200020002000200020004079
:101750000040004000400040004000400040004089
:101760000040006000600060006000600060006099
:1017700000600060006000600060006000400040A9
:101780000040004000400040004000400040002079
:1017900000200020002000200040004000400040C9
:1017A0000040004000400060006000600060006099
:1017B0000080008000800080008000800080008029
:1017C0000080008000600060006000600040004019
:1017D0000040004000400040004000400040002029
:1017E00000200020002000200020002000400040B9
:1017F0000040004000400040004000600060006089
:101800000060006000800080008000800080008018
:101810000080008000800080008000600060006028
:101820000060004000400040004000400040004098
:101830000020002000200040004000400040004008
:101840000040004000600060006000800080008078
:1018500000A000A000A000A000A000A000A000A088
:1018600000A000A000800080008000800060006078
:101870000060004000400040004000400040002068
:1018800000200020002000200040004000400040D8
:101890000040004000400060006000600080008068
:1018A000008000A000A000A000A000A000A000A058
:1018B00000A000A000A000A00080008000800080A8
:1018C00000600060006000400040004000400040B8
:1018D0000040002000400040004000400040004028
:1018E0000060006000800080008000A000A000C0B8
:1018F00000C000C000E000E000E000E000E000E028
:1019000000E000C000C000A000A0008000800080B7
:101910000060006000400040004000400040004087
:1019200000400040002000400040004000400040D7
:1019300000400040006000600080008000A000A027
:1019400000A000C000C000E000E000E000E000E017
:1019500000E000E000E000C000C000C000A000A067
:1019600000800080006000600040004000400040B7
:101970000040002000400040004000400040006067
:101980000060008000A000A000C000E000E00100B6
:1019900001200120012001400140014001400120BF
:1019A00001200100010000E000E000C000C000A034
:1019B00000800060006000400040004000400040A7
:1019C0000040004000400040004000400040004017
:1019D000004000600060008000A000C000E000E067
:1019E00000E00100012001200140014001400140D0
:1019F00001400140014001200100010000E000C061
:101A000000C000A000800080006000400040004056
:101A10000040004000400040004000400060008066
:101A2000008000C001200160018001A001E00200EF
:101A30000220024002600260026002600260024016
:101A400002400220020001E001C00180016001208B
:101A500000E000A000800060004000400040004026
:101A60000040004000400040004000400040004076
:101A70000060008000A000E00120016001A001E002
:101A800001E0022002400260028002A002A002A047
:101A900002A00280026002600220020001E001A0B8
:101AA0000160012000E000A00080006000600040B4
:101AB000004000400040004000400060006000A086
:101AC000010001E003800D000D800DC00E000E002E
:101AD0000E200E400E400E400E600E600E600E4056
:101AE0000E400E200E000DC00D800D4004C003807E
:101AF0000200012000A00080006000400040004083
:101B000000400040004000400040004000400060B5
:101B1000008000A00100020003E00D600DE00E0057
:101B20000E200E400E800E800EA00EA00EA00EA065
:101B30000EA00E800E600E400E400E200DE00DA097
:101B40000D6004600240012000A0008000600040A1
:101B5000004000400040004000600060008000E065
:101B600002600EE017A017C017C017C017C017C03B
:101B700017C017C017C017C017C017C017C017C0AD
:101B800017C017C017C017C017C017C017C00FA0C5
:101B90000F200380010000A0008000600040004092
:101BA00000400040004000400040004000600060F5
:101BB0000080010002C00EC017A017C017C017C0D8
:101BC00017C017C017C017C017C017C017C017C05D
:101BD00017C017C017C017C017C017C017C017C04D
:101BE00017C017C00F6003E0012000A00060006074
:101BF00000400040004000400060008000A00180E4
:101C00000E4017C01FE01FE01FE01FE01FE01FE0B5
:101C10001FE01FE01FE01FE01FE01FE01FE01FE0CC
:101C20001FE01FE01FE01FE01FE01FE01FE017E0C4
:101C300017E00EE001E000C000800060006000409E
:101C40000040004000400040004000600060008014
:101C500000C001A00E4017C01FE01FE01FE01FE002
:101C60001FE01FE01FE01FE01FE01FE01FE01FE07C
:101C70001FE01FE01FE01FE01FE01FE01FE01FE06C
:101C80001FE017E017E00F6001E000E00080006057
:101C900000600040004000600060008000E0024002
:101CA0000F601FE01FE01FE01FE01FE01FE027E0C4
:101CB00027E027E027E027E027E01FE027E027E0F4
:101CC00027E027E01FE01FE01FE01FE01FE01FE00C
:101CD00017E00F60032000E000A0008000600060BB
:101CE000004000400040004000600060008000A014
:101CF00000E002800F401FE01FE01FE01FE01FE038
:101D00001FE01FE027E027E027E027E027E027E0AB
:101D10001FE027E027E027E01FE01FE01FE01FE0B3
:101D20001FE01FE017E00FC00300010000A00080CB
:101D30000060004000400060008000A0010002C080
:101D400017801FE01FE01FE01FE01FE01FE01FE003
:101D500027E027E027E027E027E027E027E027E04B
:101D600027E027E01FE01FE01FE01FE01FE01FE06B
:101D700017E00F8003E0012000A0008000800060D9
:101D8000006000600040006000600060008000A013
:101D9000010003200F601FE01FE01FE01FE01FE0B5
:101DA0001FE027E027E027E01FE027E027E027E00B
:101DB00027E027E027E027E01FE01FE01FE01FE00B
:101DC0001FE01FE017E00FC003E0012000A000802B
:101DD0000060004000400060008000A0012003205F
:101DE00017A01FE01FE01FE027E027E027E027E023
:101DF00027E027E027E027E027E027E027E027E0AB
:101E000027E027E027E01FE01FE01FE01FE01FE0C2
:101E100017E00FA00460014000C000800080006057
:101E2000006000600060006000600080008000C012
:101E30000140038017601FE01FE01FE01FE027E064
:101E400027E027E027E027E027E027E027E027E05A
:101E500027E027E027E01FE01FE01FE027E01FE06A
:101E60001FE01FE017E00FC00440014000C00080E9
:101E70000060006000600060008000C001400B60F6
:101E800017A01FE01FE01FE01FE027E027E027E08A
:101E900027E027E027E027E027E027E027E027E00A
:101EA00027E027E027E027E027E027E01FE01FE00A
:101EB00017E00FA004A0016000C000A00080008017
:101EC00000600060006000600080008000A000C032
:101ED00001400BC017801FE01FE01FE01FE027E05C
:101EE00027E027E027E027E027E027E027E027E0BA
:101EF00027E027E027E027E027E027E01FE027E0B2
:101F00001FE01FE017E00FC00420016000C000A028
:101F1000008000600060008000A000C0016003A09D
:101F200017A01FE01FE01FE01FE027E027E027E0E9
:101F300027E027E027E027E027E027E027E027E069
:101F400027E027E027E027E027E01FE01FE01FE071
:101F500017E00FA004E0016000E000A00080008016
:101F600000600060006000600080008000A000E071
:101F70000160040017801FE01FE01FE027E027E05A
:101F800027E027E027E027E027E027E027E027E019
:101F900027E027E027E027E027E027E027E01FE011
:101FA0001FE01FE01FE017C00480018000E000A0D8
:101FB000008000600060008000A000E0016003E09D
:101FC00017A01FE01FE01FE027E027E027E027E041
:101FD00027E027E027E027E027E027E027E027E0C9
:101FE00027E027E027E027E027E027E01FE01FE0C9
:101FF00017E00FA0050001A000E000C000A00080D5
:102000000080006000600060008000A000C000E070
:1020100001800C4017801FE01FE01FE027E027E051
:1020200027E027E027E027E027E027E027E027E078
:102030002FE027E027E027E027E027E027E027E060
:102040001FE01FE01FE00FC004A0018000E000A01F
:10205000008000600060008000A000E001600400DB
:1020600017A01FE027E027E027E027E027E027E090
:1020700027E027E027E027E027E027E027E02FE020
:1020800027E027E027E027E027E027E01FE01FE028
:1020900017E00FA00D4001A0010000C000A00080CB
:1020A0000080008000800080008000A000C000E070
:1020B00001A00C8017801FE01FE027E027E027E049
:1020C00027E027E027E027E027E027E027E027E0D8
:1020D0002FE027E027E027E027E027E027E027E0C0
:1020E00027E01FE017E00FC004C001A000E000C01F
:1020F000008000600060008000A000E0018004001B
:1021000017A01FE01FE027E027E027E027E027E0F7
:1021100027E027E027E027E027E027E02FE02FE077
:1021200027E027E027E027E027E027E027E01FE07F
:1021300017E00FA0056001C0010000C000A00080F2
:102140000080008000800080008000A000C00100AE
:1021500001A00CA017801FE01FE027E027E027E088
:1021600027E027E027E027E027E027E02FE027E02F
:1021700027E027E027E027E027E027E027E027E027
:1021800027E01FE01FE00FC004E001C0010000C015
:10219000008000600060008000C000E001A004003A
:1021A00017A01FE027E027E027E027E027E027E04F
:1021B00027E027E027E027E027E02FE02FE02FE0CF
:1021C0002FE027E027E027E027E027E027E01FE0D7
:1021D00017E00FA0058001E0012000E000A00080D2
:1021E0000080008000800080008000A000C001000E
:1021F00001A00CC017801FE01FE027E027E027E0C8
:1022000027E027E027E027E02FE02FE02FE02FE076
:1022100027E02FE027E027E027E027E027E027E07E
:1022200027E01FE01FE00FC004E001C0010000C074
:10223000008000600060008000C000E001A003E0BA
:1022400017801FE01FE027E027E027E027E027E0D6
:1022500027E027E027E02FE02FE02FE02FE02FE01E
:102260002FE027E027E027E027E027E01FE01FE03E
:102270001FE00FA0058001C0010000E000A000A049
:10228000008000800080008000A000A000C001004D
:1022900001C00CC017801FE027E027E027E027E0FF
:1022A00027E027E027E027E02FE02FE02FE02FE0D6
:1022B00027E027E027E027E027E027E027E027E0E6
:1022C00027E01FE01FE00FC004E001C0010000C0D4
:1022D000008000600060008000C000E0018003E03A
:1022E00017801FE01FE027E027E027E027E027E036
:1022F00027E027E027E02FE02FE02FE027E02FE086
:1023000027E027E027E027E027E027E027E01FE09D
:102310001FE00FA0056001C0010000E000A00080E8
:10232000008000800080008000A000A000E001008C
:1023300001C00CE017A01FE027E027E027E027E01E
:1023400027E027E027E02FE027E02FE02FE02FE035
:102350002FE027E027E027E027E027E027E027E03D
:1023600027E01FE01FE00FC004E001C0010000C033
:10237000008000800060008000A000E0018003E099
:1023800017801FE01FE027E027E027E027E027E095
:1023900027E027E027E02FE02FE027E027E027E0F5
:1023A00027E027E027E027E027E027E027E01FE0FD
:1023B00017E00FA0058001E0012000E000A00080F0
:1023C0000080008000800080008000A000C001002C
:1023D00001C00CE017A01FE027E027E027E027E07E
:1023E00027E027E027E027E027E027E02FE02FE0A5
:1023F00027E027E027E027E027E027E027E027E0A5
:1024000027E01FE01FE00FC004C001C0010000C0B2
:10241000008000800060008000A000E0016003C038
:1024200017801FE01FE01FE027E027E027E027E0FC
:1024300027E027E027E027E027E027E027E027E064
:1024400027E027E027E027E027E027E027E01FE05C
:1024500017E00FA0056001E0012000E000A000806F
:102460000080008000800080008000A000C001008B
:1024700001C00CE017A01FE01FE027E027E027E0E5
:1024800027E027E027E027E027E027E027E027E014
:1024900027E027E027E027E027E027E027E027E004
:1024A00027E01FE01FE00FC0048001C0010000C052
:1024B000008000600060008000A000E0016003A0D8
:1024C0000F801FE01FE027E027E027E027E027E05C
:1024D00027E027E027E02FE027E027E027E027E0BC
:1024E00027E027E027E027E027E027E027E01FE0BC
:1024F0001FE00FA0056001C0010000C000A0008027
:102500000080008000800080008000A000C00100EA
:1025100001A00CC017A01FE01FE01FE01FE027E094
:1025200027E027E027E027E027E027E027E027E073
:1025300027E027E027E027E027E027E027E027E063
:1025400027E01FE01FE00FC0044001A0010000C011
:10255000008000600060008000A000E00160038057
:102560000F801FE027E027E027E027E027E027E0B3
:1025700027E027E027E027E027E027E027E027E023
:1025800027E027E027E027E027E027E027E01FE01B
:1025900017E00FA0054001A0010000C000A00080CE
:1025A0000080008000600080008000A000C000E08B
:1025B00001A00CC017A01FE01FE01FE01FE027E0F4
:1025C00027E027E027E027E027E027E027E027E0D3
:1025D00027E027E027E027E027E027E027E027E0C3
:1025E0001FE01FE017E00FC00400018000E000A022
:1025F000008000600060008000A000C00140034037
:102600000F601FE01FE01FE01FE027E027E027E04A
:1026100027E027E027E027E027E027E027E027E082
:1026200027E027E027E027E027E027E01FE01FE082
:102630001FE00FA0052001A000E000C000A0008066
:102640000080006000600060008000A000C000E02A
:1026500001800C8017801FE01FE01FE01FE027E0D3
:1026600027E027E027E027E027E027E027E027E032
:1026700027E027E027E027E027E027E027E027E022
:102680001FE01FE017E00FC003E0016000E000A0C2
:102690000080006000600080008000C00120030016
:1026A0000F601FE01FE01FE01FE027E027E027E0AA
:1026B00027E027E027E027E027E027E027E027E0E2
:1026C00027E027E027E027E027E027E01FE01FE0E2
:1026D00017E00FA00500016000E000A0008000806E
:1026E00000600060006000600080008000A000E0EA
:1026F00001600C6017801FE01FE01FE01FE027E073
:1027000027E027E027E027E027E027E027E027E091
:1027100027E027E027E027E027E027E027E027E081
:102720001FE01FE017E00FC00380016000C000A0A1
:102730000080006000600060008000A0012002C0F6
:102740000F601FE01FE01FE01FE027E027E027E009
:1027500027E027E027E027E027E027E027E027E041
:1027600027E027E027E027E01FE01FE01FE01FE051
:1027700017E00FA004C0016000C000A0008000802E
:1027800000600060006000600060008000A000C089
:1027900001600C2017801FE01FE01FE027E027E00A
:1027A00027E027E027E027E027E027E027E027E0F1
:1027B00027E027E027E027E027E027E027E01FE0E9
:1027C0001FE01FE017E00FC00360014000C000A041
:1027D0000060006000400060008000A001000280F6
:1027E0000F401FE01FE01FE01FE027E027E027E089
:1027F00027E027E027E027E027E027E027E027E0A1
:1028000027E027E027E01FE01FE01FE01FE01FE0B8
:1028100017E00FA00480014000C000A0008000600D
:10282000006000600060006000600080008000C008
:10283000014003E017801FE01FE01FE01FE027E0DA
:1028400027E027E027E027E027E027E027E027E050
:1028500027E027E027E027E027E027E01FE01FE050
:102860001FE01FE017E00FA002E0012000A00080A1
:1028700000600040004000600060008000E0022036
:102880000F201FE01FE01FE01FE01FE01FE01FE020
:1028900027E027E027E027E01FE027E027E027E008
:1028A00027E027E027E01FE01FE01FE01FE01FE018
:1028B00017E00F800400012000A00080006000608D
:1028C000004000600060006000600060008000A0C8
:1028D00001200B6017801FE01FE01FE01FE01FE0DA
:1028E0001FE01FE027E027E027E027E027E027E0C0
:1028F00027E027E027E027E01FE01FE01FE01FE0C0
:102900001FE01FE017E00FA002A0010000A0008060
:1029100000600040004000400060008000C001C036
:102920000EE017E01FE01FE01FE01FE01FE01FE0C8
:102930001FE01FE01FE01FE01FE01FE027E01FE097
:102940001FE01FE01FE01FE01FE01FE01FE01FE08F
:1029500017E00F80034000E000A0008000600060EE
:10296000004000400040004000600060008000A087
:1029700000E002C00F601FE01FE01FE01FE01FE04B
:102980001FE01FE01FE01FE01FE01FE01FE027E047
:1029900027E01FE027E027E01FE01FE01FE01FE027
:1029A0001FE01FE017E00F80022000E000800060C1
:1029B00000600040004000400060008000A0014036
:1029C0000DA017C017E01FE01FE01FE01FE01FE091
:1029D0001FE01FE01FE01FE01FE01FE01FE01FE0FF
:1029E0001FE01FE01FE01FE01FE01FE017E017E0FF
:1029F00017E00F00022000C000800060006000604F
:102A00000040004000400040004000600060008046
:102A100000C001E00EE017E017E01FE01FE01FE03C
:102A20001FE01FE01FE01FE01FE01FE01FE01FE0AE
:102A30001FE01FE01FE01FE01FE01FE01FE01FE09E
:102A40001FE017E00FE00EE0018000C00080006092
:102A5000004000400040004000400060008000E076
:102A600002600F400FC017C017C017C017C017C0B3
:102A700017E017E017E017E017E017E017E017E09E
:102A800017C017E017C017C017C017C017C00FC076
:102A90000F600460012000A0006000600040004062
:102AA00000400040004000400040004000600060E6
:102AB00000A001200CC00F8017C017E017E017E03E
:102AC00017E017E017E017E017E017E017E017E04E
:102AD00017E017E017E017E017E017E017E017C05E
:102AE00017C017C00F80036000E000800060006026
:102AF000004000400040004000400060006000A036
:102B0000010002800DC00E800EC00EE00EE00F002E
:102B10000F000F000F200F200F200F200F200F009D
:102B20000F000F000EE00EE00EC00EA00E4005805C
:102B30000300014000A00080006000400040004011
:102B40000040004000400040004000400040006065
:102B5000008000A0016004000E600F000F200F2015
:102B60000F400F400F400F400F400F400F400F40ED
:102B70000F400F400F400F400F200F200F000EE0BE
:102B80000EC00E000320012000A000800060004065
:102B900000400040004000400040004000600060F5
:102BA000008000E00140018001C001E0020002401D
:102BB00002600260028002A002A002A002A00280C5
:102BC000026002600240020001E001C001600120D9
:102BD00000E000A000800060004000400040004095
:102BE00000400040004000400040004000400040E5
:102BF0000060008000A00100016001C002000240EE
:102C00000260028002A002C002E002E002E002E0F4
:102C100002E002C002C0028002800260022001E0E5
:102C200001A0014000E000A00080006000400040E2
:102C30000040004000400040004000400040006074
:102C40000060008000A000A000C000E000E00100E3
:102C5000010001200120014001400140014001200C
:102C600001200100010000E000E000C000C000A061
:102C700000800060006000400040004000400040D4
:102C80000040004000400040004000400040004044
:102C9000004000600060008000A000C000E000E094
:102CA000010001200120014001400140014001409C
:102CB00001400140014001200100010000E000E06E
:102CC00000C000A0008000600060004000400040A4
:102CD0000040004000200040004000400040004014
:102CE0000040006000600080008000A000A000A004
:102CF00000C000C000C000C000E000C000C000C0B4
:102D000000C000C000A000A000A000800080006003
:102D10000060006000400040004000400040004073
:102D200000400020002000400040004000400040E3
:102D3000004000400060006000800080008000A033
:102D400000A000C000C000C000E000E000E000E023
:102D500000E000C000C000C000C000A000A00080D3
:102D600000800080006000600040004000400040A3
:102D700000400020002000200040004000400040B3
:102D80000040004000600060006000800080008023
:102D9000008000A000A000A000A000A000A000A053
:102DA0000080008000800080008000600060006083
:102DB0000040004000400040004000400040002033
:102DC00000200020002000200020004000400040A3
:102DD0000040004000400060006000600060008033
:102DE00000800080008000A000A000A000A000A043
:102DF00000A000A000A00080008000800080006093
:102E00000060006000400040004000400040004082
:102E10000040002000200020002000400040004032
:102E20000040004000400040004000600060006042
:102E300000600080008000800080008000800080B2
:102E400000800060006000600060006000400040A2
:102E500000400040004000400040004000200020B2
:102E60000020002000200020002000200040004022
:102E70000040004000400040004000400060006012
:102E80000060006000800080008000800080008082
:102E900000800080008000600060006000600060D2
:102EA0000040004000400040004000400040004022
:102EB00000200020002000200020002000200040F2
:102EC0000040004000400040004000400040004002
:102ED00000600060006000600060006000600060F2
:102EE00000600060004000400040004000400040A2
:102EF0000040004000400040004000200020002032
:102F000000200020002000200020002000200020C1
:102F100000400040004000400040004000400040B1
:102F200000400060006000600060006000600060C1
:102F300000600060006000600060004000400040F1
:102F400000400040004000400040004000400020A1
:102F50000020002000200020002000200020004051
:102F60000040004000400040004000400040004061
:102F70000040004000400040004000400040004051
:102F80000040004000400040004000400040004041
:102F900000400040004000200020002000200020D1
:102FA0000020002000200020002000200020002021
:102FB0000040004000400040004000400040004011
:102FC0000040004000400040004000400040004001
:102FD00000400040004000400040004000400040F1
:102FE0000040004000400040004000200020002041
:102FF0000020002000200020002000200040004091
:1030000000400040004000400040004000400060A0
:1030100000600060006000600060006000600060B0
:103020000060006000600040004000400040004040
:103030000040004000400040002000200020002010
:103040000020002000200020002000200020002080
:103050000040004000400040004000400040004070
:103060000060006000600060006000600060006060
:103070000060006000600060006000600040004090
:103080000040004000400040004000400040002060
:1030900000200020002000200020004000400040D0
:1030A00000400040004000400060006000600060A0
:1030B0000080008000800080008000800080008010
:1030C0000080008000600060006000600040004000
:1030D0000040004000400040004000400040002010
:1030E00000200020002000200020002000400040A0
:1030F0000040004000400040004000400060006090
:1031000000600060008000800080008000800080FF
:10311000008000800080008000800060006000600F
:10312000006000400040004000400040004000407F
:1031300000200020002000400040004000400040EF
:10314000004000600060006000800080008000801F
:1031500000A000A000A000A000A000A000A000A06F
:1031600000A000A00080008000800080006000605F
:10317000006000400040004000400040004000204F
:1031800000200020002000200040004000400040BF
:10319000004000400040004000600060008000806F
:1031A0000080008000A000A000A000A000A000A05F
:1031B00000A000A000A000A000A00080008000806F
:1031C000006000600060004000400040004000409F
:1031D000004000200040004000400040004000400F
:1031E0000060006000800080008000A000A000C09F
:1031F00000C000C000E000E000E000E000E000E00F
:1032000000E000C000C000A000A00080008000809E
:10321000006000600040004000400040004000406E
:10322000004000400040004000400040004000409E
:1032300000400040006000600080008000A000A00E
:1032400000A000C000C000E000E000E000E000E0FE
:1032500000E000E000E000C000C000C000A000A04E
:10326000008000800060006000400040004000409E
:10327000004000400040004000400040004000602E
:103280000060008000A000A000C000E000E001009D
:1032900001000120012001400140014001400120C6
:1032A00001200120010000E000E000C000C000A0FB
:1032B000008000600060004000400040004000408E
:1032C00000400040004000400040004000400040FE
:1032D000004000600060008000A000C000C000E06E
:1032E0000100010001200120014001400140014096
:1032F00001400140014001200100010000E000E028
:1033000000C000A00080008000600040004000403D
:10331000004000400040004000400040006000804D
:10332000008000C001200160018001A001E00200D6
:1033300002200240026002600260026002600260DD
:103340000240022001E001E001A0018001600100D3
:1033500000E000A00080006000400040004000400D
:10336000004000400040004000400040004000405D
:103370000060008000A000E00120016001A001E0E9
:1033800002000220024002600280028002A002A02D
:1033900002A00280026002600220020001E001A09F
:1033A0000160012000E000A00080006000400040BB
:1033B000004000400040004000400060006000A06D
:1033C000010001E003800D000D800DC00DE00E0036
:1033D0000E200E400E400E400E600E600E600E403D
:1033E0000E400E000DE00DC00D800D4004C00380A6
:1033F0000200012000A0008000600040004000406A
:10340000004000400040004000400040004000609C
:10341000008000A00100020003E00D600DC00E203E
:103420000E400E400E600E800E800EA00E800E80AC
:103430000EA00E800E600E400E400E200DE00DA07E
:103440000D6004600240012000A000800060004088
:10345000004000400040004000600060008000E04C
:1034600002600EE017A017C017C017C017C017C022
:1034700017C017C017C017C017C017C017C017C094
:1034800017C017C017C017C017C017C017C00FA0AC
:103490000F200380010000A0008000600040004079
:1034A00000400040004000400040004000600080BC
:1034B00000A0010002E00EE017A017C017C017C05F
:1034C00017C017C017C017C017C017C017C017C044
:1034D00017C017C017C017C017C017C017C017C034
:1034E00017C017C00F6003E0012000A0008000603B
:1034F00000400040004000400060008000C001A08B
:103500000E4017C01FE01FE01FE01FE01FE01FE09C
:103510001FE01FE01FE01FE01FE01FE01FE01FE0B3
:103520001FE01FE01FE01FE01FE01FE01FE017E0AB
:1035300017C00EE001E000C0008000600060006085
:1035400000400040004000400040006000600080FB
:1035500000C001A00E4017C01FE01FE01FE01FE0E9
:103560001FE01FE01FE01FE01FE01FE01FE01FE063
:103570001FE01FE01FE01FE01FE01FE01FE01FE053
:103580001FE017E017E00F6001E000E0008000603E
:1035900000400040004000600060008000E0024009
:1035A0000F601FE01FE01FE01FE01FE01FE01FE0B3
:1035B00027E027E027E027E027E027E027E027E0D3
:1035C0001FE027E01FE01FE01FE01FE01FE01FE0FB
:1035D00017E00F60032000E000A0008000600060A2
:1035E000004000400040004000600060008000A0FB
:1035F00000E002800F4017E01FE01FE01FE01FE027
:103600001FE01FE01FE01FE01FE027E027E027E0AA
:103610001FE01FE027E027E01FE01FE01FE01FE0A2
:103620001FE01FE017E00FC002E0010000A00080D3
:103630000060004000400060008000A0010002C067
:1036400017801FE01FE01FE01FE01FE01FE027E0E2
:1036500027E027E027E027E027E027E027E027E032
:1036600027E027E027E01FE01FE01FE01FE01FE04A
:1036700017E00F8003E0012000A0008000800060C0
:10368000006000600060006000600080008000A0BA
:10369000010003200F601FE01FE01FE01FE01FE09C
:1036A0001FE01FE01FE01FE01FE027E027E027E00A
:1036B00027E027E027E01FE01FE01FE01FE01FE0FA
:1036C0001FE01FE017E00FC003E0012000A0008012
:1036D0000060004000400060008000A00120032046
:1036E00017A01FE01FE01FE01FE01FE01FE01FE02A
:1036F00027E027E027E027E027E027E027E027E092
:1037000027E027E027E027E027E01FE01FE01FE099
:1037100017E00FA00460014000C00080008000603E
:10372000006000600060006000600080008000C0F9
:103730000140038017601FE01FE01FE01FE027E04B
:1037400027E01FE027E027E027E027E027E027E049
:1037500027E027E027E027E027E027E01FE01FE041
:103760001FE01FE017E00FC00420016000C00080D0
:103770000060006000600060008000C001400B60DD
:1037800017A01FE01FE01FE01FE01FE027E027E079
:1037900027E027E027E027E027E027E027E027E0F1
:1037A00027E027E027E027E027E01FE01FE01FE0F9
:1037B00017E00FA004A0016000C000A000800080FE
:1037C00000600060006000600080008000A000C019
:1037D00001400BC017801FE01FE01FE01FE027E043
:1037E00027E027E027E027E027E027E027E027E0A1
:1037F00027E027E027E027E027E027E027E01FE099
:103800001FE01FE017E00FC00440016000C000A0EF
:10381000008000600060008000A000C0016003C064
:1038200017A01FE01FE027E027E01FE027E027E0C8
:1038300027E027E027E027E027E027E027E027E050
:1038400027E027E027E027E027E01FE01FE01FE058
:1038500017E00FA004E0016000E000A000800080FD
:1038600000600060006000600080008000A000E058
:10387000016004200F801FE01FE01FE027E027E029
:1038800027E027E027E027E027E027E027E027E000
:1038900027E027E027E027E027E027E027E027E0F0
:1038A0001FE01FE017E00FC00480018000E000A0CF
:1038B000008000600060008000A000E0016003E084
:1038C00017A01FE01FE01FE027E027E027E027E028
:1038D00027E027E027E027E027E027E027E027E0B0
:1038E00027E027E027E027E027E027E01FE01FE0B0
:1038F00017E00FA0050001A000E000C000A00080BC
:103900000080006000600060008000A000C000E057
:1039100001800C4017801FE01FE01FE01FE027E040
:1039200027E027E027E027E027E027E027E027E05F
:1039300027E027E027E027E027E027E027E027E04F
:103940001FE01FE017E00FC004C001A000E000A0CE
:10395000008000600060008000A000E001600400C2
:1039600017A01FE01FE027E027E027E027E027E07F
:1039700027E027E027E027E027E027E027E027E00F
:1039800027E027E027E027E027E027E01FE01FE00F
:1039900017E00FA00D4001A0010000C000A00080B2
:1039A0000080006000800080008000A000C000E077
:1039B00001A00C8017801FE01FE027E027E027E030
:1039C00027E027E027E027E027E02FE027E027E0B7
:1039D00027E027E027E027E027E027E027E027E0AF
:1039E00027E01FE01FE00FC004C001A000E000C0FE
:1039F000008000600060008000A000E00180040002
:103A000017A01FE01FE027E027E027E027E027E0DE
:103A100027E027E027E027E02FE027E027E027E066
:103A200027E027E027E027E027E027E01FE01FE06E
:103A300017E00FA0054001C0010000C000A00080F9
:103A40000080008000800080008000A000C0010095
:103A500001A00CA017801FE01FE027E027E027E06F
:103A600027E027E027E027E027E02FE02FE027E00E
:103A700027E027E027E027E027E027E027E027E00E
:103A80001FE01FE01FE00FC004E001C0010000C004
:103A9000008000600060008000C000E001A0040021
:103AA00017A01FE027E027E027E027E027E027E036
:103AB00027E027E02FE02FE02FE02FE027E02FE0A6
:103AC0002FE027E027E027E027E027E01FE01FE0C6
:103AD00017E00FA0056001E0012000E000A000A0B9
:103AE0000080008000800080008000A000C00100F5
:103AF00001A00CC017801FE01FE027E027E027E0AF
:103B000027E027E027E027E027E02FE02FE027E06D
:103B100027E027E027E027E027E027E027E027E06D
:103B20001FE01FE01FE00FC004E001C0010000C063
:103B3000008000600060008000C000E001A003E0A1
:103B400017A01FE01FE027E027E027E027E027E09D
:103B500027E027E02FE02FE02FE02FE027E02FE005
:103B600027E027E027E027E027E027E01FE01FE02D
:103B700017E00FA0056001C0010000E000A000A058
:103B80000080008000800080008000A000E0010034
:103B900001C00CC017801FE01FE027E027E027E0EE
:103BA00027E027E027E027E027E02FE02FE02FE0C5
:103BB0002FE027E027E027E027E027E027E027E0C5
:103BC00027E01FE01FE00FC004E001C0010000C0BB
:103BD00000A000800060008000C000E0018003E0E1
:103BE00017801FE027E01FE027E027E027E027E01D
:103BF00027E02FE02FE02FE02FE02FE02FE027E05D
:103C000027E027E027E027E027E027E01FE01FE08C
:103C10001FE00FA0056001C0010000E000A000A0AF
:103C2000008000800080008000A000A000E0010073
:103C300001C00CE017A01FE01FE027E027E027E00D
:103C400027E027E027E02FE02FE02FE02FE02FE014
:103C500027E027E027E027E027E027E027E027E02C
:103C600027E01FE01FE00FC004E001C0010000C01A
:103C700000A000800060008000C000E0018003E040
:103C800017801FE01FE027E027E027E027E027E07C
:103C900027E02FE027E02FE02FE02FE02FE02FE0BC
:103CA00027E027E027E027E027E027E01FE01FE0EC
:103CB00017E00FA0058001C0010000E000A0008017
:103CC0000080008000800080008000A000C0010013
:103CD00001C00CE017A01FE01FE027E027E027E06D
:103CE00027E027E027E027E027E02FE02FE02FE084
:103CF00027E02FE027E027E027E027E027E027E084
:103D000027E01FE01FE00FC004C001C0010000C099
:103D1000008000800060008000A000E0016003C01F
:103D200017801FE01FE01FE027E027E027E027E0E3
:103D300027E027E027E02FE02FE02FE027E027E033
:103D400027E027E027E027E027E027E01FE01FE04B
:103D500017E00FA0056001C0010000E000A0008096
:103D60000080008000800080008000A000C0010072
:103D700001C00CE017A01FE01FE027E027E027E0CC
:103D800027E027E027E027E027E02FE02FE027E0EB
:103D90002FE02FE02FE027E027E027E027E027E0D3
:103DA00027E01FE017E00FC0048001C0010000C041
:103DB000008000600060008000A000E0016003A0BF
:103DC0000F801FE01FE01FE027E027E027E027E04B
:103DD00027E027E027E027E02FE027E027E027E0A3
:103DE00027E027E027E027E027E027E01FE01FE0AB
:103DF0001FE00FA0056001C0010000C000A000800E
:103E00000080008000800080008000A000C00100D1
:103E100001A00CE017A01FE01FE027E027E027E04B
:103E200027E027E027E027E027E027E027E027E05A
:103E30002FE02FE027E027E027E027E027E027E03A
:103E40001FE01FE017E00FC0044001A000E000C029
:103E5000008000600060008000A000E0016003803E
:103E60000F801FE027E01FE027E027E027E027E0A2
:103E700027E027E027E027E027E027E027E027E00A
:103E800027E027E027E027E027E027E01FE01FE00A
:103E90001FE00FA0054001A0010000C000A00080AD
:103EA0000080008000600080008000A000C000E072
:103EB00001A00CC017A01FE027E027E027E027E0C3
:103EC00027E027E027E027E027E027E027E027E0BA
:103ED00027E027E027E027E027E027E027E027E0AA
:103EE0001FE01FE017E00FC00400018000E000A009
:103EF000008000600060008000A000C0014003401E
:103F000017601FE01FE01FE027E027E027E027E021
:103F100027E027E027E027E027E027E027E027E069
:103F200027E027E027E027E027E01FE01FE01FE071
:103F300017E00FA0052001A000E000C000A0008055
:103F40000080006000600060008000A000C000E011
:103F500001800C8017801FE01FE01FE027E027E0B2
:103F600027E027E027E027E027E027E027E027E019
:103F700027E027E027E027E027E027E027E027E009
:103F80001FE01FE017E00FC003E0016000E000A0A9
:103F90000080006000600080008000C001200300FD
:103FA0000F601FE01FE01FE01FE027E027E027E091
:103FB00027E027E027E027E027E027E027E027E0C9
:103FC00027E027E027E027E027E01FE01FE01FE0D1
:103FD00017E00FA00500016000E000A00080008055
:103FE00000600060006000600080008000A000E0D1
:103FF0000160046017801FE01FE01FE027E027E05A
:1040000027E027E027E027E027E027E027E027E078
:1040100027E027E027E027E027E027E027E027E068
:104020001FE01FE017E00FC00380016000C000A088
:104030000080006000600060008000A0012002C0DD
:104040000F601FE01FE01FE01FE027E027E027E0F0
:1040500027E027E027E027E027E027E027E027E028
:1040600027E027E027E027E027E027E01FE01FE028
:1040700017E00FA004C0016000C000A00080008015
:1040800000600060006000600080008000A000C050
:1040900001600C2017801FE01FE01FE01FE01FE001
:1040A00027E027E027E027E027E027E027E027E0D8
:1040B00027E027E027E027E027E027E01FE01FE0D8
:1040C0001FE01FE017E00FC00360014000C0008048
:1040D0000080006000400060008000A001000280BD
:1040E0000F401FE01FE01FE01FE01FE027E027E078
:1040F00027E027E027E027E027E027E027E027E088
:1041000027E027E027E027E027E01FE01FE01FE08F
:1041100017E00FA00480014000C000A000800060F4
:10412000006000600060006000600080008000C0EF
:10413000014003E017801FE01FE01FE01FE01FE0C9
:104140001FE027E027E027E027E027E027E027E03F
:1041500027E027E027E027E027E01FE01FE01FE03F
:104160001FE01FE017E00FA002E0012000A0008088
:1041700000600060004000600060008000E00220FD
:104180000F201FE01FE01FE01FE01FE01FE027E0FF
:104190001FE01FE027E027E027E027E027E01FE0FF
:1041A00027E01FE01FE01FE01FE01FE01FE01FE00F
:1041B00017E00FA00420012000A000800080006014
:1041C000006000600060006000600060008000A08F
:1041D00001200B6017801FE01FE01FE01FE01FE0C1
:1041E0001FE01FE01FE027E027E027E027E027E0AF
:1041F00027E027E027E027E01FE01FE01FE01FE0A7
:104200001FE01FE017E00FA002A0010000A0008047
:1042100000600040004000400060008000C001C01D
:104220000EE017E01FE01FE01FE01FE01FE01FE0AF
:104230001FE01FE01FE01FE01FE01FE01FE01FE086
:104240001FE01FE01FE01FE01FE01FE01FE01FE076
:1042500017E00F80034000E000A0008000600060D5
:10426000004000400040004000600060008000A06E
:1042700000E002C00F601FE01FE01FE01FE01FE032
:104280001FE01FE01FE01FE01FE01FE01FE01FE036
:104290001FE01FE01FE027E01FE01FE01FE01FE01E
:1042A0001FE01FE017E00F80022000E000800060A8
:1042B00000600040004000400060008000A001401D
:1042C0000D8017C017E01FE01FE01FE01FE01FE098
:1042D0001FE01FE01FE01FE01FE01FE01FE01FE0E6
:1042E0001FE01FE01FE01FE01FE01FE017E017E0E6
:1042F0000FE00F00022000C000800060006000405E
:10430000004000400040004000400060006000802D
:1043100000C001E00F0017E01FE01FE01FE01FE0FA
:104320001FE01FE01FE01FE01FE01FE01FE01FE095
:104330001FE01FE01FE01FE01FE01FE01FE01FE085
:1043400017E017E017E00EE0018000C00080006079
:10435000004000400040004000400060008000E05D
:1043600002600F4017C017C017C017C017E017E052
:1043700017E017E017E017E017E017E017E017C0A5
:1043800017C017E017C017C017C017C017C00FC05D
:104390000F600480012000A0006000600040004029
:1043A00000400040004000400040006000600060AD
:1043B00000A001400D000F8017C017E017E017E0C4
:1043C00017E017E017E017E017E017E017E017E035
:1043D00017E017E017E017E017E017E017E017E025
:1043E00017C00FC00F8003A00100008000600060B4
:1043F000004000400040004000400040006000A03D
:10440000010002600DC00E800EC00EE00EE00F0035
:104410000F000F000F200F200F200F200F200F0084
:104420000F000F000EE00EE00EC00EA00E60058023
:104430000300014000A000800060004000400040F8
:10444000004000400040004000400040004000604C
:10445000008000C0016004000E600F000F200F20DC
:104460000F400F400F400F400F400F400F400F40D4
:104470000F400F400F400F400F200F200F000EE0A5
:104480000EC00E000320012000A00080006000404C
:1044900000400040004000400040004000600060DC
:1044A000008000E00140018001C001E00200022024
:1044B00002400260028002A002A002A002A00280CC
:1044C000028002600220020001E001C00180014080
:1044D00000E000A00080006000400040004000407C
:1044E00000400040004000400040004000400040CC
:1044F0000060008000A00100016001C002000240D5
:104500000260028002A002C002E002E002E002E0DB
:1045100002E002E002C002A002800260022001E08C
:1045200001A0014000E000A00080006000400040C9
:10453000004000400040004000400040004000605B
:104540000060008000A000A000C000E000E00100CA
:1045500001000120012001400140014001400120F3
:1045600001200120010000E000E000C000C000A028
:1045700000800060006000400040004000400040BB
:10458000004000400040004000400040004000402B
:10459000004000600060008000A000C000E000E07B
:1045A0000100012001200140014001400140014083
:1045B00001400140014001200100010000E000E055
:1045C00000C000A00080006000600040004000408B
:1045D00000400040002000400040004000400040FB
:1045E00000600060006000800080008000A000A0EB
:1045F00000C000C000C000C000E000E000C000C07B
:1046000000C000C000A000A000A0008000800060EA
:10461000006000600040004000400040004000405A
:1046200000400020002000400040004000400040CA
:10463000004000400060006000800080008000A01A
:1046400000A000C000C000C000E000E000E000E00A
:1046500000E000E000C000C000C000A000A000809A
:10466000008000800060006000400040004000408A
:10467000004000200020004000400040004000407A
:10468000004000400060006000600060008000802A
:104690000080008000A000A000A000A000A000A05A
:1046A000008000800080008000800060006000606A
:1046B000004000400040004000400040004000201A
:1046C000002000200020002000200040004000408A
:1046D00000400040004000600060006000800080FA
:1046E00000800080008000A000A000A000A000A02A
:1046F00000A000A000A0008000800080008000607A
:104700000060006000400040004000400040004069
:104710000040002000200020002000400040004019
:104720000040004000400040004000600060006029
:1047300000600060008000800080008000800080B9
:104740000080006000600060006000600040004089
:104750000040004000400040004000400020002099
:104760000020002000200020002000200040004009
:1047700000400040004000400040004000600060F9
:104780000060006000800080008000800080008069
:1047900000800080008000600060006000600060B9
:1047A0000040004000400040004000400040002029
:1047B00000200020002000200020002000400040B9
:1047C00000400040004000400040004000400040E9
:1047D00000600060006000600060006000600060D9
:1047E0000060006000600040004000400040004069
:1047F0000040004000400040002000200020002039
:1048000000200020002000200020002000200020A8
:104810000040004000400040004000400040004098
:1048200000400060006000600060006000600060A8
:1048300000600060006000600060004000400040D8
:104840000040004000400040004000400040002088
:104850000020002000200020002000200020002058
:104860000040004000400040004000400040004048
:104870000040004000400040004000400040004038
:104880000040004000400040004000400040004028
:104890000040004000400040002000200020002098
:1048A0000020002000200020002000200020002008
:1048B00000400040004000400040004000400040F8
:1048C00000400040004000400040004000400040E8
:1048D00000400040004000400040004000400040D8
:1048E0000040004000400040004000200020002028
:1048F0000020002000200020002000200040004078
:104900000040004000400040004000400040006087
:104910000060006000600060006000600060006097
:104920000060006000600040004000400040004027
:1049300000400040004000400020002000200020F7
:104940000020002000200020002000200020004047
:104950000040004000400040004000400040004057
:104960000060006000600060006000600060006047
:104970000060006000600060006000600040004077
:104980000040004000400040004000400020002067
:1049900000200020002000200020004000400040B7
:1049A0000040004000400040006000600060006087
:1049B00000800080008000800080008000800080F7
:1049C00000800080006000600060006000400040E7
:1049D0000040004000400040004000400020002017
:1049E0000020002000200020002000200040004087
:1049F0000040004000400040004000400060006077
:104A000000600060008000800080008000800080E6
:104A10000080008000800080006000600060006016
:104A20000040004000400040004000400040004086
:104A300000200020002000400040004000400040D6
:104A40000040004000600060006000800080008046
:104A500000A000A000A000A000A000A000A000A056
:104A600000A000A000800080008000800060006046
:104A70000060004000400040004000400040002036
:104A800000200020002000200040004000400040A6
:104A90000040004000400040006000600080008056
:104AA0000080008000A000A000A000A000A000A046
:104AB00000A000A000A000A0008000800080008076
:104AC0000060006000600040004000400040004086
:104AD0000040002000200040004000400040004016
:104AE0000060006000800080008000A000A000C086
:104AF00000C000C000E000E000E000E000E000E0F6
:104B000000E000C000C000A000A000800080008085
:104B10000060006000400040004000400040004055
:104B20000040004000400040004000400040004085
:104B300000400040006000600080008000A000A0F5
:104B400000A000C000C000E000E000E000E000E0E5
:104B500000E000E000E000C000C000A000A000A055
:104B60000080008000600060004000400040004085
:104B70000040002000400040004000400040006035
:104B80000060008000A000A000C000E000E0010084
:104B900001000120012001400140014001400120AD
:104BA00001200120010000E000E000C000C000A0E2
:104BB0000080008000600040004000400040004055
:104BC00000400040004000400040004000400040E5
:104BD000004000600060008000A000C000C000E055
:104BE000010001000120012001400140014001407D
:104BF00001400140014001200100010000E000C02F
:104C000000C000A000800060006000600040004024
:104C10000040004000400040004000400060008034
:104C2000008000C001000160018001A001E00200DD
:104C300002200240026002600260026002600240E4
:104C400002400220020001E001A001800160012079
:104C500000E000A0008000600040004000400040F4
:104C60000040004000400040004000400040004044
:104C70000060008000A000E00120016001A001E0D0
:104C800002000220024002600280028002A0028034
:104C900002800280026002400220020001C001A0E6
:104CA0000160012000E000A00080006000400040A2
:104CB000004000400040004000400060006000A054
:104CC000010001E003600D000D600DC00DE00E005D
:104CD0000E200E400E400E400E400E600E600E4044
:104CE0000E400E000DE00DE00DA00D4004C003804D
:104CF0000200012000A00080006000400040004051
:104D00000040004000400040004000400040006083
:104D1000006000A00100020003E00D400DC00E2065
:104D20000E200E400E600E800E800EA00EA00E8093
:104D30000E800E800E600E400E400E200DE00DA085
:104D40000D4004600220012000A0008000600040AF
:104D5000004000400040004000600060008000E033
:104D600002400EA017A017C017C017C017C017C069
:104D700017C017C017C017C017C017C017C017C07B
:104D800017C017C017C017C017C017C017C00FA093
:104D90000F000360010000A00080006000400040A0
:104DA00000400040004000400040004000600060C3
:104DB0000080010002A00EC017A017C017C017C0C6
:104DC00017C017C017C017C017C017C017C017C02B
:104DD00017C017C017C017C017C017C017C017C01B
:104DE00017C017C00F600380010000A000600060C2
:104DF00000400040004000400060008000A00160D2
:104E00000DE017C01FE01FE01FE01FE01FE01FE0E4
:104E10001FE01FE01FE01FE01FE01FE01FE01FE09A
:104E20001FE01FE01FE01FE01FE01FE01FE017E092
:104E300017C00EC001C000C00080006000600040CC
:104E400000400040004000400040006000600080E2
:104E500000C001A00E4017C01FE01FE01FE01FE0D0
:104E60001FE01FE01FE01FE01FE01FE01FE01FE04A
:104E70001FE01FE01FE01FE01FE01FE01FE01FE03A
:104E80001FE017E017E00F4001C000C00080006085
:104E900000400040004000600060008000E0022010
:104EA0000F401FE01FE01FE01FE01FE01FE01FE0BA
:104EB0001FE01FE027E027E027E027E027E027E0CA
:104EC00027E01FE01FE01FE01FE01FE01FE01FE0E2
:104ED00017E00F60030000E000A0008000600060A9
:104EE0000040004000400040006000600080008002
:104EF00000E002600F2017E01FE01FE01FE01FE04E
:104F00001FE027E027E01FE027E027E027E027E079
:104F100027E027E027E01FE01FE01FE01FE01FE081
:104F20001FE01FE017E00FC002C000E000A000601B
:104F30000060004000400060008000A0010002A06E
:104F40000F801FE01FE01FE01FE01FE01FE01FE0D9
:104F50001FE01FE027E027E027E027E027E027E029
:104F600027E027E01FE01FE01FE01FE01FE01FE039
:104F700017E00F8003C0012000A0008000600060E7
:104F8000006000600060006000600060008000A0C1
:104F9000010003200F601FE01FE01FE01FE027E07B
:104FA00027E027E027E027E01FE027E027E027E0D1
:104FB00027E027E027E027E027E01FE01FE01FE0D1
:104FC0001FE01FE017E00FC00380012000A0008059
:104FD0000060004000400060008000A0012002E06E
:104FE00017801FE01FE01FE01FE01FE027E027E021
:104FF00027E027E027E027E027E027E027E027E079
:1050000027E027E027E027E01FE01FE01FE01FE088
:1050100017E00F800420014000C000800080006085
:10502000006000600060006000600080008000C0E0
:10503000014003600F601FE01FE01FE01FE027E05A
:1050400027E027E027E027E027E027E027E027E028
:1050500027E027E027E027E027E027E027E01FE020
:105060001FE01FE017E00FC003C0014000C0008038
:105070000060006000600060008000C0014003200C
:1050800017801FE01FE01FE01FE01FE027E027E080
:1050900027E027E027E027E027E027E027E027E0D8
:1050A00027E027E027E027E027E01FE01FE01FE0E0
:1050B00017E00FA00480016000C000A00080008005
:1050C00000600060006000600080008000A000C000
:1050D00001400BC017801FE01FE01FE01FE01FE032
:1050E00027E027E027E027E027E027E027E027E088
:1050F00027E027E027E027E027E027E027E01FE080
:105100001FE01FE017E00FC00400016000C000A016
:105110000080006000600080008000C001400B60E3
:1051200017801FE01FE01FE027E027E027E027E0CF
:1051300027E027E027E027E027E027E027E027E037
:1051400027E027E027E027E027E01FE01FE01FE03F
:1051500017E00FA004C0016000E000A00080008004
:1051600000600060006000600080008000A000E03F
:10517000016003E017801FE01FE01FE01FE027E051
:1051800027E027E027E027E027E027E027E027E0E7
:1051900027E027E027E027E027E027E01FE01FE0E7
:1051A0001FE01FE017E00FC00440018000E000A0F6
:1051B000008000600060008000A000C001400B6023
:1051C00017801FE01FE01FE027E027E027E027E02F
:1051D00027E027E027E027E027E027E027E027E097
:1051E00027E027E027E027E027E01FE01FE01FE09F
:1051F00017E00FA004E0018000E000C000A00080E4
:105200000080006000600080008000A000A000E03E
:1052100001800C2017801FE01FE027E027E027E037
:1052200027E027E027E027E027E027E027E027E046
:1052300027E027E027E027E027E027E027E027E036
:105240001FE01FE01FE00FC00480018000E000A00D
:10525000008000600060008000A000E001600BA002
:1052600017801FE01FE027E027E027E027E027E086
:1052700027E027E027E027E027E027E027E027E0F6
:1052800027E027E027E027E027E027E01FE01FE0F6
:1052900017E00FA0052001A0010000C000A00080C1
:1052A0000080006000600080008000A000C000E07E
:1052B00001800C4017801FE01FE027E027E027E077
:1052C00027E027E027E027E027E027E027E027E0A6
:1052D00027E027E027E027E027E027E027E01FE09E
:1052E0001FE01FE01FE00FC0048001A000E000A04D
:1052F000008000600060008000A000E001600BC042
:1053000017801FE01FE01FE027E027E027E027E0ED
:1053100027E027E027E027E027E027E027E02FE04D
:1053200027E027E027E027E027E027E027E01FE04D
:1053300017E00FA0054001C0010000C000A00080E0
:105340000080008000800080008000A000C001007C
:1053500001A00C8017801FE01FE027E027E027E076
:1053600027E027E027E027E027E027E027E027E005
:1053700027E027E027E027E027E027E027E027E0F5
:105380001FE01FE017E00FC0048001A0010000C073
:10539000008000600060008000A000E0018003C089
:1053A00017801FE01FE027E027E027E027E027E045
:1053B00027E027E027E027E027E027E027E027E0B5
:1053C00027E027E027E027E027E027E01FE01FE0B5
:1053D00017E00FA0054001C0010000C000A0008040
:1053E0000080008000800080008000A000C00100DC
:1053F00001A00CC017801FE01FE027E027E027E096
:1054000027E027E027E027E027E027E027E027E064
:1054100027E027E027E027E027E027E027E027E054
:105420001FE01FE01FE00FC0048001A0010000C0CA
:10543000008000600060008000C000E0018003C0C8
:1054400017801FE01FE027E027E027E027E027E0A4
:1054500027E02FE02FE02FE02FE02FE027E027E0EC
:1054600027E027E027E027E027E027E027E01FE00C
:1054700017E00FA00D6001C0010000E000A0008057
:105480000080008000800080008000A000C001003B
:1054900001C00CC017801FE01FE027E027E027E0D5
:1054A00027E027E027E027E027E02FE02FE02FE0AC
:1054B00027E02FE027E027E027E027E027E027E0AC
:1054C00027E01FE01FE00FC0048001A0010000C022
:1054D000008000600060008000C000E0018003E008
:1054E00017801FE01FE027E027E027E027E027E004
:1054F0002FE02FE027E027E02FE02FE02FE027E04C
:1055000027E027E027E027E027E027E027E01FE06B
:1055100017E00FA00D6001C0010000E000A000A096
:105520000080008000800080008000A000C001009A
:1055300001A00CC017801FE01FE027E027E027E054
:1055400027E027E027E027E027E02FE02FE02FE00B
:105550002FE02FE02FE027E027E027E027E027E0FB
:1055600027E01FE01FE00FC0048001A0010000C081
:10557000008000600060008000A000E0018003C0A7
:1055800017801FE01FE01FE027E027E027E027E06B
:105590002FE02FE02FE027E02FE02FE02FE027E0A3
:1055A00027E027E027E027E027E027E01FE01FE0D3
:1055B00017E00FA00D6001C0010000E000A0008016
:1055C0000080008000800080008000A000C00100FA
:1055D00001C00CC017801FE01FE027E027E027E094
:1055E00027E027E027E02FE02FE02FE02FE02FE05B
:1055F0002FE02FE02FE027E027E027E027E027E05B
:1056000027E01FE01FE00FC0046001A0010000C000
:10561000008000600060008000A000E0016003A046
:105620000F801FE01FE01FE027E027E027E027E0D2
:1056300027E02FE027E027E02FE02FE027E027E01A
:1056400027E027E027E027E027E027E01FE01FE032
:1056500017E00FA0054001C0010000C000A00080BD
:105660000080008000800080008000A000C0010059
:1056700001A00CC017801FE01FE027E027E027E013
:1056800027E027E027E02FE02FE02FE02FE02FE0BA
:105690002FE02FE027E027E027E027E027E027E0C2
:1056A00027E01FE01FE00FC0044001A0010000C080
:1056B000008000600060008000A000E001600360E6
:1056C0000F601FE01FE027E027E027E027E027E04A
:1056D00027E027E027E027E027E02FE027E027E08A
:1056E00027E027E027E027E027E027E01FE01FE092
:1056F00017E00FA00D4001A0010000C000A0008035
:105700000080008000800080008000A000C000E0D9
:1057100001A0048017801FE01FE027E027E027E0BA
:1057200027E027E027E027E027E027E02FE02FE031
:105730002FE027E027E027E027E027E027E027E029
:1057400027E01FE01FE00FC0040001A000E000A060
:10575000008000600060008000A000C001400340A5
:105760000F601FE01FE01FE027E027E027E027E0B1
:1057700027E027E027E027E027E027E027E027E0F1
:1057800027E027E027E027E027E027E027E01FE0E9
:105790001FE00FA0054001A0010000C000A0008094
:1057A0000080006000600080008000A000C000E079
:1057B00001A00C8017801FE01FE01FE027E027E01A
:1057C00027E027E027E027E027E02FE027E027E099
:1057D00027E027E027E027E027E027E027E027E091
:1057E0001FE01FE01FE00FC003E0018000E000A009
:1057F000008000600060008000A000C0014002E066
:105800000F601FE01FE01FE027E027E027E027E010
:1058100027E027E027E027E027E027E027E027E050
:1058200027E027E027E027E027E01FE01FE01FE058
:1058300017E00FA0052001A000E000C000A000803C
:105840000060006000600060008000A000A000E038
:1058500001800C4017801FE01FE01FE01FE027E0E1
:1058600027E027E027E027E027E027E027E027E000
:1058700027E027E027E027E027E027E027E027E0F0
:105880001FE01FE017E00FC003C0016000E000A0B0
:105890000080006000600060008000C0012002C045
:1058A0000F401FE01FE01FE027E027E027E027E090
:1058B00027E027E027E027E027E027E027E027E0B0
:1058C00027E027E027E027E027E01FE01FE01FE0B8
:1058D00017E00FA004E0016000E000A0008000805D
:1058E00000600060006000600080008000A000E0B8
:1058F00001600C2017801FE01FE01FE027E027E079
:1059000027E027E027E027E027E027E027E027E05F
:1059100027E027E027E027E027E027E027E01FE057
:105920001FE01FE017E00FC00360014000C000A0AF
:105930000080006000400060008000A0010002A024
:105940000F401FE01FE01FE01FE01FE027E027E0FF
:1059500027E027E027E027E027E027E027E027E00F
:1059600027E027E027E027E027E01FE01FE01FE017
:1059700017E00FA004A0016000C000A0008000801C
:1059800000600060006000600080008000A000C037
:10599000016003E017801FE01FE01FE01FE027E029
:1059A00027E027E027E027E027E027E027E027E0BF
:1059B00027E027E027E027E027E027E027E01FE0B7
:1059C0001FE01FE017E00FA00300012000C00080CF
:1059D0000080006000400060008000A001000260C4
:1059E0000F201FE01FE01FE01FE01FE01FE027E087
:1059F00027E027E027E027E027E027E027E027E06F
:105A000027E027E01FE027E027E01FE01FE01FE07E
:105A100017E00FA00480014000C000A000800060DB
:105A2000006000600060006000600080008000C0D6
:105A3000014003C00F801FE01FE01FE01FE01FE0D8
:105A400027E027E027E027E027E027E027E027E01E
:105A500027E027E027E027E027E01FE01FE01FE026
:105A60001FE01FE017E00FA002C0012000A000808F
:105A700000600060004000600060008000E0020004
:105A80000F001FE01FE01FE01FE01FE01FE01FE00E
:105A90001FE027E027E027E027E027E027E027E0D6
:105AA00027E027E027E01FE01FE01FE01FE01FE0E6
:105AB00017E00FA00400012000A00080006000603B
:105AC000006000600040006000600060008000A096
:105AD0000120036017601FE01FE01FE01FE01FE0D0
