:020000040800F2
:1000000068070020CD010008D5010008D7010008CD
:10001000D9010008DB010008DD0100080000000034
:10002000000000000000000000000000DF010008E8
:10003000E101000800000000E3010008E5010008FC
:10004000E7010008E7010008E70100088D0F00083C
:10005000E7010008E701000899030008E70100082C
:10006000E7010008E103000891040008E701000827
:10007000E7010008E7010008E7010008E7010008C0
:10008000E7010008E7010008E7010008E7010008B0
:10009000E7010008E7010008E7010008E7010008A0
:1000A000E7010008E7010008E7010008E701000890
:1000B000E7010008E7010008E7010008E701000880
:1000C000E7010008E7010008E7010008E701000870
:1000D000E7010008C1130008E7010008E701000874
:1000E000E7010008E7010008E7010008E701000850
:1000F000E7010008E7010008E7010008E701000840
:10010000E7010008E7010008E7010008E70100082F
:10011000E7010008E7010008E7010008E70100081F
:10012000E7010008E7010008E7010008E70100080F
:1001300000F002F800F03AF80AA090E8000C8244BF
:100140008344AAF10107DA4501D100F02FF8AFF29C
:10015000090EBAE80F0013F0010F18BFFB1A43F0A5
:10016000010318471416000034160000103A24BF8B
:1001700078C878C1FAD8520724BF30C830C144BF0C
:1001800004680C607047000000230024002500264E
:10019000103A28BF78C1FBD8520728BF30C148BFEA
:1001A0000B6070471FB51FBD10B510BD00F033F8D0
:1001B0001146FFF7F7FF01F0D2FA00F051F803B44F
:1001C000FFF7F2FF03BC01F05AFA0000094880472C
:1001D00009480047FEE7FEE7FEE7FEE7FEE7FEE729
:1001E000FEE7FEE7FEE7FEE704480549054A064B41
:1001F0007047000011130008310100086801002059
:1002000068070020680300206803002070477047DB
:10021000704770477047754600F02CF8AE460500F1
:100220006946534620F00700854618B020B5FFF711
:10023000DBFFBDE820404FF000064FF000074FF015
:1002400000084FF0000B21F00701AC46ACE8C009F4
:10025000ACE8C009ACE8C009ACE8C0098D467047FD
:1002600010B50446AFF300802046BDE81040FFF70C
:10027000A6BF0000004870470401002010B501200F
:1002800000F02CFD002000F029FD10BD08B501464E
:1002900000200090034800900098084400900098C7
:1002A000008808BD006C004008B500220092044A96
:1002B0000092009A02440092009A116008BD00006A
:1002C000006C00402DE9F04103460C461546032C16
:1002D00004DA04F10C00C4B2581E83B2642093FB0C
:1002E000F0F0C1B2642093FBF0F600FB163083B24D
:1002F000671C4FF01A0C07FB0CF74FF00A0C97FB2A
:10030000FCF74FEAE37C03EB9C7C03EBAC0C4FEA7D
:10031000E17801EB98780CEBA80C4FF0020808FB91
:1003200011CC67442F447F1E3AB2002A09DA5042AA
:10033000072690FBF6F706FB1700C0F1070002B294
:1003400004E0072092FBF0F600FB1622D0B2BDE8D5
:10035000F081000010B56FF0040000F0C5FF0A48FE
:1003600000680A49B0FBF1F00949087008460078B6
:1003700000EB4001C1EBC0104FF6FF7101EAC00075
:100380000449088010BD00001C00002000127A0003
:10039000000000200200002010B5012000F00AF942
:1003A000C8B10A2001F08EF901210B4800F067FA6C
:1003B00001280DD109480078401CC0B207490870D7
:1003C000062801DD012008700448007801F05AF980
:1003D000012000F0B5F810BD000801400600002023
:1003E0001CB5082000F0E6F800284AD00A2001F0E9
:1003F00069F90821234800F042FA00283ED1012083
:1004000001F040F920480078072829D2DFE800F001
:1004100028221C16100A04001C488088401C1B4916
:1004200088801DE019488079401C1849887117E0C0
:100430001648C079401C1549C87111E0134800786E
:10044000401C124908700BE010484078401C0F49CE
:10045000487005E00D488078401C0C49887000BF4A
:1004600000BF0A48807809494978084CCDE9001056
:100470002378E279A179A08800F0B2FD082000F08D
:100480005FF81CBD0018014006000020F8000020A5
:100490001CB5102000F08EF800284AD00A2001F088
:1004A00011F91021234800F0EAF900283ED101207B
:1004B00001F0E8F820480078072829D2DFE800F0AA
:1004C00028221C16100A04001C488088401E1B4964
:1004D00088801DE019488079401E1849887117E00E
:1004E0001648C079401E1549C87111E013480078BC
:1004F000401E124908700BE010484078401E0F491A
:10050000487005E00D488078401E0C49887000BF97
:1005100000BF0A48807809494978084CCDE90010A5
:100520002378E279A179A08800F05AFD102000F02C
:1005300007F81CBD0018014006000020F80000204C
:100540000149086070470000140401401CB50121F6
:10055000084600F0A3FB0021084600F0E5F8012062
:10056000009000208DF8040008208DF805006846F2
:1005700000F034F80321042000F0D6F808200090A1
:1005800000208DF804000C208DF80500684600F06E
:1005900025F80421084600F0C7F81020009000203C
:1005A0008DF804000C208DF80500684600F016F860
:1005B0001CBD0000014600200022074B1B6803EA17
:1005C0000102054B14331B680B4013B10AB1012023
:1005D00000E0002070470000000401400021234992
:1005E0008279002A3AD00A46126803689A430B4679
:1005F0001A600A1D126803689A430B1D1A6002797B
:1006000011440A6803681A430A60184A08321268DB
:1006100003689A43154B08331A601A1D1268036861
:100620009A43124B0C331A604279102A0ED11A1FCA
:10063000126803681A430D4B08331A601A1D1268BA
:1006400003681A43094B0C331A600DE007494279DD
:1006500011440A6803681A430A6005E002791144EC
:100660000A6803689A430A6070470000000401406A
:1006700008B50121CC2000F011FB4FF40070ADF85B
:10068000000003208DF8020018208DF80300694651
:10069000214800F069F84FF48060ADF800000420B4
:1006A0008DF8030069461C4800F05EF84FF4807036
:1006B000ADF8000001208DF8020010208DF8030035
:1006C0006946164800F050F84FF48071134800F066
:1006D000DFF81820ADF8000048208DF803006946C7
:1006E0000F4800F041F80120ADF8000028208DF8F7
:1006F00003006946084800F037F8F720ADF800001D
:1007000003208DF8020010208DF80300694605488B
:1007100000F02AF808BD000000080140000C01406C
:1007200000180140001C014030B500228B071C0F4F
:100730000F2303FA04F20B4B8C1053F8243093432D
:10074000084C8D1044F8253023468C1053F8243083
:100750008C07240F00FA04F42343024C8D1044F854
:10076000253030BD080001402DE9F041024600254A
:100770000026002000230024002791F803C00CF07D
:100780000F0591F803C00CF0100CBCF1000F03D062
:1007900091F802C04CEA050591F800C0BCF1000FC9
:1007A00031D0146800202BE04FF0010C0CFA00F35C
:1007B000B1F800C00CEA03069E4220D183004FF03E
:1007C0000F0C0CFA03F7BC4305FA03FC4CEA0404D3
:1007D00091F803C0BCF1280F06D14FF0010C0CFAC0
:1007E00000FCC2F814C00AE091F803C0BCF1480F45
:1007F00005D14FF0010C0CFA00FCC2F810C0401CEF
:100800000828D1D31460B1F800C0BCF1FF0F34DD6B
:10081000546800202EE000F1080C4FF0010808FA9F
:100820000CF3B1F800C00CEA03069E4221D183000C
:100830004FF00F0C0CFA03F7BC4305FA03FC4CEA2B
:10084000040491F803C0BCF1280F05D100F1080C95
:1008500008FA0CF8C2F8148091F803C0BCF1480FF4
:1008600007D100F1080C4FF0010808FA0CF8C2F8A3
:100870001080401C0828CED35460BDE8F0810246A9
:10088000002093680B400BB1012000E0002070476E
:100890004161704701617047C160704710B500F059
:1008A00047F9FFF757FDFFF7E3FE4FF4E13000F0A3
:1008B0005FFD00F0D1FAFFF749FE3321002000F080
:1008C00009F93221002000F005F92821002000F06C
:1008D00001F90621002000F0FDF80C21002000F0B5
:1008E000F9F80121002000F0F5F810BD50A20E210A
:1008F000822000F0D9F8022000F00AFF0121002038
:1009000000F0E8F84EA20221872000F0CDF84CA2BA
:1009100002218A2000F0C8F888E04A488078A04286
:1009200065D0484884788188832000F091F8454854
:1009300080790A2809DA0021882000F089F84148E6
:100940008179892000F084F804E03E48817988208C
:1009500000F07EF83B48C0790A2809DA00218B2094
:1009600000F076F83748C1798C2000F071F804E087
:100970003448C1798B2000F06BF8324800780A289F
:100980000ADA31A20221C42000F08EF82D48017845
:10099000C52000F05DF804E02A480178C42000F08A
:1009A00057F8284840780A2809DA0021C72000F0C3
:1009B0004FF824484178C82000F04AF804E0214864
:1009C0004178C72000F044F81E4880780A2809DAE8
:1009D0000021CA2000F03CF81A488178CB2000F0B2
:1009E00037F804E017488178CA2000F031F8204633
:1009F00004EBD0714910A4EB410151B113A20221C3
:100A0000C62000F051F811A20221C92000F04CF8D4
:100A100009E00DA20221C62000F046F80AA2022138
:100A2000C92000F041F8C82000F04CFE75E7000036
:100A300048656C6C6F2C20576F726C64210000004D
:100A40002D000000F8000020200000003A00000007
:100A50007CB506460C4600253146002000F03AF8E9
:100A60001CB93021012000F035F80FE00A2094FB7A
:100A7000F0F100FB11403030C2B22846691CCDB203
:100A80000DF800200A2094FBF0F084B2002CEDD188
:100A900004E01DF80510012000F01CF8281EA5F147
:100AA0000101CDB2F5D17CBD2DE9F04105460E46E0
:100AB00014462946002000F00DF8012706E014F83E
:100AC000011B012000F006F8781CC7B2B742F6DB24
:100AD000BDE8F08170B504460D4645F00F0004F105
:100AE000F40200EA02011148FFF7D6FE012000F0EF
:100AF000E9FD00210D48FFF7CFFE012000F0E2FDE7
:100B00000F2040EA051004F1F40200EA0201074850
:100B1000FFF7C2FE012000F0D5FD00210348FFF7DA
:100B2000BBFE012000F0CEFD70BD0000001C0140A6
:100B300008B54FF4A06000F081F825208DF8000082
:100B400003208DF801008DF8020001208DF80300CC
:100B5000684600F03BF806208DF8000002208DF872
:100B6000010003208DF8020001208DF80300684683
:100B700000F02CF809208DF8000002208DF801000B
:100B800001208DF802008DF80300684600F01EF881
:100B90000A208DF8000002208DF8010000208DF859
:100BA000020001208DF80300684600F00FF80320D2
:100BB0008DF8000000208DF801008DF80200012062
:100BC0008DF80300684600F001F808BD70B50021FB
:100BD00000230F22C47804B3154C246804F4E064A5
:100BE000C4F5E064210AC1F10403CA40447804FA60
:100BF00003F184781440214309010E4C0678A15575
:100C0000047804F01F050124AC4005786D11AD0097
:100C100005F1E025C5F8004109E0047804F01F055E
:100C20000124AC40044D0678761145F8264070BD8D
:100C30000CED00E000E400E080E100E00249014347
:100C4000024A1160704700000000FA050CED00E058
:100C5000014908627047000000000E4229B1064AAF
:100C6000D2690243044BDA6104E0034AD269824349
:100C7000014BDA61704700000010024029B1064ABA
:100C800012690243044B1A6104E0034A1269824369
:100C9000014B1A61704700000010024029B1064A5A
:100CA00092690243044B9A6104E0034A92698243C9
:100CB000014B9A61704700000010024029B1064ABA
:100CC000D2680243044BDA6004E0034AD2688243EC
:100CD000014BDA60704700000010024001490860D3
:100CE000704700004004424230B500210022002439
:100CF00000232D4D6D6805F00C0121B1042905D0AC
:100D0000082923D105E0294D056022E0274D056023
:100D10001FE0254D6D6805F47012234D6D6805F4D4
:100D20008034022505EB92421CB9214D55430560E4
:100D30000BE01D4D6D6805F400351DB11C4D55438C
:100D4000056002E0194D5543056002E0174D05604E
:100D500000BF00BF144D6D6805F0F0010909154D85
:100D60006B5C0568DD4045600F4D6D6805F4E06122
:100D7000090A104D6B5C4568DD4085600A4D6D6861
:100D800005F46051C90A0B4D6B5C4568DD40C560D8
:100D9000054D6D6805F44041890B074D6B5CC568D6
:100DA000B5FBF3F5056130BD0010024000127A007A
:100DB00000093D00070000201700002010B5014683
:100DC0000022002300204A11012A02D1094C236885
:100DD00006E0022A02D1074C236A01E0054C636A4F
:100DE00001F01F02012494401C400CB1012000E0DE
:100DF000002010BD0010024000210B4A11700A4A69
:100E0000203A82F82010012802D0042808D103E0FB
:100E10000121054A117004E00521034A117000E028
:100E200000BF00BF70470000201002400149086069
:100E3000704700003C0442420249096A0143014AEA
:100E40001162704700100240024909888143014A3B
:100E500011807047042800401CB5002401214FF088
:100E6000C050FFF7FBFE0120FFF7F2FE0420FFF762
:100E70000DFA45F25001884240D0FFF7FFF90120FA
:100E8000FFF7BAFF09E02046611CCCB2FA2801DD69
:100E900000201CBD0A2000F015FC4120FFF78EFF4A
:100EA0000028F0D04FF48070FFF7C6FF0120FFF755
:100EB000BDFF00F089F900F091F90121084600F02A
:100EC0007FF800F081F900F025F847F6FF7000F098
:100ED000F7F800F079F91920272111231F22CDE915
:100EE0000010012140F2E67000F07AF800F01CF8E2
:100EF00045F250010420FFF7D7F907E000F06EF942
:100F00000121084600F05CF800F05EF900F0E8F816
:100F10000120BEE70348008840F010000149088026
:100F20007047000004280040034800884FF6EF7126
:100F30000840014908807047042800400021002231
:100F4000002308480188001D0388001F0288914281
:100F500004D0001D008840EA0240704743EA014087
:100F6000FBE700001828004001460020064A1288CE
:100F70000A40D0B2044A121F12880A4012B108B1C6
:100F8000012000E0002070470428004010B5012037
:100F9000FFF7EAFF08B100F0A3F80220FFF7E4FF33
:100FA00038B10220FFF750FF00F09AF8032000F05C
:100FB00069FB0520FFF748FF00F006F910BD0000AF
:100FC00029B1064A12880243044B1A8004E0034AFE
:100FD00012888243014B1A807047000000280040AD
:100FE0002DE9F05F06460F4690469946DDE90AABCB
:100FF000002540F2B270864203DB40F633008642A1
:1010000002DD0120BDE8F09F40F2B27409E0204605
:1010100000F08BFB08B11F4800E01F480544601C2E
:1010200084B2B442F3DB002410E01C48005D40F2BF
:10103000A321484305EBC015304600F076FB18B1FC
:10104000012C01D116480544601C84B2781EA042D0
:10105000EBDCA8F1010040F2A321484305EBC015E9
:10106000C9EB4910C0EB092005EB0015CAEB0A10CB
:1010700005EB80055D4401214FF0C050FFF7EEFD08
:101080000120FFF7E5FD284600F00CF800F09CF881
:101090000020B7E70085E2018033E1016C1700080A
:1010A0008051010000B50246FFF734FF100C0349E0
:1010B0000880091D0A80FFF737FF00BD182800408F
:1010C00000B50246FFF726FFC2F30340034908803C
:1010D000091D0A80FFF728FF00BD00000828004016
:1010E00070B5FFF72BFF06463448B6FBF0F440F22C
:1010F000B2750EE0284600F018FB30B1B4F5B77FAA
:1011000002D3A4F5B77402E006E0A4F26D14681CE3
:1011100085B2B4F5B67FEDD800BF2948858000259B
:1011200016E02749888800F000FB30B1012D04D17A
:101130001D2C01D31D3C09E00CE02248405DA0427B
:1011400003D82048405D241A00E003E0681C85B203
:101150001C2CE6D200BF681C19498871601CC8713C
:101160001648B6FBF0F100FB11644FF46160B4FB6C
:10117000F0F0134908704FF46160B4FBF0F100FB2C
:1011800011403C21B0FBF1F00D4948704FF4616013
:10119000B4FBF0F100FB11403C21B0FBF1F201FB8C
:1011A0001200074988700B46DA7999799888FFF719
:1011B00089F803490872002070BD000080510100C9
:1011C000F80000206C17000800BF0348008800F0FA
:1011D00020000028F9D07047042800400748008804
:1011E0004FF6F77108400549088000BF03480088A2
:1011F00000F008000028F9D07047000004280040E3
:1012000010B500F001F810BD0CB500200190009061
:101210003348006840F480303149086000BF3048EE
:10122000006800F4003000900198401C0190009884
:1012300018B90198B0F5A06FF1D12948006800F401
:10124000003010B10120009001E0002000900098D3
:10125000012843D12348006840F01000214908606C
:101260000846006820F0070008600846006840F063
:10127000020008601A4840681949486008464068FA
:1012800048600846406840F480604860084640680E
:1012900020F47C1048600846406840F4E81048603C
:1012A0000846006840F08070086000BF0C48006885
:1012B00000F000700028F9D00948406820F00300D1
:1012C000074948600846406840F00200486000BF97
:1012D0000348406800F00C000828F9D10CBD00005C
:1012E0000010024000200240042808D14FF0E02105
:1012F000096941F004014FF0E022116107E04FF06D
:10130000E021096921F004014FF0E02211617047EA
:1013100010B51348006840F0010011490860084604
:101320004068104908400E494860084600680E4968
:1013300008400B4908600846006820F480200860D7
:101340000846406820F4FE0048604FF41F008860A3
:10135000FFF756FF4FF000600449086010BD000021
:10136000001002400000FFF8FFFFF6FE08ED00E06D
:101370001FB5044601218803FFF790FC0F4800F0D9
:101380006FF800940020ADF80400ADF80600ADF849
:101390000800ADF80C000C20ADF80A0069460748BB
:1013A00000F0FCF8012240F22551044800F0D0F88A
:1013B0000121024800F048F81FBD0000003801403C
:1013C00010B540F225511D4800F098F818B31B489D
:1013D00000F050F9C4B21A48008800F40040012817
:1013E0002BD01748008800F4804060B10A2C03D04D
:1013F00000201349088020E01148008840F4004094
:101400000F49088019E00D2C06D10D48008840F4E2
:1014100080400B49088010E009480088C0F30D00A7
:1014200008490C5406480088401C054908800846B5
:101430000088C72801DD0020088010BD0038014069
:10144000040000203000002021B1828942F40052C3
:10145000828104E082894DF6FF731A4082817047D1
:1014600010B504462048844209D101218803FFF7C2
:1014700025FC00214FF48040FFF720FC32E01B48A0
:10148000844209D101214804FFF7F8FB00214FF401
:101490000030FFF7F3FB25E01548844209D1012114
:1014A0008804FFF7EBFB00214FF48020FFF7E6FBF9
:1014B00018E01048844209D10121C804FFF7DEFB7F
:1014C00000214FF40020FFF7D9FB0BE00A488442CB
:1014D00008D101210805FFF7D1FB00214FF480104E
:1014E000FFF7CCFB10BD0000003801400044004075
:1014F00000480040004C00400050004070B50246DB
:10150000002400230025002040F66A16B14200D1D5
:1015100000BFC1F3421501F01F03012606FA03F3D1
:10152000012D02D19689334006E0022D02D1168AA0
:10153000334001E0968A33400C12012606FA04F487
:101540001688344013B10CB1012000E0002070BDBA
:10155000F0B50346002400260025002040F66A1757
:10156000B94200D100BF1846C1F3421401F01F0672
:10157000012707FA06F5012C01D10C3004E0022CFA
:1015800001D1103000E014301AB107682F43076012
:1015900002E00768AF430760F0BD00002DE9F047A7
:1015A00086B005460E460024A24600BFA14600278D
:1015B000B08900B100BF2F462C8A4CF6FF70044062
:1015C000F08804432C82AC894EF6F3100440B088B6
:1015D00031890843718908430443AC81AC8A4FF6D2
:1015E000FF400440B0890443AC8201A8FFF77CFBB4
:1015F0001F48874202D1DDF810A001E0DDF80CA001
:10160000A88900F4004040B10AEBCA0000EB0A10C0
:1016100031684900B0FBF1F807E00AEBCA0000EBC3
:101620000A1031688900B0FBF1F86420B8FBF0F0D3
:1016300004012009642101FB1089A88900F40040FD
:1016400040B1322000EBC900B0FBF1F000F0070020
:10165000044308E0322000EB09106421B0FBF1F0F4
:1016600000F00F0004432C8106B0BDE8F0870000B5
:101670000038014001468888C0F30800704700BF69
:101680007047000010B504464FF480710C48FFF716
:10169000FFF80FE04FF480710948FFF7FBF83C209A
:1016A00000F010F84FF480710548FFF7F1F83C2086
:1016B00000F008F8201EA4F10101CCB2EAD110BD5F
:1016C000000C01400146114A12884A434FF0E023C2
:1016D0005A6100229A611A46126942F001021A61A7
:1016E00000BF4FF0E022106900F001021AB100F4CF
:1016F0008032002AF5D04FF0E022126922F0010278
:101700004FF0E0231A6100229A6170470200002026
:1017100010B5044603E04FF47A70FFF7D3FF201EA4
:10172000A4F10101CCB2F6D110BD01460A46C8179A
:1017300001EB90708010A1EB800028B9642091FB30
:10174000F0F300FB131030B94FF4C87091FBF0F3C5
:1017500000FB131008B9012070470020FCE710B50A
:10176000FFF79CF8FFF7C2F8002010BD1F1C1F1EDA
:101770001F1E1F1F1E1F1E1F98170008000000209D
:10178000300000006C010008C8170008300000207D
:101790003807000088010008000000000000010078
:1017A0000000000102030401020304060708090205
:1017B0000406080000A24A04000000000000000027
:0817C0000102030406070809F9
:0400000508000131BD
:00000001FF
