:020000040800F2
:1000000090070020D5010008DD010008DF0100088D
:10001000E1010008E3010008E5010008000000001C
:10002000000000000000000000000000E7010008E0
:10003000E901000800000000EB010008ED010008E4
:10004000EF010008EF010008EF010008EF010008D0
:10005000EF010008EF010008EF010008EF010008C0
:10006000EF010008EF010008EF010008EF010008B0
:10007000EF010008EF010008EF010008EF010008A0
:10008000EF010008EF010008EF010008EF01000890
:10009000EF010008EF010008EF010008EF01000880
:1000A000EF010008EF010008EF010008EF01000870
:1000B000EF010008EF010008EF010008EF01000860
:1000C000EF010008EF010008EF010008EF01000850
:1000D000EF01000825340008EF010008EF010008D7
:1000E000EF010008EF010008EF010008EF01000830
:1000F000EF010008EF010008EF010008EF01000820
:10010000EF010008EF010008EF010008EF0100080F
:10011000EF010008EF010008EF010008EF010008FF
:10012000EF010008EF010008EF010008EF010008EF
:1001300000F002F800F03FF80AA090E8000C8244BA
:100140008344AAF10107DA4501D100F034F8AFF297
:10015000090EBAE80F0013F0010F18BFFB1A43F0A5
:10016000010318478C4E0000AC4E0000103A24BF2B
:1001700078C878C1FAD8520724BF30C830C144BF0C
:1001800004680C607047000000230024002500264E
:10019000103A28BF78C1FBD8520728BF30C148BFEA
:1001A0000B607047782900F08B80002070471FB5E6
:1001B0001FBD10B510BD00F041F91146FFF7F7FF64
:1001C00003F00EFB00F05FF903B4FFF7F2FF03BC8E
:1001D00003F0A1FA0948804709480047FEE7FEE717
:1001E000FEE7FEE7FEE7FEE7FEE7FEE7FEE7FEE7E7
:1001F00004480549054A064B70470000753300085E
:100200003101000890010020900700209003002099
:1002100090030020704700000FB4044910B503AAF2
:10022000029800F0F5F810BC5DF814FB08000020FF
:100230000FB41CB5074B06AA7B446946009005988D
:1002400000F0CDF80020694600F0DCF81CBC5DF839
:1002500014FB0000C90100002DE9F0410E460446E0
:10026000002020622046E168884730B3252805D069
:10027000D4E901219047206A401CF2E7E16820465A
:1002800000278847050018D0A5F14100192802D899
:1002900020354FF400673246294620462760FFF795
:1002A00081FF40B1012804D0F61D26F0070608366C
:1002B000D8E7361DD6E72846DAE7206ABDE8F081A0
:1002C00070B504460D4621461068AFF300802188C2
:1002D000090502D50F4A7A4402E00E4A7A440E32EA
:1002E000002104F1240305E000F00F060009965DEB
:1002F0005E54491C0028F7D120780023000704D55C
:10030000702D02D009B1022311322046BDE87040A1
:1003100000F006B8EC4C000070477047704770471B
:100320002DE9F0470D4699469246044600F124080F
:100330000168880604D5E06921F01001216000E021
:100340000120A84201DD471B00E00027A1697A19BE
:1003500002EB0900081AA0612078C00602D42046EA
:10036000AFF30080002608E0D4E901211AF8060066
:100370009047206A401C761C20624E45F4DB2078B2
:10038000C0060AD52046AFF3008006E0D4E901217B
:1003900030209047206A401C2062381EA7F10107D8
:1003A000F4DC07E0D4E9012118F805009047206A41
:1003B000401C2062281EA5F10105F3DC2046AFF3A6
:1003C00000802078000602D50220BDE8F0870120D9
:1003D000FBE7000001694A1C02610878704700B51C
:1003E0008FB0CDE901310021059105497944CDE96E
:1003F000031011466846FFF72FFF0FB000BD000045
:10040000E5FFFFFF0A6802F8010B0A607047000071
:10041000074B70B50D467B44FFF7E1FF04462846C5
:1004200000F008F810B14FF0FF3070BD204670BDED
:100430009B330000007B00F080007047754600F0A1
:100440002BF8AE4605006946534620F00700854666
:1004500018B020B5FFF7CCFEBDE820404FF00006F5
:100460004FF000074FF000084FF0000B21F007019C
:10047000AC46ACE8C009ACE8C009ACE8C009ACE8DF
:10048000C0098D46704710B50446AFF30080204682
:10049000BDE81040FFF798BE0048704730010020CB
:1004A00010B56FF0040002F051FF0A4800680A49D5
:1004B000B0FBF1F0094908700846007800EB4001F4
:1004C000C1EBC0104FF6FF7101EAC000044908807B
:1004D00010BD00002400002000127A00000000205F
:1004E0000200002000B59DB00121080202F010FEBC
:1004F00001200790002008900F20099000200A900A
:100500000B900C900D900090019003200290002021
:10051000039004900590069006200E9000200F9006
:1005200010901020119000201290149013901590AC
:1005300016904FF480501790002018904FF4804090
:10054000199000201A9007A81B90CDF870D00EA823
:1005500000F020F80121062000F002F81DB000BDD7
:1005600051B18200A2F1C042126842F00103820040
:10057000A2F1C042136009E08200A2F1C0421268F9
:10058000034B1A408300A3F1C0431A607047000078
:10059000FEFF0F00D0E901121143C2681143026946
:1005A00011434269114382691143C2691143026ACE
:1005B0001143426A1143826A1143C26A1143026BBA
:1005C000114302689200A2F1C042116081680829BB
:1005D0000BD101688900A1F1C041096841F04002D6
:1005E00001688900A1F1C0410A60416B0968426B52
:1005F000526841EA0211426B926841EA0221426B61
:10060000928941EA0241426B128A41EA0251426BED
:10061000127D41EA0261426B926911430268521CE9
:100620009200A2F1C0421160C16AB1F5804F1BD1A6
:10063000816B0968826B526841EA0211826B926891
:1006400041EA0221826B128A41EA0251826B127DD9
:1006500041EA0261826B9269114302689200A2F141
:10066000C042C2F8041107E06FF0704201688900CF
:10067000A1F1C041C1F804217047000008B5012173
:100680004FF4F67002F064FD4FF40070ADF8000016
:1006900003208DF8020018208DF8030069464848B1
:1006A00000F09AF84FF48060ADF8000004208DF857
:1006B00003006946424800F08FF82020ADF80000A2
:1006C00003208DF8020010208DF8030069463D4894
:1006D00000F082F80120ADF8000003208DF8020040
:1006E00010208DF803006946364800F075F84CF28A
:1006F0003370ADF8000003208DF8020018208DF84B
:1007000003006946304800F067F84FF68070ADF896
:10071000000003208DF8020018208DF803006946C0
:100720002A4800F059F841F20100ADF8000003201A
:100730008DF8020018208DF803006946244800F067
:100740004BF80220ADF8000003208DF802001020C5
:100750008DF8030069461B4800F03EF84FF4007026
:10076000ADF8000003208DF8020010208DF8030082
:100770006946184800F030F84FF48060ADF800008A
:1007800048208DF803006946124800F025F84FF420
:100790008061104800F0B6F84FF40060ADF800003A
:1007A00010208DF8030003208DF8020069460948E7
:1007B00000F012F84FF40061064800F0A3F808BDFD
:1007C00000080140000C01400014014000180140E5
:1007D00000200140001C01402DE9F04102460025A7
:1007E0000026002000230024002791F803C00CF00D
:1007F0000F0591F803C00CF0100CBCF1000F03D0F2
:1008000091F802C04CEA050591F800C0BCF1000F58
:1008100031D0146800202BE04FF0010C0CFA00F3EB
:10082000B1F800C00CEA03069E4220D183004FF0CD
:100830000F0C0CFA03F7BC4305FA03FC4CEA040462
:1008400091F803C0BCF1280F06D14FF0010C0CFA4F
:1008500000FCC2F814C00AE091F803C0BCF1480FD4
:1008600005D14FF0010C0CFA00FCC2F810C0401C7E
:100870000828D1D31460B1F800C0BCF1FF0F34DDFB
:10088000546800202EE000F1080C4FF0010808FA2F
:100890000CF3B1F800C00CEA03069E4221D183009C
:1008A0004FF00F0C0CFA03F7BC4305FA03FC4CEABB
:1008B000040491F803C0BCF1280F05D100F1080C25
:1008C00008FA0CF8C2F8148091F803C0BCF1480F84
:1008D00007D100F1080C4FF0010808FA0CF8C2F833
:1008E0001080401C0828CED35460BDE8F081024639
:1008F000002093680B400BB1012000E000207047FE
:1009000041617047016170470AB1016100E04161D6
:10091000704710B504461021204600F041F9618966
:100920006068FFF7EFFF21892068FFF7EBFF0220E7
:1009300002F01AFF61896068FFF7E2FF022002F00F
:1009400013FF21892068FFF7DBFF10BD10B50446B7
:100950001021204600F024F921892068FFF7D0FFFC
:1009600061896068FFF7CCFF022002F0FDFE21895B
:100970002068FFF7C7FF61896068FFF7C3FF0220A7
:1009800002F0F2FE21892068FFF7BAFF10BD0000D7
:100990002DE9F04106460C46154600273046FFF784
:1009A000B8FF2146304600F00BF9304600F032F92E
:1009B000012800D02CE02912304600F001F9304621
:1009C00000F028F9012800D022E0E9B2304600F01A
:1009D000F7F8304600F01EF9012800D018E0304644
:1009E000FFF797FF44F00101304600F0E9F8304688
:1009F00000F010F9012800D00AE00121304600F093
:100A000083F807463046FFF7A1FF3846BDE8F0817E
:100A10003046FFF79BFF02A0FFF7FEFB0020F5E743
:100A200049494320526561642074696D656F75742E
:100A3000210D0A002DE9F04107460C4616461D46D9
:100A4000DDF818803846FFF764FF2146384600F08D
:100A5000B7F8384600F0DEF8012800D039E031124E
:100A6000384600F0ADF8384600F0D4F8012800D040
:100A70002FE0F1B2384600F0A3F8384600F0CAF88B
:100A8000012800D025E03846FFF743FF44F001017C
:100A9000384600F095F8384600F0BCF8012800D040
:100AA00017E005E00021384600F02EF805F8010BAC
:100AB000A8F10100C0B2B0F10008F3D1012138461D
:100AC00000F022F828703846FFF740FF0120BDE80B
:100AD000F0813846FFF73AFF02A0FFF79DFB0020A8
:100AE000F5E7000049494320526561642053657170
:100AF00075656E7469616C20446174612054696D20
:100B0000656F7574210D0A002DE9F04104460F460A
:100B100000254821204600F043F8002618E02189EE
:100B20002068FFF7EDFE022002F01EFE21892068FA
:100B3000FFF7E8FE6806050E61896068FFF7D7FEDB
:100B400008B1681CC5B2022002F00EFE701CC6B2CD
:100B5000082EE4DB3946204600F003F82846BDE8BD
:100B6000F08170B504460D4621892068FFF7C8FE64
:100B70001021204600F014F861892A466068FFF7CA
:100B8000C3FE022002F0F0FD21892068FFF7BAFEC3
:100B9000022002F0E9FD21892068FFF7B1FE70BD57
:100BA00038B504460D466089ADF8000003208DF885
:100BB00002008DF8035069466068FFF70DFE38BDEE
:100BC00070B504460E4610212046FFF7E9FF218943
:100BD0002068FFF795FE002519E0C5F1070346FAE6
:100BE00003F303F0010261896068FFF78DFE21893C
:100BF0002068FFF787FE022002F0B6FD21892068F9
:100C0000FFF77EFE022002F0AFFD681CC5B2082D82
:100C1000E3DB70BD70B50446002548212046FFF790
:100C2000BFFF61896068FFF76DFE012002F09CFD47
:100C300021892068FFF766FE012002F095FD09E09A
:100C40002846691CCDB2FA2804DD2046FFF77EFE57
:100C5000002070BD61896068FFF749FE0028EFD170
:100C600021892068FFF74CFE0120F2E72DE9F041D1
:100C700007460C4615461E463846FFF74AFE2146F3
:100C80003846FFF79DFF3846FFF7C4FF012800D024
:100C900023E029123846FFF793FF3846FFF7BAFFE3
:100CA000012800D019E0E9B23846FFF789FF38463D
:100CB000FFF7B0FF012800D00FE031463846FFF7BC
:100CC0007FFF3846FFF7A6FF012800D005E0384631
:100CD000FFF73CFE0120BDE8F0813846FFF736FE05
:100CE00002A0FFF799FA0020F5E7000049494320E8
:100CF00057726974652074696D656F7574210D0A8A
:100D00000000000010B502F0ADF9FFF7C9FBFFF7D6
:100D1000B5FC4FF4E13002F05DFBFFF7E3FB00F0C0
:100D200055F902F06DF910BD30B50446234800882E
:100D30002249498800FB01F50021084601F032FFF5
:100D40004FF430501E49088002E01D48801C04808A
:100D5000281EA5F10105F8D118480481E043174980
:100D60004881084640890F21B1EBE02F05DA13488E
:100D70004089C0F345101F2817DC104840890F2117
:100D8000B1EBE02F05DA0D48807A00F01F000F2844
:100D90000BDC0A484089C0F345101F280ADD0748CC
:100DA000807A00F01F000F2804DD4FF6FF70034922
:100DB000488102E000200149488130BD0001002047
:100DC000FE07006C10B586B000245148828851A1FE
:100DD00003A8FFF72DFA97E0082C2BD2DFE804F0E8
:100DE00004090E13171C21264FF6FF70FFF79CFF16
:100DF00020E04FF47840FFF797FF1BE04FF4FC60D2
:100E0000FFF792FF16E01F20FFF78EFF12E04FF66C
:100E1000C070FFF789FF0DE04FF61F00FFF784FF5A
:100E200008E040F2FF70FFF77FFF03E00020FFF7CC
:100E30007BFF00BF00BF3649887900EBD0714910B5
:100E400000292BD136A0182101231B22CDE9001047
:100E50000A215A2001F096FD38A0182101230E2204
:100E6000CDE900103221A02001F08CFD03A8102153
:100E700001230C22CDE9001040F207310A2001F0D5
:100E800081FD32A00C2101230A22CDE900104FF48C
:100E900043714FF4CD7001F075FD2BE020A01821B7
:100EA00001231B22CDE900100A21FA2001F06AFD7E
:100EB00022A0182101230E22CDE9001032214FF487
:100EC000A07001F05FFD03A8102101230C22CDE9E1
:100ED000001040F2C7110A2001F054FD1BA00C21A4
:100EE00001230A22CDE900104FF4E67140F2DA2026
:100EF00001F048FD4FF47A7002F010FC601CC0B2A3
:100F00000446082800D100E066E700BF06B010BD27
:100F1000000100204C43442069643A2025780000F9
:100F200053544D3332463130335A455436205446AB
:100F3000542D4C43442054657374000048656C6C18
:100F40006F2C20776F726C642100000032303232D7
:100F50002F322F313100000070B505460E46144681
:100F60003146284601F01EFE4FF4305002490880F9
:100F7000881C048070BD0000FE07006C2DE9F04362
:100F800005460C4616461F46DDF81C8018E0701B0F
:100F90001FFA80F92146621C94B2284601F002FE35
:100FA0004FF430500849088003E00748801CA0F83F
:100FB0000080B9F10000A9F101011FFA81F9F4DC08
:100FC000BC42E4DDBDE8F083FE07006C10B501F023
:100FD00009FD002801F07A824FF47040FE49088034
:100FE0005520891C08804FF20100891E0880AA2024
:100FF000891C08804FF20200891E08805220891C3B
:1010000008804FF20300891E08800820891C088090
:101010004FF20400891E08800120891C08804FF4CB
:101020003040891E08800D20891C08804BF2010089
:10103000891E08800D20891C08804BF20200891E41
:1010400008800D20891C08804FF43640891E0880D6
:101050003420891C08804BF20160891E08803420EE
:10106000891C08804BF20260891E08803420891C8C
:1010700008804FF43140891E08800D20891C0880AB
:101080004BF20110891E08800D20891C08804BF24C
:101090000210891E08800D20891C08804FF43740FB
:1010A000891E08803420891C08804BF20170891E3B
:1010B00008803420891C08804BF20270891E088049
:1010C0003420891C08804FF43240891E088000209B
:1010D000891C08804BF20120891E08800020891C91
:1010E00008804BF20220891E08800020891C08809D
:1010F0004FF43840891E08802420891C08804BF654
:101100000100891E08802420891C08804BF60200FB
:10111000891E08802420891C08804FF43F40891EC6
:1011200008800120891C08804FF43340891E088004
:101130000F20891C08804BF20130891E08800F2087
:10114000891C08804BF20230891E08800F20891C00
:1011500008804FF43940891E08803420891C08809B
:101160004BF60110891E08803420891C08804BF63C
:101170000210891E08803420891C08804FF43540F5
:10118000891E08800820891C08804BF20150891EA6
:1011900008800820891C08804BF20250891E0880B4
:1011A0000820891C08804FF44240891E08800320D3
:1011B000891C08804FF43A40891E08802420891C2D
:1011C00008804BF60120891E08802420891C088095
:1011D0004BF60220891E08802420891C08804FF4C9
:1011E0003C40891E08800020891C08804BF6014085
:1011F000891E08807820891C08804BF60240891ED1
:1012000008800020891C08804FF43D40891E08801A
:101210000020891C08804BF60150891E0880782028
:10122000891C08804BF60250891E08800020891C0A
:1012300008804FF43E40891E08800020891C0880E9
:101240004BF60160891E08806420891C08804FF4D9
:101250005140891E08800020891C08804DF2011031
:10126000891E08803320891C08804DF20210891ED7
:1012700008800020891C08804DF20310891E088018
:101280003420891C08804DF20410891E088000203B
:10129000891C08804DF20510891E08803A20891C9F
:1012A00008804DF20610891E08800020891C0880E5
:1012B0004DF20710891E08804A20891C08804DF2D3
:1012C0000810891E08800020891C08804DF2091032
:1012D000891E08805C20891C08804DF20A10891E36
:1012E00008800020891C08804DF20B10891E0880A0
:1012F0008120891C08804DF20C10891E0880002076
:10130000891C08804DF20D10891E0880A620891CBA
:1013100008804DF20E10891E08800020891C08806C
:101320004DF20F10891E0880E520891C08804DF2BF
:101330001010891E08800120891C08804DF21110B0
:10134000891E08801320891C08804DF21210891E06
:1013500008800120891C08804DF21310891E088026
:101360005420891C08804DF21410891E0880012029
:10137000891C08804DF21510891E08808220891C66
:1013800008804DF21610891E08800120891C0880F3
:101390004DF21710891E0880CA20891C08804DF262
:1013A0001810891E08800220891C08804DF219102F
:1013B000891E08800020891C08804DF21A10891EA1
:1013C00008800220891C08804DF21B10891E0880AD
:1013D0000120891C088001E0FE07006C4DF21C1002
:1013E000891E08800220891C08804DF21D10891E6C
:1013F00008803420891C08804DF21E10891E088048
:101400000220891C08804DF21F10891E0880672069
:10141000891C08804DF22010891E08800220891C3A
:1014200008804DF22110891E08808420891C0880C4
:101430004DF22210891E08800220891C08804DF27E
:101440002310891E0880A420891C08804DF22410D6
:10145000891E08800220891C08804DF22510891EF3
:101460000880B720891C08804DF22610891E08804C
:101470000220891C08804DF22710891E0880CF2089
:10148000891C08804DF22810891E08800220891CC2
:1014900008804DF22910891E0880DE20891C0880F2
:1014A0004DF22A10891E08800220891C08804DF206
:1014B0002B10891E0880F220891C08804DF22C1008
:1014C000891E08800220891C08804DF22D10891E7B
:1014D0000880FE20891C08804DF22E10891E08808D
:1014E0000320891C08804DF22F10891E08801020CF
:1014F000891C08804DF23010891E08800320891C49
:1015000008804DF23110891E08803320891C088024
:101510004DF23210891E08800320891C08804DF28C
:101520003310891E08806D20891C08804FF45240BA
:10153000891E08800020891C08804DF20120891E28
:1015400008803320891C08804DF20220891E088003
:101550000020891C08804DF20320891E0880342059
:10156000891C08804DF20420891E08800020891CF7
:1015700008804DF20520891E08803A20891C0880C9
:101580004DF20620891E08800020891C08804DF23B
:101590000720891E08804A20891C08804DF20820F7
:1015A000891E08800020891C08804DF20920891EB0
:1015B00008805C20891C08804DF20A20891E088062
:1015C0000020891C08804DF20B20891E0880812094
:1015D000891C08804DF20C20891E08800020891C7F
:1015E00008804DF20D20891E0880A620891C0880E5
:1015F0004DF20E20891E08800020891C08804DF2C3
:101600000F20891E0880E520891C08804DF21020DB
:10161000891E08800120891C08804DF21120891E36
:1016200008801320891C08804DF21220891E088032
:101630000120891C08804DF21320891E0880542047
:10164000891C08804DF21420891E08800120891C05
:1016500008804DF21520891E08808220891C088090
:101660004DF21620891E08800120891C08804DF249
:101670001720891E0880CA20891C08804DF2182076
:10168000891E08800220891C08804DF21920891EBD
:1016900008800020891C08804DF21A20891E0880CD
:1016A0000220891C08804DF21B20891E0880012021
:1016B000891C08804DF21C20891E08800220891C8C
:1016C00008804DF21D20891E08803420891C088066
:1016D0004DF21E20891E08800220891C08804DF2D0
:1016E0001F20891E08806720891C08804DF2202059
:1016F000891E08800220891C08804DF22120891E45
:1017000008808420891C08804DF22220891E0880D0
:101710000220891C08804DF22320891E0880A42005
:10172000891C08804DF22420891E08800220891C13
:1017300008804DF22520891E0880B720891C08806A
:101740004DF22620891E08800220891C08804DF257
:101750002720891E0880CF20891C08804DF2282070
:10176000891E08800220891C08804DF22920891ECC
:101770000880DE20891C08804DF22A20891E0880FE
:101780000220891C08804DF22B20891E0880F2203F
:10179000891C08804DF22C20891E08800220891C9B
:1017A00008804DF22D20891E0880FE20891C0880AB
:1017B0004DF22E20891E08800320891C08804DF2DE
:1017C0002F20891E08801020891C08804DF23020AF
:1017D000891E08800320891C08804DF23120891E53
:1017E00008803320891C08804DF23220891E088031
:1017F0000320891C08804DF23320891E08806D204B
:10180000891C08804FF45340891E08800020891CE1
:1018100008804DF20130891E08803320891C088021
:101820004DF20230891E08800020891C08804DF28C
:101830000330891E08803420891C08804DF2043052
:10184000891E08800020891C08804DF20530891E01
:1018500008803A20891C08804DF20630891E0880D5
:101860000020891C08804DF20730891E08804A201C
:10187000891C08804DF20830891E08800020891CD0
:1018800008804DF20930891E08805C20891C088080
:101890004DF20A30891E08800020891C08804DF214
:1018A0000B30891E08808120891C08804DF20C3085
:1018B000891E08800020891C08804DF20D30891E89
:1018C0000880A620891C08804DF20E30891E0880F1
:1018D0000020891C08804DF20F30891E0880E52009
:1018E000891C08804DF21030891E08800120891C57
:1018F00008804DF21130891E08801320891C088051
:101900004DF21230891E08800120891C08804DF29A
:101910001330891E08805420891C08804DF2143031
:10192000891E08800120891C08804DF21530891E0F
:1019300008808220891C08804DF21630891E08809C
:101940000120891C08804DF21730891E0880CA20AA
:10195000891C08804DF21830891E08800220891CDD
:1019600008804DF21930891E08800020891C0880EB
:101970004DF21A30891E08800220891C08804DF221
:101980001B30891E08800120891C08804DF21C3004
:10199000891E08800220891C08804DF21D30891E96
:1019A00008803420891C08804DF21E30891E088072
:1019B0000220891C08804DF21F30891E0880672094
:1019C000891C08804DF22030891E08800220891C65
:1019D00008804DF22130891E08808420891C0880EF
:1019E0004DF22230891E08800220891C08804DF2A9
:1019F0002330891E0880A420891C08804DF22430E1
:101A0000891E08800220891C08804DF22530891E1D
:101A10000880B720891C08804DF22630891E088076
:101A20000220891C08804DF22730891E0880CF20B3
:101A3000891C08804DF22830891E08800220891CEC
:101A400008804DF22930891E0880DE20891C08801C
:101A50004DF22A30891E08800220891C08804DF230
:101A60002B30891E0880F220891C08804DF22C3012
:101A7000891E08800220891C08804DF22D30891EA5
:101A80000880FE20891C08804DF22E30891E0880B7
:101A90000320891C08804DF22F30891E08801020F9
:101AA000891C08804DF23030891E08800320891C73
:101AB00008804DF23130891E08803320891C08804F
:101AC0004DF23230891E08800320891C08804DF2B7
:101AD0003330891E08806D20891C08804FF45440E3
:101AE000891E08800020891C08804DF20140891E53
:101AF00008803320891C08804DF20240891E08802E
:101B00000020891C08804DF20340891E0880342083
:101B1000891C08804DF20440891E08800020891C21
:101B200008804DF20540891E08803A20891C0880F3
:101B30004DF20640891E08800020891C08804DF265
:101B40000740891E08804A20891C08804DF2084001
:101B5000891E08800020891C08804DF20940891EDA
:101B600008805C20891C08804DF20A40891E08808C
:101B70000020891C08804DF20B40891E08808120BE
:101B8000891C08804DF20C40891E08800020891CA9
:101B900008804DF20D40891E0880A620891C08800F
:101BA0004DF20E40891E08800020891C08804DF2ED
:101BB0000F40891E0880E520891C08804DF21040E6
:101BC000891E08800120891C08804DF21140891E61
:101BD00008801320891C08804DF21240891E08805D
:101BE0000120891C08804DF21340891E0880542072
:101BF000891C08804DF21440891E08800120891C30
:101C000008804DF21540891E08808220891C0880BA
:101C10004DF21640891E08800120891C08804DF273
:101C20001740891E0880CA20891C08804DF2184080
:101C3000891E08800220891C08804DF21940891EE7
:101C400008800020891C08804DF21A40891E0880F7
:101C50000220891C08804DF21B40891E088001204B
:101C6000891C08804DF21C40891E08800220891CB6
:101C700008804DF21D40891E08803420891C088090
:101C80004DF21E40891E08800220891C08804DF2FA
:101C90001F40891E08806720891C08804DF2204063
:101CA000891E08800220891C08804DF22140891E6F
:101CB00008808420891C08804DF22240891E0880FB
:101CC0000220891C08804DF22340891E0880A42030
:101CD000891C08804DF22440891E08800220891C3E
:101CE00008804DF22540891E0880B720891C088095
:101CF0004DF22640891E08800220891C08804DF282
:101D00002740891E0880CF20891C08804DF228407A
:101D1000891E08800220891C08804DF22940891EF6
:101D20000880DE20891C08804DF22A40891E088028
:101D30000220891C08804DF22B40891E0880F22069
:101D4000891C08804DF22C40891E08800220891CC5
:101D500008804DF22D40891E0880FE20891C0880D5
:101D60004DF22E40891E08800320891C08804DF208
:101D70002F40891E08801020891C08804DF23040B9
:101D8000891E08800320891C08804DF23140891E7D
:101D900008803320891C08804DF23240891E08805B
:101DA0000320891C08804DF23340891E08806D2075
:101DB000891C08804FF45540891E08800020891C2A
:101DC00008804DF20150891E08803320891C08804C
:101DD0004DF20250891E08800020891C08804DF2B7
:101DE0000350891E08803420891C08804DF204505D
:101DF000891E08800020891C08804DF20550891E2C
:101E000008803A20891C08804DF20650891E0880FF
:101E10000020891C08804DF20750891E08804A2046
:101E2000891C08804DF20850891E08800020891CFA
:101E300008804DF20950891E08805C20891C0880AA
:101E40004DF20A50891E08800020891C08804DF23E
:101E50000B50891E08808120891C08804DF20C508F
:101E6000891E08800020891C08804DF20D50891EB3
:101E70000880A620891C08804DF20E50891E08801B
:101E80000020891C08804DF20F50891E0880E52033
:101E9000891C08804DF21050891E08800120891C81
:101EA00008804DF21150891E08801320891C08807B
:101EB0004DF21250891E08800120891C08804DF2C5
:101EC0001350891E08805420891C08804DF214503C
:101ED000891E08800120891C08804DF21550891E3A
:101EE00008808220891C08804DF21650891E0880C7
:101EF0000120891C08804DF21750891E0880CA20D5
:101F0000891C08804DF21850891E08800220891C07
:101F100008804DF21950891E08800020891C088015
:101F20004DF21A50891E08800220891C08804DF24B
:101F30001B50891E08800120891C08804DF21C500E
:101F4000891E08800220891C08804DF21D50891EC0
:101F500008803420891C08804DF21E50891E08809C
:101F60000220891C08804DF21F50891E08806720BE
:101F7000891C08804DF22050891E08800220891C8F
:101F800008804DF22150891E08808420891C088019
:101F90004DF22250891E08800220891C08804DF2D3
:101FA0002350891E0880A420891C08804DF22450EB
:101FB000891E08800220891C08804DF22550891E48
:101FC0000880B720891C08804DF22650891E0880A1
:101FD0000220891C08804DF22750891E0880CF20DE
:101FE000891C08804DF22850891E08800220891C17
:101FF00008804DF22950891E0880DE20891C088047
:102000004DF22A50891E08800220891C08804DF25A
:102010002B50891E0880F220891C08804DF22C501C
:10202000891E08800220891C08804DF22D50891ECF
:102030000880FE20891C08804DF22E50891E0880E1
:102040000320891C08804DF22F50891E0880102023
:10205000891C08804DF23050891E08800320891C9D
:1020600008804DF23150891E08803320891C088079
:102070004DF23250891E08800320891C08804DF2E1
:102080003350891E08806D20891C08804FF456400B
:10209000891E08800020891C08804DF20160891E7D
:1020A00008803320891C08804DF20260891E088058
:1020B0000020891C08804DF20360891E08803420AE
:1020C000891C08804DF20460891E08800020891C4C
:1020D00008804DF20560891E08803A20891C08801E
:1020E0004DF20660891E08800020891C08804DF290
:1020F0000760891E08804A20891C08804DF208600C
:10210000891E08800020891C08804DF20960891E04
:1021100008805C20891C08804DF20A60891E0880B6
:102120000020891C08804DF20B60891E08808120E8
:10213000891C08804DF20C60891E08800020891CD3
:1021400008804DF20D60891E0880A620891C088039
:102150004DF20E60891E08800020891C08804DF217
:102160000F60891E0880E520891C08804DF21060F0
:10217000891E08800120891C08804DF21160891E8B
:1021800008801320891C08804DF21260891E088087
:102190000120891C08804DF21360891E088054209C
:1021A000891C08804DF21460891E08800120891C5A
:1021B00008804DF21560891E08808220891C0880E5
:1021C0004DF21660891E08800120891C08804DF29E
:1021D0001760891E0880CA20891C08804DF218608B
:1021E000891E08800220891C08804DF21960891E12
:1021F00008800020891C08804DF21A60891E088022
:102200000220891C08804DF21B60891E0880012075
:10221000891C08804DF21C60891E08800220891CE0
:1022200008804DF21D60891E08803420891C0880BA
:102230004DF21E60891E08800220891C08804DF224
:102240001F60891E08806720891C08804DF220606D
:10225000891E08800220891C08804DF22160891E99
:1022600008808420891C08804DF22260891E088025
:102270000220891C08804DF22360891E0880A4205A
:10228000891C08804DF22460891E08800220891C68
:1022900008804DF22560891E0880B720891C0880BF
:1022A0004DF22660891E08800220891C08804DF2AC
:1022B0002760891E0880CF20891C08804DF2286085
:1022C000891E08800220891C08804DF22960891E21
:1022D0000880DE20891C08804DF22A60891E088053
:1022E0000220891C08804DF22B60891E0880F22094
:1022F000891C08804DF22C60891E08800220891CF0
:1023000008804DF22D60891E0880FE20891C0880FF
:102310004DF22E60891E08800320891C08804DF232
:102320002F60891E08801020891C08804DF23060C3
:10233000891E08800320891C08804DF23160891EA7
:1023400008803320891C08804DF23260891E088085
:102350000320891C08804DF23360891E08806D209F
:10236000891C08804FF47040891E08805520891C04
:1023700008804FF20100891E0880AA20891C08806D
:102380004FF20200891E08805220891C08804FF2FB
:102390000300891E08800820891C08804FF2040071
:1023A000891E08800020891C08804FF43140891E56
:1023B0000880CC20891C08804BF20110891E0880FF
:1023C0000020891C08804FF43640891E08800520B3
:1023D000891C08804FF43740891E08807020891CB2
:1023E00008804BF20170891E08807020891C0880CB
:1023F0004FF43840891E08800120891C08804BF664
:102400000100891E08800320891C08804BF6020009
:10241000891E08800320891C08804BF60300891E52
:1024200008800320891C08804FF43C40891E0880E6
:102430000220891C08804BF60140891E088000207C
:10244000891C08804BF60240891E08800020891CE8
:1024500008804FF44940891E0880D020891C0880DC
:102460004CF60110891E08800220891C08804CF659
:102470000210891E08805020891C08804CF6031029
:10248000891E08805020891C08804CF60410891E83
:1024900008805020891C08804FF45450891E088001
:1024A0000020891C08804FF46850891E0880552040
:1024B000891C08804FF48850891E0880782001F01C
:1024C00053F94FF42450124908800FE011A0FDF792
:1024D000A3FE1648808828B11448818814A0FDF70F
:1024E0009BFE02E014A0FDF797FE10BD002000F057
:1024F00079FB4FF6FF700D49088101221146114802
:10250000FEF702FA09490889FEF70EFC00BFECE766
:10251000FE07006C4E6F7420737570706F727420BC
:102520004C43442049433A200000000000010020B1
:1025300025780D0A00000000556E6B6F776E0D0A4E
:1025400000000000000C014088B000F079F872E053
:1025500000F00EFC002469E0374890F820000121CB
:10256000A140084000285AD033480C3030F81400FD
:1025700031490988884257DA2F48163030F814005C
:102580002D49498888424FDA03A830F824004FF6D5
:10259000FF7188420DD128480C3030F8140003A98F
:1025A00021F824002448163030F8140001EB84018F
:1025B0004880224830F8140002211F4D1635CDE91D
:1025C000001035F814300A3D35F8142003AD05EB42
:1025D0008405698803AD35F8240000F04BF81648EF
:1025E0000C3030F8140003A921F8240012481630EA
:1025F00030F8140001EB840148800F480C3030F8AB
:1026000014100C380088363881420DDD0A48163027
:1026100030F814001A2807DA00F012F804E04FF638
:10262000FF7003A921F82400601CC4B2052C93DBC1
:10263000052001F073F88BE700010020BC4F000873
:102640000CB54FF6FF70FEF76FFB07A01021CDE928
:10265000001007490988363988B2012306220A2169
:1026600000F090F90CBD0000436C65617200000041
:10267000000100202DE9FF4F85B080468946129C5D
:102680000020039002900798A0EB08050898A0EBA3
:102690000906CDF80480CDF80090A04507DBA145E0
:1026A00005DB0798A04202DB0898A04202DA09B0D5
:1026B000BDE8F08F002D02DD4FF0010A06E015B9EC
:1026C0004FF0000A02E04FF0FF3A6D42002E02DDAB
:1026D0004FF0010B06E016B94FF0000B02E04FF08F
:1026E000FF3B7642B54201DD284600E03046074612
:1026F0000020049023E0009A91B2019A90B2224601
:10270000139B00F022F80398284403900298304469
:1027100002900398B84205DD0398C01B039001980E
:10272000504401900298B84205DD0298C01B029007
:102730000098584400900498401C80B20490791C82
:1027400004988842D7DD00BFB1E72DE9F84F054670
:102750000F4690469946444640F2C32008FB00F0DD
:102760004FF47A71B0FBF1F000F1010A08FB08F0B8
:1027700000EB680B05EB0801491E8AB2A5EB0801C6
:1027800088B23B463946CDF80090FEF7F7FB0126AC
:1027900065E006FB06F004FB0400584532D95445B9
:1027A0002FD907EB040C1FFA8CF305EB060CACF1E8
:1027B000020C1FFA8CF207EB040C1FFA8CF1A5EB4C
:1027C000060C0CF1010C1FFA8CF0CDF80090FEF70E
:1027D000D5FBA7EB040C1FFA8CF305EB060CACF150
:1027E000020C1FFA8CF2A7EB040C1FFA8CF1A5EB7C
:1027F000060C0CF1010C1FFA8CF0CDF80090FEF7DE
:10280000BDFB641E07EB060C1FFA8CF305EB040CF2
:10281000ACF1010C1FFA8CF207EB060C1FFA8CF1DD
:10282000A5EB040C1FFA8CF0CDF80090FEF7A6FB88
:10283000A7EB060C1FFA8CF305EB040CACF1010CB2
:102840001FFA8CF2A7EB060C1FFA8CF1A5EB040C17
:102850001FFA8CF0CDF80090FEF790FB761C5645E1
:1028600097D9BDE8F88F00002DE9FF4F0F461646B7
:102870001C46BA462046E31704EB5373DB1021468F
:102880004FEAE47C04EB5C7C4FEAEC0CA4EBCC0C50
:10289000BCF1000F02D04FF0010C01E04FF0000C32
:1028A0006344224604EBD27C4FEA6C0C03FB0CF32E
:1028B00003F0FF0BA6F12000C6B2002556E00C2C59
:1028C00004D0102C0AD0182C16D10DE006EB4600CF
:1028D000284901EB800010F805800DE0264800EB48
:1028E000061010F8058007E006EBC600234901EB4F
:1028F000800010F8058000BF00BF4FF000092FE0F6
:1029000008F0800030B11E48428939460098FEF731
:1029100023FB05E01A48028939460098FEF71CFBA4
:102920004FEA48604FEA10683846791C8FB2144964
:102930004988884201DBBDE8FF8FA7EB0A00A0426F
:102940000AD157460098411C89B200910C49098868
:10295000884200DBEFE706E009F1010000F0FF0923
:10296000B9F1080FCCDB00BF681CC5B25D45A6DB22
:1029700000BFE0E7F2370008663C00085642000856
:10298000000100202DE9F04F05460F4692469B4678
:10299000DDE90946A846B9461BE004FB0A5040455C
:1029A00004DCA84609EB04001FFA80F904FB0B7055
:1029B000484500DC13E016F8012B23464946404603
:1029C000FFF752FF204604EBD07108EB61011FFABC
:1029D00081F830787E2802DC30782028DDDA00BFEC
:1029E000BDE8F08F4FF470406C4908805520891C79
:1029F00008804FF20100891E0880AA20891C0880E7
:102A00004FF20200891E08805220891C08804FF274
:102A10000300891E08800820891C08804FF20400EA
:102A2000891E08800120891C08804FF44540891EBA
:102A30000880881C00884FF6FF7101EA0020584981
:102A400088804CF201505549088055488088891C7F
:102A500009880843524988800846808845F2105109
:102A6000884201D101207047D4204C490880881C3D
:102A700000884B4988804948801C008888804748E6
:102A8000801C00884FF6FF7101EA002044498880CD
:102A9000084680884149891C098808434049888044
:102AA0000846808845F21031884201D10020DAE7DB
:102AB000D3203A490880881C0088394988803748E3
:102AC000801C008888803548801C00884FF6FF7184
:102AD00001EA002032498880084680882F49891CF5
:102AE000098808432E4988800846808849F2413188
:102AF000884201D10020B6E7042028490880881CBC
:102B00000088274988802548801C008888802348C1
:102B1000801C00884FF6FF7101EA00202049888060
:102B2000084680881D49891C098808431C498880FB
:102B30000846808848F25251884205D147F2897090
:102B40001749888000208EE7A12014490880881C3E
:102B50000088134988801148801C00884FF6FF7157
:102B600001EA00200E498880084680880B49891CAC
:102B7000098808430A4988800846808845F26171BF
:102B8000884205D141F663100549888000206AE734
:102B900000200349888000BF65E70000FE07006C45
:102BA000000100204FF428520D4B1A8002129B1C8A
:102BB0001A8042F601229B1E1A80C2B29B1C1A8008
:102BC0004FF42C529B1E1A800A129B1C1A8042F64C
:102BD00001329B1E1A80CAB29B1C1A8070470000EB
:102BE000FE07006C10B50446601038B14FF4487011
:102BF000144908804FF4F070488006E04FF4F070FC
:102C0000104908804FF4487048800E48847134B1F0
:102C1000012C08D0022C0AD0032C10D10BE000208C
:102C200000F012F80BE0032000F00EF807E005209A
:102C300000F00AF803E0062000F006F800BF00BF2D
:102C400010BD00000001002030B505460024082D0D
:102C50001CD2DFE805F00406090C0F12151800BF9E
:102C600014E044F0800411E044F040040EE044F02D
:102C7000C0040BE044F0200408E044F0A00405E0A8
:102C800044F0600402E044F0E00400BF00BF4FF4F1
:102C9000585017490880881C048004F0200068B14F
:102CA0001448008813494988884214DA1148048876
:102CB000408810490880084644800CE00D48008890
:102CC0000C494988884206DD0A4804884088094939
:102CD00008800846448007484088401E83B2054863
:102CE0000088401E82B20021084600F005F830BD81
:102CF000FE07006C0001002030B54FF428541B4D36
:102D00002C800412AD1C2C8042F60124AD1E2C80B8
:102D1000C4B2AD1C2C8042F60224AD1E2C801412CD
:102D2000AD1C2C8042F60324AD1E2C80D4B2AD1C09
:102D30002C804FF42C54AD1E2C800C12AD1C2C801A
:102D400042F60134AD1E2C80CCB2AD1C2C8042F674
:102D50000234AD1E2C801C12AD1C2C8042F60334B4
:102D6000AD1E2C80DCB2AD1C2C8030BDFE07006C8B
:102D70003EB50020019000259D480078401C9C49EC
:102D80000870084600780A2190FBF1F201FB12005E
:102D900018B1974800780A2876DA48F24E122821AE
:102DA0009448FDF7F5FD8DF804009DF8040000F04F
:102DB000800060B19DF8040000F00F00062806DADC
:102DC000002348F24E1228218A48FDF74FFF9DF854
:102DD000040000F00F00002856D09DF8040000F019
:102DE0000F000628D8DA9DF8040000F00F01FF203C
:102DF0008840C0B28DF805007F4890F820008DF81B
:102E000006009DF80500C043C0B240F0C0007A49FA
:102E100081F82000084681898182C18AC18300240B
:102E200087E0754890F820000121A1400840002863
:102E30007DD004200090714830F8142002AB282186
:102E40006C48FDF7F7FD6C48807930B101281CD043
:102E5000022837D0032869D14EE09DF808009DF87C
:102E6000091000EB012081B263480C3020F81410E7
:102E70009DF80A009DF80B1000EB012081B25E481E
:102E8000163020F8141051E087E05B4800889DF868
:102E90000910A0EB01209DF80810401A81B2564895
:102EA0000C3020F814100C3840889DF80B10A0EB63
:102EB00001209DF80A10401A81B24F48163020F8C0
:102EC000141033E09DF808009DF8091000EB012074
:102ED00081B24948163020F81410163800889DF841
:102EE0000B10A0EB01209DF80A10401A81B2424855
:102EF0000C3020F8141019E03F4840889DF8091064
:102F0000A0EB01209DF80810401A81B23A48163013
:102F100020F814109DF80A009DF80B1000EB01201A
:102F200081B235480C3020F8141000BF00BF601C7F
:102F3000C4B2052CFFF675AF681CC5B22E48808957
:102F40002D490988884205DC2B48C08A2A494988CE
:102F500088421FDD9DF8040000F00F0001280ADD03
:102F60002548C089244988810846008BC8820020F2
:102F70001F49087011E02048808A1F49888108464F
:102F8000C08BC88280208DF804009DF8060081F86F
:102F9000200002E00020164908709DF8040000F0AF
:102FA0008F0080281AD1144890F8200000F080008B
:102FB00040B1114890F8200020F080000E4981F8BF
:102FC00020000BE04FF6FF700B498881C88208464D
:102FD00090F8200000F0E00081F82000044800781C
:102FE000F02802DD0A200249087028463EBD000094
:102FF0000C0000202401002000010020B24F000836
:1030000008B5154815490860154848600220088130
:103010000002488181001248FDF772FC0A2000F08E
:103020007DFB4FF400610E48FDF76CFC0A2000F0B8
:1030300075FB4FF48060ADF8000028208DF8030088
:1030400069460748FDF7C8FB4FF480610448FDF767
:1030500059FC002008BD0000000C014024010020A4
:10306000001C014008B54FF4A06000F047F825208F
:103070008DF8000003208DF801008DF8020001207A
:103080008DF80300684600F001F808BD70B5002116
:1030900000230F22C47804B3154C246804F4E064C0
:1030A000C4F5E064210AC1F10403CA40447804FA7B
:1030B00003F184781440214309010E4C0678A15590
:1030C000047804F01F050124AC4005786D11AD00B3
:1030D00005F1E025C5F8004109E0047804F01F057A
:1030E0000124AC40044D0678761145F8264070BDA9
:1030F0000CED00E000E400E080E100E00249014363
:10310000024A1160704700000000FA050CED00E073
:1031100029B1064A52690243044B5A6104E0034A4A
:1031200052698243014B5A6170470000001002400F
:1031300029B1064A12690243044B1A6104E0034AAA
:1031400012698243014B1A6170470000001002406F
:1031500029B1064A92690243044B9A6104E0034A8A
:1031600092698243014B9A6170470000001002404F
:1031700029B1064AD2680243044BDA6004E0034AEC
:10318000D2688243014BDA607047000000100240B1
:1031900030B500210022002400232D4D6D6805F07C
:1031A0000C0121B1042905D0082923D105E0294DBE
:1031B000056022E0274D05601FE0254D6D6805F490
:1031C0007012234D6D6805F48034022505EB9242A0
:1031D0001CB9214D554305600BE01D4D6D6805F48C
:1031E00000351DB11C4D5543056002E0194D554396
:1031F000056002E0174D056000BF00BF144D6D680B
:1032000005F0F0010909154D6B5C0568DD4045606E
:103210000F4D6D6805F4E061090A104D6B5C45685F
:10322000DD4085600A4D6D6805F46051C90A0B4D9B
:103230006B5C4568DD40C560054D6D6805F4404137
:10324000890B074D6B5CC568B5FBF3F5056130BDB7
:103250000010024000127A0000093D000D0000201D
:103260001D00002010B500F001F810BD0CB50020C5
:10327000019000903348006840F480303149086084
:1032800000BF3048006800F4003000900198401CF6
:103290000190009818B90198B0F5A06FF1D12948B4
:1032A000006800F4003010B10120009001E000201F
:1032B00000900098012843D12348006840F0100096
:1032C000214908600846006820F0070008600846A9
:1032D000006840F0020008601A48406819494860D8
:1032E0000846406848600846406840F4806048608E
:1032F0000846406820F47C1048600846406840F466
:10330000E81048600846006840F08070086000BF20
:103310000C48006800F000700028F9D009484068A7
:1033200020F00300074948600846406840F002006A
:10333000486000BF0348406800F00C000828F9D13D
:103340000CBD00000010024000200240042808D1FB
:103350004FF0E021096941F004014FF0E0221161D2
:1033600007E04FF0E021096921F004014FF0E0226D
:103370001161704710B51348006840F00100114911
:10338000086008464068104908400E4948600846F1
:1033900000680E4908400B4908600846006820F4A0
:1033A000802008600846406820F4FE0048604FF422
:1033B0001F008860FFF756FF4FF000600449086067
:1033C00010BD0000001002400000FFF8FFFFF6FEF5
:1033D00008ED00E01FB5044601218803FFF7B8FEA1
:1033E0000F4800F079F800940020ADF80400ADF823
:1033F0000600ADF80800ADF80C000C20ADF80A008E
:103400006946074800F012F9012240F225510448AC
:1034100000F0E7F80121024800F051F81FBD00005C
:103420000038014010B540F225511D4800F0AFF8BA
:1034300018B31B4800F066F9C4B21A48008800F4BB
:10344000004001282BD01748008800F4804060B16C
:103450000A2C03D000201349088020E0114800887E
:1034600040F400400F49088019E00D2C06D10D48AA
:10347000008840F480400B49088010E0094800882B
:10348000C0F30D0008490C5406480088401C05494B
:10349000088008460088C72801DD0020088010BD8C
:1034A00000380140040000203800002001F40072C0
:1034B000B2F5007F00D100BFCA430280704721B13E
:1034C000828942F40052828104E082894DF6FF73C2
:1034D0001A4082817047000010B50446204884429B
:1034E00009D101218803FFF743FE00214FF48040FA
:1034F000FFF73EFE32E01B48844209D10121480417
:10350000FFF716FE00214FF40030FFF711FE25E013
:103510001548844209D101218804FFF709FE0021E2
:103520004FF48020FFF704FE18E01048844209D1D0
:103530000121C804FFF7FCFD00214FF40020FFF734
:10354000F7FD0BE00A48844208D101210805FFF786
:10355000EFFD00214FF48010FFF7EAFD10BD0000E1
:10356000003801400044004000480040004C00404A
:103570000050004002460020B1F5007F00D100BF9E
:1035800013880B400BB1012000E00020704770B59C
:103590000246002400230025002040F66A16B142AE
:1035A00000D100BFC1F3421501F01F03012606FA46
:1035B00003F3012D02D19689334006E0022D02D19A
:1035C000168A334001E0968A33400C12012606FA2F
:1035D00004F41688344013B10CB1012000E000203F
:1035E00070BDF0B50346002400260025002040F6FB
:1035F0006A17B94200D100BF1846C1F3421401F066
:103600001F06012707FA06F5012C01D10C3004E052
:10361000022C01D1103000E014301AB107682F439A
:10362000076002E00768AF430760F0BD2DE9F0478F
:1036300086B005460E460024A24600BFA1460027DC
:10364000B08900B100BF2F462C8A4CF6FF700440B1
:10365000F08804432C82AC894EF6F3100440B08805
:1036600031890843718908430443AC81AC8A4FF621
:10367000FF400440B0890443AC8201A8FFF788FDF5
:103680001F48874202D1DDF810A001E0DDF80CA050
:10369000A88900F4004040B10AEBCA0000EB0A1010
:1036A00031684900B0FBF1F807E00AEBCA0000EB13
:1036B0000A1031688900B0FBF1F86420B8FBF0F023
:1036C00004012009642101FB1089A88900F400404D
:1036D00040B1322000EBC900B0FBF1F000F0070070
:1036E000044308E0322000EB09106421B0FBF1F044
:1036F00000F00F0004432C8106B0BDE8F087000005
:103700000038014001468888C0F308007047C1F3C3
:1037100008028280704700BF704700000146114ACE
:1037200012884A434FF0E0235A6100229A611A46F8
:10373000126942F001021A6100BF4FF0E0221069E5
:1037400000F001021AB100F48032002AF5D04FF0E7
:10375000E022126922F001024FF0E0231A610022F8
:103760009A617047020000200146114A12784A43CC
:103770004FF0E0235A6100229A611A46126942F022
:1037800001021A6100BF4FF0E022106900F001024F
:103790001AB100F48032002AF5D04FF0E02212690D
:1037A00022F001024FF0E0231A6100229A61704773
:1037B0000000002070B504460D4640210748FFF781
:1037C00075FEE1B20548FFF7A2FF00BF40210348A4
:1037D000FFF7D0FE0028F9D0204670BD0038014028
:1037E00010B5FDF78FFAFDF7EDFAFEF7ADFE0020FC
:1037F00010BD0000000000000000000000000000FC
:1038000000003F40000000000000000030004000C9
:1038100030004000000009000BC03D000BC03D001F
:10382000090018C024407FE02240318000001800C9
:1038300024C01B000D803240018003801C402740C3
:103840001C800740004010006000000000000000E5
:1038500000000000000000001F8020404020000009
:10386000402020401F8000000000090006001F804B
:10387000060009000000040004003F80040004006A
:1038800000000010006000000000000000000400C4
:1038900004000400040004000000000000400000D8
:1038A000000000000000002001C0060038004000B9
:1038B00000001F802040204020401F8000000000AA
:1038C00010403FC000400000000018C021402240CE
:1038D00024401840000010802040244024401B80D9
:1038E000000002000D0011003FC0014000003C80BC
:1038F000244024402440238000001F802440244092
:103900003440038000003000200027C03800200031
:1039100000001B802440244024401B8000001C0029
:1039200022C0224022401F8000000000000008400A
:103930000000000000000000000004600000000023
:103940000000000004000A0011002080404009002F
:103950000900090009000900000000004040208023
:1039600011000A0004001800200023402400180061
:1039700000001F802040274029401F4000000040D9
:1039800007C039000F0001C0004020403FC0244064
:1039900024401B8000001F802040204020403080B9
:1039A000000020403FC0204020401F8000002040F9
:1039B0003FC024402E4030C0000020403FC0244083
:1039C0002E00300000000F00108020402240338085
:1039D000020020403FC0040004003FC020402040BF
:1039E00020403FC0204020400000006020202020D8
:1039F0003FC02000200020403FC024400B0030C0CA
:103A0000204020403FC020400040004000C03FC058
:103A10003C0003C03C003FC0000020403FC00C40C1
:103A200023003FC020001F802040204020401F80F6
:103A3000000020403FC024402400180000001F80E8
:103A40002140214020E01FA0000020403FC0244032
:103A5000260019C0004018C0244024402240318074
:103A60000000300020403FC0204030000000200017
:103A70003F80004000403F80200020003E0001C009
:103A8000070038002000380007C03C0007C038009D
:103A90000000204039C0060039C02040000020004E
:103AA000384007C0384020000000304021C0264088
:103AB000384020C00000000000007FE0402040208F
:103AC0000000000070000C000380004000000000B7
:103AD000402040207FE00000000000002000400067
:103AE0002000000000000010001000100010001066
:103AF0000010000000004000000000000000000076
:103B000002800540054003C0004020003FC0044043
:103B1000044003800000000003800440044006408D
:103B2000000000000380044024403FC0004000002B
:103B300003800540054003400000000004401FC012
:103B4000244024402000000002E0055005500650AB
:103B5000042020403FC00440040003C00040000097
:103B6000044027C0004000000000001000100410B6
:103B700027E00000000020403FC00140070004C0D3
:103B80000440204020403FC000400040000007C0EB
:103B9000040007C0040003C00000044007C0044044
:103BA000040003C000400000038004400440038080
:103BB0000000041007F004500440038000000000DF
:103BC00003800440045007F00010044007C0024086
:103BD000040004000000000006400540054004C049
:103BE0000000000004001F800440004000000400AA
:103BF00007800040044007C000400400070004C0E4
:103C0000018006000400060001C0070001C0060094
:103C10000000044006C0010006C00440000004107B
:103C2000071004E00180060004000000044005C005
:103C30000640044000000000000004007BE040203B
:103C40000000000000000000FFF000000000000085
:103C500040207BE0040000000000400080004000A5
:103C600020002000400000000000000000000000D4
:103C70000000000000000000000000001FCC000C4D
:103C80000000000000000000080030006000080094
:103C9000300060000000022003FC1E20022003FC14
:103CA0001E200220000000000E1811043FFF1084A7
:103CB0000C78000000000F0010840F3800C0077857
:103CC00018840078000000780F8410C411240E9826
:103CD00000E4008400080800680070000000000094
:103CE00000000000000000000000000007E01818BD
:103CF000200440020000000040022004181807E0E1
:103D00000000000000000240024001800FF001802E
:103D10000240024000000080008000800FF8008018
:103D20000080008000000001000D000E0000000077
:103D30000000000000000000008000800080008083
:103D40000080008000800000000C000C00000000DB
:103D50000000000000000000000600180060018064
:103D6000060018002000000007F0080810041004E6
:103D7000080807F000000000080408041FFC000405
:103D800000040000000000000E0C10141024104469
:103D900011840E0C000000000C1810041104110412
:103DA00012880C700000000000E0032004240824A6
:103DB0001FFC0024000000001F981084110411044F
:103DC000108810700000000007F00888110411042A
:103DD00018880070000000001C00100010FC130088
:103DE0001C001000000000000E38114410841084E4
:103DF00011440E38000000000700088C10441044E5
:103E0000088807F00000000000000000030C030C0D
:103E1000000000000000000000000001010600009A
:103E2000000000000000000000800140022004109B
:103E300008081004000002200220022002200220B4
:103E400002200220000000001004080804100220D4
:103E500001400080000000000E001200100C106CE9
:103E600010800F00000003E00C1813E4142417C4A2
:103E7000082807D000000004003C03C41C40074091
:103E800000E4001C000410041FFC110411041104C0
:103E90000E880070000003E00C18100410041004D9
:103EA00010081C10000010041FFC10041004100463
:103EB000080807F0000010041FFC1104110417C4C7
:103EC00010040818000010041FFC1104110017C092
:103ED00010000800000003E00C1810041004104447
:103EE0001C780040000010041FFC1084008000803B
:103EF00010841FFC10040000100410041FFC1004A8
:103F000010040000000000030001100110011FFE5A
:103F100010001000000010041FFC11040380146442
:103F2000181C1004000010041FFC100400040004FE
:103F30000004000C000010041FFC1F0000FC1F0008
:103F40001FFC1004000010041FFC0C04030000E020
:103F500010181FFC100007F00808100410041004CB
:103F6000080807F0000010041FFC10841080108067
:103F700010800F00000007F0081810241024101CF7
:103F8000080A07F2000010041FFC1104110011C000
:103F900011300E0C000400000E1C1104108410845B
:103FA00010441C3800001800100010041FFC1004FE
:103FB00010001800000010001FF810040004000496
:103FC00010041FF8100010001E0011E0001C00700B
:103FD00013801C0010001FC0103C00E01F0000E018
:103FE000103C1FC000001004180C163401C001C0A2
:103FF0001634180C100410001C00130400FC1304E9
:104000001C00100000000804101C1064108413042D
:104010001C04101800000000000000007FFE400299
:10402000400240020000000030000C0003800060ED
:10403000001C0003000000004002400240027FFE1E
:1040400000000000000000000000200040004000D0
:1040500040002000000000010001000100010001FB
:1040600000010001000100004000400020000000AD
:1040700000000000000000000098012401440144F9
:10408000014400FC000410001FFC0088010401042E
:104090000088007000000000007000880104010426
:1040A0000104008800000000007000880104010481
:1040B00011081FFC0004000000F801440144014401
:1040C000014400C800000000010401040FFC1104B9
:1040D000110411001800000000D60129012901294E
:1040E00001C90106000010041FFC0084010001004A
:1040F000010400FC000400000104190419FC000480
:10410000000400000000000000030001010119018B
:1041100019FE0000000010041FFC0024004001B440
:10412000010C010400000000100410041FFC000436
:10413000000400000000010401FC0104010001FC76
:104140000104010000FC010401FC008401000100E5
:10415000010400FC0004000000F801040104010453
:10416000010400F80000010101FF008501040104C1
:104170000088007000000000007000880104010445
:10418000010501FF00010104010401FC0084010498
:10419000010001800000000000CC01240124012462
:1041A00001240198000000000100010007F801044B
:1041B000010400000000010001F8000400040004F4
:1041C000010801FC0004010001800170000C0010D6
:1041D00001600180010001F0010C003001C00030DD
:1041E000010C01F0010000000104018C0074017059
:1041F000018C01040000010101810171000E001811
:1042000001600180010000000184010C01340144BF
:104210000184010C0000000000000000000001000B
:104220003EFC400240020000000000000000FFFFD2
:104230000000000000000000400240023EFC0100BF
:1042400000000000000000006000800080004000CE
:1042500040002000200000000000000000000000DE
:10426000000000000000000000000000000000004E
:10427000000000000000000000000000000000003E
:104280000000000000000000000F80380FFE380F13
:104290008038000000000000000000000000000066
:1042A000000000000100000600000C0000380000C3
:1042B0003100000600000C00003800003000000053
:1042C00000000000000061800067F807F9800061CD
:1042D000800061800061800061800067F807F980DC
:1042E00000618000000000000000000001C0E00349
:1042F000E0F00630080418081FFFFE040E080787C8
:10430000F00381E000000000000001F000060C0056
:10431000040408060C7001F9C0000E00003BE00028
:10432000EC18070808040C180003E0000000000166
:10433000E00007F003F818041C0804170807E1D090
:1043400003C0E00023B0003C08002008000010007B
:1043500000000000000100003100003200001C00DD
:10436000000000000000000000000000000000004D
:10437000000000000000000000000000000000003D
:104380000000000000007F0001FFC00780F00C006B
:1043900018100004200002000000000000200002AD
:1043A0001000040C00180780F001FFC0007F00001F
:1043B00000000000000000000000000000000000FD
:1043C00000004200006600006600003C000018008B
:1043D00003FFC0001800003C0000660000660000FB
:1043E000420000000000080000080000080000086B
:1043F0000000080001FFC0000800000800000800DD
:10440000000800000800000000000001000031006A
:10441000003200001C00000000000000000000004E
:104420000000000000000000000000000000080084
:104430000008000008000008000008000008000054
:10444000080000080000080000080000000000004C
:1044500000000000000038000038000038000000B4
:10446000000000000000000000000000000000004C
:10447000000000000000000600001C0000700001A9
:1044800080000E0000380000C0000700001C000083
:10449000300000000000000000007F8001FFE0030A
:1044A0008070060018040008040008060018038045
:1044B0007001FFE0007F80000000000000000000AD
:1044C00001000801000801000803FFF807FFF800D9
:1044D00000080000080000080000000000000000C4
:1044E0000001C03802C058040098040118040218E2
:1044F000040418061C1803F81801E0F80000000076
:10450000000000000001C0E003C0F004000804083F
:104510000804080806180803F41801E7F00001E091
:10452000000000000000000000000300000D00007B
:10453000110000610000810803010807FFF80FFF68
:10454000F80001080001080000000000000000E081
:1045500007FCD00608080610080610080610080612
:104560001838060FF00607C0000000000000000029
:1045700000003F8001FFE0038430020818041008A7
:10458000041008041008071810030FF00007C000FB
:10459000000000000000000003C00007000006004B
:1045A000000600F80607F806180006E000070000FD
:1045B00006000000000000000001E1E003F7F00643
:1045C0003410041808041808040C08040C08061613
:1045D0001803F3F001C1E000000000000000F80043
:1045E00003FC30030638040208040208040208042D
:1045F00004100308F001FFC0007F0000000000006D
:104600000000000000000000000000000000703802
:10461000007038007038000000000000000000004A
:10462000000000000000000000000000000000008A
:104630000000301A00301C000000000000000000E4
:104640000000000000000000000000000008000062
:1046500014000022000041000080800100400200A0
:1046600020040010080008000000000000002100E5
:104670000021000021000021000021000021000095
:1046800021000021000021000021000000000000A6
:104690000000000008000804001002002001004093
:1046A000008080004100002200001400000800008B
:1046B000000000000003C00004C000040000080067
:1046C00038080F380808380810000C300007E000E0
:1046D00003C000000000000000003F8000FFE00376
:1046E0008070020F1006708804C088048308047F5D
:1046F0008802C09003012000FE400000080000185E
:104700000001F8003E0801C20007020007E20000B5
:10471000FE00001FC80001F8000038000008040077
:104720000807FFF807FFF804080804080804080849
:1047300004080806180803F41801E7F00001E00077
:104740000000000000003F8001FFE00380700200D5
:1047500018040008040008040008040010060020E3
:104760000780C000000004000807FFF807FFF804F6
:104770000008040008040008040018020010038068
:104780007001FFE0007F8000000004000807FFF8D0
:1047900007FFF804080804080804080804080804C7
:1047A0003E08040008060018010060000000040034
:1047B0000807FFF807FFF8040808040800040800C9
:1047C000040800043E00060000060000018000000E
:1047D0000000000000003F8001FFE0038070060041
:1047E000180400080402080402080203F00783F01A
:1047F00000020000020004000807FFF807FFF804A9
:10480000080800080000080000080000080004086C
:104810000807FFF807FFF804000800000000000088
:1048200004000804000804000807FFF807FFF80464
:104830000008040008040008000000000000000058
:104840000000000600000700000104000104000150
:1048500004000307FFFE07FFFC040000040000043F
:10486000000004000807FFF807FFF8040C08001810
:1048700000003E0004C7800503C80600F8040038A5
:1048800004001800000804000807FFF807FFF804F8
:1048900000080000080000080000080000080000F0
:1048A0000800001800006000000004000807FFF87E
:1048B00007800807FC00007FC00003F80007C00065
:1048C000780007800807FFF807FFF80400080400D5
:1048D0000807FFF807000803C00000E000003800E8
:1048E000001E000007000001C00400F007FFF804EC
:1048F0000000000000007F8001FFE00380700600E0
:104900001804000804000806001803003001FFE046
:10491000007F8000000004000807FFF807FFF8048C
:104920000408040400040400040400040400060C49
:104930000003F80001F000000000000000007F808C
:1049400001FFE00380700600880400880400C806A8
:10495000003C03003E01FFE6007F840000000400ED
:104960000807FFF807FFF8040808040800040C0013
:10497000040F00040BC00610F003F03801E008003B
:10498000000800000001E0F803F0300630100418C1
:1049900008041808040C08040C080206180207F0A2
:1049A0000781E00000000180000600000400000410
:1049B000000004000807FFF807FFF80400080400DF
:1049C0000004000006000001800004000007FFE072
:1049D00007FFF004001800000800000800000800AD
:1049E000000800000804001007FFE00400000400B5
:1049F0000006000007E00007FE00041FE00001F8C9
:104A00000000380001E0043E0007C000060000047A
:104A1000000004000007E00007FFC0041FF80007C3
:104A2000C007F80007FF80043FF80007C004F80043
:104A3000070000040000000000040008060018073A
:104A4000C07805F1C8003E00001F800463E80780BD
:104A5000F80600180400080000000400000600002A
:104A600007800007E008047C08001FF80007F80032
:104A7000180804E008070000060000040000000019
:104A8000000100080600380400F80403E8040F08D9
:104A9000047C0805F00807C008070018040060003F
:104AA0000000000000000000000000000000000006
:104AB000003FFFFE20000220000220000220000232
:104AC00020000200000000000000000008000007B5
:104AD000000000C0000038000006000001C0000017
:104AE0003000000E00000100000000000000000087
:104AF0002000022000022000022000022000023FCD
:104B0000FFFE0000000000000000000000000000A8
:104B1000000000000000000800001000003000004D
:104B2000200000300000100000080000000000001D
:104B30000000000001000001000001000001000071
:104B4000010000010000010000010000010000015F
:104B50000000010000010000000000000000002033
:104B60000000200000100000100000000000000005
:104B7000000000000000000000000000000000F045
:104B80000019F8001B18002208002608002408005D
:104B90002410003FF8001FF8000008000018000073
:104BA0000004000007FFF80FFFF0001818001008BD
:104BB000002008002008003018001FF0000FC0007F
:104BC00000000000000007C0001FF00018300020A7
:104BD00008002008002008003C08001C10000060AD
:104BE0000000000000000000000007C0001FF000EF
:104BF000381800200800200800200804101007FFC3
:104C0000F80FFFF00000100000000000000000009E
:104C10000007C0001FF00012300022180022080018
:104C20002208003208001E10000E200000000000C4
:104C30000000200000200800200801FFF803FFF812
:104C400006200804200804200807200003000000B4
:104C5000000000000000000E000E6E001FF3003187
:104C6000B10020B10020B1003191001F13002E1EB1
:104C700000200E00300000000004000807FFF80FBD
:104C8000FFF8001008002000002000002008003F6E
:104C9000F8001FF8000008000000000000000000FD
:104CA000002008002008002008063FF8063FF80012
:104CB00000080000080000080000000000000000DC
:104CC000000000000000030000030020010020019C
:104CD000002003063FFE063FFC000000000000002D
:104CE000000000000004000807FFF80FFFF80001B3
:104CF00088000300002FC00038F80020380020088A
:104D0000000008000000000000000000040008048B
:104D1000000804000807FFF80FFFF8000008000073
:104D200008000008000000000000002008003FF814
:104D3000003FF8001008002000003FF8003FF80096
:104D40001008002000003FF8003FF80000080000B5
:104D500000002008003FF8003FF800100800100095
:104D6000002000002008003FF8001FF800000800A5
:104D700000000000000007C0000FF00018300030F5
:104D800008002008002008003008001830000FF04C
:104D90000007C0000000000000002001003FFF00ED
:104DA0003FFF0010110020090020080020080030FB
:104DB00038001FF0000FC00000000000000007C016
:104DC000001FF0003818002008002008002009000B
:104DD0001011001FFF003FFF000001000000002035
:104DE00008002008002008003FF8003FF8000808ED
:104DF00000100800200800200000300000300000F3
:104E00000000000000000000000C78001E180033B5
:104E1000080023080021080021880021980030F0B4
:104E200000386000000000000000200000200000AA
:104E3000200000FFF003FFF80020080020080020F9
:104E4000080000300000000000000000000020000A
:104E5000003FF0007FF80000180000080000080084
:104E60002010003FF8007FF000001000000000005C
:104E700000002000003000003C00003F800023F0D4
:104E8000000078000070002380003C00003000002B
:104E90002000002000003C00003FE00023F800005C
:104EA000E0002700003E00003FE00021F80001E0A4
:104EB000003E000020000000000020080020080044
:104EC0003838003E680027800003C8002CF80038FE
:104ED000380020180020080000000000000020001A
:104EE000003003003C01003F830023EC0000700011
:104EF0002380003C00002000002000000000000093
:104F0000000000000038080020380020F80023E8E6
:104F1000002F88003E0800380800201800007000AC
:104F20000000000000000000000000000000000081
:104F3000000008000014001FF7FC300006200002EB
:104F40000000000000000000000000000000000061
:104F50000000000000000000FFFFFF000000000054
:104F60000000000000000000000000000000000041
:104F70002000023000061FF7FC00140000080000AB
:104F80000000000000000000000000000000000021
:104F900000180000600000400000400000200000F9
:104FA0001000000800000400000400000C000010C5
:104FB000000050815881608168817081000000F894
:104FC0001F00FF07E00730313233343536373839C8
:104FD0004142434445464030580030313233343545
:104FE00036373839616263646566403078000000A6
:104FF0001050000800000020380000006C0100087C
:1050000048500008380000205807000088010008B8
:105010000000000000000000000000000000000090
:105020000001020304010203040607080902040642
:105030000800000000A24A04000000000000000078
:08504000010203040607080940
:0400000508000131BD
:00000001FF
