:020000040800F2
:10000000C80C0020E5010008ED010008EF01000820
:10001000F1010008F3010008F501000800000000EC
:10002000000000000000000000000000F7010008D0
:10003000F901000800000000FB010008FD010008B4
:10004000FF010008FF010008FF010008FF01000890
:10005000FF010008FF010008FF010008FF01000880
:10006000FF010008FF010008FF010008FF01000870
:10007000FF010008FF010008FF010008FF01000860
:10008000FF010008FF010008FF010008FF01000850
:10009000FF010008FF010008FF010008FF01000840
:1000A000FF010008FF010008FF010008FF01000830
:1000B000FF010008FF0100089D2B0008FF01000858
:1000C000FF010008FF010008FF010008FF01000810
:1000D000FF010008AD2D0008FF010008FF01000826
:1000E000FF010008FF010008FF010008FF010008F0
:1000F000FF010008FF010008FF010008FF010008E0
:10010000FF010008FF010008FF010008FF010008CF
:10011000FF010008FF010008FF010008FF010008BF
:10012000FF010008FF010008FF010008FF010008AF
:1001300000F002F800F047F80AA090E8000C8244B2
:100140008344AAF10107DA4501D100F03CF8AFF28F
:10015000090EBAE80F0013F0010F18BFFB1A43F0A5
:10016000010318471862000038620000103A24BFEB
:1001700078C878C1FAD8520724BF30C830C144BF0C
:1001800004680C607047000000230024002500264E
:10019000103A28BF78C1FBD8520728BF30C148BFEA
:1001A0000B607047662904F0F680002070471FB589
:1001B00000F062FB04000020002103F06DF9E06014
:1001C0001FBD10B510BD00F05BFC1146FFF7EFFF3F
:1001D00003F030F900F079FC03B4FFF7F2FF03BC41
:1001E00002F0D9FF0948804709480047FEE7FEE7CB
:1001F000FEE7FEE7FEE7FEE7FEE7FEE7FEE7FEE7D7
:1002000004480549054A064B70470000FD2A0008CE
:1002100031010008C8060020C80C0020C8080020D2
:10022000C8080020704700000FB4044910B503AAA5
:10023000029800F00FFB10BC5DF814FB08000020D2
:100240000FB41CB5074B06AA7B446946009005987D
:1002500000F0E7FA0020694600F0F6FA1CBC5DF8F1
:1002600014FB0000FD05000070B5044685690068B8
:10027000C10601D5302600E02026C00707D070BD9A
:10028000D4E9012130469047206A401C20626D1E4F
:10029000F6D570BD70B5044685690078C00707D1F2
:1002A00070BDD4E9012120209047206A401C2062C3
:1002B0006D1EF6D570BD00002DE9F05F894604463D
:1002C0004FF0000ADFF824B1FB44C0F820A020461C
:1002D000E168884700287DD0252806D0D4E901218F
:1002E0009047206A401C2062F1E700255F462046C7
:1002F000E16888472028064607DB312E05D2B81969
:1003000010F8200C08B10543F1E7A80701D525F046
:100310000405C4F81CA00027C4F818A02A2E09D090
:10032000304602F031FF38B304EB8708303EC8F89E
:10033000186019E059F8041B204604EB870291610C
:10034000E1688847012F064618D1E069002820DAC5
:1003500025F020051DE0D8F8180000EB800006EB22
:1003600040003038C8F818002046E1688847064643
:1003700002F00AFF0028EED1012F0AD02E2E08D15C
:100380002046E16888477F1C0646022F45F020057D
:10039000C4DBA069002803DA404245F00105A061F2
:1003A000E80701D025F01005A6B1A6F141001928F3
:1003B00002D8203645F400654A463146204625607D
:1003C0004D46FFF7EFFE60B1012807D0ED1D25F087
:1003D000070000E007E000F1080978E705F10409EB
:1003E00075E730467AE7206ABDE8F09F6E5F00004F
:1003F000704770477047704770472DE9FF4F0C46B4
:100400001E464FF0FF378BB0D2E90001DDF8608067
:100410000A908A46C1F30A5505B93D4600210846AF
:100420004FF00000BAF1000F00F4400005DA00EBD5
:1004300080004FF4400101EA50004FEA9059B9F1B1
:10044000010F00DDB9460A9850EA4A000ED044F682
:100450001050A5F2FF3545432F14B8F1000F1ED000
:100460007542291E1EDDC9F100021CE0B8F1010F22
:100470004FF0000001D0302103E0F24305E02154A9
:10048000401CB042FBDB30460022002121540B9976
:10049000C1F80880C1E900200FB0BDE8F08FBD1B96
:1004A0006D1CDEE74A4600DA694206A800F06EFAE3
:1004B00006AB93E8070003AB83E8070050460A99B0
:1004C00000F04CFB8DE80700A0F500501F380090AD
:1004D0000398002D0ADD42F21F014A46084400231A
:1004E00003A90390684600F0B5FD09E0A0F50050AF
:1004F0004A461F38002303A90390684600F0BFFD59
:100500008DE807000004000C03D04FF0FF304108D5
:1005100000E01046B8F1000F03D00022009215460B
:100520001EE0751E05D400F0ABF9303262556D1E29
:10053000F9D5B3460122084302D000227F1C04E013
:100540002078302801D100227F1E002A099784D00C
:100550001DE0112D07DA00F093F9303262556D1C61
:1005600050EA0102F5D1084302D00098C8B10EE06C
:100570000021681E05E0235C625C63542254401E27
:10058000491C8142F7DBAB46A81B401E09900020A6
:1005900004F80B000B98099AC0F80880C0E9002BFA
:1005A0007AE711264FF0000857E72DE9F04F88460B
:1005B0000446D21D22F0070191B0D1E90001CDE936
:1005C0000A0102F06CFD02460B98C00F01D02D20ED
:1005D00007E02068810701D52B2002E0202101EAF5
:1005E000C000032A099001D0072A05DB03464146D3
:1005F000204600F08BF90BE12078800601D5E069F8
:1006000000E00620B8F1650F814606D0B8F1660F0C
:1006100018D0B8F1670F70D131E00020B9F1110F97
:10062000009001DB112301E009F101030AAA01A9ED
:100630000CA8FFF7E2FEDDE90C70002609F10105C8
:10064000834647E001204B4600904FF000470AAA3E
:1006500001A90CA8FFF7D1FEDDE90DB00C995D46AC
:10066000002610B909F101000D18B9EB050003D4FB
:10067000C0F1FF3609F10105A5EB09002BE0B9F146
:10068000010F01DA4FF001090020B9F1110F0090BC
:10069000484601DD112300E003460AAA01A90CA87F
:1006A000FFF7ABFEDDE90C704D460026834620784F
:1006B00000070AD4AB4500DA5D4601A8012D04DD30
:1006C000411911F8011C302907D04F4502DA17F102
:1006D000040F04DA012082460FE06D1EEEE7002FC2
:1006E00002DCED1B3E4403E0781CA84200DD7D1CCB
:1006F000B81B00F1010A4FF000472078000703D42F
:10070000AA4501DB4FF0FF3A0021B7F1004F0DF190
:1007100043088DF8431024D002202B23002F01DA48
:100720007F422D230A21021EA0F1010000DC5FB1EF
:1007300097FBF1FC97FBF1F201FB1C7C17460CF1D7
:10074000300C08F801CDEEE7A8F101000370218814
:10075000090501D5452100E06521A0F1010800F857
:10076000011C09980FA9A1EB0807FF1D00B101208A
:10077000411901EBEA70A1693844081A401EA061D2
:100780002078C00602D42046FFF76EFD099828B1F4
:10079000D4E901219047206A401C20622078C006DD
:1007A00022D52046FFF760FD1EE0002E04DBB34596
:1007B00002DD01A8805D00E03020D4E901219047EE
:1007C000206A401C2062761CAAF101005FEA000A40
:1007D0000AD100F051F8C0680168405CD4E90121F9
:1007E0009047206A401C2062281EA5F10105DCDC30
:1007F00007E0D4E9012118F8010B9047206A401C5A
:100800002062381EA7F10107F3DC2046FFF742FD06
:10081000032011B041E6000001694A1C026108781A
:10082000704700B58FB0CDE9013100210591054930
:100830007944CDE9031011466846FFF73DFD0FB03E
:1008400000BD0000E5FFFFFF0A6802F8010B0A6027
:1008500070470000074B70B50D467B44FFF7E1FF82
:100860000446284600F004F910B14FF0FF3070BD87
:10087000204670BDAB2B0000004870478406002066
:1008800030B5B0F10A024FEA900E71F100034EEA62
:10089000817EB0EB0E0061EB91014FEA101E4EEA33
:1008A000017E10EB0E0041EB11114FEA102E4EEAC3
:1008B000016E10EB0E0041EB11214FEA104E4EEA93
:1008C000014E10EB0E0041EB1141401841F10001C7
:1008D0004FEAD00040EA41704FEAD10110EB8005A9
:1008E0004FEA810444EA907444EB01046D1944EB2F
:1008F0000404521BA3414FF0000348BF0A3200D545
:1009000030BD401C41F1000130BD00002DE9F04137
:100910001F46044603260168072A01F4006004DB31
:1009200008B116A505E016A503E008B115A500E07D
:1009300015A521F010002060A069C01EA0610FB1B4
:10094000401EA0612046FFF78FFC4FB1D4E9012182
:1009500038469047206A401C2062C01C206206E096
:10096000206AFAE7D4E9012115F8010B9047761EB9
:10097000F8D22046FFF78EFCBDE8F0814E414E00D4
:100980006E616E00494E4600696E66002DE9F047C3
:10099000814616468AB0354878440DC88DE80D006A
:1009A00032487844801C03AC0DC884E80D0041F641
:1009B0009B300844372190FBF1F290FBF1F5A5F153
:1009C000800501FB12041B3C02D56442012000E0BB
:1009D0000020DFF898A080460027FA44AAF1BE0A5A
:1009E0000EE0E0070AD03246684607EB47010123D4
:1009F0000AEB810100F043FB8DE8070064107F1CC7
:100A0000002CEED1194F7F44AE3F19E0E80715D016
:100A100007EB04100DF1180A90E80E008AE80E00AA
:100A2000C068F04201D1981908903246012306A906
:100A300003A800F024FB03AB83E807006D10641CDF
:100A4000002DE3D14FF0010332466946B8F1000FA3
:100A500003A802D000F0FEFA01E000F010FBC9E9A3
:100A60000001C9F808200AB0BDE8F087C8590000A5
:100A7000007B00F08000704700487047640600204B
:100A80007546FFF7F9FFAE4605006946534620F06C
:100A90000700854618B020B5FFF7B2FBBDE820403F
:100AA0004FF000064FF000074FF000084FF0000B2A
:100AB00021F00701AC46ACE8C009ACE8C009ACE8DD
:100AC000C009ACE8C0098D46704710B50446AFF3C5
:100AD00000802046BDE81040FFF77EBB4FF0013C90
:100AE00050F8042B51F8043B9A4221D1A2EB0C039D
:100AF000934313EACC1317D150F8042B51F8043B5D
:100B00009A4215D1A2EB0C03934313EACC130BD1F9
:100B100050F8042B51F8043B9A4209D1A2EB0C0384
:100B2000934313EACC13DBD04FF00000704700BFB3
:100B3000D01A01BAB1FA81F101F0180122FA01F0DC
:100B4000CB40C1F12001DBB2C0B2C01A2CFA01F3D4
:100B5000D11A914311EAC311E6D170475FEA400C04
:100B600008BF91F0000F4FEA8C234FEAC12243EAFD
:100B700051514FEA1C5018BF00F5F0404FEA3000C9
:100B800018BF41F000415FEA6C5C00F02980BCF1C5
:100B9000FF3F08BF40F080407047130C06BF1204AF
:100BA0004FF0100C4FF0000C130E04BF12020CF1AA
:100BB000080C130F04BF12010CF1040C930F04BFB7
:100BC00092000CF1020CD30F04BF52000CF1010C87
:100BD00011464FF00002A0F11F00A0EB0C0070477F
:100BE00011F0004F08BF704731F000413FF4D5AF1E
:100BF0000B0C06BF09044FF0100C4FF0000C0B0E4D
:100C000004BF09020CF1080C0B0F04BF09010CF121
:100C1000040C8B0F04BF89000CF1020CCB0F04BF36
:100C200049000CF1010CCCF12003A0EB0C0022FADE
:100C300003F302FA0CF241EA030100F101007047EC
:100C400020F07F4C80EA030023F07F47ACEB0703E2
:100C500003F57C5300F0004003F1FF032DE98049C8
:100C60004FEA154B09B44FEA144325EA0B4E24EA28
:100C700003480FF2042606EB132749083E785FEA83
:100C8000320203FB0667C7F5000707FB06F64FEACB
:100C900054374FEAD64606F1020607FB066CCCF144
:100CA000005C4FEA1C472CEA074C07FB06F40CFBE0
:100CB00006F504EB15464FEA961634BF00204FF0B8
:100CC00000404FEAD13706FB07FC4FEA1C4C0CFBF7
:100CD0000BF7D21B03FB0CF761EB07010CFB0EF7C4
:100CE000B0EB074072EB17420CFB08F734BFA2EBE6
:100CF0000742B2EB074261EB17414FEA0C444FEA5F
:100D0000910706FB07FC4FEA1C4C0CFB0BF7B0EB02
:100D1000C74072EB573203FB0CF734BFA2EBC7425C
:100D2000B2EBC74261EB57310CFB0EF7B0EBC700DB
:100D300072EB57720CFB08F734BFA2EBC702B2EBA1
:100D4000C70261EB5771039F4FEA816141EA92113B
:100D500004EBCC044FEAD1374FEA826206FB07FC72
:100D600042EA90124FEA80604FEA1C4C0CFB0BF7F2
:100D7000D21B03FB0CF761EB07010CFB0EF7B0EB8A
:100D8000074072EB17420CFB08F734BFA2EB074297
:100D9000B2EB074261EB17414FEA8C554FEA9107DE
:100DA00004EB9C2406FB07FC4FEA1C4C0CFB0BF7E6
:100DB000B0EBC74072EB573203FB0CF734BFA2EB2A
:100DC000C742B2EBC74261EB57310CFB0EF7B0EBF9
:100DD000C70072EB57720CFB08F734BFA2EBC702D7
:100DE000B2EBC70261EB577115EB4C254FEA8161FD
:100DF00041EA92114FEA82624FEAD13742EA9012F9
:100E000006FB07FC44F100044FEA80604FEA1C4CEB
:100E10000CFB0BF7D21B03FB0CF761EB07010CFB80
:100E20000EF7B0EB074072EB17420CFB08F734BF2C
:100E3000A2EB0742B2EB074261EB174115EB1C1521
:100E40004FEA813141EA92414FEA823242EA9042CE
:100E50004FEA80304FEA0C7644F1000448EA03433D
:100E60004EEA0B484FF0000EB2EB080C71EB030793
:100E700024BF624639464EEB0E0E4FF0000B0018B1
:100E8000524149414BEB0B0BB2EB080C71EB0307E2
:100E90007BF1000B24BF624639464EEB0E0E4FF03D
:100EA000000B0018524149414BEB0B0BB2EB080C05
:100EB00071EB03077BF1000B24BF624639464EEB12
:100EC0000E0E51EA020718BF46F0010616EB0E7629
:100ED00055F1000254F1000103D5BDE88901BDE8D8
:100EE0000088BDE88901BDE80048B619524141EBD0
:100EF0000101A3F10103704780807F7E7D7C7B7AB6
:100F00007978777676757473727171706F6E6E6DB5
:100F10006C6C6B6A6A69686867666665646463635B
:100F200062616160605F5F5E5E5D5D5C5C5B5B5AE1
:100F30005A5959585857575656555555545453534E
:100F400052525251515050504F4F4F4E4E4D4D4DA9
:100F50004C4C4C4B4B4B4A4A4A49494948484847F4
:100F60004747474646464545454444444443434332
:100F70004342424242414141002B9C4630D47700DB
:100F80002BD01CB54FEA370703B44FF010004FF0D9
:100F90001001BAF1000F06D0BCF1000FDCBF40F029
:100FA000080040F008014FF000000FBCBDE8104001
:100FB0000BF1010BBBF1010F08BF5FEA170722BF5E
:100FC00012F1010211F101014FF0004143F1000360
:100FD00000F0004043EA00007047F9D35708D0E71B
:100FE00046EA064613F1400F4FEA16461FDD13F19D
:100FF000200FDFBF16430A46002120335B42BED0DC
:10100000C3F1200746EA064602FA07F74FEA1646FA
:1010100046EA0706C3F1200722FA03F201FA07F7AE
:1010200021FA03F14FF0000342EA0702A7E746EA7C
:10103000020646EA06464FEA164646EA0106BCBFE5
:1010400046EA0646360C4FF000034FF000024FF020
:10105000000194E72DE9804C9A46934670B491E8DC
:10106000380007C831EA400C48BF34EA430C03D5C6
:10107000FFF7E6FDFFF780FFF0BCBDE8008C2DE92F
:10108000804C9A46934670B491E8380007C810F037
:10109000804F08BF13F0804F03D100F005F8FFF731
:1010A0006BFFF0BCBDE8008C20F07F4780EA0300B6
:1010B00023F07F4C07EB0C03A3F57C5300F00040BA
:1010C000A3F1FE0392F0000F00F0B38095F0000F43
:1010D00000F077802DE901494FEA11404FEA1446AC
:1010E00021EA004800FB06FC24EA064708FB06F656
:1010F00007FB08F800FB07F718EB06484CEB164C0B
:101100004FEA124B18EB07484FEA15464CEB1740D5
:1011100022EA0B4E0BFB06FC25EA06470EFB06F601
:1011200007FB0EFE0BFB07F71EEB064E4CEB164CB7
:101130004FF000061EEB074E4CEB174B18EB0B085D
:1011400040F1000018EB0E0B58EB000840F10000D6
:101150008F1A4FF000013CBFC943661B14BFB5EBAB
:10116000040C00213CBFC943F61B4FEA17444EEA6A
:101170008E0E27EA04454FEA1C4704FB07622CEA5F
:10118000074C05FB07F70CFB05F604FB0CFC16EB04
:10119000074642EB174216EB0C4642EB1C421BEB98
:1011A000060658EB0202414146EA9E0601D5BDE81B
:1011B0000189B619524141EB0101A3F10103BDE8D8
:1011C00001894FEA14454FEA114724EA054621EA0E
:1011D000074C05FB07F406FB07F70CFB06F105FBC4
:1011E0000CFC11EB074144EB17444FEA124711EB9B
:1011F0000C4144EB1C4422EA074C05FB07F206FBBA
:1012000007F70CFB06F605FB0CFC16EB074642EB5A
:10121000174216EB0C4642EB1C456A1854F10001CC
:1012200048BF7047B619524141EB0101A3F10103D8
:10123000704795F0000F37D04FEA11424FEA14473C
:1012400021EA024624EA074C02FB07F106FB07F7F6
:101250000CFB06F402FB0CFC14EB074441EB1741BA
:101260004FEA154714EB0C4441EB1C4125EA074CAF
:1012700002FB07F506FB07F70CFB06F602FB0CFC6E
:1012800016EB074645EB174516EB0C4645EB1C42A3
:10129000121951F1000148BF7047B619524141EB94
:1012A0000101A3F1010370474FEA14454FEA1147CA
:1012B00024EA054621EA074C05FB07F106FB07F780
:1012C0000CFB06F24FF0000605FB0CFC12EB07428C
:1012D00041EB174112EB0C4251EB1C4148BF7047E8
:1012E000921841EB0101A3F10103704710B56FF0B3
:1012F000040001F0EFFB0A4800680A49B0FBF1F076
:10130000094908700846007800EB4001C1EBC010A5
:101310004FF6FF7101EAC0000449088010BD0000CB
:10132000D800002000127A000000002002000020F7
:1013300008B501210D2001F0CFFA4FF40070ADF88F
:10134000000003208DF8020018208DF80300694684
:10135000194800F035F84FF48060ADF80000042023
:101360008DF803006946144800F02AF82020ADF8F3
:10137000000003208DF8020010208DF8030069465C
:101380000E4800F01DF820210C4800F0A4F84FF49E
:101390004060ADF8000003208DF802001C208DF89D
:1013A00003006946054800F00BF84FF4406103481C
:1013B00000F091F808BD000000080140000C014059
:1013C0002DE9F041024600250026002000230024DC
:1013D000002791F803C00CF00F0591F803C00CF042
:1013E000100CBCF1000F03D091F802C04CEA0505C7
:1013F00091F800C0BCF1000F31D0146800202BE040
:101400004FF0010C0CFA00F3B1F800C00CEA03062F
:101410009E4220D183004FF00F0C0CFA03F7BC431F
:1014200005FA03FC4CEA040491F803C0BCF1280F50
:1014300006D14FF0010C0CFA00FCC2F814C00AE00F
:1014400091F803C0BCF1480F05D14FF0010C0CFA24
:1014500000FCC2F810C0401C0828D1D31460B1F8B9
:1014600000C0BCF1FF0F34DD546800202EE000F115
:10147000080C4FF0010808FA0CF3B1F800C00CEAB0
:1014800003069E4221D183004FF00F0C0CFA03F7A4
:10149000BC4305FA03FC4CEA040491F803C0BCF118
:1014A000280F05D100F1080C08FA0CF8C2F81480D6
:1014B00091F803C0BCF1480F07D100F1080C4FF0C0
:1014C000010808FA0CF8C2F81080401C0828CED396
:1014D0005460BDE8F0810161704710B5C26821EA2F
:1014E000020302EA010443EA0443036110BD21B18F
:1014F000028842F48062028004E002884FF6FF33E3
:101500001A400280704770B502460024002500236F
:101510000020958A138B1B0445EA030626F07F44BE
:1015200004EA01068E4201D1012000E0002070BDD6
:1015300021B1028842F00102028004E002884FF6E5
:10154000FE731A40028070471FB50121880501F023
:10155000A3F90F4800F020F84FF48060ADF80A00BE
:101560000001ADF80C000B4800904BF6FF70ADF891
:1015700006000020ADF80400C020ADF80800694660
:10158000034800F05BF801210148FFF7D1FF1FBDC0
:1015900000580040801A060010B504460B488442EB
:1015A00009D10121480501F087F900214FF400100D
:1015B00001F082F908E00121880501F07DF90021A0
:1015C0004FF4800001F078F910BD00000054004095
:1015D00021B1028842F48072028004E002884FF652
:1015E000FF631A400280704721B1028842F4007202
:1015F000028004E002884FF6FF531A4002807047D1
:101600000CB50246002000230193009300920B0FBB
:10161000019321F07F41019B1BB1009B1433009388
:1016200003E0090C009B18330093009B1B680B40E0
:101630000BB1012000E000200CBD00002DE9F043BB
:1016400085B004460D460026B1460427DFF8CC805D
:10165000A6884FF6C0700640684601F05DF9DDF8D7
:1016600008802F48B8FBF0F01FFA80F946EA090617
:10167000A68020884FF6FE71084020800026294968
:10168000286888420CD828684000B8FBF0F087B280
:10169000042F00DA04273E4309F10100208427E0EB
:1016A000E8884BF6FF71884206D1286800EB4000BD
:1016B000B8FBF0F087B209E0286800EBC00101EB4D
:1016C0000010B8FBF0F087B247F48047C7F30B0077
:1016D00008B947F0010747F4004006434FF49670FD
:1016E00009FB00F04FF47A7190FBF1F0401C20846C
:1016F000A683208840F00100208026884FF6F53030
:101700000640A8886989084306432680A889298954
:101710000843208105B0BDE8F083000000127A0084
:1017200040420F00A08601002DE9F04106460F4619
:101730001546002400BF4FF400313046FFF760FF2C
:101740000028F8D101213046FFF742FF00BF36499B
:101750003046FFF7D8FE0128F9D10022394630463D
:1017600000F0F6F805E02046611CCCB2FA2800DD56
:1017700053E02E493046FFF7C6FE0128F3D100247E
:101780002946304600F0EDF805E02046611CCCB259
:10179000FA2800DD41E02549891C3046FFF7B3FEF9
:1017A0000128F2D1002401213046FFF711FF00BFCC
:1017B0001D493046FFF7A7FE0128F9D1012239461D
:1017C000304600F0C5F805E02046611CCCB2FA288E
:1017D00000DD22E01449491C3046FFF794FE012841
:1017E000F2D1002400213046FFF781FE00BF0E49F0
:1017F0003F313046FFF787FE0128F8D1304600F030
:10180000A3F8044601213046FFF7EEFE01213046E1
:10181000FFF76DFE2046BDE8F08101213046FFF75D
:10182000E3FE0020F7E7000001000300820007004C
:101830002DE9F0478046894616461C46089F00253C
:1018400000BF4FF400314046FFF7DAFE0028F8D120
:1018500001214046FFF7BCFE00BF39494046FFF773
:1018600052FE0128F9D100224946404600F070F8A6
:1018700005E02846691CCDB2FA2800DD5AE031495E
:101880004046FFF740FE0128F3D10025314640468F
:1018900000F067F805E02846691CCDB2FA2800DDA3
:1018A00048E02849891C4046FFF72DFE0128F2D167
:1018B000002501214046FFF78BFE00BF204940462E
:1018C000FFF721FE0128F9D101224946404600F0E8
:1018D0003FF805E02846691CCDB2FA2800DD29E072
:1018E0001749491C4046FFF70EFE0128F2D111E0CE
:1018F0001FB900214046FFF7FAFD00BF10493F31F4
:101900004046FFF700FE0128F8D1404600F01CF8E1
:1019100004F8010B381EA7F10101CFB2E8D1012173
:101920004046FFF761FE01214046FFF7E0FD012040
:10193000BDE8F08701214046FFF756FE0020F7E79B
:1019400001000300820007000146088AC0B2704708
:1019500012B141F0010102E04FF6FE73194001821D
:1019600070470182704700002DE9F0410746884624
:1019700015461E46002400BF4FF400313846FFF7DD
:101980003FFE0028F8D101213846FFF721FE00BFB5
:1019900025493846FFF7B7FD0128F9D10022414615
:1019A0003846FFF7D5FF05E02046611CCCB2FA2887
:1019B00000DD32E01D493846FFF7A5FD0128F3D1CF
:1019C000002429463846FFF7CCFF05E02046611C7D
:1019D000CCB2FA2800DD20E01449891C3846FFF714
:1019E00092FD0128F2D1002431463846FFF7B9FFB5
:1019F00005E02046611CCCB2FA2800DD0DE00B4961
:101A0000891C3846FFF77FFD0128F2D101213846B5
:101A1000FFF7EAFD0120BDE8F08101213846FFF71C
:101A2000E3FD0020F7E7000001000300820007004B
:101A30002DE9F0470746884616461C46DDF82090FB
:101A4000002500BF4FF400313846FFF7D9FD0028CC
:101A5000F8D101213846FFF7BBFD00BF2A493846BF
:101A6000FFF751FD0128F9D1002241463846FFF722
:101A70006FFF05E02846691CCDB2FA2800DD3CE086
:101A800022493846FFF73FFD0128F3D100253146B2
:101A90003846FFF766FF05E02846691CCDB2FA28F4
:101AA00000DD2AE01949891C3846FFF72CFD012882
:101AB000F2D1002513E014F8011B3846FFF751FF5F
:101AC00005E02846691CCDB2FA2800DD15E00F4973
:101AD000891C3846FFF717FD0128F2D10025B9F11E
:101AE0000000A9F1010101F0FF09E4D1012138460C
:101AF000FFF77AFD0120BDE8F08701213846FFF7A6
:101B000073FD0020F7E700000100030082000700DA
:101B100008B500F057FBFFF7E9FBFFF709FC4FF4AE
:101B2000E13001F01BF9FFF70FFD00F033FC00F08E
:101B30008DFA01201023002219460090082000F0A1
:101B4000FFFD01201023024619460090182000F0E6
:101B5000F7FD01201023042219460090282000F0F0
:101B6000EFFD01201023022220210090082000F028
:101B7000E7FD01201023032220210090182000F00F
:101B8000DFFD01201023042220210090282000F0F6
:101B9000D7FD01201023052230210090082000F0FD
:101BA000CFFD01201023062230210090282000F0D4
:101BB000C7FD00F045FE41F61F41C72000F0CEFFF3
:101BC00008BD2DE9F04780460E4615461F46089C85
:101BD0003046A16802F06AFB8246616902F090FA21
:101BE0008146296802F0E0F82860A16C206802F0C4
:101BF0005DFB8146E16C02F059FB6063206D80F073
:101C00000041E163A163616821646169606B02F076
:101C100077FA8146616C02F0C7F860646169A06B75
:101C200002F06EFA8146A16C02F0BEF8A064616910
:101C3000E06B02F065FA8146E16C02F0B5F8E06411
:101C40006169206C02F05CFA8146216D02F0ACF80B
:101C500020654046296802F029FBE06094F85400B2
:101C600002F006FA8146616C02F04AFAA06294F82A
:101C7000540002F0FDF98146E16C02F041FAE062A5
:101C800094F8540002F0F4F98246A16A02F038FA9E
:101C90008146216902F088F82063216BA06A02F076
:101CA000F1F8A061D4E90B0102F0ECF8E061A06A60
:101CB000206294F8540002F0DBF98146A16C02F036
:101CC0001FFA6062216AA06902F01AFA8146616C0B
:101CD00002F0E2FA6064616AA06902F011FA8146DA
:101CE000A16C02F0D9FAA064D4E9070102F008FA65
:101CF0008146E16C02F0D0FAE064616AE06902F0CA
:101D0000FFF98146216D02F0C7FA2065E168A069FC
:101D100002F0F6F98146296802F046F82860E16889
:101D2000E06902F0EDF98146A16802F03DF8A0609B
:101D30003046A16802F0BAFA814602F065F900B2B5
:101D40003880BDE8F08700002DE9FC5F00F0AAF9BB
:101D500000F0D6F900F002FA4FF0000A14E0AE49A4
:101D600031F91A0002F06CF9AC4941F82A00AA498D
:101D7000891D31F91A0002F063F9A94941F82A00D6
:101D80000AF1010000F0FF0ABAF1030FE7DBA449F2
:101D900008684FF08E4102F07FF906D2A04908682A
:101DA0004FF08D4102F06EF80EE09D4908689D49A4
:101DB00002F07CFA05464FF08D4102F063F80446CC
:101DC0004FF07E5102F068FA9549086048684FF07C
:101DD0008E4102F061F906D2914948684FF08D4179
:101DE00002F050F80EE08E4948688E4902F05EFA23
:101DF00005464FF08D4102F045F804464FF07E5104
:101E000002F04AFA8649486088684FF08E4102F035
:101E100043F906D2824988684FF08D4102F032F8CA
:101E200009E07F4988687F4902F040FA04464FF094
:101E30008D4102F027F87A4988600A469168506817
:101E400002F020F8834601F083FF064601F0A6F970
:101E500004460022744B01F087FD8046734A744BA0
:101E600001F012FCCDE9000101F02CFB7149086082
:101E70006B4A9168106802F005F8834601F068FF2C
:101E8000CDE9000101F08AF980460022664B01F09D
:101E90006BFD0646654A664B01F0F6FB044601F011
:101EA00011FB654908605C49B1F9081047F6FC72FE
:101EB000914201DA012101E04FF0FF31084602F0C2
:101EC000BFF804465B480168204602F019F95949F9
:101ED00008605149B1F9061047F6FC72914201DAE7
:101EE000012101E04FF0FF31084602F0A9F8044655
:101EF00051480168204602F003F94F4908604749FC
:101F000008684FF08E4102F0C7F80CD243490868C8
:101F100001F01EFF06464FF06632484B01F0B4FB5D
:101F200081F000410DE03D480168454802F0BEF9EE
:101F3000804601F00DFF06464FF066323F4B01F040
:101F4000A3FB044601F0BEFA3449086008684FF06C
:101F50008E4102F0A1F80CD23049486801F0F8FE39
:101F600006464FF06632354B01F08EFB81F00041A2
:101F70000DE02A484168324802F098F9804601F0A5
:101F8000E7FE06464FF066322C4B01F07DFB04461F
:101F900001F098FA2149486008684FF08E4102F03C
:101FA0007BF80CD21D49886801F0D2FE06464FF03E
:101FB0006632224B01F068FB81F000410DE01748CA
:101FC00081681F4802F072F9804601F0C1FE0646A2
:101FD0004FF06632194B01F057FB044601F072FADC
:101FE0000E4988601748009008460B4B03F1100219
:101FF000016810480068FFF7E4FD134800900748A7
:10200000054B9B1C03F1120241680B480068FFF767
:10201000D8FDBDE8FC9F0000B4010020CC010020E9
:10202000D80100200000404700806640F1D4C8532A
:10203000FB210940BC000020C00000206666304043
:1020400000FF7F470C0000206400002010B5002333
:102050006B22D0211248FFF787FC7522D02110484F
:10206000FFF762FB682819D107231922D0210C48F9
:10207000FFF77AFC06231A22D0210948FFF774FCE7
:1020800018231B22D0210648FFF76EFC01231C22D7
:10209000D0210348FFF768FC012010BD0020FCE7B9
:1020A000005800400EB5062001AB3B22D021009025
:1020B0001148FFF7BDFBE0B19DF805009DF8041045
:1020C00040EA012000B20D49C8809DF807009DF844
:1020D000061040EA012001B2084801819DF809007C
:1020E0009DF8081040EA012001B204484181012016
:1020F0000EBD0020FCE7000000580040B4010020A5
:102100000EB5062001AB4322D02100901148FFF705
:102110008FFBE0B19DF805009DF8041040EA012016
:1021200000B20D4908809DF807009DF8061040EAAE
:10213000012000B2084948809DF809009DF8081068
:1021400040EA012000B20449888001200EBD002031
:10215000FCE7000000580040B40100202DE9FC47D6
:10216000022001AB4122D02100901148FFF760FB13
:10217000E0B19DF805009DF8041040EA01200FFA37
:1021800080FA504601F0D8FB06460022094B01F0C8
:102190007BFA0446084A094B01F0C6F9804601F073
:1021A00091F90749C8600120BDE8FC870020FBE7E2
:1021B0000058004000407540A4703D0AD74342409B
:1021C000B401002008B54FF4A06000F057F82520B6
:1021D0008DF8000003208DF801008DF80200012029
:1021E0008DF80300684600F011F81E208DF80000FD
:1021F00000208DF8010003208DF8020001208DF8E9
:102200000300684600F002F808BD000070B5002128
:1022100000230F22C47804B3154C246804F4E0644E
:10222000C4F5E064210AC1F10403CA40447804FA09
:1022300003F184781440214309010E4C0678A1551E
:10224000047804F01F050124AC4005786D11AD0041
:1022500005F1E025C5F8004109E0047804F01F0508
:102260000124AC40044D0678761145F8264070BD37
:102270000CED00E000E400E080E100E002490143F1
:10228000024A1160704700000000FA050CED00E002
:1022900070B500240EE0002508E0002004EBC40126
:1022A000074A02EB01114855681CC5B2802DF4DBCA
:1022B000601CC4B2082CEEDB00F0C2FA70BD000056
:1022C000E401002010B5044664B1C0230022782147
:1022D0000B48FFF749FBA023002278210848FFF7AD
:1022E00043FB0BE0C823002278210548FFF73CFBA5
:1022F000A123002278210248FFF736FB10BD000021
:1023000000580040F0B514460B46CE1701EB567648
:10231000C6F3C702CE1701EB5676F610A1EBC6073F
:102320000126BE40F5B26CB102EBC203184E06EBBB
:1023300003131B5C2B4302EBC206154F07EB06167B
:10234000335424E002EBC203114E06EB03131B5C73
:10235000DB4302EBC2060E4F07EB0616335402EBCB
:10236000C2033E4606EB03131B5C2B4302EBC20683
:1023700007EB0616335402EBC2033E4606EB03138B
:102380001B5CDB4302EBC20607EB06163354F0BDC1
:10239000E401002010B5AE23002278215848FFF751
:1023A000E3FA00231A4678215548FFF7DDFA102397
:1023B000002278215248FFF7D7FA402300227821E3
:1023C0004F48FFF7D1FA8123002278214C48FFF7CC
:1023D000CBFACF23002278214948FFF7C5FAA12381
:1023E000002278214648FFF7BFFAC823002278214F
:1023F0004348FFF7B9FAA623002278214048FFF7A7
:10240000B3FAA823002278213D48FFF7ADFA3F2315
:10241000002278213A48FFF7A7FAD3230022782137
:102420003748FFF7A1FA00231A4678213448FFF70E
:102430009BFAD523002278213148FFF795FA8023B3
:10244000002278212E48FFF78FFAD9230022782125
:102450002B48FFF789FAF123002278212848FFF75B
:1024600083FADA23002278212548FFF77DFA122328
:10247000002278212248FFF777FADB230022782117
:102480001F48FFF771FA4023002278211C48FFF70C
:102490006BFA2023002278211948FFF765FA0223FE
:1024A000002278211648FFF75FFA8D230022782159
:1024B0001348FFF759FA1423002278211048FFF738
:1024C00053FAA423002278210D48FFF74DFAA623E2
:1024D000002278210A48FFF747FAFFF7D9FEAF2319
:1024E000002278210648FFF73FFAA6230022782130
:1024F0000348FFF739FA0020FFF7E4FE10BD0000A3
:10250000005800402DE9F84305460E4691461C460A
:102510003046F11706EB5171C1F3C7010E46224652
:10252000E31704EB5373DB10A4EBC30333B1214671
:10253000E31704EB5373DB105B1C04E02046C31766
:1025400000EB5373DB10DCB2374630E007F1B0002C
:10255000C3B2002278211848FFF706FAA846E81708
:1025600005EB10700011A5EB0010C3B2002278211A
:102570001148FFF7F9F9E81705EB1070001110305A
:10258000C3B2002278210C48FFF7EEF9A9EB050051
:10259000C0B2009007EBC700084901EB00104319D7
:1025A000402278210448FFF743FA781CC7B2A742BB
:1025B000CCDBBDE8F883000000580040E4010020B7
:1025C0002DE9FC4F0746884616461C460197CDF874
:1025D0000080082C01D106231DE02146E31704EBFF
:1025E0005373DB1020464FEAE47C04EB5C7C4FEA3B
:1025F000EC0CA4EBCC0CBCF1000F02D04FF0010CA2
:1026000001E04FF0000C6344224604EBD27C4FEA19
:102610006C0C03FB0CF303F0FF0BA6F12000C6B219
:1026200000255CE0082C06D00C2C0CD0102C12D00D
:10263000182C1ED115E006EB46002B4901EB40009B
:1026400010F805A017E006EB4600284901EB8000D2
:1026500010F805A00FE0264800EB061010F805A0C2
:1026600009E006EBC600234901EB800010F805A045
:1026700001E0BDE8FC8F00BF4FF0000918E00AF050
:10268000010008B10B9804E00B9808B9012000E0A4
:102690000020024641463846FFF734FE4FEA6A0AF8
:1026A00008F1010000F0FF0809F1010000F0FF0946
:1026B000B9F1080FE3DB781CC7B2082C0BD004EB90
:1026C000D4714A100199791A8A4204D1019F009865
:1026D0000830C0B20090DDF80080681CC5B25D45CE
:1026E000A0DB00BFC5E700008A440008B24600082E
:1026F000264B0008165100082DE9F84106460F4602
:1027000014461D46DDF81C8012E0CDF8008014F858
:10271000012B2B4639463046FFF752FF082D01D1D9
:10272000062103E0284600EBD07149103144CEB2B7
:102730002078202802DB20787E28E6DDBDE8F881BD
:102740002DE9FC4F0746884616461C46BB46CDF889
:1027500004802046E21704EB5272D2102146E317A0
:1027600004EB5373DB10A4EBC3030BB1012300E0B4
:1027700000231A44624392B20092002553E0102CC9
:1027800006D0182C0AD0202C10D0402C1AD113E0DF
:10279000274800EB461010F805A015E006EBC60030
:1027A000244901EBC00010F805A00DE0224800EB21
:1027B000C61010F805A007E0204800EB462010F8EE
:1027C00005A001E0BDE8FC8F00BF4FF0000918E054
:1027D0000AF0010008B10B9804E00B9808B9012039
:1027E00000E00020024641463846FFF78BFD4FEAE5
:1027F0006A0A08F1010000F0FF0809F1010000F089
:10280000FF09B9F1080FE3DB781CC7B2A7EB0B0097
:10281000A04204D15F4601980830C0B20190DDF8B3
:102820000480681C85B200988542A8DB00BFC9E718
:10283000725E0008725F0008BA5F00083A60000824
:1028400038B5002421E004F1B000C3B200227821A1
:102850000F48FFF789F800231A4678210C48FFF744
:1028600083F81023002278210948FFF77DF88020A3
:10287000009004EBC400074901EB001340227821CB
:102880000348FFF7D5F8601CC4B2082CDBDB38BD69
:1028900000580040E401002029B1064AD2690243F1
:1028A000044BDA6104E0034AD2698243014BDA61E6
:1028B000704700000010024029B1064A1269024325
:1028C000044B1A6104E0034A12698243014B1A6106
:1028D000704700000010024029B1064A9269024385
:1028E000044B9A6104E0034A92698243014B9A6166
:1028F000704700000010024029B1064AD268024326
:10290000044BDA6004E0034AD2688243014BDA6088
:10291000704700000010024030B500210022002462
:1029200000232D4D6D6805F00C0121B1042905D05F
:10293000082923D105E0294D056022E0274D0560D7
:102940001FE0254D6D6805F47012234D6D6805F488
:102950008034022505EB92421CB9214D5543056098
:102960000BE01D4D6D6805F400351DB11C4D554340
:10297000056002E0194D5543056002E0174D056002
:1029800000BF00BF144D6D6805F0F0010909154D39
:102990006B5C0568DD4045600F4D6D6805F4E061D6
:1029A000090A104D6B5C4568DD4085600A4D6D6815
:1029B00005F46051C90A0B4D6B5C4568DD40C5608C
:1029C000054D6D6805F44041890B074D6B5CC5688A
:1029D000B5FBF3F5056130BD0010024000127A002E
:1029E00000093D00C4000020D400002010B500F014
:1029F00001F810BD0CB5002001900090334800682C
:102A000040F480303149086000BF3048006800F46D
:102A1000003000900198401C0190009818B901986E
:102A2000B0F5A06FF1D12948006800F4003010B172
:102A30000120009001E0002000900098012843D17F
:102A40002348006840F010002149086008460068EB
:102A500020F0070008600846006840F002000860A7
:102A60001A48406819494860084640684860084666
:102A7000406840F4806048600846406820F47C105C
:102A800048600846406840F4E8104860084600681E
:102A900040F08070086000BF0C48006800F00070D3
:102AA0000028F9D00948406820F003000749486031
:102AB0000846406840F00200486000BF0348406894
:102AC00000F00C000828F9D10CBD000000100240F5
:102AD00000200240042808D14FF0E021096941F0AC
:102AE00004014FF0E022116107E04FF0E021096995
:102AF00021F004014FF0E0221161704710B5134836
:102B0000006840F00100114908600846406810491B
:102B100008400E494860084600680E4908400B49C5
:102B200008600846006820F4802008600846406875
:102B300020F4FE0048604FF41F008860FFF756FF46
:102B40004FF000600449086010BD00000010024012
:102B50000000FFF8FFFFF6FE08ED00E03EB5054679
:102B60000C4601210420FFF797FEADF80450ADF8A4
:102B700000400020ADF80600ADF8020069460648A6
:102B800000F09AF801221146034800F08BF8012169
:102B9000014800F06AF83EBD0008004030B585B03D
:102BA000002001900290039004900121294800F038
:102BB00068F800284CD00121264800F053F8FFF7B0
:102BC000C3F82549086901F0C3F8044622460B46BC
:102BD00022A101A8FDF734FB0120102301AA194608
:102BE00000904020FFF788FD1B49486901F0B0F8CC
:102BF000044622460B4619A101A8FDF721FB01203E
:102C0000102301AA202100904020FFF775FD1249F2
:102C1000C86801F09DF8044622460B460FA101A8A2
:102C2000FDF70EFB0120102301AA30210090402067
:102C3000FFF762FD01201023072230210090702051
:102C4000FFF77EFD4023802200211846FFF75AFC43
:102C500005B030BD00080040B401002025352E31FC
:102C600066000000CA430282704721B1028842F028
:102C70000102028004E002884FF6FE731A400280CF
:102C8000704730B50246002000230024158A05EA6B
:102C90000103958905EA010413B10CB1012000E09C
:102CA000002030BD1AB183890B43838102E0838900
:102CB0008B43838170470000002202881D4B98429D
:102CC0000ED01D4B98420BD0B0F1804F08D01B4B5B
:102CD000984205D01A4B984202D01A4B984204D120
:102CE0004FF68F731A404B881A43174B984207D000
:102CF000164B984204D04FF6FF431A40CB881A4334
:102D000002808B8883850B8803850A4B98420BD001
:102D1000094B984208D00E4B984205D00D4B984273
:102D200002D00D4B984201D10B7A03860123838296
:102D300070470000002C01400034014000040040B6
:102D400000080040000C004000100040001400404B
:102D50000040014000440140004801401FB50446C6
:102D600001218803FFF7B8FD0F4800F079F80094BF
:102D70000020ADF80400ADF80600ADF80800ADF88D
:102D80000C000C20ADF80A006946074800F012F963
:102D9000012240F22551044800F0E7F801210248E1
:102DA00000F051F81FBD00000038014010B540F29E
:102DB00025511D4800F0AFF818B31B4800F066F924
:102DC000C4B21A48008800F4004001282BD01748EC
:102DD000008800F4804060B10A2C03D00020134921
:102DE000088020E01148008840F400400F49088026
:102DF00019E00D2C06D10D48008840F480400B49A5
:102E0000088010E009480088C0F30D0008490C5400
:102E100006480088401C0549088008460088C728E5
:102E200001DD0020088010BD0038014004000020B2
:102E3000EC00002001F40072B2F5007F00D100BF69
:102E4000CA430280704721B1828942F400528281D4
:102E500004E082894DF6FF731A40828170470000BA
:102E600010B504462048844209D101218803FFF7A8
:102E700043FD00214FF48040FFF73EFD32E01B4848
:102E8000844209D101214804FFF716FD00214FF4C7
:102E90000030FFF711FD25E01548844209D10121DA
:102EA0008804FFF709FD00214FF48020FFF704FD9F
:102EB00018E01048844209D10121C804FFF7FCFC46
:102EC00000214FF40020FFF7F7FC0BE00A48844292
:102ED00008D101210805FFF7EFFC00214FF4801015
:102EE000FFF7EAFC10BD000000380140004400403C
:102EF00000480040004C00400050004002460020C6
:102F0000B1F5007F00D100BF13880B400BB1012049
:102F100000E00020704770B5024600240023002521
:102F2000002040F66A16B14200D100BFC1F342153D
:102F300001F01F03012606FA03F3012D02D1968941
:102F4000334006E0022D02D1168A334001E0968A12
:102F500033400C12012606FA04F41688344013B1EB
:102F60000CB1012000E0002070BDF0B50346002444
:102F700000260025002040F66A17B94200D100BFA4
:102F80001846C1F3421401F01F06012707FA06F59F
:102F9000012C01D10C3004E0022C01D1103000E0F2
:102FA00014301AB107682F43076002E00768AF4387
:102FB0000760F0BD2DE9F04786B005460E460024B7
:102FC000A24600BFA1460027B08900B100BF2F462E
:102FD0002C8A4CF6FF700440F08804432C82AC89A4
:102FE0004EF6F3100440B0883189084371890843D4
:102FF0000443AC81AC8A4FF6FF400440B0890443DF
:10300000AC8201A8FFF788FC1F48874202D1DDF897
:1030100010A001E0DDF80CA0A88900F4004040B148
:103020000AEBCA0000EB0A1031684900B0FBF1F866
:1030300007E00AEBCA0000EB0A1031688900B0FB18
:10304000F1F86420B8FBF0F004012009642101FBD1
:103050001089A88900F4004040B1322000EBC9007B
:10306000B0FBF1F000F00700044308E0322000EB71
:1030700009106421B0FBF1F000F00F0004432C8133
:1030800006B0BDE8F087000000380140014688889E
:10309000C0F308007047C1F30802828070474900FE
:1030A00050EAC12018BF04204A0D18BF40F00100AB
:1030B00040F2FF72B2EB515F08BF40F002000128FE
:1030C00008BF052070472DE9F0414F1E00EBC701F6
:1030D0000446D1E9000115461E4637F006020DD020
:1030E0002A46334600F040FC7F1E04EBC703D3E9B9
:1030F000002300F019FA37F00602F1D1022F25D093
:10310000042F13D0062F18BFBDE8F0812A4633469E
:1031100000F02AFCD4E90A2300F006FA2A463346D6
:1031200000F022FCD4E9082300F0FEF92A463346D9
:1031300000F01AFCD4E9062300F0F6F92A463346DB
:1031400000F012FCD4E9042300F0EEF92A463346DD
:1031500000F00AFCD4E9022300F0E6F92A463346DF
:1031600000F002FCD4E90023BDE8F04100F0DCB936
:10317000012201F044B90000024A0020110701F0C9
:103180003EB9000001FDFFFF30380A2801D20120BE
:1031900070470020704700BF704700002DE9F84FCE
:1031A00004460D4621F0004000917349814211DC34
:1031B0007249884201DC06D12CB120462946BDE87F
:1031C000F84FFFF7D5BF6E48002DCCBF6D496E4953
:1031D000BDE8F88F6D49814211DD6D498142D8BF4C
:1031E0004FF0FF366DDD20462946FFF758FF0428D3
:1031F00008BFFFF7C1FF20462946BDE8F88F6549A3
:10320000654F25F00045814233DD6449814219DD77
:10321000002632464FF080432046294600F084F9CC
:1032200080468A4601222046294601F0E8F800221D
:103230003B4600F0A3FC4246534600F025FA044604
:103240000D463EE001260022BA463B46204629466E
:1032500000F06AF980460F46002253462046294670
:1032600000F08CFC42463B4600F00EFA04460D4648
:1032700027E04B4981421BDDDFF828A1022600220E
:1032800053462046294600F06FFB00223B4600F0E3
:103290004BF980460F46002253462046294600F04F
:1032A0006DFC42463B4600F0EFF904460D4608E04F
:1032B000032622462B4600203B4900F0E5F9044650
:1032C0000D4622462B461046194600F04DFB8B4614
:1032D000824602460B4600F047FB0746024633484B
:1032E00088460B4606217844FFF7EDFE52465B46C2
:1032F00000F03AFB82462E488B463A46434605216B
:103300007844FFF7E0FE3A46434600F02DFB0246C4
:103310000B46002E504659460CDA00F005F92246BD
:103320002B4600F021FB01B022462B46BDE8F04FB2
:1033300000F018BC00F0F8F822462B4600F014FB11
:103340001C4A7A4402EBC603D3E9002300F016FCC2
:1033500022462B4600F012FC174A7A4402EBC603C1
:10336000D3E9002300F0FEFB009A002AB8BF81F0E9
:103370000041BDE8F88F0000000010440000F07F1D
:10338000182D4454FB21F93FFB21F9BF0000DC3F1D
:103390000000203E0000F33F0000F03F0000E63F49
:1033A000008003400000F83F0000F0BFCE2F000077
:1033B0008C2F00002A2F0000F22E00000146114A37
:1033C00012884A434FF0E0235A6100229A611A465C
:1033D000126942F001021A6100BF4FF0E022106949
:1033E00000F001021AB100F48032002AF5D04FF04B
:1033F000E022126922F001024FF0E0231A6100225C
:103400009A6170470200002070B504460D464021C5
:103410000748FFF70FFDE1B20548FFF73CFE00BF8C
:1034200080210348FFF76AFD0028F9D0204670BDCF
:10343000003801401CB5FEF76BFB19E00D494869E7
:1034400000F086FC04460D460A49086900F080FC3D
:10345000064632460B4608A0CDE90045FCF7E4FEDF
:1034600020210C48FEF739F84FF47A70FFF7A6FFD9
:10347000E4E70000B401002050697463683A252D28
:10348000392E316620526F6C6C3A252D392E3166FB
:103490000D0A0000000C014010B500290AD0087880
:1034A000002807D005487844FDF718FB002801D014
:1034B000002010BD0248784410BD0000F62E000028
:1034C000EE2E000021F00042A2F16052B2F5801F02
:1034D00001F0004328BFD2F17F6C0BD95FEA001CDA
:1034E00043EAC20242EB507018BF704728BF20F079
:1034F00001007047B2F5801FBCBF184670474FEA05
:10350000410C1CF5001F02D2084600F0C0BE70B589
:1035100000F0D4FA00000089FFF7F6BF4FF000403A
:10352000A0F580007047000010B591EA030F48BF76
:1035300083F0004300F12A83841A71EB030C05D257
:10354000121943EB0C03001B61EB0C01DFF824E1C3
:103550004FEA1154A4EB135C1EEA430F18BF9EEA16
:10356000445F73D023EA0E03DCF1200E21EA0451FC
:1035700043F4801332D322FA0CFE10EB0E0023FA30
:103580000CFE41EB0E01CCF1200E03FA0EFE10EB07
:103590000E0051F10001B1F5801FCCF1200E32D2A6
:1035A00001EB045112FA0EF2BDE8104058BF70470B
:1035B000401C38BF5FEA420218BF7047002814BFA2
:1035C00020F0010041F100014FEA410313F5001F13
:1035D00038BF7047A1F1C04100F0BEBA012A43EBE9
:1035E0000302ACF1200CDCF11F0E32BF4FF0000ED5
:1035F00023FA0CF310EB030041EB0451B4EB115F21
:10360000D0D0A1EB045101F5801149085FEA3000E8
:1036100001EB04510ED350F1000038BF12FA0EFE38
:1036200008D1BDE81040C9E7401C38BF5FEA42023C
:10363000CAD1C3E7BDE810404FEA410313F5001FAC
:1036400038BF7047A1F1C04100F086BA9EEA445FDE
:1036500008D011EA5E0FBDE8104004BF01F0004140
:1036600000207047BDE8104070B500F027FA00BF99
:1036700064FBBE3E0000E0FF02494FF0000000F096
:103680008CBE00BF0000F87F2DE9C04130B4DFF8E8
:10369000A0C23CEA111418BF3CEA131400F0EC80FD
:1036A00081EA03051CEA111444EAD57418BF1CEA28
:1036B000131500F0C780A4EB05044FF0004545EA60
:1036C000C12145EAC32341EA505143EA525304F170
:1036D0007F74994204F500344FEAC0204FEAC222B9
:1036E00008BF904200F09C804FEA13650FF240162D
:1036F000765D4FEA134506FB05F7C7F1807706FBB9
:1037000007F74FEAD737A7FB03687642C8F580383A
:10371000A7FB06CE38BFA8F1010807FB08E64FF06B
:10372000000EA6FB028CE6FB03CEDCF1000CCEF112
:10373000004E38BFAEF1010EA6FB0C584FF000074B
:103740004FF00005E6FB0E87A1FB08C6A0FB07CEE5
:1037500016EB0E0645F10005E1FB076515F1E04E9D
:103760007EBFA4F580345FEA46066D4116F18007FE
:1037700045F100054FEA17274FEA066647EA056755
:10378000A6F1DE46B6F1805F4FEA15251FD938460F
:1037900024F0010C05EBC471BCF1FE6F01EB0C11C0
:1037A00002D8F0BCBDE8008124425CBF01F5801E58
:1037B0009EEAC47F02D4F0BCBDE80081244238D424
:1037C000F0BCA1F1C041BDE8004100F0C5B94FEA2D
:1037D000D22242EA43524FEAD323A7FB02864FEAA2
:1037E000D02040EA415007FB03661EEA0E0F4FEA65
:1037F000D12105FB026658BFA6EB0056B6EB00567A
:103800004FEA520E4EEAC37E18EB0E0E56EB530EE5
:10381000BDD518EB02085E417F1C55F10005B6E7E7
:103820004FF480154FF000074FF000064FF00008EE
:10383000ADE7F0BC4FF0000001F1C04101F00041E4
:10384000BDE8008111EA0C1F0CEA131500D00CE052
:1038500013EA0C1F00F025804FF00000F0BC81EA55
:10386000030101F00041BDE80081F0BCBDE800416A
:1038700081EA030100F070B9F0BCBDE8004170B509
:1038800000F01CF9097EFC3E00F007B881EA030154
:103890004FF0000001F00041704781EA030100F0A1
:1038A0005BB9F0BCBDE800414FF000002149704712
:1038B000FFFDFBF9F7F5F4F2F0EEEDEBE9E8E6E4F5
:1038C000E3E1E0DEDDDBDAD8D7D5D4D3D1D0CFCD7C
:1038D000CCCBCAC8C7C6C5C4C2C1C0BFBEBDBCBBB5
:1038E000BAB9B8B7B6B5B4B3B2B1B0AFAEADACABB0
:1038F000AAA9A8A8A7A6A5A4A3A3A2A1A09F9F9E8A
:103900009D9C9C9B9A99999897979695959493933B
:10391000929191908F8F8E8E8D8C8C8B8B8A8989D2
:103920008888878786858584848383828281818055
:103930000000FF070000F87F10F0004248BF40423F
:10394000B0FA80F310FA03F10AD0C3F11D0303F5B6
:1039500080634FEA415002EB035202EBD1217047E2
:103960004FF0000070470000DFF848C170B51CEA56
:10397000111E1EBF1CEA13159EEA0C0F95EA0C0FD0
:1039800000F06F8081EA030423EA4C134EEAD47EF0
:1039900021EA4C1141F4801143F48013AE44A1FBA1
:1039A000024CA0FB0365AEF17F7E361955EB0C058A
:1039B000A1FB034C4CF10003A0FB021C16EB0C0610
:1039C000654153F10003094218BF46F0010613F4A4
:1039D000007F0BD14FEA03314FEA0530340341EA4F
:1039E000155140EA16506FF003020AE04FEAC32176
:1039F0004FEAC520F40241EA555140EA56506FF0B3
:103A0000020202EB2E4201EB025585EACE710AD08A
:103A10005FEA440C18BF24F0004450F1000041F16B
:103A2000000120EAD47040F2FE7C624500D270BDF5
:103A3000A84214BF4FF080444FF04044002E08BF0E
:103A40000024BEF1806FA8BFA1F1C041BDE8704065
:103A500080F282804FF0000001F1C04101F000418E
:103A600070479EEA0C0F0CEA131518BF95EA0C0F6D
:103A700006D04FF0000081EA030E0EF0004170BD49
:103A800000F01CF88900013E00F007B800F009B80A
:103A90004FEA430C5FEA5C5C08D081EA030100F066
:103AA0005BB84FEA410C5FEA5C5CF6D14FF0000076
:103AB000014970470000FF070000F87F0EF1020E79
:103AC0002EF0030E5EF8046B364205D4012A43EB58
:103AD000030515F5001F12D8012841EB010C1CF558
:103AE000001F0CD80ED14FEAD17C15F5001F0CEB4E
:103AF0004C0C0CF1020C08BF4CEBD37C04E04FF0F3
:103B0000080C01E04FEAD37C0CEB4C0526FA05F6D5
:103B100006F00706B6F1040C06D20EEB860CBDE8E3
:103B200070404CF0010C6047DFE80CF0090B02021A
:103B30004FF000414FF00000A1F5002170BD194683
:103B40001046012851EB010418BFD4F5001484BFBE
:103B5000002001F0004170BD0808A0F500114FEAF7
:103B60003101704791EA030F10B581F000413FF534
:103B7000E3AC83F0004300F009B8000010B591EA0F
:103B8000030F48BF83F000433FF5D6AC841A71EBB6
:103B9000030C07D212198CF0004C43EB0C03001BF2
:103BA00061EB0C01DFF8A4E14FEA1154A4EB135CC4
:103BB0001EEA430F18BF9EEA445F00F0B08023EA7C
:103BC0006E03524221EA0451C3EB6E0338BF5B1E01
:103BD000DCF1200E25D322FA0CFE10EB0E0043FA86
:103BE0000CFE41EB0E01CCF1200E03FA0EFE10EBA1
:103BF0000E0051F10001CCF1200E29D412FA0EF280
:103C000001EB0451BDE8104058BF7047401C1CBF79
:103C1000B2F1004F704700280CBF491C20F0010092
:103C2000704712EB020E43EB030218BF4FF0010E78
:103C30004EEA4202ACF1200CDCF11E0E54D943FADC
:103C40000CFE10EB0E0051F1FF31CCF11E0ED5D55C
:103C50000EF1010E12FA0EFE404141EB010101EBA3
:103C6000445C5FEA5C5C10D910EBDE7001EB045140
:103C700038BFBEF1004FBDE8104018BF70470028A4
:103C80000CBF491C20F00100704730D24FEAD42C01
:103C900011F5001124F400641BD0B1FA81F20B3A43
:103CA000A41AA41ED2F12003914030FA03F3194361
:103CB000904001EBCC71002C01EB0451BDE81040A9
:103CC000A8BF704701F1C0414FF0000001F0004172
:103CD0007047B0FA80F310FA03F100D110BDE41A76
:103CE000173C4805C90AE4E701EB045110BD49102F
:103CF00001EB0451BDE810404FEA300002E04FF004
:103D0000000170474A0008BF0042F8D0B2F5001F1A
:103D100028BF704701F000414FF0000070479EEA55
:103D2000445F07D011EA5E0FBDE8104004BF0021D8
:103D300000207047BDE8104070B5FFF7BFFE00BF20
:103D400040DFF63E83F00041104670470000E0FF80
:103D500043004FEAD30C4FEA3C0C43401FBF4007DF
:103D60000CF1605113F0FE4F70471CF0006F03D14F
:103D700000200CF0004170470CF0004343EA507003
:103D800010B540EACC0000F03CFA00BF0000009201
:103D90004FEA0001FFF7E0BE4FF000414FF0000096
:103DA000A1F500217047000090EA010F48BF81F0A3
:103DB000004100F18282421A3CBF801A89184FEA02
:103DC000D0524FF07F4C1CEA410FA2EBD15318BFE9
:103DD0009CEA026F00F03B804FF0004C4CEA002060
:103DE0004CEA012121FA03FC10EB0C0C1ED202F16B
:103DF000FF325FEA1C2040EBC25038BF70471CF016
:103E00007F0F4FEA400C18BFBCF17F4F38BF70479F
:103E1000C3F12003994008BF20F00100BCF17F4F9F
:103E200038BF7047A0F1C04000F031BA4FEA3C0003
:103E3000000A40EBC25028BF1CF0FF0F4FEA400CB5
:103E4000E6D018BFBCF17F4F38BF7047EAE79CEA65
:103E5000026F05D010EA5C0F08BF00F00040704709
:103E600010B500F0CEF900BF64FBBE3E401058BF55
:103E7000C0F14040491058BFC1F140418142EFF3C9
:103E8000008070474FF47F0C1CEAD0121EBF1CEA62
:103E9000D11392EA0C0F93EA0C0F00F0858090EAA0
:103EA000010F48BF42F4807240F4000C41F400005E
:103EB0002CF07F4120F07F4000B58142A2EB03024D
:103EC0000FF2081CACEB504EC0F100009EF800E071
:103ED0004FEA4E0E00FB0EFC38BF49004FEA2C1C87
:103EE00002F5FA020CFB0EF34FEACE1E4FEA112C3C
:103EF0004FEAC1210EEB635E42EB22420EFB0CFC4B
:103F00004FEA1C5300FB03114FEA112C4FEA013119
:103F10000EFB0CFC4FEADC4C00FB0C11C14228BF2D
:103F200009184CEB03335DF804EB10EB410143EB54
:103F3000C250B2F57C0F38BF704729D512F0F00F90
:103F40001CBF00F1C04000F0004070470081828338
:103F50008485868788898B8C8D8E8F919293959698
:103F600097999A9C9D9FA0A2A3A5A7A8AAACAEB022
:103F7000B2B3B5B7B9BCBEC0C2C5C7C9CCCED1D427
:103F8000D7D9DCDFE2E6E9ECF0F3F7FAFE00000057
:103F90004FEA400C0CF1807CBCF17E4F28BF70478B
:103FA000B0F1C04000F073B990EA010F0CEAD113F0
:103FB00048BF42F48072624538BF634507D213F4AC
:103FC0007F0F16D080EA010000F00040704710B566
:103FD00000F017F9097EFC3E00F005B880EA010008
:103FE00000F00040704780EA010000F0004000F05F
:103FF0004EB912F47F0F04BF0248704780EA0100F7
:1040000000F045B90000C07F41000B0ED3F19E02C5
:1040100008D950F400034FEA032323FA02F048BF03
:104020004042704710B500F0ECF800BF4992248080
:10403000002070476FF0004282EA200070470000C5
:1040400010F0004148BF4042B0FA80F310FA03F28A
:10405000C3F19D030BD051EAC35101EB122053066B
:1040600038BF704700F1010008BF20F00100704721
:10407000B0FA80F310FA03F2C3F19D030AD0D90518
:1040800001EB1220530638BF704700F1010008BF52
:1040900020F001007047000050EA010C00F113808D
:1040A0001CF5000F58BFBCF5000F01D488427047C3
:1040B00007D710F5000F58BF11F5000F15D488422F
:1040C0007047894270471CF5000F04D5BCF5000FFE
:1040D000F7D5814270474FF0807C1CEB400F38BF12
:1040E0001CEB410F01D28142704710B500F089F8F6
:1040F000922449004FF000504FF08051FFF7B6BEB8
:104100004FF47F0C1CEAD0121EBF1CEAD11392EAB6
:104110000C0F93EA0C0F00F0478090EA010F48BFA4
:1041200042F480724FF0004C4CEA00204CEA01212E
:1041300002EB0302A0FB0113A2F50002002918BF45
:1041400043F001035B0028BF4FEA330342EB2242F6
:104150005FEA132C4CEBC2502EBFBCEB436FB2F5A1
:104160007C0F70474FEA036CBCF1004F08BF20F092
:104170000100B2F57C0F38BF70470BD582F0FF020B
:1041800012F5803FC8BF704700F1C040D8BF00F0B3
:104190000040704700F5000C5FEA4C0C48BF7047C8
:1041A000B0F1C04000F073B890EA010F0CEAD113EF
:1041B00048BF42F48072624538BF634504D280EA4A
:1041C000010000F00040704710B500F01AF800BF81
:1041D0008900013E00F007B800F009B85FEA410C21
:1041E0005FEA1C6C08D080EA010000F050B85FEA7A
:1041F000400C5FEA1C6CF6D14FF00040A0F5800047
:1042000070470EF1020E2EF0030E5EF8044B2442AE
:1042100004D44FEA4102B2F17F4F11D84FEA400374
:10422000B3F17F4F0CD80ED14FEAD07CB2F17F4F63
:104230000CEB4C0C0CF1020C08BF4CEBD17C04E0F5
:104240004FF0080C01E04FEAD17C0CEB4C0324FA50
:1042500003F404F00704B4F1040C06D20EEB840C52
:10426000BDE810404CF0010C6047DFE80CF0070897
:1042700002024FF00040A0F5800010BD0846420049
:1042800018BFD2F1807288BF00F0004010BDFF213E
:1042900041EAD050C005704780F0004090EA010F1D
:1042A0007FF589AD81F0004100F007B890EA010F79
:1042B00048BF81F000413FF57EAD421A04D882F03C
:1042C0000042A0EB020011444FEAD0524FF07F4C65
:1042D0001CEA410FA2EBD15318BF9CEA026F4AD0EF
:1042E0004FF0004C4CEA00204CEA012121FA03FC7B
:1042F000B0EB0C0C0FD412F0FE0F36D05FEA4C007E
:104300001DD5001240EBC25038BF70471CF03F0F64
:1043100018BF70470BE0A2F101025FEA1C2040EBDE
:10432000C25038BF70471CF07F0F18BF7047C3F1F1
:104330002003994014BF401E20F001007047800800
:104340004FEA122308BF7047B0FA80FCA2EB0C02C0
:10435000CCF1280C60FA0CF093EA122F04BF00EBAA
:10436000C25070474FEAC3707047130A5FEADC100F
:1043700008BF7047F6E79CEA026F04D010EA5C0FB2
:1043800008BF0020704710B5FFF73BFF40DFF63E47
:1043900081F000407047FCF708B90CF00F03092BBF
:1043A00008BF082000F059800A2B0BD0082B18BF3B
:1043B000704708BF1CF0400F0AD04FF000004FF0CC
:1043C000000170471CF0400F18BF4FF000407047CD
:1043D0001CF0100F08D020F0704300F07F4242EA3A
:1043E000D3014FEA4370704700F0604021F07F42F4
:1043F00042EA000201F07F4040EA727070474FF0DD
:10440000FF0C4CF4E06C1CEA11531CBF9CEA030C3B
:104410009445C2BFDA4201EB02517047002B0DD028
:10442000BCF1000F0FD0002A01F00041A4BF41F001
:10443000E04141F07F614FF00000704701F0004122
:104440004FF00000704750EA01334FF09B0C18BF4B
:104450004CF0806C7FF410A970471CF4801F11D0C1
:104460001CF4E02F03D06FEACC31490070474FF0C5
:104470004050EFF3008222F0704242EA000282F3E1
:10448000008870474FF000007047000000000000F7
:104490000000002F000000000700070000147F1438
:1044A0007F1400242A7F2A12006264081323003636
:1044B0004955225000000503000000001C22410065
:1044C000000041221C000014083E08140008083EA9
:1044D0000808000000A060000008080808080000A4
:1044E00060600000002010080402003E5149453E73
:1044F0000000427F40000042615149460021414591
:104500004B31001814127F10002745454539003CF7
:104510004A494930000171090503003649494936C5
:1045200000064949291E00003636000000005636B4
:104530000000000814224100001414141414000098
:104540004122140800020151090600324959513E26
:10455000007C1211127C007F49494936003E4141DE
:104560004122007F4141221C007F49494941007F8F
:1045700009090901003E4149497A007F0808087F7E
:104580000000417F4100002040413F01007F0814AE
:104590002241007F40404040007F020C027F007FAC
:1045A0000408107F003E4141413E007F0909090691
:1045B000003E4151215E007F0919294600464949C4
:1045C00049310001017F0101003F4040403F001F91
:1045D0002040201F003F4038403F00631408146310
:1045E00000070870080700615149454300007F41FA
:1045F000410000552A552A55000041417F00000422
:10460000020102040040404040400000010204005A
:10461000002054545478007F4844443800384444BF
:10462000442000384444487F00385454541800084B
:104630007E0901020018A4A4A47C007F0804047869
:104640000000447D4000004080847D00007F1028F1
:1046500044000000417F4000007C04180478007C86
:104660000804047800384444443800FC2424241806
:104670000018242418FC007C080404080048545442
:10468000542000043F444020003C4040207C001C5B
:104690002040201C003C4030403C0044281028446E
:1046A000001CA0A0A07C004464544C4414141414B6
:1046B00014140000000000000000000000000000D2
:1046C000FC000000000002000000000C020C0200D0
:1046D00000000000000090D0BCD0BC90000300039C
:1046E00000001824FE448C00030207020100182475
:1046F000D8B04C80000300010201C038E438E0006B
:104700000102020102020806000000000000000091
:104710000000000000F80402000000010204000292
:1047200004F800000004020100009060F8609000AE
:104730000000010000002020FC20200000000100FB
:10474000000000000000000008060000000020201B
:1047500020202000000000000000000000000000F9
:104760000002000000000080601C02000403000042
:104770000000F8040404F80001020202010000082D
:10478000FC0000000002030200001884442418000A
:1047900003020202020008042424D80001020202DB
:1047A000010040B088FC80000000000302003C24AF
:1047B0002424C400010202020100F824242CC000B9
:1047C0000102020201000C04E41C040000000300CA
:1047D0000000D8242424D800010202020100384439
:1047E0004444F80000030202010000001000000031
:1047F0000000020000000000200000000000060091
:104800000000002050880402000000000102909087
:1048100090909000000000000000000204885020EA
:104820000002010000001804C42418000000020067
:104830000000F804E494F80001020202020000E023
:104840009CF0800002030000030204FC2424D80032
:10485000020302020100F80404040C000102020237
:10486000010004FC0404F80002030202010004FC3D
:1048700024740C0002030202030004FC24740C00E4
:10488000020302000000F0080444CC4000010202D0
:10489000010004FC2020FC040203000003020404C5
:1048A000FC040400020203020200000404FC0404ED
:1048B00006040403000004FC24D00C0402030200DC
:1048C000030204FC04000000020302020203FC3C99
:1048D000C03CFC0003000300030004FC30C4FC04E3
:1048E000020302000300F8040404F80001020202BB
:1048F000010004FC24241800020302000000F884D4
:104900008404F80001020207050004FC24649800F6
:10491000020302000302182424448C000302020252
:1049200001000C04FC040C0000020302000004FC63
:104930000000FC04000102020100047C80E01C0471
:104940000000030000001CE03CE01C00000300032A
:104950000000049C609C0400020300030200041C8D
:10496000E01C04000002030200000C84641C04002C
:104970000203020203000000FE020200000007041E
:104980000400000E30C00000000000010200000220
:1049900002FE0000000404070000000402040000FE
:1049A00000000000000000000000000008080808E7
:1049B00008080000020000000000000000000040A5
:1049C000A0A0C00000010202030204FC2020C000DD
:1049D00000030202010000C020206000000102026A
:1049E000020000C02024FC0000010202030200C0FB
:1049F000A0A0C0000001020202000020F82424044C
:104A00000002030202000040A0A0602000070A0A82
:104A10000A0404FC2020C00002030200030200205C
:104A2000E4000000000203020000000020E4000097
:104A300008080807000004FC80E0202002030200B0
:104A400003020404FC000000020203020200E02052
:104A5000E020C00003000300030020E02020C0008D
:104A600002030200030200C02020C0000001020275
:104A7000010020E02020C000080F0A02010000C051
:104A80002020E0000001020A0F0820E04020200062
:104A90000203020000000060A0A020000002020249
:104AA00003000020F820000000000102020020E0C6
:104AB0000020E00000010202030220E020806020CC
:104AC0000000030100006080E0806000000300033C
:104AD000000020608060200002030003020020E04C
:104AE000208060200808070100000020A06020004E
:104AF000000203020200000020DE020000000007A6
:104B00000400000000FF00000000000F0000000291
:104B1000DE2000000004070000000201020404027D
:104B20000000000000000000000000000000000085
:104B3000000000000000000000F80000000000007D
:104B400000333000000000100C06100C06000000BE
:104B500000000000000040C07840C0784000043FE2
:104B600004043F040400007088FC083000000018B2
:104B700020FF211E0000F008F000E01800000021D6
:104B80001C031E211E0000F00888700000001E217A
:104B900023241927211010160E0000000000000029
:104BA000000000000000000000E018040200000007
:104BB00000071820400000020418E0000000004038
:104BC000201807000000404080F0804040000202B2
:104BD000010F01020200000000F0000000000101CE
:104BE000011F01010100000000000000000080B072
:104BF0007000000000000000000000000000000144
:104C0000010101010101000000000000000000306E
:104C10003000000000000000000080601804006008
:104C200018060100000000E010080810E000000F66
:104C3000102020100F00001010F8000000000020CD
:104C4000203F202000000070080808887000003015
:104C500028242221300000300888884830000018BD
:104C6000202020110E000000C02010F800000007D6
:104C70000424243F240000F808888808080000194C
:104C8000212020110E0000E0108888180000000F7D
:104C9000112020110E0000380808C8380800000054
:104CA000003F000000000070880808887000001CA9
:104CB000222121221C0000E010080810E000000062
:104CC000312222110F00000000C0C00000000000CF
:104CD00000303000000000000080000000000000F4
:104CE00080600000000000008040201008000001EB
:104CF00002040810200040404040404040000404AE
:104D00000404040404000008102040800000002077
:104D1000100804020100007048080808F0000000B4
:104D2000003036010000C030C828E810E000071845
:104D3000272423140B000000C038E0000000203CB2
:104D400023020227382008F8888888700000203F56
:104D5000202020110E00C03008080808380007186D
:104D600020202010080008F808080810E000203F64
:104D7000202020100F0008F88888E8081000203F45
:104D800020202320180008F88888E8081000203F19
:104D9000200003000000C030080808380000071891
:104DA0002020221E020008F808000008F808203F12
:104DB000210101213F20000808F808080000002018
:104DC000203F2020000000000808F8080800C080EC
:104DD00080807F00000008F888C028180800203F65
:104DE00020012638200008F8080000000000203FBD
:104DF00020202020300008F8F800F8F80800203FB4
:104E0000003F003F200008F830C00008F808203FAD
:104E1000200007183F00E01008080810E0000F10FD
:104E2000202020100F0008F808080808F000203F94
:104E3000210101010000E01008080810E0000F182F
:104E4000242438504F0008F8888888887000203F54
:104E50002000030C30200070880808083800003853
:104E6000202121221C00180808F80808180000005A
:104E7000203F2000000008F808000008F808001F84
:104E8000202020201F000878880000C83808000073
:104E900007380E010000F80800F80008F800033C8D
:104EA0000700073C03000818688080681808203055
:104EB0002C03032C30200838C800C8380800000034
:104EC000203F2000000010080808C83808002038DB
:104ED000262120201800000000FE0202020000002F
:104EE000007F40404000000C30C000000000000087
:104EF00000010638C00000020202FE00000000406F
:104F000040407F0000000000040202020400000094
:104F10000000000000000000000000000000808091
:104F20008080808080800002020400000000000079
:104F30000000000000000000808080800000001958
:104F4000242222223F2008F8008080000000003F39
:104F5000112020110E000000008080800000000E53
:104F6000112020201100000000808088F800000E31
:104F7000112020103F200000808080800000001F52
:104F8000222222221300008080F0888888180020C6
:104F9000203F202000000000808080808000006B87
:104FA00094949493600008F8008080800000203F73
:104FB000210000203F200080989800000000002081
:104FC000203F20200000000000809898000000C0D2
:104FD0008080807F000008F8000080808000203FF3
:104FE00024022D302000000808F8000000000020F6
:104FF000203F202000008080808080808000203F33
:1050000020003F20003F8080008080800000203F03
:10501000210000203F200000808080800000001FD1
:10502000202020201F00808000808000000080FF62
:10503000A12020110E000000008080808000000E62
:10504000112020A0FF8080808000808080002020B0
:105050003F2120000100000080808080800000331C
:10506000242424241900008080E0808000000000B7
:10507000001F202000008080000000808000001FB2
:10508000202020103F208080800000808080000150
:105090000E300806010080800080008080800F3084
:1050A0000C030C300F000080800080808000002006
:1050B000312E0E3120008080800000808080808131
:1050C0008E701806010000808080808080000021A2
:1050D000302C2221300000000000807C0202000001
:1050E0000000003F404000000000FF000000000002
:1050F0000000FF0000000002027C80000000004071
:10510000403F00000000000601010202040400000C
:10511000000000000000000000000000000000008F
:10512000000000000000000000000000000000007F
:10513000000000000000000000000000000000F07F
:10514000F0F0000000000000000000017F010000FE
:10515000000000000000001C1C1C000000000000FB
:105160008060301C8C60301C0C00000000000000CF
:10517000000000000000000000000000000000002F
:105180000000000000E00000000000E000000086D9
:10519000E69F86868686E69F860000011F01010144
:1051A00001011F010100000080C06020F820E0C064
:1051B0000000000003070C18FF70E18100000000F0
:1051C000070F10107F100F07000080602060800024
:1051D0000000E02000000F3020309F70DC371030DE
:1051E000C0000000100E0300071810180700000090
:1051F000C02020E0C0000000000080E01F38E887E9
:1052000003C43C040000070F1810100B070D10100A
:10521000080000808C4C38000000000000000000F6
:10522000000000000000000000000000000000007E
:1052300000000000000000000000000080E03008D6
:1052400004000000000000FEFF010000000000005C
:1052500000000000030F1820400000040830E08028
:105260000000000000000000000001FFFE00000040
:105270000000004020180F030000000000000000A4
:1052800000000000C00000000000004266663C18FC
:10529000FF183C66664200000000000003000000AA
:1052A000000000000000000080000000000000106E
:1052B00010101010FF10101010100000000000005F
:1052C00003000000000000000000000000000000DB
:1052D000000000000000000000000000000000804E
:1052E0008C4C3800000000000000000000000000AE
:1052F000000000000000001010101010101010101E
:10530000100000000000000000000000000000008D
:10531000000000000000000000000000000000008D
:1053200000000000000000001C1C1C000000000029
:1053300000000000000000000000E0380C00000049
:10534000000080701C03000000000060380E0100A7
:10535000000000000000000080C060202060C080CD
:10536000000000FEFF010000000001FFFE00000140
:10537000070E181010180E0701000000808080C072
:10538000E000000000000000000000FFFF0000003F
:10539000000000001010101F1F10101000000080EF
:1053A000402020202060C0800000000303008040D7
:1053B00020381F070000001C1A1918181818181F89
:1053C00000000080C020202060C08000000000039A
:1053D00003001010182FE780000000070F101010B6
:1053E00010180F070000000000000000C0E0F000EF
:1053F000000000C0B088868180FFFF808000000030
:1054000000000010101F1F1010000000E06060601E
:1054100060606060000000003F1008080818F0E0BD
:10542000000000070B101010101C0F0300000000FC
:1054300080C040202020E0C0000000FCFF211008B8
:10544000080818F0E0000001070C18101010080FF1
:1054500003000000C0E06060606060E06000000089
:1054600003000000E0180700000000000000001F1B
:105470001F00000000000080C0602020202060C0CD
:1054800080000087EF2C1818303068CF83000007A9
:105490000F0810101010180F07000000C0C02020C7
:1054A0002020C0800000001F3F604040402010FFCF
:1054B000FE0000000C1C101010080F03000000007C
:1054C0000000000000000000000000000000000ECE
:1054D0000E0E0000000000000000001C1C1C00005C
:1054E00000000000000000000000000000000000BC
:1054F0000000000C0C00000000000000000000583C
:105500003800000000000000000000000080402083
:10551000100000001028448201000000000000007C
:10552000000000000102040810000000000000005C
:1055300000000000000000848484848484848484C7
:1055400084000000000000000000000000000000D7
:10555000102040800000000000000000000000005B
:10556000018244281000000010080402010000001D
:10557000000000C020201010101030E0C000000318
:10558000030000F010080C070300000000001C1CC2
:105590001C0000000000000000C0406020202040EF
:1055A000C00000FCFF01F00E03C1FE03807F00017C
:1055B000070E08111110110904020000000080E01C
:1055C000E000000000000000807C4340477FF8803E
:1055D000000010181F1000000000131F1C1020E016
:1055E000E02020202060C080000000FFFF1010108D
:1055F00010182FE78000101F1F1010101010180F28
:105600000700000080C0402020202060E00000FC57
:10561000FF0100000000000001000001070E18104B
:1056200010100804030020E0E02020202040C0806B
:10563000000000FFFF000000000001FFFE00101F3F
:105640001F10101018080E07010020E0E020202095
:1056500020202060800000FFFF101010107C000050
:105660000000101F1F10101010101018060020E06E
:10567000E020202020206060800000FFFF1010103C
:10568000107C00000100101F1F100000000000002F
:105690000000000080C06020202040E0000000FCEE
:1056A000FF0100004040C0C140400001070E18103B
:1056B00010100F0F000020E0E0200000000020E0AC
:1056C000E02000FFFF101010101010FFFF00101F4F
:1056D0001F1000000000101F1F100000202020E0FD
:1056E000E020202000000000000000FFFF0000007C
:1056F000000000001010101F1F101010000000000C
:105700000000202020E0E020202000000000000019
:1057100000FFFF0000000060E0808080C07F3F004D
:10572000000020E0E020000020A06020200000FF1A
:10573000FF30187CE3C000000000101F1F100000A5
:1057400001131F1C181020E0E020000000000000E2
:10575000000000FFFF000000000000000000101F1C
:105760001F10101010101018060020E0E0E00000DC
:105770000000E0E0E02000FF013FFEC0E01E01FF6E
:10578000FF00101F1000031F0300101F1F1020E058
:10579000E0C0000000000020E02000FF0003071C24
:1057A00078E08000FF00101F100000000000030FD1
:1057B0001F00000080C060202060C080000000FE4C
:1057C000FF010000000000FFFE000001070E18109E
:1057D00010180C07010020E0E0202020202060C0ED
:1057E000800000FFFF2020202020301F0F00101F0E
:1057F0001F100000000000000000000080C06020BA
:105800002060C080000000FEFF010000000000FFDB
:10581000FE000001070E1111133C7C67210020E0FF
:10582000E0202020202060C0800000FFFF1010300A
:10583000F0D0080F0700101F1F10000000030F1CFE
:1058400010100080C060202020204040E0000007B1
:105850000F0C1818303060E08100001F0C08101089
:105860001010180F07008060202020E0E02020208A
:1058700060800100000000FFFF0000000001000048
:105880000000101F1F100000000020E0E0200000BA
:1058900000000020E02000FFFF00000000000000EA
:1058A000FF0000070F1810101010100807002060EC
:1058B000E0E02000000020E060200000077FF8808A
:1058C00000807C03000000000000071F1C07000090
:1058D000000020E0E02000E0E0200020E0200007C1
:1058E000FFF8E01FFFFCE01F00000000031F0300A3
:1058F000011F03000000002060E0A0000020E06025
:105900002000000000038F7CF8C60100000000109A
:10591000181E130001171F1810002060E0E020007F
:10592000000020E06020000001073EF8E0180700BA
:10593000000000000010101F1F1010000000008069
:105940006020202020A0E0E0200000000000C0F047
:105950003E0F0300000000101C1F1710101010183D
:1059600006000000000000FC040404040400000021
:10597000000000FF00000000000000000000007FA9
:10598000404040404000000010E0000000000000E7
:10599000000000000000031C608000000000000008
:1059A0000000000000030C708000000004040404E8
:1059B00004FC0000000000000000000000FF0000E8
:1059C0000000000040404040407F00000000000018
:1059D0000010080C040C081000000000000000007B
:1059E00000000000000000000000000000000000B7
:1059F00000000000000000000000000000000000A7
:105A00000000000000000000000080808080808096
:105A1000808080808080000000040408080000006E
:105A20000000000000000000000000000000000076
:105A30000000000000000000000000000000000066
:105A4000000000000000000098D844642424FCF802
:105A50000000000F1F18101010081F1F1018002042
:105A6000E0F000000000000000000000FFFF180848
:105A700004040CF8F00000001F0F18101010180F8D
:105A8000030000000000000000000000000000E033
:105A9000F8180404043C3800000000030F0C101038
:105AA0001010080600000000000000000020E0F0D8
:105AB000000000E0F81C04040408FFFF00000003DD
:105AC0000F18101010081F0F080000000000000041
:105AD0000000000000000000E0F8484444444C7816
