:020000040800F2
:1000000060070020D5010008DD010008DF010008BD
:10001000E1010008E3010008E5010008000000001C
:10002000000000000000000000000000E7010008E0
:10003000E901000800000000EB010008ED010008E4
:10004000EF010008EF010008EF010008EF010008D0
:10005000EF010008EF010008EF010008EF010008C0
:10006000EF010008EF010008EF010008EF010008B0
:10007000EF010008EF010008EF010008EF010008A0
:10008000EF010008EF010008EF010008EF01000890
:10009000EF010008EF010008EF010008EF01000880
:1000A000EF010008EF010008EF010008EF01000870
:1000B000EF010008EF010008EF010008EF01000860
:1000C000EF010008EF010008EF010008EF01000850
:1000D000EF010008850D0008EF010008EF0100089E
:1000E000EF010008EF010008EF010008EF01000830
:1000F000EF010008EF010008EF010008EF01000820
:10010000EF010008EF010008EF010008EF0100080F
:10011000EF010008EF010008EF010008EF010008FF
:10012000EF010008EF010008EF010008EF010008EF
:1001300000F002F800F03FF80AA090E8000C8244BA
:100140008344AAF10107DA4501D100F034F8AFF297
:10015000090EBAE80F0013F0010F18BFFB1A43F0A5
:10016000010318476C1000008C100000103A24BFE7
:1001700078C878C1FAD8520724BF30C830C144BF0C
:1001800004680C607047000000230024002500264E
:10019000103A28BF78C1FBD8520728BF30C148BFEA
:1001A0000B607047642900F06B80002070471FB51A
:1001B0001FBD10B510BD00F0B1F91146FFF7F7FFF4
:1001C00000F0D2FF00F0CFF903B4FFF7F2FF03BC59
:1001D00000F058FF0948804709480047FEE7FEE75E
:1001E000FEE7FEE7FEE7FEE7FEE7FEE7FEE7FEE7E7
:1001F00004480549054A064B70470000D50C000825
:100200003101000860010020600700206003002029
:1002100060030020704700000FB4044910B503AA22
:10022000029800F04DF910BC5DF814FB08000020A6
:1002300070B5044685690068C10601D5302600E026
:100240002026C00707D070BDD4E901213046904771
:10025000206A401C20626D1EF6D570BD70B5044644
:1002600085690078C00707D170BDD4E9012120203D
:100270009047206A401C20626D1EF6D570BD0000BC
:100280002DE9F0410646002410687529314616A56F
:1002900010D0AFF30080002802DA404213A507E037
:1002A00031688A0701D512A502E0490704D511A5D6
:1002B000012401E0AFF3008000210A2206F12407A7
:1002C00009E0B0FBF2FCB0FBF2F302FB1C003030A3
:1002D00078541846491C0028F3D123462A46304654
:1002E000BDE8F04100F093B8000000002D000000D0
:1002F0002B000000200000002DE9F0474FF0000A1D
:1003000089460446C0F820A02046E16888470028B6
:1003100076D0252806D0D4E901219047206A401CD8
:100320002062F1E7E168204600258847C4F81CA058
:1003300006460027C4F818A02A2E09D0304600F03F
:100340009AFE38B304EB8708303EC8F8186019E00D
:1003500059F8041B204604EB87029161E168884745
:10036000012F064618D1E069002820DA25F0200583
:100370001DE0D8F8180000EB800006EB4000303894
:10038000C8F818002046E1688847064600F073FE6A
:100390000028EED1012F0AD02E2E08D12046E16888
:1003A00088477F1C0646022F45F02005C4DBA06964
:1003B000002803DA404245F00105A061E80701D0BA
:1003C00025F01005B6B1A6F14100192802D8203653
:1003D00045F400654A463146204625604D46FFF704
:1003E000E1FE58B1012806D0ED1D25F0070000F10F
:1003F000080989E704E005F1040985E730468AE742
:10040000206ABDE8F08770477047704770472DE954
:10041000F0470D4699469246044600F124080168CB
:10042000880604D5E06921F01001216000E0012078
:10043000A84201DD471B00E00027A1697A1902EB01
:100440000900081AA0612078C00602D42046FFF7F0
:10045000EFFE002608E0D4E901211AF806009047D3
:10046000206A401C761C20624E45F4DB2078C006D2
:100470000AD52046FFF7DCFE06E0D4E90121302052
:100480009047206A401C2062381EA7F10107F4DC67
:1004900007E0D4E9012118F805009047206A401CC4
:1004A0002062281EA5F10105F3DC2046FFF7D6FEE9
:1004B0002078000602D50220BDE8F0870120FBE786
:1004C000074B70B50D467B4400F011F804462846F2
:1004D00000F020F810B14FF0FF3070BD204670BD25
:1004E000730C000001694A1C02610878704700B56E
:1004F0008FB0CDE901310021059105497944CDE95D
:10050000031011466846FFF7F7FE0FB000BD00006C
:10051000E5FFFFFF007B00F080007047754600F0AC
:100520002BF8AE4605006946534620F00700854685
:1005300018B020B5FFF75CFEBDE820404FF0000684
:100540004FF000074FF000084FF0000B21F00701BB
:10055000AC46ACE8C009ACE8C009ACE8C009ACE8FE
:10056000C0098D46704710B50446AFF300802046A1
:10057000BDE81040FFF728BE00487047000100208A
:1005800010B5482000F046F807E020480078401CED
:100590001E490870012000F0ABFD4FF400611C48BB
:1005A00000F0E5F918B9194800786428EDDB174820
:1005B0000078642803DA00201449087003E0002062
:1005C0001249087010BD07E010480078401C0F4920
:1005D0000870012000F08CFD4FF400610C4800F021
:1005E000C6F9012803D1094800786428ECDB0748E4
:1005F0000078642803DA00200449087003E0002032
:1006000002490870DEE70120DCE700000C00002052
:100610000020014038B50446102C09D1C001ADF8C6
:10062000000003208DF8020010208DF8030006E082
:100630004FF40060ADF8000048208DF803006946D3
:10064000014800F009F938BD0020014070B50024D0
:1006500008253FE06006040E07E022480078401CB1
:1006600020490870012000F043FD4FF400611E484E
:1006700000F07DF918B11B4800786428EDDB0020FC
:100680001849087007E017480078401C15490870A1
:10069000012000F02DFD4FF40061134800F067F9D0
:1006A00018B9104800783728EDDB0E480078372855
:1006B00003DA00200B49087003E0002009490870A4
:1006C00070BD282000F014FD4FF40061064800F0D2
:1006D0004EF90443281EA5F10101CDB2BADC204633
:1006E000EEE700000C0000200020014010B51020B3
:1006F000FFF790FF4FF40061074800F041F9142024
:1007000000F0C2FC4FF40061034800F03BF91E20EA
:1007100000F0EEFC10BD0000002001407CB5054655
:100720000E46FFF7E3FFFFF72BFF68B3002405E059
:10073000FFF78CFF0DF80400601CC4B2052CF7DB3A
:10074000372000F0D5FC9DF800009DF8011008440A
:100750009DF8021008449DF8031008449DF8041009
:10076000884206D19DF8000030709DF80200287084
:100770000CE0002404E000200DF80400601CC4B26A
:10078000052CF8DB00207CBD0020FCE70120FAE707
:1007900010B56FF0040000F089FA0A4800680A49B1
:1007A000B0FBF1F0094908700846007800EB400101
:1007B000C1EBC0104FF6FF7101EAC0000449088088
:1007C00010BD00002400002000127A00000000206C
:1007D0000200002008B501214FF4867000F068F98E
:1007E0004FF40070ADF8000003208DF802001820CF
:1007F0008DF803006946154800F02EF84FF480602C
:10080000ADF8000004208DF8030069460F4800F0A1
:1008100023F82020ADF8000003208DF802001020FE
:100820008DF8030069460A4800F016F84FF400609E
:10083000ADF8000003208DF8020010208DF80300B1
:100840006946044800F008F808BD000000080140AF
:10085000000C0140002001402DE9F0410246002536
:100860000026002000230024002791F803C00CF08C
:100870000F0591F803C00CF0100CBCF1000F03D071
:1008800091F802C04CEA050591F800C0BCF1000FD8
:1008900031D0146800202BE04FF0010C0CFA00F36B
:1008A000B1F800C00CEA03069E4220D183004FF04D
:1008B0000F0C0CFA03F7BC4305FA03FC4CEA0404E2
:1008C00091F803C0BCF1280F06D14FF0010C0CFACF
:1008D00000FCC2F814C00AE091F803C0BCF1480F54
:1008E00005D14FF0010C0CFA00FCC2F810C0401CFE
:1008F0000828D1D31460B1F800C0BCF1FF0F34DD7B
:10090000546800202EE000F1080C4FF0010808FAAE
:100910000CF3B1F800C00CEA03069E4221D183001B
:100920004FF00F0C0CFA03F7BC4305FA03FC4CEA3A
:10093000040491F803C0BCF1280F05D100F1080CA4
:1009400008FA0CF8C2F8148091F803C0BCF1480F03
:1009500007D100F1080C4FF0010808FA0CF8C2F8B2
:100960001080401C0828CED35460BDE8F0810246B8
:10097000002093680B400BB1012000E0002070477D
:10098000416170470161704710B5C26821EA0203F6
:1009900002EA010443EA0443036110BD10B500F00C
:1009A00021F8FFF7F5FEFFF715FF4FF4E13000F0F7
:1009B000C1F910BD10B504466006040E08E0202100
:1009C0000748FFF7E1FF642000F05EFB601EC4B241
:1009D000002CF4DC20210248FFF7D4FF10BD0000FA
:1009E000000C014008B54FF4A06000F047F8252046
:1009F0008DF8000003208DF801008DF80200012021
:100A00008DF80300684600F001F808BD70B50021BC
:100A100000230F22C47804B3154C246804F4E06466
:100A2000C4F5E064210AC1F10403CA40447804FA21
:100A300003F184781440214309010E4C0678A15536
:100A4000047804F01F050124AC4005786D11AD0059
:100A500005F1E025C5F8004109E0047804F01F0520
:100A60000124AC40044D0678761145F8264070BD4F
:100A70000CED00E000E400E080E100E00249014309
:100A8000024A1160704700000000FA050CED00E01A
:100A900029B1064A12690243044B1A6104E0034A71
:100AA00012698243014B1A61704700000010024036
:100AB00029B1064A92690243044B9A6104E0034A51
:100AC00092698243014B9A61704700000010024016
:100AD00029B1064AD2680243044BDA6004E0034AB3
:100AE000D2688243014BDA60704700000010024078
:100AF00030B500210022002400232D4D6D6805F043
:100B00000C0121B1042905D0082923D105E0294D84
:100B1000056022E0274D05601FE0254D6D6805F456
:100B20007012234D6D6805F48034022505EB924266
:100B30001CB9214D554305600BE01D4D6D6805F452
:100B400000351DB11C4D5543056002E0194D55435C
:100B5000056002E0174D056000BF00BF144D6D68D1
:100B600005F0F0010909154D6B5C0568DD40456035
:100B70000F4D6D6805F4E061090A104D6B5C456826
:100B8000DD4085600A4D6D6805F46051C90A0B4D62
:100B90006B5C4568DD40C560054D6D6805F44041FE
:100BA000890B074D6B5CC568B5FBF3F5056130BD7E
:100BB0000010024000127A0000093D000D000020E4
:100BC0001D00002010B500F001F810BD0CB500208C
:100BD000019000903348006840F48030314908604B
:100BE00000BF3048006800F4003000900198401CBD
:100BF0000190009818B90198B0F5A06FF1D129487B
:100C0000006800F4003010B10120009001E00020E5
:100C100000900098012843D12348006840F010005C
:100C2000214908600846006820F00700086008466F
:100C3000006840F0020008601A484068194948609E
:100C40000846406848600846406840F48060486054
:100C50000846406820F47C1048600846406840F42C
:100C6000E81048600846006840F08070086000BFE7
:100C70000C48006800F000700028F9D0094840686E
:100C800020F00300074948600846406840F0020031
:100C9000486000BF0348406800F00C000828F9D104
:100CA0000CBD00000010024000200240042808D1C2
:100CB0004FF0E021096941F004014FF0E022116199
:100CC00007E04FF0E021096921F004014FF0E02234
:100CD0001161704710B51348006840F001001149D8
:100CE000086008464068104908400E4948600846B8
:100CF00000680E4908400B4908600846006820F467
:100D0000802008600846406820F4FE0048604FF4E8
:100D10001F008860FFF756FF4FF00060044908602D
:100D200010BD0000001002400000FFF8FFFFF6FEBB
:100D300008ED00E01FB5044601218803FFF7B8FE67
:100D40000F4800F079F800940020ADF80400ADF8E9
:100D50000600ADF80800ADF80C000C20ADF80A0054
:100D60006946074800F012F9012240F22551044873
:100D700000F0E7F80121024800F051F81FBD000023
:100D80000038014010B540F225511D4800F0AFF881
:100D900018B31B4800F066F9C4B21A48008800F482
:100DA000004001282BD01748008800F4804060B133
:100DB0000A2C03D000201349088020E01148008845
:100DC00040F400400F49088019E00D2C06D10D4871
:100DD000008840F480400B49088010E009480088F2
:100DE000C0F30D0008490C5406480088401C054912
:100DF000088008460088C72801DD0020088010BD53
:100E000000380140040000203800002001F4007286
:100E1000B2F5007F00D100BFCA430280704721B104
:100E2000828942F40052828104E082894DF6FF7388
:100E30001A4082817047000010B504462048844261
:100E400009D101218803FFF743FE00214FF48040C0
:100E5000FFF73EFE32E01B48844209D101214804DD
:100E6000FFF716FE00214FF40030FFF711FE25E0DA
:100E70001548844209D101218804FFF709FE0021A9
:100E80004FF48020FFF704FE18E01048844209D197
:100E90000121C804FFF7FCFD00214FF40020FFF7FB
:100EA000F7FD0BE00A48844208D101210805FFF74D
:100EB000EFFD00214FF48010FFF7EAFD10BD0000A8
:100EC000003801400044004000480040004C004011
:100ED0000050004002460020B1F5007F00D100BF65
:100EE00013880B400BB1012000E00020704770B563
:100EF0000246002400230025002040F66A16B14275
:100F000000D100BFC1F3421501F01F03012606FA0C
:100F100003F3012D02D19689334006E0022D02D160
:100F2000168A334001E0968A33400C12012606FAF5
:100F300004F41688344013B10CB1012000E0002005
:100F400070BDF0B50346002400260025002040F6C1
:100F50006A17B94200D100BF1846C1F3421401F02C
:100F60001F06012707FA06F5012C01D10C3004E019
:100F7000022C01D1103000E014301AB107682F4361
:100F8000076002E00768AF430760F0BD2DE9F04756
:100F900086B005460E460024A24600BFA1460027A3
:100FA000B08900B100BF2F462C8A4CF6FF70044078
:100FB000F08804432C82AC894EF6F3100440B088CC
:100FC00031890843718908430443AC81AC8A4FF6E8
:100FD000FF400440B0890443AC8201A8FFF788FDBC
:100FE0001F48874202D1DDF810A001E0DDF80CA017
:100FF000A88900F4004040B10AEBCA0000EB0A10D7
:1010000031684900B0FBF1F807E00AEBCA0000EBD9
:101010000A1031688900B0FBF1F86420B8FBF0F0E9
:1010200004012009642101FB1089A88900F4004013
:1010300040B1322000EBC900B0FBF1F000F0070036
:10104000044308E0322000EB09106421B0FBF1F00A
:1010500000F00F0004432C8106B0BDE8F0870000CB
:101060000038014001468888C0F308007047C1F38A
:1010700008028280704730380A2801D20120704768
:101080000020704700BF70470146114A12884A434A
:101090004FF0E0235A6100229A611A46126942F029
:1010A00001021A6100BF4FF0E022106900F0010256
:1010B0001AB100F48032002AF5D04FF0E022126914
:1010C00022F001024FF0E0231A6100229A6170477A
:1010D0000200002010B5044603E04FF47A70FFF7D9
:1010E000D3FF201EA4F10101CCB2F6D110BD000047
:1010F0000146114A12784A434FF0E0235A61002218
:101100009A611A46126942F001021A6100BF4FF05B
:10111000E022106900F001021AB100F48032002AC6
:10112000F5D04FF0E022126922F001024FF0E023E7
:101130001A6100229A6170470000002070B50446D1
:101140000D4640210748FFF761FEE1B20548FFF771
:101150008EFF00BF80210348FFF7BCFE0028F9D0B6
:10116000204670BD003801401CB5FFF717FC18E0A1
:10117000694601A8FFF7D2FA68B19DF8041009A0EA
:10118000FFF74AF89DF800100BA0FFF745F8012083
:10119000FFF710FC02E00220FFF70CFC0120FFF734
:1011A00099FFE5E754656D70657261747572653A13
:1011B00020253364204300002048756D69646974FC
:1011C0007920203A2025336425250D0A00000000EF
:1011D000F011000800000020380000006C01000839
:1011E00028120008380000202807000088010008A5
:1011F00000000000000000000000000000000000EF
:1012000000010203040102030406070809020406A0
:101210000800000000A24A040000000000000000D6
:0812200001020304060708099E
:0400000508000131BD
:00000001FF
