:020000040800F2
:10000000D8130020250200082D0200082F02000846
:100010003102000833020008350200080000000029
:10002000000000000000000000000000370200088F
:1000300039020008000000003B0200083D020008F1
:100040003F0200083F0200083F0200083F0200088C
:100050003F0200083F0200083F0200083F0200087C
:100060003F0200083F0200083F0200083F0200086C
:100070003F0200083F0200083F0200083F0200085C
:100080003F0200083F0200083F0200083F0200084C
:100090003F0200083F0200083F0200083F0200083C
:1000A0003F0200083F0200083F0200083F0200082C
:1000B0003F0200083F0200083F0200083F0200081C
:1000C0003F0200083F0200083F0200083F0200080C
:1000D0003F020008B91500083F0200083F0200086F
:1000E0003F0200083F0200083F0200083F020008EC
:1000F0003F0200083F0200083F0200083F020008DC
:100100003F0200083F0200083F0200083F020008CB
:100110003F0200083F0200083F0200083F020008BB
:100120003F0200083F0200083F0200083F020008AB
:1001300000F002F800F066F80AA090E8000C824493
:100140008344AAF10107DA4501D100F05BF8AFF270
:10015000090EBAE80F0013F0010F18BFFB1A43F0A5
:1001600001031847D03E0000F03E000010F8013BAC
:100170000A4413F0030408BF10F8014B1D1108BF17
:1001800010F8015B641E05D010F8016B641E01F8C5
:10019000016BF9D1002D15D010F8014B03F00C03C1
:1001A0000C2BA1EB04040ABF10F8013BA4EB831451
:1001B000A4EB032405F1010314F8016B5B1E01F8A5
:1001C000016BF9D5914238BF10F8013BD1D370478C
:1001D0000023002400250026103A28BF78C1FBD850
:1001E000520728BF30C148BF0B607047642900F038
:1001F000AD80632900F06B81002070471FB51FBDE3
:1002000010B510BD00F06FF91146FFF7F7FF01F0D0
:1002100069FB00F08DF903B4FFF7F2FF03BC01F0B6
:100220002AFB00000948804709480047FEE7FEE72F
:10023000FEE7FEE7FEE7FEE7FEE7FEE7FEE7FEE796
:1002400004480549054A064B704700000915000897
:1002500031010008D80D0020D8130020D80F00204D
:10026000D80F0020704700000FB41CB5074B06AA3A
:100270007B4469460090059800F007F90020694624
:1002800000F016F91CBC5DF814FB00003D020000F4
:100290002DE9F0410E460446002020622046E16828
:1002A000884730B3252805D0D4E901219047206A3A
:1002B000401CF2E7E168204600278847050018D077
:1002C000A5F14100192802D820354FF400673246C5
:1002D000294620462760FFF789FF40B1012804D056
:1002E000F61D26F007060836D8E7361DD6E728465D
:1002F000DAE7206ABDE8F08170B50C460546012AB0
:1003000005D02878800600D5EA69002302E00123A1
:1003100005E05B1C934202D2E05C0028F9D1A86999
:10032000E618C01AA861286A184428622846AFF364
:10033000008004E0D5E9012114F8010B9047B44294
:10034000F8D32846AFF3008070BD00002DE9F041DE
:100350000646002410687529314616A510D0AFF363
:100360000080002802DA404213A507E031688A07BE
:1003700001D512A502E0490704D511A5012401E029
:10038000AFF3008000210A2206F1240709E0B0FB48
:10039000F2FCB0FBF2F302FB1C003030785418463C
:1003A000491C0028F3D123462A463046BDE8F041D7
:1003B00000F00CB8000000002D0000002B00000031
:1003C0002000000070477047704770472DE9F047E4
:1003D0000D4699469246044600F1240801688806B5
:1003E00004D5E06921F01001216000E00120A8425D
:1003F00001DD471B00E00027A1697A1902EB090023
:10040000081AA0612078C00602D42046AFF300800D
:10041000002608E0D4E901211AF806009047206A76
:10042000401C761C20624E45F4DB2078C0060AD5BD
:100430002046AFF3008006E0D4E901213020904748
:10044000206A401C2062381EA7F10107F4DC07E097
:10045000D4E9012118F805009047206A401C206269
:10046000281EA5F10105F3DC2046AFF300802078BB
:10047000000602D50220BDE8F0870120FBE700005E
:1004800001694A1C02610878704700B58FB0CDE958
:1004900001310021059105497944CDE90310114648
:1004A0006846FFF7F5FE0FB000BD0000E5FFFFFF57
:1004B0000A6802F8010B0A60704710B5436913B16E
:1004C000AFF3008001E0FFF717FF012010BD1278A5
:1004D00000F124010A7000224A700122EDE7116840
:1004E0004FF0FF32E9E7754600F02CF8AE46050004
:1004F0006946534620F00700854618B020B5FFF73F
:100500009FFEBDE820404FF000064FF000074FF07F
:1005100000084FF0000B21F00701AC46ACE8C00921
:10052000ACE8C009ACE8C009ACE8C0098D4670472A
:1005300010B50446AFF300802046BDE81040FFF739
:100540006ABE000000487047780D002010B56FF0BB
:10055000040000F0C5FF0A4800680A49B0FBF1F04A
:10056000094908700846007800EB4001C1EBC01053
:100570004FF6FF7101EAC0000449088010BD000079
:100580001C08002000127A00000800200208002049
:1005900008B501210D2000F0A5FE4FF40070ADF864
:1005A000000003208DF8020018208DF80300694632
:1005B000164800F02FF84FF48060ADF800000420DA
:1005C0008DF803006946114800F024F82020ADF8AA
:1005D000000003208DF8020010208DF8030069460A
:1005E0000B4800F017F82021094800F09EF8C020C1
:1005F000ADF8000003208DF802001C208DF80300E8
:100600006946034800F006F808BD000000080140F4
:10061000000C01402DE9F041024600250026002093
:1006200000230024002791F803C00CF00F0591F877
:1006300003C00CF0100CBCF1000F03D091F802C005
:100640004CEA050591F800C0BCF1000F31D01468E8
:1006500000202BE04FF0010C0CFA00F3B1F800C0C1
:100660000CEA03069E4220D183004FF00F0C0CFAD7
:1006700003F7BC4305FA03FC4CEA040491F803C0F9
:10068000BCF1280F06D14FF0010C0CFA00FCC2F8A7
:1006900014C00AE091F803C0BCF1480F05D14FF037
:1006A000010C0CFA00FCC2F810C0401C0828D1D381
:1006B0001460B1F800C0BCF1FF0F34DD54680020B5
:1006C0002EE000F1080C4FF0010808FA0CF3B1F825
:1006D00000C00CEA03069E4221D183004FF00F0CAC
:1006E0000CFA03F7BC4305FA03FC4CEA040491F846
:1006F00003C0BCF1280F05D100F1080C08FA0CF872
:10070000C2F8148091F803C0BCF1480F07D100F182
:10071000080C4FF0010808FA0CF8C2F81080401CD1
:100720000828CED35460BDE8F0810161704770B5F0
:1007300002460024002500230020958A138B1B0409
:1007400045EA030626F07F4404EA01068E4201D101
:10075000012000E0002070BD21B1028842F00102BA
:10076000028004E002884FF6FE731A400280704750
:100770001FB50121480500F095FD0F4800F020F855
:100780004FF48060ADF80A000001ADF80C000B4892
:1007900000904BF6FF70ADF806000020ADF80400A5
:1007A000C020ADF808006946034800F05BF801215D
:1007B0000148FFF7D1FF1FBD00540040801A06001A
:1007C00010B504460B48844209D10121480500F0C8
:1007D00079FD00214FF4001000F074FD08E00121C4
:1007E000880500F06FFD00214FF4800000F06AFDE5
:1007F00010BD00000054004021B1028842F4807214
:10080000028004E002884FF6FF631A4002807047BE
:1008100021B1028842F40072028004E002884FF69F
:10082000FF531A40028070470CB502460020002397
:100830000193009300920B0F019321F07F41019BE4
:100840001BB1009B1433009303E0090C009B183389
:100850000093009B1B680B400BB1012000E00020BF
:100860000CBD00002DE9F04385B004460D4600267E
:10087000B1460427DFF8CC80A6884FF6C07006404A
:10088000684600F04FFDDDF808802F48B8FBF0F017
:100890001FFA80F946EA0906A68020884FF6FE7105
:1008A0000840208000262949286888420CD82868FA
:1008B0004000B8FBF0F087B2042F00DA04273E4373
:1008C00009F10100208427E0E8884BF6FF71884297
:1008D00006D1286800EB4000B8FBF0F087B209E0D1
:1008E000286800EBC00101EB0010B8FBF0F087B204
:1008F00047F48047C7F30B0008B947F0010747F4F6
:10090000004006434FF4967009FB00F04FF47A71F3
:1009100090FBF1F0401C2084A683208840F0010069
:10092000208026884FF6F5300640A888698908435C
:1009300006432680A88929890843208105B0BDE89F
:10094000F083000000127A0040420F00A0860100F0
:1009500012B141F0010102E04FF6FE73194001822D
:1009600070470182704700002DE9F0410746884634
:1009700015461E46002400BF4FF400313846FFF7ED
:1009800053FF0028F8D101213846FFF735FF00BF9B
:1009900025493846FFF7CBFE0128F9D10022414610
:1009A0003846FFF7D5FF05E02046611CCCB2FA2897
:1009B00000DD32E01D493846FFF7B9FE0128F3D1CA
:1009C000002429463846FFF7CCFF05E02046611C8D
:1009D000CCB2FA2800DD20E01449891C3846FFF724
:1009E000A6FE0128F2D1002431463846FFF7B9FFB0
:1009F00005E02046611CCCB2FA2800DD0DE00B4971
:100A0000891C3846FFF793FE0128F2D101213846B0
:100A1000FFF7FEFE0120BDE8F08101213846FFF717
:100A2000F7FE0020F7E70000010003008200070046
:100A30002DE9F0470746884616461C46DDF820900B
:100A4000002500BF4FF400313846FFF7EDFE0028C7
:100A5000F8D101213846FFF7CFFE00BF2A493846BA
:100A6000FFF765FE0128F9D1002241463846FFF71D
:100A70006FFF05E02846691CCDB2FA2800DD3CE096
:100A800022493846FFF753FE0128F3D100253146AD
:100A90003846FFF766FF05E02846691CCDB2FA2804
:100AA00000DD2AE01949891C3846FFF740FE01287D
:100AB000F2D1002513E014F8011B3846FFF751FF6F
:100AC00005E02846691CCDB2FA2800DD15E00F4983
:100AD000891C3846FFF72BFE0128F2D10025B9F119
:100AE0000000A9F1010101F0FF09E4D1012138461C
:100AF000FFF78EFE0120BDE8F08701213846FFF7A1
:100B000087FE0020F7E700000100030082000700D5
:100B100010B500F00DF8FFF719FDFFF739FD4FF4A0
:100B2000E13000F021FDFFF723FE00F0D9F810BD01
:100B300008B54FF4A06000F047F825208DF80000BC
:100B400003208DF801008DF8020001208DF80300CC
:100B5000684600F001F808BD70B5002100230F229F
:100B6000C47804B3154C246804F4E064C4F5E0646C
:100B7000210AC1F10403CA40447804FA03F18478DD
:100B80001440214309010E4C0678A155047804F065
:100B90001F050124AC4005786D11AD0005F1E0257D
:100BA000C5F8004109E0047804F01F050124AC40B9
:100BB000044D0678761145F8264070BD0CED00E036
:100BC00000E400E080E100E002490143024A1160D4
:100BD000704700000000FA050CED00E070B500243D
:100BE0000EE0002508E0002004EBC401074A02EBF8
:100BF00001114855681CC5B2802DF4DB601CC4B2DD
:100C0000082CEEDB00F064FA70BD0000F80800204C
:100C100010B5044664B1C023002278210B48FFF7C9
:100C2000A3FEA023002278210848FFF79DFE0BE0D9
:100C3000C823002278210548FFF796FEA123002251
:100C400078210248FFF790FE10BD000000540040DC
:100C5000F0B514460B46CE1701EB5676C6F3C70225
:100C6000CE1701EB5676F610A1EBC6070126BE4063
:100C7000F5B26CB102EBC203184E06EB03131B5C1A
:100C80002B4302EBC206154F07EB0616335424E044
:100C900002EBC203114E06EB03131B5CDB4302EBBA
:100CA000C2060E4F07EB0616335402EBC2033E4654
:100CB00006EB03131B5C2B4302EBC20607EB061685
:100CC000335402EBC2033E4606EB03131B5CDB43CB
:100CD00002EBC20607EB06163354F0BDF8080020FD
:100CE00010B5AE23002278215848FFF73DFE0023BF
:100CF0001A4678215548FFF737FE10230022782145
:100D00005248FFF731FE4023002278214F48FFF779
:100D10002BFE8123002278214C48FFF725FECF23AC
:100D2000002278214948FFF71FFEA12300227821E5
:100D30004648FFF719FEC823002278214348FFF7F1
:100D400013FEA623002278214048FFF70DFEA823BA
:100D5000002278213D48FFF707FE3F23002278213B
:100D60003A48FFF701FED323002278213748FFF7E6
:100D7000FBFD00231A4678213448FFF7F5FDD52303
:100D8000002278213148FFF7EFFD802300227821EF
:100D90002E48FFF7E9FDD923002278212B48FFF7E1
:100DA000E3FDF123002278212848FFF7DDFDDA2357
:100DB000002278212548FFF7D7FD12230022782151
:100DC0002248FFF7D1FDDB23002278211F48FFF7DF
:100DD000CBFD4023002278211C48FFF7C5FD2023CE
:100DE000002278211948FFF7BFFD02230022782155
:100DF0001648FFF7B9FD8D23002278211348FFF72D
:100E0000B3FD1423002278211048FFF7ADFDA42381
:100E1000002278210D48FFF7A7FDA62300227821A4
:100E20000A48FFF7A1FDFFF7D9FEAF230022782182
:100E30000648FFF799FDA623002278210348FFF713
:100E400093FD0020FFF7E4FE10BD000000540040B9
:100E50002DE9FC4F0746884616461C460197CDF8FB
:100E60000080082C01D106231DE02146E31704EB86
:100E70005373DB1020464FEAE47C04EB5C7C4FEAC2
:100E8000EC0CA4EBCC0CBCF1000F02D04FF0010C29
:100E900001E04FF0000C6344224604EBD27C4FEAA1
:100EA0006C0C03FB0CF303F0FF0BA6F12000C6B2A1
:100EB00000255CE0082C06D00C2C0CD0102C12D095
:100EC000182C1ED115E006EB46002B4901EB400023
:100ED00010F805A017E006EB4600284901EB80005A
:100EE00010F805A00FE0264800EB061010F805A04A
:100EF00009E006EBC600234901EB800010F805A0CD
:100F000001E0BDE8FC8F00BF4FF0000918E00AF0D7
:100F1000010008B10B9804E00B9808B9012000E02B
:100F20000020024641463846FFF792FE4FEA6A0A21
:100F300008F1010000F0FF0809F1010000F0FF09CD
:100F4000B9F1080FE3DB781CC7B2082C0BD004EB17
:100F5000D4714A100199791A8A4204D1019F0098EC
:100F60000830C0B20090DDF80080681CC5B25D4555
:100F7000A0DB00BFC5E70000AC1A0008D41C0008C5
:100F800048210008382700082DE9F84106460F4699
:100F900014461D46DDF81C8012E0CDF8008014F8E0
:100FA000012B2B4639463046FFF752FF082D01D161
:100FB000062103E0284600EBD07149103144CEB23F
:100FC0002078202802DB20787E28E6DDBDE8F88145
:100FD0002DE9FC4F0746884616461C46BB46CDF811
:100FE00004802046E21704EB5272D2102146E31728
:100FF00004EB5373DB10A4EBC3030BB1012300E03C
:1010000000231A44624392B20092002553E0102C50
:1010100006D0182C0AD0202C10D0402C1AD113E066
:10102000274800EB461010F805A015E006EBC600B7
:10103000244901EBC00010F805A00DE0224800EBA8
:10104000C61010F805A007E0204800EB462010F875
:1010500005A001E0BDE8FC8F00BF4FF0000918E0DB
:101060000AF0010008B10B9804E00B9808B90120C0
:1010700000E00020024641463846FFF7E9FD4FEA0E
:101080006A0A08F1010000F0FF0809F1010000F010
:10109000FF09B9F1080FE3DB781CC7B2A7EB0B001F
:1010A000A04204D15F4601980830C0B20190DDF83B
:1010B0000480681C85B200988542A8DB00BFC9E7A0
:1010C0009434000814350008343600083438000819
:1010D00038B5002421E004F1B000C3B20022782129
:1010E0000F48FFF741FC1023002278210C48FFF73E
:1010F0003BFC00231A4678210948FFF735FC802085
:10110000009004EBC400074901EB00134022782152
:101110000348FFF78DFC601CC4B2082CDBDB38BD34
:1011200000540040F808002008B5804689469246E1
:101130000026002753E04FB91023324618218020A3
:10114000CDF800A0FFF744FF701CC6B2464526D17B
:101150004FF0000B1EE0012514E000240EE004EB2C
:10116000C4001F4901EB0010415D04EBC4001C4AA0
:1011700002EB0012681E1154601CC4B2082CEEDB96
:10118000681CC5B2902DE8DBFFF7A2FF0BF1010050
:1011900000F0FF0B4FEA09105845DCDC0026781CF4
:1011A000C7B2102F00D10027012514E000240EE063
:1011B00004EBC4000A4901EB0010415D04EBC400DC
:1011C000074A02EB0012681E1154601CC4B2082CBE
:1011D000EEDB681CC5B2902DE8DBFFF779FFAAE7CC
:1011E000F80800202DE9FE4F05460E4617461C461E
:1011F00002950196002000902046E21704EB5272FF
:10120000D2102146E31704EB5373DB10A4EBC303A6
:101210000BB1012300E000231A44D4B24FF00008C0
:101220003CE04FF0000A33E00098411C89B2009185
:101230000C9911F800B04FF0000916E00BF0010016
:1012400008B10D9804E00D9808B9012000E00020D5
:10125000024631462846FFF7FBFC4FEA6B0B701C39
:10126000C6B209F1010000F0FF09B9F1080FE5DB92
:10127000681CC5B20298281AB84204D1029D019890
:101280000830C0B20190019E0AF1010000F0FF0A8F
:10129000BA45C9DB08F1010000F0FF08A045C0DB3A
:1012A000BDE8FE8F29B1064AD2690243044BDA61D8
:1012B00004E0034AD2698243014BDA6170470000BF
:1012C0000010024029B1064A12690243044B1A6118
:1012D00004E0034A12698243014B1A61704700001F
:1012E0000010024029B1064A92690243044B9A61F8
:1012F00004E0034A92698243014B9A6170470000FF
:101300000010024029B1064AD2680243044BDA6059
:1013100004E0034AD2688243014BDA607047000060
:101320000010024030B500210022002400232D4D82
:101330006D6805F00C0121B1042905D0082923D1DD
:1013400005E0294D056022E0274D05601FE0254D91
:101350006D6805F47012234D6D6805F48034022524
:1013600005EB92421CB9214D554305600BE01D4D24
:101370006D6805F400351DB11C4D5543056002E054
:10138000194D5543056002E0174D056000BF00BFD1
:10139000144D6D6805F0F0010909154D6B5C056889
:1013A000DD4045600F4D6D6805F4E061090A104DA0
:1013B0006B5C4568DD4085600A4D6D6805F46051E1
:1013C000C90A0B4D6B5C4568DD40C560054D6D6815
:1013D00005F44041890B074D6B5CC568B5FBF3F51F
:1013E000056130BD0010024000127A0000093D0086
:1013F000060800201608002010B500F001F810BD06
:101400000CB50020019000903348006840F4803013
:101410003149086000BF3048006800F40030009097
:101420000198401C0190009818B90198B0F5A06F80
:10143000F1D12948006800F4003010B1012000907B
:1014400001E0002000900098012843D12348006863
:1014500040F01000214908600846006820F00700AD
:1014600008600846006840F0020008601A484068BA
:10147000194948600846406848600846406840F49A
:10148000806048600846406820F47C104860084648
:10149000406840F4E81048600846006840F08070FA
:1014A000086000BF0C48006800F000700028F9D008
:1014B0000948406820F00300074948600846406832
:1014C00040F00200486000BF0348406800F00C0094
:1014D0000828F9D10CBD0000001002400020024095
:1014E000042808D14FF0E021096941F004014FF0D0
:1014F000E022116107E04FF0E021096921F00401C9
:101500004FF0E0221161704710B51348006840F0B9
:1015100001001149086008464068104908400E491A
:101520004860084600680E4908400B4908600846B4
:10153000006820F4802008600846406820F4FE001F
:1015400048604FF41F008860FFF756FF4FF00060BF
:101550000449086010BD0000001002400000FFF8C0
:10156000FFFFF6FE08ED00E01FB5044601218803E9
:10157000FFF7B8FE0F4800F06FF800940020ADF8B8
:101580000400ADF80600ADF80800ADF80C000C2022
:10159000ADF80A006946074800F0FCF8012240F265
:1015A0002551044800F0D0F80121024800F048F825
:1015B0001FBD00000038014010B540F225511D4804
:1015C00000F098F818B31B4800F050F9C4B21A485C
:1015D000008800F4004001282BD01748008800F450
:1015E000804060B10A2C03D000201349088020E01D
:1015F0001148008840F400400F49088019E00D2C84
:1016000006D10D48008840F480400B49088010E066
:1016100009480088C0F30D0008490C5406480088AA
:10162000401C0549088008460088C72801DD0020C5
:10163000088010BD00380140040800203008002058
:1016400021B1828942F40052828104E082894DF600
:10165000FF731A408281704710B5044620488442C7
:1016600009D101218803FFF74DFE00214FF480408E
:10167000FFF748FE32E01B48844209D101214804AB
:10168000FFF720FE00214FF40030FFF71BFE25E09E
:101690001548844209D101218804FFF713FE002177
:1016A0004FF48020FFF70EFE18E01048844209D165
:1016B0000121C804FFF706FE00214FF40020FFF7C8
:1016C00001FE0BE00A48844208D101210805FFF71A
:1016D000F9FD00214FF48010FFF7F4FD10BD00006C
:1016E000003801400044004000480040004C0040E9
:1016F0000050004070B50246002400230025002061
:1017000040F66A16B14200D100BFC1F3421501F0A4
:101710001F03012606FA03F3012D02D196893340F7
:1017200006E0022D02D1168A334001E0968A33404A
:101730000C12012606FA04F41688344013B10CB1D9
:10174000012000E0002070BDF0B503460024002613
:101750000025002040F66A17B94200D100BF1846A4
:10176000C1F3421401F01F06012707FA06F5012C08
:1017700001D10C3004E0022C01D1103000E0143013
:101780001AB107682F43076002E00768AF4307609C
:10179000F0BD00002DE9F04786B005460E46002456
:1017A000A24600BFA1460027B08900B100BF2F4666
:1017B0002C8A4CF6FF700440F08804432C82AC89DC
:1017C0004EF6F3100440B08831890843718908430C
:1017D0000443AC81AC8A4FF6FF400440B089044317
:1017E000AC8201A8FFF79EFD1F48874202D1DDF8B9
:1017F00010A001E0DDF80CA0A88900F4004040B181
:101800000AEBCA0000EB0A1031684900B0FBF1F89E
:1018100007E00AEBCA0000EB0A1031688900B0FB50
:10182000F1F86420B8FBF0F004012009642101FB09
:101830001089A88900F4004040B1322000EBC900B3
:10184000B0FBF1F000F00700044308E0322000EBA9
:1018500009106421B0FBF1F000F00F0004432C816B
:1018600006B0BDE8F08700000038014001468888D6
:10187000C0F30800704700BF704700000146114ADE
:1018800012884A434FF0E0235A6100229A611A46B7
:10189000126942F001021A6100BF4FF0E0221069A4
:1018A00000F001021AB100F48032002AF5D04FF0A6
:1018B000E022126922F001024FF0E0231A610022B7
:1018C0009A6170470208002010B5044603E04FF407
:1018D0007A70FFF7D3FF201EA4F10101CCB2F6D13C
:1018E00010BD000086B026240020039004900590CF
:1018F000FFF70EF9B4E001205A4940238022CDE9D8
:10190000001000210846FFF76DFCFFF7E1FB4FF4E4
:101910007A70FFF7B3FFFFF761F90120102300226F
:10192000114600901220FFF753FB012010230246BE
:10193000002100902420FFF74BFB012010230222FE
:10194000002100904820FFF743FB012010230322D1
:10195000002100905A20FFF73BFB0120102342A2F8
:10196000194600900820FFF70FFB0120102342A228
:10197000202100901420FFF707FB224641A103A875
:10198000FEF772FC0120102303AA302100900020F2
:10199000FFF7FAFA22463EA103A8FEF765FC0120F4
:1019A000102303AA302100903F20FFF7EDFAFFF744
:1019B0008FFB0120FFF788FFFFF710F901201023AC
:1019C0000022114600901046FFF702FB0120182369
:1019D0000246102100900020FFF7FAFA0120202390
:1019E0000222002100901820FFF7F2FA0120402384
:1019F0000322002100901846FFF7EAFAFFF768FB80
:101A00000120FFF761FFFFF7E9F80120082323A277
:101A1000002100900846FFF7B7FA01200C2321A20D
:101A2000082100902420FFF7AFFA012010231BA209
:101A3000142100900020FFF7A7FA0120182319A213
:101A4000242100903020FFF79FFAFFF741FB4FF46D
:101A50007A70FFF713FF012204210846FFF764FBA9
:101A600049E700000000002048656C6C6F2C20776F
:101A70006F726C6421000000323032322F30382F08
:101A80003038000041534349493A256300000000C3
:101A9000434F44453A2025640000000048656C6CC3
:101AA0006F000000576F726C6400000000000000BF
:101AB00000000000002F00000000070007000014D5
:101AC0007F147F1400242A7F2A12006264081323E3
:101AD00000364955225000000503000000001C227A
:101AE0004100000041221C000014083E08140008B8
:101AF000083E0808000000A0600000080808080868
:101B0000000060600000002010080402003E5149FF
:101B1000453E0000427F400000426151494600219D
:101B200041454B31001814127F10002745454539B7
:101B3000003C4A4949300001710905030036494912
:101B4000493600064949291E0000363600000000CB
:101B50005636000000081422410000141414141416
:101B600000004122140800020151090600324959BF
:101B7000513E007C1211127C007F49494936003EDB
:101B800041414122007F4141221C007F4949494196
:101B9000007F09090901003E4149497A007F080890
:101BA000087F0000417F4100002040413F01007F4D
:101BB00008142241007F40404040007F020C027F19
:101BC000007F0408107F003E4141413E007F09092B
:101BD0000906003E4151215E007F09192946004651
:101BE000494949310001017F0101003F4040403F28
:101BF000001F2040201F003F4038403F0063140872
:101C0000146300070870080700615149454300004C
:101C10007F41410000552A552A55000041417F006F
:101C20000004020102040040404040400000010264
:101C30000400002054545478007F4844443800384D
:101C40004444442000384444487F003854545418D5
:101C500000087E0901020018A4A4A47C007F0804E7
:101C600004780000447D4000004080847D00007FB7
:101C7000102844000000417F4000007C04180478D4
:101C8000007C0804047800384444443800FC2424D0
:101C900024180018242418FC007C080404080048B8
:101CA0005454542000043F444020003C4040207CD9
:101CB000001C2040201C003C4030403C00442810C8
:101CC0002844001CA0A0A07C004464544C4414147C
:101CD00014141414000000000000000000000000B4
:101CE0000000FC000000000002000000000C020CDC
:101CF000020000000000000090D0BCD0BC900003A7
:101D0000000300001824FE448C00030207020100B7
:101D10001824D8B04C80000300010201C038E43818
:101D2000E0000102020102020806000000000000BB
:101D300000000000000000F804020000000102049E
:101D4000000204F800000004020100009060F86046
:101D500090000000010000002020FC202000000076
:101D60000100000000000000000008060000000064
:101D700020202020200000000000000000000000C3
:101D800000000002000000000080601C020004034C
:101D900000000000F8040404F8000102020201003F
:101DA0000008FC0000000002030200001884442424
:101DB000180003020202020008042424D8000102D1
:101DC0000202010040B088FC800000000003020015
:101DD0003C242424C400010202020100F824242C23
:101DE000C0000102020201000C04E41C0400000017
:101DF00003000000D8242424D800010202020100BC
:101E000038444444F80000030202010000001000BE
:101E100000000000020000000000200000000000A0
:101E200006000000002050880402000000000102AB
:101E30009090909090000000000000000002048844
:101E400050200002010000001804C4241800000003
:101E500002000000F804E494F8000102020202000B
:101E600000E09CF0800002030000030204FC242434
:101E7000D800020302020100F80404040C0001026D
:101E80000202010004FC0404F80002030202010043
:101E900004FC24740C0002030202030004FC2474FA
:101EA0000C00020302000000F0080444CC400001D2
:101EB0000202010004FC2020FC04020300000302D3
:101EC0000404FC040400020203020200000404FCF7
:101ED000040406040403000004FC24D00C040203E0
:101EE0000200030204FC04000000020302020203D9
:101EF000FC3CC03CFC0003000300030004FC30C4B5
:101F0000FC04020302000300F8040404F8000102C8
:101F10000202010004FC2424180002030200000055
:101F2000F8848404F80001020207050004FC24641C
:101F30009800020302000302182424448C000302C8
:101F4000020201000C04FC040C0000020302000069
:101F500004FC0000FC04000102020100047C80E09B
:101F60001C040000030000001CE03CE01C00000317
:101F700000030000049C609C0400020300030200B4
:101F8000041CE01C04000002030200000C84641C1A
:101F900004000203020203000000FE02020000002F
:101FA00007040400000E30C0000000000001020021
:101FB000000202FE00000004040700000004020406
:101FC0000000000000000000000000000000080801
:101FD00008080808000002000000000000000000DF
:101FE0000040A0A0C00000010202030204FC202067
:101FF000C00000030202010000C0202060000001B8
:102000000202020000C02024FC00000102020302C0
:1020100000C0A0A0C0000001020202000020F824BD
:1020200024040002030202000040A0A06020000778
:102030000A0A0A0404FC2020C00002030200030272
:102040000020E4000000000203020000000020E481
:10205000000008080807000004FC80E020200203BC
:10206000020003020404FC0000000202030202005A
:10207000E020E020C00003000300030020E0202057
:10208000C00002030200030200C02020C0000001C3
:102090000202010020E02020C000080F0A02010017
:1020A00000C02020E0000001020A0F0820E04020CC
:1020B00020000203020000000060A0A02000000237
:1020C000020203000020F8200000000001020200CC
:1020D00020E00020E00000010202030220E0208056
:1020E00060200000030100006080E08060000003C9
:1020F0000003000020608060200002030003020053
:1021000020E0208060200808070100000020A06077
:102110002000000203020200000020DE0200000096
:1021200000070400000000FF00000000000F000096
:102130000002DE200000000407000000020102048B
:102140000402000000000000000000000000000089
:102150000000000000000000000000F80000000087
:10216000000000333000000000100C06100C0600C8
:10217000000000000000000040C07840C07840002F
:10218000043F04043F040400007088FC0830000091
:10219000001820FF211E0000F008F000E0180000E9
:1021A00000211C031E211E0000F0088870000000A2
:1021B0001E2123241927211010160E0000000000F4
:1021C0000000000000000000000000E01804020011
:1021D000000000071820400000020418E000000082
:1021E0000040201807000000404080F08040400080
:1021F0000202010F01020200000000F000000000D6
:102200000101011F010101000000000000000000A9
:1022100080B070000000000000000000000000001E
:1022200000010101010101010000000000000000A7
:102230000030300000000000000000008060180442
:10224000006018060100000000E010080810E0001F
:10225000000F102020100F00001010F800000000E8
:102260000020203F2020000000700808088870002F
:1022700000302824222130000030088888483000AF
:102280000018202020110E000000C02010F80000CF
:1022900000070424243F240000F808888808080068
:1022A0000019212020110E0000E01088881800007D
:1022B000000F112020110E0000380808C83808004F
:1022C0000000003F000000000070880808887000CF
:1022D000001C222121221C0000E010080810E00050
:1022E0000000312222110F00000000C0C0000000D9
:1022F00000000030300000000000008000000000FE
:1023000000008060000000000000804020100800F5
:1023100000010204081020004040404040404000BE
:102320000404040404040400000810204080000099
:102330000020100804020100007048080808F0009E
:102340000000003036010000C030C828E810E0006E
:102350000718272423140B000000C038E0000000F9
:10236000203C23020227382008F888888870000063
:10237000203F202020110E00C03008080808380037
:10238000071820202010080008F808080810E000AE
:10239000203F202020100F0008F88888E80810004F
:1023A000203F20202320180008F88888E808100023
:1023B000203F200003000000C0300808083800005B
:1023C00007182020221E020008F808000008F8085C
:1023D000203F210101213F20000808F808080000E3
:1023E0000020203F2020000000000808F808080016
:1023F000C08080807F00000008F888C0281808008E
:10240000203F20012638200008F8080000000000C6
:10241000203F20202020300008F8F800F8F80800BD
:10242000203F003F003F200008F830C00008F808B7
:10243000203F200007183F00E01008080810E000C7
:102440000F10202020100F0008F808080808F000DE
:10245000203F210101010000E01008080810E00001
:102460000F18242438504F0008F888888888700096
:10247000203F2000030C3020007088080808380036
:102480000038202121221C00180808F8080818002C
:102490000000203F2000000008F808000008F808AD
:1024A000001F202020201F000878880000C838085E
:1024B000000007380E010000F80800F80008F800D6
:1024C000033C0700073C0300081868808068180870
:1024D00020302C03032C30200838C800C8380800EE
:1024E0000000203F2000000010080808C83808003D
:1024F0002038262120201800000000FE02020200E1
:102500000000007F40404000000C30C00000000090
:10251000000000010638C00000020202FE000000B8
:10252000004040407F00000000000402020204005E
:10253000000000000000000000000000000000009B
:102540008080808080808080000202040000000083
:10255000000000000000000000008080808000007B
:102560000019242222223F2008F800808000000069
:10257000003F112020110E0000000080808000002C
:10258000000E112020201100000000808088F8003B
:10259000000E112020103F2000008080808000006D
:1025A000001F222222221300008080F088888818D1
:1025B0000020203F202000000000808080808000DC
:1025C000006B94949493600008F800808080000071
:1025D000203F210000203F2000809898000000004C
:1025E0000020203F2020000000000080989800007C
:1025F00000C08080807F000008F80000808080009C
:10260000203F24022D302000000808F800000000C0
:102610000020203F2020000080808080808080007B
:10262000203F20003F20003F80800080808000000D
:10263000203F210000203F2000008080808000009B
:10264000001F202020201F008080008080000000CC
:1026500080FFA12020110E000000008080808000FB
:10266000000E112020A0FF808080800080808000EC
:1026700020203F2120000100000080808080800019
:102680000033242424241900008080E0808000008E
:102690000000001F202000008080000000808000DB
:1026A000001F202020103F2080808000008080803C
:1026B00000010E30080601008080008000808080CC
:1026C0000F300C030C300F000080800080808000F1
:1026D0000020312E0E31200080808000008080801C
:1026E00080818E70180601000080808080808000CC
:1026F0000021302C2221300000000000807C0202EA
:1027000000000000003F404000000000FF0000000B
:1027100000000000FF0000000002027C80000000BA
:102720000040403F000000000006010102020404D6
:102730000000000000000000000000000000000099
:102740000000000000000000000000000000000089
:102750000000000000000000000000000000000079
:1027600000F0F0F0000000000000000000017F0118
:102770000000000000000000001C1C1C0000000005
:1027800000008060301C8C60301C0C0000000000D9
:102790000000000000000000000000000000000039
:1027A00000000000000000E00000000000E0000069
:1027B0000086E69F86868686E69F860000011F01CA
:1027C000010101011F010100000080C06020F8200C
:1027D000E0C00000000003070C18FF70E18100005A
:1027E0000000070F10107F100F07000080602060AE
:1027F00080000000E02000000F3020309F70DC37A8
:102800001030C0000000100E030007181018070059
:102810000000C02020E0C0000000000080E01F3861
:10282000E88703C43C040000070F1810100B070DC5
:102830001010080000808C4C3800000000000000E0
:102840000000000000000000000000000000000088
:10285000000000000000000000000000000080E018
:10286000300804000000000000FEFF01000000002E
:10287000000000000000030F182040000004083092
:10288000E0800000000000000000000001FFFE00EA
:1028900000000000004020180F03000000000000AE
:1028A000000000000000C00000000000004266665A
:1028B0003C18FF183C666642000000000000030060
:1028C0000000000000000000000080000000000088
:1028D000001010101010FF10101010100000000059
:1028E00000000300000000000000000000000000E5
:1028F00000000000000000000000000000000000D8
:1029000000808C4C38000000000000000000000037
:102910000000000000000000001010101010101047
:102920001010100000000000000000000000000077
:102930000000000000000000000000000000000097
:10294000000000000000000000001C1C1C00000033
:10295000000000000000000000000000E0380C0053
:102960000000000080701C03000000000060380EB2
:102970000100000000000000000080C06020206016
:10298000C080000000FEFF010000000001FFFE000B
:102990000001070E181010180E07010000008080BB
:1029A00080C0E000000000000000000000FFFF0009
:1029B0000000000000001010101F1F101010000079
:1029C0000080402020202060C08000000003030021
:1029D000804020381F070000001C1A19181818180A
:1029E000181F00000080C020202060C08000000070
:1029F000000303001010182FE780000000070F10DD
:102A0000101010180F070000000000000000C0E0C8
:102A1000F000000000C0B088868180FFFF80800049
:102A2000000000000010101F1F1010000000E060E8
:102A3000606060606060000000003F1008080818D7
:102A4000F0E0000000070B101010101C0F03000036
:102A5000000080C040202020E0C0000000FCFF21DA
:102A60001008080818F0E0000001070C18101010FA
:102A7000080F03000000C0E06060606060E060007C
:102A8000000003000000E018070000000000000044
:102A9000001F1F00000000000080C06020202020D8
:102AA00060C080000087EF2C1818303068CF83009A
:102AB00000070F0810101010180F07000000C0C00A
:102AC00020202020C0800000001F3F6040404020A8
:102AD00010FFFE0000000C1C101010080F03000077
:102AE00000000000000000000000000000000000E6
:102AF000000E0E0E0000000000000000001C1C1C58
:102B000000000000000000000000000000000000C5
:102B100000000000000C0C0000000000000000009D
:102B20000058380000000000000000000000008095
:102B30004020100000001028448201000000000026
:102B40000000000000000102040810000000000066
:102B500000000000000000000084848484848484D9
:102B600084848400000000000000000000000000D9
:102B70000000102040800000000000000000000065
:102B80000000018244281000000010080402010027
:102B90000000000000C020201010101030E0C00025
:102BA0000003030000F010080C0703000000000001
:102BB0001C1C1C0000000000000000C04060202021
:102BC0002040C00000FCFF01F00E03C1FE03807F27
:102BD0000001070E08111110110904020000000085
:102BE00080E0E000000000000000807C4340477F60
:102BF000F880000010181F1000000000131F1C10A8
:102C000020E0E02020202060C080000000FFFF10B6
:102C1000101010182FE78000101F1F101010101038
:102C2000180F0700000080C0402020202060E00036
:102C300000FCFF0100000000000001000001070E81
:102C4000181010100804030020E0E020202020408D
:102C5000C080000000FFFF000000000001FFFE0038
:102C6000101F1F10101018080E07010020E0E020B0
:102C7000202020202060800000FFFF101010107C1A
:102C800000000000101F1F10101010101018060078
:102C900020E0E020202020206060800000FFFF1066
:102CA0001010107C00000100101F1F100000000019
:102CB00000000000000080C06020202040E00000F4
:102CC00000FCFF0100004040C0C140400001070E71
:102CD000181010100F0F000020E0E020000000008E
:102CE00020E0E02000FFFF101010101010FFFF0088
:102CF000101F1F1000000000101F1F1000002020D8
:102D000020E0E020202000000000000000FFFF0085
:102D10000000000000001010101F1F101010000015
:102D200000000000202020E0E02020200000000023
:102D3000000000FFFF0000000060E0808080C07F96
:102D40003F00000020E0E020000020A060202000E4
:102D500000FFFF30187CE3C000000000101F1F10B0
:102D6000000001131F1C181020E0E02000000000EC
:102D70000000000000FFFF00000000000000000055
:102D8000101F1F10101010101018060020E0E0E0B7
:102D900000000000E0E0E02000FF013FFEC0E01E78
:102DA00001FFFF00101F1000031F0300101F1F1062
:102DB00020E0E0C0000000000020E02000FF000351
:102DC000071C78E08000FF00101F100000000000CA
:102DD000030F1F00000080C060202060C080000042
:102DE00000FEFF010000000000FFFE000001070ED2
:102DF000181010180C07010020E0E02020202020EF
:102E000060C0800000FFFF2020202020301F0F0026
:102E1000101F1F100000000000000000000080C014
:102E200060202060C080000000FEFF010000000064
:102E300000FFFE000001070E1111133C7C6721000A
:102E400020E0E0202020202060C0800000FFFF1054
:102E50001030F0D0080F0700101F1F1000000003F3
:102E60000F1C10100080C060202020204040E00097
:102E700000070F0C1818303060E08100001F0C08AC
:102E800010101010180F07008060202020E0E020B4
:102E9000202060800100000000FFFF000000000112
:102EA00000000000101F1F100000000020E0E020C4
:102EB000000000000020E02000FFFF0000000000F4
:102EC0000000FF0000070F18101010101008070076
:102ED0002060E0E02000000020E060200000077F8C
:102EE000F88000807C03000000000000071F1C0722
:102EF0000000000020E0E02000E0E0200020E020D2
:102F00000007FFF8E01FFFFCE01F00000000031FA8
:102F10000300011F03000000002060E0A00000206B
:102F2000E0602000000000038F7CF8C60100000074
:102F30000010181E130001171F1810002060E0E099
:102F40002000000020E06020000001073EF8E018AB
:102F50000700000000000010101F1F1010000000EC
:102F600000806020202020A0E0E020000000000081
:102F7000C0F03E0F0300000000101C1F17101010BF
:102F8000101806000000000000FC04040404040003
:102F90000000000000FF0000000000000000000032
:102FA000007F404040404000000010E00000000072
:102FB0000000000000000000031C60800000000012
:102FC00000000000000000030C70800000000404FA
:102FD000040404FC0000000000000000000000FFEA
:102FE00000000000000040404040407F0000000022
:102FF00000000010080C040C081000000000000085
:1030000000000000000000000000000000000000C0
:1030100000000000000000000000000000000000B0
:1030200000000000000000000000000080808080A0
:103030008080808080808080000000040408080078
:103040000000000000000000000000000000000080
:103050000000000000000000000000000000000070
:103060000000000000000000000098D84464242400
:10307000FCF80000000F1F18101010081F1F101878
:103080000020E0F000000000000000000000FFFF52
:10309000180804040CF8F00000001F0F181010109E
:1030A000180F0300000000000000000000000000F6
:1030B00000E0F8180404043C3800000000030F0C82
:1030C0001010101008060000000000000000002092
:1030D000E0F0000000E0F81C04040408FFFF00001A
:1030E00000030F18101010081F0F08000000000048
:1030F00000000000000000000000E0F848444444E4
:103100004C7870000000030F0C1810101008040019
:103110000000000080C0602020E0C0000004040423
:10312000FFFF040404040000000010101F1F101013
:10313000100000000000000000000000000000007F
:10314000000070F88C04048CF874040C007076CFC6
:103150008D8D8D89C87870000020E0F0000000009F
:10316000000000000000FFFF08040404FCF8000059
:1031700000101F1F100000101F1F10000000000093
:1031800000606000000000000000040404FCFC007B
:103190000000000000001010101F1F101010000091
:1031A000000000000000006060000000000000005F
:1031B000040404FCFC0000000000C0C08080C07F4C
:1031C0003F0000000020E0F00000000000000000D0
:1031D0000000FFFF80C0F41C0404000000101F1F4B
:1031E0001100031F1C1010000000202020E0F00040
:1031F000000000000000000000FFFF0000000000D1
:1032000000001010101F1F10101000000000000020
:10321000000000000000000004FCFC0804FCFC08A6
:1032200004FCFC00101F1F10001F1F10001F1F10A8
:103230000000000000000000000000000004FCFC92
:1032400008080404FCF8000000101F1F1000001004
:103250001F1F100000000000000000000000000020
:1032600000E0F0180C04040C18F0E00000030F0C50
:10327000101010100C0F03000000000000000000F0
:10328000000000000004FCFC080404040CF8F0003A
:103290000080FFFF889010101C0F0300000000004A
:1032A000000000000000000000E0F81C0404040816
:1032B000F8FC000000030F1810109088FFFF80003A
:1032C000000000000000000000000000040404FCF6
:1032D000FC100804040C0C001010101F1F1010101C
:1032E00000000000000000000000000000000000DE
:1032F00000003078CCC48484840C1C0000001E18AC
:1033000010101011190F06000000000000C000008E
:103310000000000000040404FFFF04040400000097
:10332000000000000F1F1010100C00000000000033
:1033300000000000000000000004FCFE000000048B
:10334000FCFE000000000F1F181010081F0F0800DF
:1033500000000000000000000000000000040C3C21
:10336000FCC40000C43C0C0400000000010F1E0E51
:10337000010000000000000000000000000000004C
:10338000043CFCC400E47CFC84807C040000071F37
:10339000070000071F0700000000000000000000F9
:1033A000000000000004041C7CE4C0341C04040081
:1033B0000010101C1601131F1C1810000000000044
:1033C000000000000000000000040C3CFCC400C42D
:1033D0003C0404000000C080C1370E010000000062
:1033E00000000000000000000000000000001C04BD
:1033F00004C4F47C1C0400000000101C1F171110F2
:1034000010180E0000000000000000F80C0400007E
:1034100000000000001028EF000000000000000085
:103420000000003F60400000000000000000FF00BE
:1034300000000000000000000000FF00000000008D
:10344000000000000000FF00000000000000040C6D
:10345000F80000000000000000000000EF2810004D
:1034600000000000000040603F000000000000007D
:103470000018060202040810202030080000000096
:10348000000000000000000000000000000000003C
:1034900000000000008060F8074020180F08C808EE
:1034A00008281800010000FF00100C0340807F0076
:1034B000010618001010F01F10F000808282E292C6
:1034C0008A868000402215081661000040807F0037
:1034D00000000000202020FE2020FF202020FF20D0
:1034E000202020000000007F4040474444444740E3
:1034F00040400000000000FE929292FE929292FEE6
:103500000000000008080484621E010001FE02049D
:10351000040808000000000000C0381E040080E01D
:103520007C4C404040404040C0C0000000100806B5
:1035300003FF01000806C178100000FF00001061C1
:10354000C080000000000000007F2008040300107D
:103550002020603F00000000010702000080808002
:1035600080FC9C8080800010101010101090503053
:1035700030000000000000E03F0300807C071010D6
:1035800010101010FF101010101810000040201024
:1035900011090603060C0800002020603F0000000F
:1035A000000000000000000000F000000000FC0827
:1035B0000000000000FC0000000000000002020209
:1035C00002FF02020202FF020202020202FF0202E4
:1035D0000202000000000000207F20202020272180
:1035E0002121212121232020302000000000000083
:1035F00000FCFC44444444FCFC4444444444FC0873
:1036000000000000000000008087476232FA4E038D
:1036100003020ED272226740C0C040000000014188
:10362000402010180E0300000000007F0000000082
:10363000000000000000000000000000E0FC38086E
:1036400000000080F078180000000000000000007A
:10365000000000000000008060301CFFF9000080C6
:1036600060380E070302020AF212020202221A0F47
:103670000702000000000201000000FFFF00000040
:10368000C0703E0F03000000FF000000020418702D
:10369000E0C00000000000000000007F3F000403C5
:1036A00000000000101030703F000000000000001B
:1036B0000303000000000000000000FC7808000088
:1036C000000000202020202020202020A0E070608A
:1036D000000000000000020202E27F0F020202F27C
:1036E000FF0200000000000000FCFC02010000805E
:1036F00080000000000000003E272040C0F0BE8F88
:10370000000101010101010101FFFF0101010101AE
:103710000101000000002020100804060300010140
:103720000307000010101030703F0F000000000071
:1037300000000000000000000000E0C040000000A9
:1037400000FCF808000000000000FCF80800000081
:1037500000000000001010101010FFFF10101010DB
:1037600010FFFF10101010101010FFFF1010101895
:1037700018100000000000000000FFFF0000000023
:1037800000FFFF40404040404040FFFF000000007D
:10379000000000000000000000203F7F20202020CB
:1037A0002023212020202020202021212020203003
:1037B0003020000000000000000000F8F0101010A1
:1037C000101010F0F010101010101010F830000051
:1037D00000000000000000000000007F7F21212188
:1037E00021E1E13F3F2161A1212121217F00000052
:1037F00000000000000040404020201018080CC6C7
:10380000FF39080000000000F9FA040C0818183805
:1038100030100000000000404020201010080E076B
:1038200001000000000000007F3F000000000000D9
:103830000000000000000000000000000000000088
:10384000000000000080F0FCF8F070200000000094
:103850000000000080F8F8F0E0E040000000000008
:103860000000000000000000000000000000000058
:103870000000000000000000000000000000000048
:103880000000C0F0FCFF3F0F03010000000000003B
:103890000080E0FCFF7F1F07010000000000000027
:1038A0000000000000000000000080C0C080000098
:1038B000000000000000000000000000000080E0A8
:1038C000F87EFFFFF3602000000000000000C0F061
:1038D0007C3F0F0703030303030303E3C3C3C38353
:1038E0000303030303030383E37B3F1F0F0F070659
:1038F00004000000000000000080E0703C1F07038F
:103900000100FFFFFF000000000030180E07030059
:103910000080E0C080800000000000FFFFFFFF008B
:103920000000008080000001000000000000000096
:10393000000000000000000403010000000000007F
:103940000000FFFFFF00000000000000000000C0BA
:10395000F8FF7F1F07010100000000FFFFFFFF00CD
:103960000000000001070E3CF8F0E0C080000000FD
:103970000000000000000000000000000000000047
:103980000000FFFFFF000000000000C0F07C3F0FC0
:103990000301000000000000000000FFFFFFFF0027
:1039A000000000000000000000030F3FFFFEFCF0DD
:1039B0000000000000000000000000000000000007
:1039C0000000FFFFFF000000180C070300000000CC
:1039D0000000C08080808080808080FFFFFFFF002B
:1039E00000000000000000000000000000070703C6
:1039F00000000000000000000000000000000000C7
:103A000000100F0F07000000000000000000000081
:103A10000000000000010103071F0F0F0703010052
:103A20000000000000000000000000000000000096
:103A30000000000000000000000000000000000086
:103A40000000E0F8F0F0602000000000000000003E
:103A50000000000000000000000000000000000066
:103A600000000000000000008000000000000000D6
:103A70000000000000000000000000000000000046
:103A800000F0FFFF7F0300000000000000000000C6
:103A90000002060E0E0606060606060606060606C0
:103AA00006060606C6E6FE7F3F1F1E0C0800000045
:103AB0000000000000000002060606060606068654
:103AC000FEFFFF0F06060606060606FEFFFF3E0681
:103AD0000400000000000000000000000008F0F0FA
:103AE000E0F84C07030100000000000000000000A7
:103AF0000000000000000000000000000000F0FFD7
:103B0000FF0F00000000000000C0FEFFFF0F8080DC
:103B10008080808080808080808080808080FFFFA7
:103B2000FF808080808080808080C0E0F0E0C08066
:103B3000000000000000000000000000F0FF7F0F08
:103B400000000000000000C0FCFFFF1F010000019A
:103B50000101010101010101010101010101FFFF59
:103B6000FF01010101010101010101010101010147
:103B70000100000000000000000000030707060E1F
:103B80000C1C1C38B8F8FEFFFFE7C0C080800000A6
:103B90000000000000000000000000000000FFFF27
:103BA000FF00000000000000000000000000000016
:103BB0000000000000000000000000000080C0E0E5
:103BC00070383C1F0F030100000103070F1F3F7EE9
:103BD0003C000080808000000000000000C0FFFF6B
:103BE000FF000000000000000000000000000000D6
:103BF0000000000000000010080C06060301010090
:103C000000000000000000000000000000000000B4
:103C1000000000000101010303070F1F3F1F0F07F2
:103C20000300000000000000000000000000000091
:103C30000000000000000000000000000000000084
:103C4000000000000000000000000000000000F084
:103C5000F0E0E04000000000000000000000000074
:103C6000F8F0F0F06020000000000000000000000C
:103C70000000000000000000000000000000000044
:103C8000FFFEFEFC0C00000000000000000000FF32
:103C9000FFFFFF0000000000000000000000000027
:103CA000FFFFFFFF00000000000000000000000018
:103CB00000000000000040C0C0C0C0C0C0C0C0C004
:103CC000FFFFFFFFC0C0C0C0C0C0C0C0C0C0C0FFB9
:103CD000FFFFFFC0C0C0C0C0C0C0C0C0C0C0C0C027
:103CE000FFFFFFFFC0C0C0C0C0E0F0F8F8F0E0C0C8
:103CF0008000000000000000010100000000000042
:103D0000FFFFFFFF0000000000000000000000FFB8
:103D1000FFFFFF00000000000000000000000000A6
:103D2000FFFFFFFF00000000000000000000000097
:103D30000000000000000000000000000000000083
:103D4000FFFFFFFF0000000000000000000000FF78
:103D5000FFFFFF0000000000000000000000000066
:103D6000FFFFFFFF00000000000000000000000057
:103D70000000000000000000000000000000000043
:103D8000FFFFFFFF0000000000000000000000FF38
:103D9000FFFFFF0C0C0C0C0C0C0C0C0C0C0C0C0C8A
:103DA000FFFFFFFF00000000000000000000000017
:103DB0000000000000000000000000000000000003
:103DC000FFFFFFFF000000000000000000000001F6
:103DD00001010000000000000000000000000000E1
:103DE00001010000000000000080C0E0E0C0800091
:103DF00000000000000000000000000000000003C0
:103E000007070F070303030303030303030303036A
:103E10000303030303030303030303030303030372
:103E20000303030303030303030303030303030362
:103E30000200000000000000000000000000000080
:103E40000000E0E0C0C0C0C0C0C0C0C0C0C0C0C0B2
:103E5000C0C0C0C0C0C0C0C0C0C0C0C0C0C0C0C062
:103E6000C0C0C0C0E0F0E0C0800000000000000062
:103E70000000000000000000000000000000000042
:103E80000000FFFFFFFF8080808080808080808036
:103E90008080FFFFFFFF8080808080808080808026
:103EA000808080FFFFFFFF01000000000000000095
:103EB0000000000000000000000000000000000002
:103EC0000000FFFFFFFF01010101010101010101EC
:103ED0000101FFFFFFFF01010101010101010101DA
:103EE000010101FFFFFFFF000000000000000000D3
:103EF00000000000000000000000000000000000C2
:103F000000001F1F0F0F030303030383C3E3FB7FA3
:103F10003F1F0F0303030303030F3B73E3C3830339
:103F20000303030F0F0F0700000000000000000054
:103F30000000000000000000000000000000000081
:103F4000008080C0C0E070783C1C0E0FFFFBF17059
:103F5000200000000000000000000008F0F1E3670E
:103F60000E1E1C3C7878F0F0F0E0E0E0E0E0C040AD
:103F700040000000000000001808080C04060602BB
:103F800003030101000000000000E0FFFF7F0F00BD
:103F9000000000000000000000000000FFFFFF0024
:103FA0000000000000000000010101030301000007
:103FB0000000000000000000000000000000000001
:103FC00000000080C0C0E0787C3F1F0701000000B7
:103FD000000000000000000000000000FFFFFF00E4
:103FE00000000000000000000000000000000000D1
:103FF00000000000000000000000101008080C0481
:10400000060603030101000000000000000000009C
:104010000000000000000000000000100F0F07006B
:104020000000000000000000000000000000000090
:10403000000000005440000800000020300800008C
:104040006C0100085442000830080020A80B000052
:10405000D001000840120003050911FF118905C3B2
:1040600000E000F000F8000100083A4428FF11AA1F
:10407000440001500B8301384482929274018311F1
:1040800020087C44FF017D7D7D04410540047D01C5
:10409000FF6E920102613F033B01017E8141914924
:1040A000F20101011BC230083F3F0303F31311016A
:1040B000100601F1116181402005816111F1473342
:1040C000414107200401C12120A321C1143119312C
:1040D00037040736D33303033F3F426006E0E00076
:1040E000007FA8127FBF40040618060A10080000CF
:1040F00040407F4040A410041F204001A3201F1413
:104100003300600E6004300C03460534C21004070F
:1041100007060170090404048444444484078005AC
:104120000484C4041501120A71112140073D0707D8
:10413000C9200F0000101814121100000F101010E9
:104140000F0F131F1015600D081012120D0000182C
:1041500000000D120A51295130015E015280010107
:104160003B4514047F030CA915DE1C053854545834
:104170002503080A2004047800003C40407C20000D
:10418000092CFFAAAAAA280800FF68100626494998
:104190004932101005020408100F0D6F00049D0134
:1041A000040D9D0004156343F80801240500F81868
:1041B00060E82404806018235720202923E0102180
:1041C000A310E01449B4313908043C886818630D21
:1041D00015FF037DEA039DFF0371144DFF031D06C8
:1041E000043D2E040942E91C0640202020C04A0458
:1041F000110721EA3E40520452600E811871295184
:10420000070D4769031C060C0A0A090C0004156B0C
:104210002D00042004080F081510050809090E07D1
:104220001D180430050909090F0A512951070DFF0E
:1042300000040D2200048D1D072004020304042441
:10424000080607080902040663A004A24A041E2106
:044250001A00000050
:0400000508000131BD
:00000001FF
