:020000040800F2
:1000000060070020CD010008D5010008D7010008D5
:10001000D9010008DB010008DD0100080000000034
:10002000000000000000000000000000DF010008E8
:10003000E101000800000000E3010008E5010008FC
:10004000E7010008E7010008E7010008E7010008F0
:10005000E7010008E7010008E7010008E7010008E0
:10006000E7010008E7010008E7010008E7010008D0
:10007000E7010008E7010008E7010008E7010008C0
:10008000E7010008E7010008E7010008E7010008B0
:10009000E7010008E7010008E7010008E7010008A0
:1000A000E7010008E7010008E7010008E701000890
:1000B000E7010008E7010008E7010008E701000880
:1000C000E7010008E7010008E7010008E701000870
:1000D000E70100081D120008E7010008E701000819
:1000E000E7010008E7010008E7010008E701000850
:1000F000E7010008E7010008E7010008E701000840
:10010000E7010008E7010008E7010008E70100082F
:10011000E7010008E7010008E7010008E70100081F
:10012000E7010008E7010008E7010008E70100080F
:1001300000F002F800F03AF80AA090E8000C8244BF
:100140008344AAF10107DA4501D100F02FF8AFF29C
:10015000090EBAE80F0013F0010F18BFFB1A43F0A5
:1001600001031847CC4C0000EC4C0000103A24BFAF
:1001700078C878C1FAD8520724BF30C830C144BF0C
:1001800004680C607047000000230024002500264E
:10019000103A28BF78C1FBD8520728BF30C148BFEA
:1001A0000B6070471FB51FBD10B510BD00F033F8D0
:1001B0001146FFF7F7FF01F0C7F900F051F803B45B
:1001C000FFF7F2FF03BC01F088F9000009488047FF
:1001D00009480047FEE7FEE7FEE7FEE7FEE7FEE729
:1001E000FEE7FEE7FEE7FEE704480549054A064B41
:1001F000704700006D110008310100086001002007
:1002000060070020600300206003002070477047F3
:10021000704770477047754600F02CF8AE460500F1
:100220006946534620F00700854618B020B5FFF711
:10023000DBFFBDE820404FF000064FF000074FF015
:1002400000084FF0000B21F00701AC46ACE8C009F4
:10025000ACE8C009ACE8C009ACE8C0098D467047FD
:1002600010B50446AFF300802046BDE81040FFF70C
:10027000A6BF0000004870470001002010B56FF0D5
:10028000040000F05FFF0A4800680A49B0FBF1F083
:10029000094908700846007800EB4001C1EBC01026
:1002A0004FF6FF7101EAC0000449088010BD00004C
:1002B0002400002000127A0000000020020000202C
:1002C00008B501210D2000F0C5FD4FF40070ADF818
:1002D000000003208DF8020018208DF80300694605
:1002E0001A4800F037F84FF48060ADF800000420A1
:1002F0008DF803006946154800F02CF8A020ADF8F1
:10030000000003208DF8020018208DF803006946D4
:100310000E4800F01FF82020ADF8000003208DF8F3
:10032000020010208DF803006946094800F012F819
:100330001E20ADF8000003208DF8020010208DF87B
:1003400003006946014800F005F808BD00080140B7
:10035000000C01402DE9F041024600250026002056
:1003600000230024002791F803C00CF00F0591F83A
:1003700003C00CF0100CBCF1000F03D091F802C0C8
:100380004CEA050591F800C0BCF1000F31D01468AB
:1003900000202BE04FF0010C0CFA00F3B1F800C084
:1003A0000CEA03069E4220D183004FF00F0C0CFA9A
:1003B00003F7BC4305FA03FC4CEA040491F803C0BC
:1003C000BCF1280F06D14FF0010C0CFA00FCC2F86A
:1003D00014C00AE091F803C0BCF1480F05D14FF0FA
:1003E000010C0CFA00FCC2F810C0401C0828D1D344
:1003F0001460B1F800C0BCF1FF0F34DD5468002078
:100400002EE000F1080C4FF0010808FA0CF3B1F8E7
:1004100000C00CEA03069E4221D183004FF00F0C6E
:100420000CFA03F7BC4305FA03FC4CEA040491F808
:1004300003C0BCF1280F05D100F1080C08FA0CF834
:10044000C2F8148091F803C0BCF1480F07D100F145
:10045000080C4FF0010808FA0CF8C2F81080401C94
:100460000828CED35460BDE8F08141617047016136
:10047000704710B5C26821EA020302EA010443EAA8
:100480000443036110BD000010B500F07DFCFFF7D0
:10049000F5FEFFF715FF4FF4E13000F097FE00F096
:1004A0006FFD00F075F80249888800F003F810BD70
:1004B0000600002038B504461A4800944388028894
:1004C0000021084600F03EF816488480C0880F21BD
:1004D000B1EBE02F05DA1348C088C0F345101F28A0
:1004E00017DC1048C0880F21B1EBE02F05DA0D486A
:1004F000807900F01F000F280BDC0A48C088C0F389
:1005000045101F280ADD0748807900F01F000F28DA
:1005100004DD4FF6FF700349C88002E00020014966
:10052000C88038BD0600002070B504460D4616464A
:100530002B4622462946204600F0C2FB304600F0FA
:100540000BFC70BD2DE9F04706460F4614461D46CC
:10055000DDF820A0681E83B2601E82B239463046A4
:1005600000F0AEFBB8460EE0B14606E0504600F0A3
:10057000F3FB09F101001FFA80F9A145F6DB08F150
:1005800001001FFA80F8A845EEDBBDE8F087000007
:1005900010B50821A848FFF768FF642000F0A0FF0D
:1005A0000821A548FFF763FF642000F099FF0221AE
:1005B000A148FFF75CFF642000F092FF112000F0DB
:1005C000B7FB782000F08CFFB12000F0B1FB0520D4
:1005D00000F09AFB3C2000F097FB3C2000F094FBDD
:1005E000B22000F0A5FB052000F08EFB3C2000F0BF
:1005F0008BFB3C2000F088FBB32000F099FB05202A
:1006000000F082FB3C2000F07FFB3C2000F07CFBF4
:10061000052000F079FB3C2000F076FB3C2000F048
:1006200073FBB42000F084FB032000F06DFBC020BE
:1006300000F07EFBAB2000F067FB0B2000F064FBBA
:10064000042000F061FBC12000F072FBC52000F027
:100650005BFBC22000F06CFB0D2000F055FB00207E
:1006600000F052FBC32000F063FB8D2000F04CFB38
:100670006A2000F049FBC42000F05AFB8D2000F0F6
:1006800043FBEE2000F040FBC52000F051FB0F20A3
:1006900000F03AFBE02000F04BFB072000F034FBB9
:1006A0000E2000F031FB082000F02EFB072000F0A8
:1006B0002BFB102000F028FB072000F025FB022078
:1006C00000F022FB072000F01FFB092000F01CFBBC
:1006D0000F2000F019FB252000F016FB362000F05B
:1006E00013FB002000F010FB082000F00DFB04209D
:1006F00000F00AFB102000F007FBE12000F018FBDF
:100700000A2000F001FB0D2000F0FEFA082000F0A6
:10071000FBFA072000F0F8FA0F2000F0F5FA0720A6
:1007200000F0F2FA022000F0EFFA072000F0ECFAF5
:10073000092000F0E9FA0F2000F0E6FA252000F089
:10074000E3FA352000F0E0FA002000F0DDFA09209D
:1007500000F0DAFA042000F0D7FA102000F0D4FA02
:10076000FC2000F0E5FA802000F0CEFA3A2000F0FC
:10077000DFFA052000F0C8FA362000F0D9FA02208E
:1007800030B101280DD0022814D0032824D11AE05A
:10079000082000F0B9FA502028490880A02048809D
:1007A0001AE0C82000F0B0FA502024490880A020A8
:1007B000488011E0782000F0A7FAA0201F490880A7
:1007C0005020488008E0A82000F09EFAA0201B4995
:1007D00008805020488000BF00BF212000F0A8FA08
:1007E000292000F0A5FA2A2000F0A2FA002000F04B
:1007F0008BFA1A2000F088FA002000F085FA6920B0
:1008000000F082FA2B2000F093FA002000F07CFA2E
:10081000012000F079FA002000F076FAA02000F024
:1008200073FA2C2000F084FA0020044988804FF6E7
:10083000FF70C88010BD00000008014006000020C5
:100840002DE9FE4F80468B4616461F46002001903C
:10085000384607EBD071C1F347042046E21704EB9A
:100860005272D2102146E31704EB5373DB10A4EB52
:10087000C3030BB1012300E000231A447A4392B270
:100880000092C246A6F12000C6B20BEB0700401E44
:1008900083B208EB0400401E82B25946404600F085
:1008A0000FFA00256CE00C2F06D0102F0CD0182F5B
:1008B00010D0202F1CD115E006EB4600334901EB88
:1008C0008000405D029015E0314800EB0610405D6D
:1008D00002900FE006EB46002E4901EB0010405D50
:1008E000029007E02C4800EB8610405D029001E08A
:1008F000BDE8FE8F00BF4FF000093BE00C98D8B96F
:10090000012000FA09F00299084020B12349C88863
:1009100000F022FA03E02149888800F01DFA0198CE
:10092000401CC0B20190019890FBF4F104FB11004F
:10093000E0B90020019020E0012000FA09F00299BE
:10094000084028B11548C28859464046FFF7ECFDDB
:1009500008F101001FFA80F8A8EB0A00A04205D1B7
:10096000D0460BF101001FFA80FB06E009F10100FF
:1009700000F0FF09B9F1080FC0DB00BF681C85B2A9
:10098000009885428FDB00BFB2E700001C1600080C
:10099000901A00088020000850320008060000204D
:1009A0002DE9F84306460F4614461D46DDF8208023
:1009B0000EE0CDF8008014F8012B2B463946304666
:1009C000FFF73EFF284605EBD07106EB61018EB2C2
:1009D00020780028EDD1BDE8F88300002DE9FE4F16
:1009E00081468B4616461C4600200290CDF80490A6
:1009F0002046E21704EB5272D2102146E31704EBB3
:100A00005373DB10A4EBC3030BB1012300E00023FD
:100A10001A44624392B200920C2C06D0102C07D0DC
:100A2000182C08D0202C0CD108E04FF0040A08E064
:100A30004FF0040A05E04FF0040A02E04FF0040A08
:100A400000BF00BF2BE1002521E105EB850000EB95
:100A5000C500964911F81000317888420CD105EB99
:100A6000850000EBC500914901EB400040787178AA
:100A7000884201D10C2C3CD005EB05108C4911F8B3
:100A80001000317888420AD105EB0510884901EB46
:100A9000400040787178884201D1102C29D005EBB4
:100AA000850000EB4510834911F810003178884229
:100AB0000CD105EB850000EB45107E4901EB4000B1
:100AC00040787178884201D1182C12D005EB85103E
:100AD000794911F810003178884271D105EB851001
:100AE000754901EB4000407871788842F5D1202C9F
:100AF000F3D10BEB0400401E83B209EB0400401E4F
:100B000082B25946484600F0DBF80027B8E04FF0C3
:100B10000008AEE00C98E8BB05EB850000EBC500D3
:100B2000624901EB4000801CC05D012101FA08F11F
:100B3000084008B10C2C2BD005EB05105C4901EBEB
:100B40004000801CC05D012101FA08F1084008B195
:100B5000102C1DD005EB850000EB4510554901EB2D
:100B60004000801CC05D012101FA08F1084008B175
:100B7000182C0DD005EB85104F4901EB4000801C6F
:100B8000C05D012101FA08F1084040B1202C06D1D6
:100B90004A4900E015E0C88800F0DEF803E0474964
:100BA000888800F0D9F80298401CC0B202900298E0
:100BB00090FBF4F104FB1100F0BB002002905CE01C
:100BC00062E005EB850000EBC500384901EB400011
:100BD000801CC15D012000FA08F0014009B10C2C15
:100BE0002DD005EB0510324901EB4000801CC15DA2
:100BF000012000FA08F0014009B1102C1FD005EBCC
:100C0000850000EB45102B4901EB4000801CC05DC6
:100C1000012101FA08F1084008B1182C0FD005EBAA
:100C20008510254901EB4000801CC05D012101FABF
:100C300008F1084048B100E017E0202C05D11F481A
:100C4000C28859464846FFF76FFC09F101001FFAB8
:100C500080F90198A9EB0000A04206D1DDF80490CC
:100C60000BF101001FFA80FB07E008F1010000F022
:100C7000FF08B8F1080FFFF64DAF00BF781CC7B2F0
:100C800000988742FFF643AF00BF681C85B2554508
:100C9000FFF6DBAEB61C09EB04001FFA80F93078D2
:100CA00000287FF4D0AEBDE8FE8F0000104A000897
:100CB000784A0008004B0008284C00080600002075
:100CC0002DE9F04104460D4616461F462A2000F045
:100CD0002FF8611C88B200F03FF8711C88B200F058
:100CE0003BF82B2000F024F805F11A0188B200F03F
:100CF00033F807F11A0188B200F02EF82C2000F02A
:100D000017F8BDE8F081000010B504461021064830
:100D1000FFF7ABFB2146054800F089F91021024896
:100D2000FFF7A5FB10BD00000008014000300140A6
:100D300010B5044614210648FFF797FB21460548E5
:100D400000F075F914210248FFF791FB10BD000077
:100D5000000801400030014010B504461021084849
:100D6000FFF783FB2112074800F061F9E1B2054863
:100D700000F05DF910210248FFF779FB10BD00007B
:100D8000000801400030014008B54FF4A06000F0B9
:100D900047F825208DF8000003208DF801008DF81C
:100DA000020001208DF80300684600F001F808BD3C
:100DB00070B5002100230F22C47804B3154C2468B9
:100DC00004F4E064C4F5E064210AC1F10403CA40FC
:100DD000447804FA03F184781440214309010E4C4D
:100DE0000678A155047804F01F050124AC4005786D
:100DF0006D11AD0005F1E025C5F8004109E004786A
:100E000004F01F050124AC40044D0678761145F826
:100E1000264070BD0CED00E000E400E080E100E061
:100E200002490143024A1160704700000000FA05C0
:100E30000CED00E029B1064A12690243044B1A6125
:100E400004E0034A12698243014B1A6170470000B3
:100E50000010024029B1064A92690243044B9A618C
:100E600004E0034A92698243014B9A617047000093
:100E70000010024029B1064AD2680243044BDA60EE
:100E800004E0034AD2688243014BDA6070470000F5
:100E90000010024030B500210022002400232D4D17
:100EA0006D6805F00C0121B1042905D0082923D172
:100EB00005E0294D056022E0274D05601FE0254D26
:100EC0006D6805F47012234D6D6805F480340225B9
:100ED00005EB92421CB9214D554305600BE01D4DB9
:100EE0006D6805F400351DB11C4D5543056002E0E9
:100EF000194D5543056002E0174D056000BF00BF66
:100F0000144D6D6805F0F0010909154D6B5C05681D
:100F1000DD4045600F4D6D6805F4E061090A104D34
:100F20006B5C4568DD4085600A4D6D6805F4605175
:100F3000C90A0B4D6B5C4568DD40C560054D6D68A9
:100F400005F44041890B074D6B5CC568B5FBF3F5B3
:100F5000056130BD0010024000127A0000093D001A
:100F60000E0000201E00002021B1028842F0400245
:100F7000028004E002884FF6BF731A400280704777
:100F800000B585B001210803FFF764FF4FF440402E
:100F9000ADF800004FF48270ADF802000020ADF80B
:100FA0000400ADF80600ADF808004FF40070ADF88D
:100FB0000A000020ADF80C00ADF80E000720ADF8D7
:100FC00010006946044800F014F801210248FFF7B8
:100FD000CBFF05B000BD00000030014002460020FC
:100FE00013890B400BB1012000E000207047818184
:100FF000704710B50022028802F441520B884C88D9
:1010000023438C882343CC8823430C8923434C8976
:1010100023438C892343CC8923431A430280838B47
:101020004FF2FF74234083830B8A038210BD70B597
:1010300004460D4600BF02212046FFF7CFFF0028DF
:10104000F9D029462046FFF7D2FF00BF8021204675
:10105000FFF7C4FF0128F9D070BD10B500F002F809
:1010600010BD00000CB500200190009033480068CE
:1010700040F480303149086000BF3048006800F417
:10108000003000900198401C0190009818B9019818
:10109000B0F5A06FF1D12948006800F4003010B11C
:1010A0000120009001E0002000900098012843D129
:1010B0002348006840F01000214908600846006895
:1010C00020F0070008600846006840F00200086051
:1010D0001A48406819494860084640684860084610
:1010E000406840F4806048600846406820F47C1006
:1010F00048600846406840F4E810486008460068C8
:1011000040F08070086000BF0C48006800F000707C
:101110000028F9D00948406820F0030007494860DA
:101120000846406840F00200486000BF034840683D
:1011300000F00C000828F9D10CBD0000001002409E
:1011400000200240042808D14FF0E021096941F055
:1011500004014FF0E022116107E04FF0E02109693E
:1011600021F004014FF0E0221161704710B51348DF
:10117000006840F0010011490860084640681049C5
:1011800008400E494860084600680E4908400B496F
:1011900008600846006820F480200860084640681F
:1011A00020F4FE0048604FF41F008860FFF755FFF1
:1011B0004FF000600449086010BD000000100240BC
:1011C0000000FFF8FFFFF6FE08ED00E01FB5044643
:1011D00001218803FFF73EFE0F4800F06FF80094EE
:1011E0000020ADF80400ADF80600ADF80800ADF839
:1011F0000C000C20ADF80A006946074800F0FCF826
:10120000012240F22551044800F0D0F801210248A3
:1012100000F048F81FBD00000038014010B540F252
:1012200025511D4800F098F818B31B4800F050F9FC
:10123000C4B21A48008800F4004001282BD0174897
:10124000008800F4804060B10A2C03D000201349CC
:10125000088020E01148008840F400400F490880D1
:1012600019E00D2C06D10D48008840F480400B4950
:10127000088010E009480088C0F30D0008490C54AC
:1012800006480088401C0549088008460088C72891
:1012900001DD0020088010BD00380140040000205E
:1012A0003800002021B1828942F40052828104E09A
:1012B00082894DF6FF731A408281704710B504464B
:1012C0002048844209D101218803FFF7D3FD002182
:1012D0004FF48040FFF7CEFD32E01B48844209D135
:1012E00001214804FFF7A6FD00214FF40030FFF76D
:1012F000A1FD25E01548844209D101218804FFF7AA
:1013000099FD00214FF48020FFF794FD18E010486C
:10131000844209D10121C804FFF78CFD00214FF45C
:101320000020FFF787FD0BE00A48844208D1012125
:101330000805FFF77FFD00214FF48010FFF77AFDCD
:1013400010BD00000038014000440040004800404B
:10135000004C00400050004070B5024600240023BD
:101360000025002040F66A16B14200D100BFC1F34B
:10137000421501F01F03012606FA03F3012D02D1E5
:101380009689334006E0022D02D1168A334001E0EF
:10139000968A33400C12012606FA04F4168834406B
:1013A00013B10CB1012000E0002070BDF0B5034680
:1013B000002400260025002040F66A17B94200D11B
:1013C00000BF1846C1F3421401F01F06012707FAB7
:1013D00006F5012C01D10C3004E0022C01D11030B3
:1013E00000E014301AB107682F43076002E0076875
:1013F000AF430760F0BD00002DE9F04786B0054619
:101400000E460024A24600BFA1460027B08900B1C5
:1014100000BF2F462C8A4CF6FF700440F08804432E
:101420002C82AC894EF6F3100440B0883189084311
:10143000718908430443AC81AC8A4FF6FF400440F5
:10144000B0890443AC8201A8FFF724FD1F488742FE
:1014500002D1DDF810A001E0DDF80CA0A88900F4AD
:10146000004040B10AEBCA0000EB0A1031684900A5
:10147000B0FBF1F807E00AEBCA0000EB0A10316894
:101480008900B0FBF1F86420B8FBF0F004012009FA
:10149000642101FB1089A88900F4004040B132208A
:1014A00000EBC900B0FBF1F000F00700044308E0D6
:1014B000322000EB09106421B0FBF1F000F00F00C6
:1014C00004432C8106B0BDE8F087000000380140DD
:1014D00001468888C0F30800704700BF70470000CD
:1014E0000146114A12884A434FF0E0235A61002214
:1014F0009A611A46126942F001021A6100BF4FF068
:10150000E022106900F001021AB100F48032002AD2
:10151000F5D04FF0E022126922F001024FF0E023F3
:101520001A6100229A6170470200002010B504463B
:1015300003E04FF47A70FFF7D3FF201EA4F10101FE
:10154000CCB2F6D110BD000086B00024234B0FCBE7
:10155000CDE90423CDE90201FEF796FF0020102318
:101560001FA2194600902420FFF738FA002010230C
:101570001DA2194600904420FFF712FA0020102304
:101580001AA2194600905420FFF728FA00201023D1
:1015900018A2194600907420FFF702FA00201023C9
:1015A00015A2302100901C20FFF7FAF90220FFF766
:1015B000BDFF11E0082C00D100242146621CD4B2EA
:1015C00002AA32F81100FEF775FF20210E48FEF73F
:1015D00050FF0120FFF7AAFFECE700000C160008FF
:1015E000C4E3BAC3000000002C200000CAC0BDE75D
:1015F000000000002120000048656C6C6F2C2077F3
:101600006F726C6421000000000C014000001F009C
:10161000FF07E0071FF800F8FFFFC0FF0000000011
:1016200000000000000000000000040404040400A6
:101630000004000014140A00000000000000000074
:1016400000000A0A1F0A0A1F0A0A000000040E15F9
:1016500005060C14150E0400000012150D152E2C95
:101660002A1200000000040A0A3615152916000087
:101670000202010000000000000000001008080441
:1016800004040404080810000204040808080808F8
:101690000404020000000004150E0E1504000000F2
:1016A00000000008083E08080000000000000000DC
:1016B000000000000202010000000000003F0000E6
:1016C0000000000000000000000000000002000018
:1016D00000201010080804040202010000000E118E
:1016E00011111111110E000000000406040404047D
:1016F000040E000000000E1111080402011F00007A
:1017000000000E11100C1010110E00000000080C4B
:101710000C0A091F081C000000001F01010F111016
:10172000110E000000000C12010D1311110E00002B
:1017300000001E10080804040404000000000E113C
:10174000110E1111110E000000000E1111191610CA
:101750000906000000000000040000000004000072
:101760000000000000040000000404000000100855
:101770000402020408100000000000003F003F00C7
:10178000000000000000020408101008040200001D
:1017900000000E11110804040004000000001C22C7
:1017A000292D2D1D221C0000000004040C0A0A1E15
:1017B0001233000000000F12120E1212120F00005E
:1017C00000001E1101010101110E000000000F12A6
:1017D00012121212120F000000001F120A0E0A024B
:1017E000121F000000001F120A0E0A02020700006A
:1017F00000001C1201013911120C0000000033120C
:10180000121E12121233000000001F04040404040C
:10181000041F000000003E0808080808080809071F
:10182000000037120A060A121237000000000702F1
:1018300002020202223F000000003B1B1B1B151589
:101840001535000000003B1216161A1A1217000078
:1018500000000E1111111111110E000000000F12E5
:10186000120E02020207000000000E1111111117E2
:10187000190E180000000F12120E0A121237000083
:1018800000001E1101060810110F000000001F15B6
:1018900004040404040E0000000033121212121299
:1018A000120C000000003312120A0A0C040400009B
:1018B0000000151515150E0A0A0A000000001B0A83
:1018C0000A04040A0A1B000000001B0A0A0A040496
:1018D000040E000000001F0908040402121F00008B
:1018E0001C0404040404040404041C000002020494
:1018F00004040808081010000E0808080808080862
:1019000008080E00040A00000000000000000000AB
:1019100000000000000000000000003F0204000082
:10192000000000000000000000000000000C121C7D
:10193000123C000000030202020E1212120E0000FE
:1019400000000000001C1202120C00000018101011
:10195000101C1212123C000000000000000C121EAD
:10196000021C000000182404041E0404041E0000CD
:1019700000000000003C120C021C221C00030202AA
:10198000020E1212123700000004040000060404C4
:10199000040E000000080800000C080808080807EA
:1019A00000030202021A0A060A13000000070404D8
:1019B00004040404041F000000000000000F1515BB
:1019C0001515000000000000000F12121237000071
:1019D00000000000000C1212120C000000000000B9
:1019E000000F1212120E020700000000001C12125B
:1019F000121C103800000000001B06020207000045
:101A000000000000001E020C101E00000000000478
:101A1000041E0404041C000000000000001B12123D
:101A2000123C000000000000001B0A0A0404000031
:101A3000000000000015150E0A0A0000000000005A
:101A4000001B0A040A1B00000000000000331212F1
:101A50000C08040300000000001E0804041E00001F
:101A600018080808080C08080808180008080808DA
:101A70000808080808080808060404040408040400
:101A80000404060016090000000000000000000029
:101A90000000000000000000000000000000000046
:101AA00000000008080808080808000018180000CE
:101AB00000486C241200000000000000000000003C
:101AC0000000002424247F1212127F121212000040
:101AD0000000081C2A2A0A0C1828282A2A1C080890
:101AE00000000022251515152A58545454220000D0
:101AF0000000000C1212120A76252911916E0000C6
:101B000000060604030000000000000000000000C2
:101B10000040201010080808080808101020400095
:101B20000002040808101010101010080804020029
:101B30000000000008086B1C1C6B08080000000077
:101B400000000000080808087F08080808000000D6
:101B50000000000000000000000000000606040372
:101B60000000000000000000FE0000000000000077
:101B70000000000000000000000000000606000059
:101B800000008040402020101008080404020200D9
:101B900000000018244242424242424224180000FF
:101BA000000000080E08080808080808083E0000A1
:101BB0000000003C4242422020100804427E000007
:101BC0000000003C4242201820404042221C0000FD
:101BD000000000203028242422227E2020780000CB
:101BE0000000007E0202021A26404042221C000031
:101BF000000000382402021A264242422418000043
:101C00000000007E222210100808080808080000C2
:101C10000000003C4242422418244242423C000060
:101C2000000000182442424264584040241C000036
:101C30000000000000001818000000001818000044
:101C40000000000000000008000000000008080478
:101C5000000000402010080402040810204000008A
:101C60000000000000007F0000007F000000000076
:101C700000000002040810204020100804020000A8
:101C80000000003C4242464020101000181800009E
:101C90000000001C225A555555552D42221C0000AB
:101CA0000000000808181414243C224242E70000F7
:101CB0000000001F2222221E22424242221F000058
:101CC0000000007C4242010101010142221C00008F
:101CD0000000001F2242424242424242221F0000B4
:101CE0000000003F4212121E12120242423F000048
:101CF0000000003F4212121E1212020202070000F0
:101D00000000003C2222010101712122221C00005E
:101D1000000000E7424242427E42424242E7000067
:101D20000000003E0808080808080808083E0000EF
:101D30000000007C10101010101010101010110F67
:101D40000000007722120A0E0A12122222770000E7
:101D5000000000070202020202020202427F0000AB
:101D600000000077363636362A2A2A2A2A6B0000E7
:101D7000000000E346464A4A52525262624700005F
:101D80000000001C2241414141414141221C000010
:101D90000000003F424242423E02020202070000AF
:101DA0000000001C2241414141414D53321C600062
:101DB0000000003F4242423E1212222242C700006F
:101DC0000000007C4242020418204042423E0000D3
:101DD0000000007F4908080808080808081C0000DF
:101DE000000000E74242424242424242423C00007E
:101DF000000000E7424222242414141808080000BE
:101E00000000006B494949495555362222220000FD
:101E1000000000E7422424181818242442E7000098
:101E2000000000772222141408080808081C00008B
:101E30000000007E2120101008040442423F0000F0
:101E40000078080808080808080808080808780042
:101E5000000002020404080808101020202040405E
:101E6000001E1010101010101010101010101E0076
:101E700000384400000000000000000000000000E6
:101E8000000000000000000000000000000000FF53
:101E90000006080000000000000000000000000034
:101EA000000000000000003C4278444242FC000078
:101EB000000000030202021A26424242261A0000D3
:101EC0000000000000000038440202024438000014
:101ED00000000060404040784442424264D8000024
:101EE000000000000000003C427E0202423C000074
:101EF000000000F08808087E08080808083E000076
:101F0000000000000000007C22221C023C42423CF7
:101F1000000000030202023A4642424242E7000049
:101F20000000000C0C00000E08080808083E000025
:101F30000000003030000038202020202020221E09
:101F40000000000302020272120A16122277000039
:101F50000000000E0808080808080808083E0000ED
:101F6000000000000000007F9292929292B7000061
:101F7000000000000000003B4642424242E70000F1
:101F8000000000000000003C42424242423C00008F
:101F9000000000000000001B26424242221E0207F1
:101FA000000000000000007844424242447840E0D3
:101FB00000000000000000774C040404041F00002F
:101FC000000000000000007C42023C40423E000055
:101FD000000000000008083E08080808083000005B
:101FE00000000000000000634242424262DC000048
:101FF00000000000000000E742242414080800004C
:1020000000000000000000EB494955552222000065
:10201000000000000000007624181818246E00004C
:1020200000000000000000E74224241418080807FC
:10203000000000000000007E22100808447E00001E
:1020400000C0202020202010202020202020C000A0
:102050001010101010101010101010101010101080
:1020600000060808080808100808080808080600FC
:102070000C32C20000000000000000000000000060
:102080000000000000000000000000000000000050
:102090000000000000000000000000000000000040
:1020A0000000000000000000000000000000000030
:1020B00000000000000000006000600060006000A0
:1020C0006000600060004000200020002000000050
:1020D00000000000600060006000000000000000E0
:1020E000000000006006600630039801880044008C
:1020F00000000000000000000000000000000000E0
:1021000000000000000000000000000000000000CF
:102110000000000000000000100210021002100277
:10212000FE07FE0708020801080108010801FE0772
:10213000FE07040104010401040100000000000086
:1021400000000000000040004000F00158034C0374
:10215000CC034C0058007000E000C001C0014003F7
:102160004C035C034C034801F000400040000000B9
:1021700000000000000000000E010A019100910023
:102180009100510051003A00AE03A00250045004E7
:10219000480448044804840284030000000000004E
:1021A000000000000000000038006C006C006C00B3
:1021B0006C006C002C0098071C011A0133013301DC
:1021C0006301E300C308C6093C07000000000000EB
:1021D000000000000C001C001000100008000400AB
:1021E00000000000000000000000000000000000EF
:1021F00000000000000000000000000000000000DF
:102200000000000000040002000180008000400087
:10221000400020002000200020002000200020009E
:102220004000400080008000000100020004000027
:102230000000000002000400080010001000200050
:1022400020004000400040004000400040004000AE
:102250002000200010001000080004000200000010
:102260000000000000000000000000004000C0006E
:102270004000460C4E0FD001F0015E0F460C4000AE
:1022800040004000000000000000000000000000CE
:1022900000000000000000000000000000004000FE
:1022A0004000400040004000FE0F40004000400061
:1022B000400040000000000000000000000000009E
:1022C000000000000000000000000000000000000E
:1022D00000000000000000000000000000000000FE
:1022E000000000000C001C0010001000080004009A
:1022F00000000000000000000000000000000000DE
:102300000000000000000000FE07000000000000C8
:1023100000000000000000000000000000000000BD
:1023200000000000000000000000000000000000AD
:10233000000000000000000000000000000000009D
:10234000000000001C001C001C0000000000000039
:10235000000000000004000600020003000100016C
:10236000800080004000400060002000200010003D
:102370001000080008000C00040006000200000025
:1023800000000000000000000000F00098010C03B5
:102390000C030606060606060606060606060606DA
:1023A00006060C030C039801F0000000000000007A
:1023B0000000000000000000000040007C00600001
:1023C000600060006000600060006000600060000D
:1023D0006000600060006000FC030000000000007E
:1023E00000000000000000000000F800840102036B
:1023F00006030603000300018001C0006000200006
:102400001000080204020602FE03000000000000A3
:10241000000000000000000000007800C6008601F7
:10242000860180018001C00070008001000100036E
:102430000003060306038601F80000000000000008
:102440000000000000000000000080018001C001C9
:10245000A001A00190018801880184018201FE0F82
:102460008001800180018001E00700000000000081
:1024700000000000000000000000FC030400040055
:10248000040004000400F4008C01040300030003B2
:102490000603060382018401F8000000000000002A
:1024A00000000000000000000000E00118030C0321
:1024B0000C0004000600E60116030E0606060606DA
:1024C000060604060C021803F000000000000000DD
:1024D00000000000000000000000F8070C060402E5
:1024E0000401000100018000800040004000400025
:1024F00060006000600060006000000000000000FC
:1025000000000000000000000000F8010C030606B7
:10251000060606060C021C03F000C8010C030606A2
:102520000606060606060C03F00100000000000087
:1025300000000000000000000000F0000C010C038F
:10254000060206060606060606078C06780600063C
:10255000000300030C018C01780000000000000063
:10256000000000000000000000000000000000006B
:1025700000000000E000E000E000000000000000BB
:1025800000000000E000E000E000000000000000AB
:10259000000000000000000000000000000000003B
:1025A000000000006000600000000000000000006B
:1025B00000000000000060006000400020002000DB
:1025C0000000000000000000000400020001800084
:1025D0004000200010000800040008001000200047
:1025E0004000800000010002000400000000000024
:1025F00000000000000000000000000000000000DB
:1026000000000000FE07000000000000FE070000C0
:1026100000000000000000000000000000000000BA
:10262000000000000000000004000800100020006E
:102630004000800000010002000400020001800050
:10264000400020001000080004000000000000000E
:1026500000000000000000000000E0031806040C69
:10266000040C0C0C0C0C00078001400040004000E2
:1026700000000000E000E000E000000000000000BA
:102680000000000000000000E00018030C02CC0570
:1026900064056605A605B604B604B604B604B6021B
:1026A000E4010C040C021803F0000000000000001C
:1026B000000000000000000000006000600050000A
:1026C000D00090009000880088010801F801040300
:1026D00004030402020202060F0F000000000000C3
:1026E00000000000000000000000FE008C030C034E
:1026F0000C030C030C038C01FC000C030C020C06F5
:102700000C060C060C060C03FE0100000000000085
:1027100000000000000000000000E00318030C06A9
:102720000C0404040600060006000600060006006D
:1027300006040C040C021803F00000000000000066
:10274000000000000000000000007F008C010C036E
:102750000C030C060C060C060C060C060C060C06EC
:102760000C060C030C038C017F000000000000002D
:1027700000000000000000000000FF030603060444
:102780000604060086008600FE008600860086009D
:102790000600060406040602FF0300000000000015
:1027A00000000000000000000000FF030603060414
:1027B0000604060086008600FE008600860086006D
:1027C00006000600060006001F00000000000000D2
:1027D00000000000000000000000F00018010C02E2
:1027E0000C0204020600060006000600C60F0603DF
:1027F00006030C030C031803F000000000000000A7
:10280000000000000000000000000F0F0606060692
:102810000606060606060606FE070606060606065F
:1028200006060606060606060F0F0000000000005A
:1028300000000000000000000000FC0360006000D9
:102840006000600060006000600060006000600088
:102850006000600060006000FC03000000000000F9
:1028600000000000000000000000F807C000C000E9
:10287000C000C000C000C000C000C000C000C00058
:10288000C000C000C000C000C000C60066003C0020
:1028900000000000000000000000CF038601C60019
:1028A00046002600160036002E006E004600C600C8
:1028B00086008601060106038F0700000000000065
:1028C000000000000000000000001F0006000600DD
:1028D00006000600060006000600060006000600C8
:1028E0000600060406040602FF03000000000000C4
:1028F00000000000000000000000070786038603B8
:102900008E038E034E034E034A035A035A033A03BF
:102910003203320332031203870700000000000075
:10292000000000000000000000008E0F0C021C02DE
:102930001C0234023402640264024402C4028402AF
:1029400084038403040304031F020000000000004A
:1029500000000000000000000000F00098010C03DF
:102960000C02060606060606060606060606060605
:1029700006060C020C039801F000000000000000A5
:1029800000000000000000000000FF000603060633
:1029900006060606060606068603FE000600060074
:1029A00006000600060006001F00000000000000F0
:1029B00000000000000000000000F00098010C037F
:1029C0000C020606060606060606060606060606A5
:1029D00076064C02CC039801F0008007000300004B
:1029E00000000000000000000000FF0106030606D2
:1029F0000606060606060603FE004600C60086001A
:102A000086010603060306060F0E00000000000004
:102A100000000000000000000000F8020C030602A5
:102A2000060206000E003C00F800E00380030007E9
:102A30000206020606060C03F0010000000000007A
:102A400000000000000000000000FE0762046108B2
:102A5000610860006000600060006000600060006D
:102A60006000600060006000F801000000000000ED
:102A7000000000000000000000001E070C020C0215
:102A80000C020C020C020C020C020C020C020C02D6
:102A90000C020C020C021801F00000000000000003
:102AA000000000000000000000000F070602040103
:102AB00004010C010C018800880098009800500067
:102AC00050007000300020002000000000000000D6
:102AD00000000000000000000000F70E6204420445
:102AE0004604460464026402E402E4029C029C017F
:102AF000980198018801880088000000000000000B
:102B0000000000000000000000009E070C0108010A
:102B100018019000B0006000200060006000D0004C
:102B200090008801080104038E07000000000000E7
:102B3000000000000000000000000F0F0604040267
:102B40000C0208011801B800B000700060006000BD
:102B50006000600060006000F801000000000000FC
:102B600000000000000000000000FC070C0206034B
:102B70000201800180004000400020002000100081
:102B8000180008040C040402FE030000000000000A
:102B900000000000E00320002000200020002000B2
:102BA0002000200020002000200020002000200025
:102BB000200020002000200020002000E003000072
:102BC00000000000000000000400040008000800ED
:102BD0001000100010002000200040004000C00045
:102BE00080008000000100010002000200020004D9
:102BF000000000007C004000400040004000400019
:102C000040004000400040004000400040004000C4
:102C10004000400040004000400040007C000000B8
:102C200000006000900008010000000000000000AB
:102C30000000000000000000000000000000000094
:102C40000000000000000000000000000000000084
:102C50000000000000000000000000000000000074
:102C60000000000000000000000000000000000064
:102C70000000000000000000000000000000FF0F46
:102C800000000000180060000000000000000000CC
:102C90000000000000000000000000000000000034
:102CA0000000000000000000000000000000000024
:102CB0000000000000000000000000000000000014
:102CC00000000000F0010C030C030003E0031C03F0
:102CD0000E03060306038E0B7C0E000000000000AE
:102CE000000000000000000008000E000C000C00B6
:102CF0000C000C00CC013C031C060C060C060C0658
:102D00000C060C060C021C03E4010000000000008D
:102D100000000000000000000000000000000000B3
:102D200000000000F0008C018C0186010600060006
:102D3000060006020C020C01F0000000000000007A
:102D400000000000000000000002C00300030003B8
:102D50000003000378038C030C0306030603060339
:102D60000603060304038C0778010000000000003E
:102D70000000000000000000000000000000000053
:102D800000000000E001180308020C060C06FC0716
:102D90000C000C0018041802E00100000000000004
:102DA00000000000000000000000C00360063006C4
:102DB00030003000FE0130003000300030003000C4
:102DC0003000300030003000FC0100000000000046
:102DD00000000000000000000000000000000000F3
:102DE00000000000F007D8068C018C018C019801CE
:102DF000F8000C00FC00CC03060306038E03F80069
:102E0000000000000000000008000E000C000C0094
:102E10000C000C00EC011C030C030C030C030C0352
:102E20000C030C030C030C039E07000000000000C1
:102E300000000000000000000000600060000000D2
:102E4000000040007C0060006000600060006000E6
:102E50006000600060006000FC03000000000000F3
:102E600000000000000000000000C001C0010000E0
:102E700000000001F00180018001800180018001DB
:102E8000800180018001800180018001CC007C00F4
:102E9000000000000000000008000E000C000C0004
:102EA0000C000C008C038C008C004C006C005C004F
:102EB0008C008C010C010C039E0700000000000038
:102EC000000000000000000040007C006000600086
:102ED00060006000600060006000600060006000F2
:102EE0006000600060006000FC0300000000000063
:102EF00000000000000000000000000000000000D2
:102F0000000000003707EE066606660666066606DF
:102F10006606660666066606FF0F000000000000F3
:102F200000000000000000000000000000000000A1
:102F300000000000EE011C030C030C030C030C0347
:102F40000C030C030C030C039E07000000000000A0
:102F50000000000000000000000000000000000071
:102F600000000000F00098010C03060606060606A5
:102F7000060606060C030C03F0000000000000002B
:102F80000000000000000000000000000000000041
:102F900000000000EE011C030C060C060C060C06DB
:102FA0000C060C060C031C03EC010C000C003E008C
:102FB0000000000000000000000000000000000011
:102FC0000000000078028C030C03060306030603CE
:102FD0000603060304038C03780300030003C00701
:102FE00000000000000000000000000000000000E1
:102FF000000000009F03580638061800180018004B
:103000001800180018001800FF0000000000000061
:1030100000000000000000000000000000000000B0
:1030200000000000F0031C030C020C023800F0004A
:10303000C003040304038C03FC0100000000000033
:103040000000000000000000000000002000200040
:1030500030003000FE013000300030003000300021
:103060003000300030023002E001000000000000BB
:103070000000000000000000000000000000000050
:10308000000008028E030C030C030C030C030C035A
:103090000C030C030C039C077801000000000000E7
:1030A0000000000000000000000000000000000020
:1030B000000000001E070C02080108011801900022
:1030C000B000B000600060002000000000000000C0
:1030D00000000000000000000000000000000000F0
:1030E00000000000F70E6204460464026402EC0271
:1030F0009C01980198019801080000000000000060
:1031000000000000000000000000000000000000BF
:1031100000000000BC0718011001B0006000600052
:10312000E0009000080108039E0700000000000076
:10313000000000000000000000000000000000008F
:10314000000000009E07080108010801900090009F
:10315000B0006000600060002000200024001C001F
:10316000000000000000000000000000000000005F
:1031700000000000FC018401C40044006000200045
:103180003000180208020C03FC01000000000000DF
:1031900000000000000380008000800080008000AC
:1031A00080008000800040002000400080008000FF
:1031B000800080008000800080008000000300000C
:1031C00040004000400040004000400040004000FF
:1031D00040004000400040004000400040004000EF
:1031E00040004000400040004000400040004000DF
:1031F000000000000C001000100010001000100073
:1032000010001000100020004000200010001000EE
:103210001000100010001000100010000C00000042
:1032200000001C002204C204800300000000000013
:10323000000000000000000000000000000000008E
:10324000000000000000000000000000000000007E
:10325000000000000000000000000000000000006E
:10326000000000000000000000000000000000005E
:10327000000000000000000000000000000000004E
:10328000000000000000000000000000000000003E
:1032900000000000000000000000C001C001C001EB
:1032A000C001C001C001C00180008000800080001A
:1032B000800080008000000000000000000080010D
:1032C000C003C003800100000000000000000000F7
:1032D000000000000000E01CE01CF01E700E38072B
:1032E0001803080184000000000000000000000036
:1032F00000000000000000000000000000000000CE
:1033000000000000000000000000000000000000BD
:10331000000000000000000000000000201020104D
:10332000201020102010FE7FFE7F100810081008CB
:103330001008100810081008FE7FFE7F080408041B
:103340000804080408040000000000000000000059
:10335000000000000000000000010001C00760192B
:10336000103118311839183938017001E001C003E3
:103370008007000F001D003900311C311C310C3159
:103380000C11180DE0070001000100010000000011
:103390000000000000000000000000001C103618B3
:1033A0006308630C63046304630263026301361DF4
:1033B0009C378022806340634063206320633063D6
:1033C00010221836081C0000000000000000000059
:1033D000000000000000000000000000F000980164
:1033E0008C018C018C018C018C00CC007800183E83
:1033F0001C083608320863046304C304C303834310
:1034000006438E26781C000000000000000000002B
:103410000000000000001C003C003C0030003000B8
:1034200010000C000600000000000000000000007A
:10343000000000000000000000000000000000008C
:10344000000000000000000000000000000000007C
:103450000000000000000040002000100008000CE8
:1034600000040006000300030003800180018001C6
:1034700080018001800180018001000300030003BE
:1034800000060006000C00080010002000400000AC
:1034900000000000000002000400080010003000DE
:1034A00020006000C000C000C000800180018001D9
:1034B00080018001800180018001C000C000C00047
:1034C00060006000300010000800040002000000EE
:1034D00000000000000000000000000000000000EC
:1034E00000018003800300011C713C79783DC00716
:1034F0000001C007783D3C791C7100018003800306
:10350000800100000000000000000000000000003A
:1035100000000000000000000000000000000000AB
:103520000000000100010001000100010001000194
:10353000FC7F000100010001000100010001000109
:10354000000000000000000000000000000000007B
:10355000000000000000000000000000000000006B
:10356000000000000000000000000000000000005B
:10357000000000000000000000000000000000004B
:103580001C003C003C003000300010000C00060025
:10359000000000000000000000000000000000002B
:1035A000000000000000000000000000000000001B
:1035B000FE7F00000000000000000000000000008E
:1035C00000000000000000000000000000000000FB
:1035D00000000000000000000000000000000000EB
:1035E00000000000000000000000000000000000DB
:1035F00000000000000000000000000000001800B3
:103600003C003C001800000000000000000000002A
:1036100000000000000000400060002000300010AA
:1036200000180008000C000400060002000300015E
:1036300080018000C00040006000200030001000C9
:10364000180008000C000400060002000000000042
:10365000000000000000000000000000C007600C37
:1036600030181830183018200C600C600C600C609A
:103670000C600C600C600C600C6018201830183066
:103680003018600CC00700000000000000000000BF
:1036900000000000000000000000000000018001A8
:1036A000F80180018001800180018001800180019A
:1036B0008001800180018001800180018001800102
:1036C0008001C003F81F000000000000000000009F
:1036D000000000000000000000000000E007101CD7
:1036E0000818043004300C300C300030001800088A
:1036F000000400020001800040002020102008206B
:103700000430FC1FFC1F000000000000000000004F
:10371000000000000000000000000000E003180EA0
:103720000C0C0C180C180C180018000C0006C00328
:10373000000E00180010003000300C300C300C105F
:103740000C18180CE003000000000000000000004E
:10375000000000000000000000000000000C000E4F
:10376000000E000F800E800E400E600E200E100E18
:10377000100E080E040E040EFE7F000E000E000E4A
:10378000000E000E000EC07F0000000000000000D0
:10379000000000000000000000000000F03FF03FCB
:1037A00010001000100008000800C807280C1818A6
:1037B000081000300030003000300C300C3004189D
:1037C0000418080CF00300000000000000000000D6
:1037D000000000000000000000000000800FC0108A
:1037E000203010301800180008000C008C0F6C18E6
:1037F0003C301C600C600C600C600C601860182081
:1038000030306018C0070000000000000000000019
:10381000000000000000000000000000F83FF83F3A
:103820001C100C080408040400040002000200013B
:1038300000010001800080008000C000C000C000C6
:10384000C000C000C0000000000000000000000038
:10385000000000000000000000000000E007300C45
:1038600018180C300C300C301C3038187008E00779
:10387000B007180E0C1C063806300630063006302D
:103880000C18180CE003000000000000000000000D
:10389000000000000000000000000000E003180429
:1038A0000C080C18061006300630063006300638B4
:1038B0000C3C1836F03100300018001800180C0CC1
:1038C0000C060C03F00100000000000000000000E6
:1038D00000000000000000000000000000000000E8
:1038E000000000000000000000008001C003C003D1
:1038F00080010000000000000000000000008001C6
:10390000C003C003800100000000000000000000B0
:1039100000000000000000000000000000000000A7
:1039200000000000000000000000C000C000000017
:103930000000000000000000000000000000000087
:103940000000C000C0008000800040004000000077
:10395000000000000000000000000020001000082F
:103960000004000600038001C00060003000180061
:103970000C00180030006000C00080010003000649
:1039800000040008001000200000000000000000FB
:103990000000000000000000000000000000000027
:1039A00000000000000000000000FE7F000000009A
:1039B000000000000000FE7F00000000000000008A
:1039C00000000000000000000000000000000000F7
:1039D00000000000000000000000040008001000CB
:1039E00020006000C000800100030006000C0018E9
:1039F00000300018000C000600038001C0006000C9
:103A0000200010000800040000000000000000007A
:103A100000000000000000000000C007301808305F
:103A200008600C601C601C601C600030001C0006FC
:103A30000001800080008000800000000000800104
:103A4000C003C0038001000000000000000000006F
:103A5000000000000000000000000000C007601827
:103A6000103018200C2F8C4D864CC64CC64C664C22
:103A700066446644662666266615CC1C0C40082003
:103A800018303018C00700000000000000000000DF
:103A9000000000000000000000000001C001C001A3
:103AA000C0014001600320032003200330061006FC
:103AB00010061006F80F080C080C080C0C0C041863
:103AC000041806181F7C0000000000000000000021
:103AD000000000000000000000000000FE07181CAD
:103AE000183818301830183018301818180CF80713
:103AF00018181830182018601860186018601860BE
:103B000018301818FE0F0000000000000000000030
:103B1000000000000000000000000000C027603826
:103B2000103018200C400C4004000600060006006F
:103B3000060006000600060006000C400C400C20A3
:103B400018303018C007000000000000000000001E
:103B5000000000000000000000000000FE03180E3E
:103B6000181818301830183018601860186018606D
:103B70001860186018601860186018301830181035
:103B80001818180EFE0300000000000000000000DE
:103B9000000000000000000000000000FE3F1830A0
:103BA000182018601840180018081808180CF80F8A
:103BB000180C1808180818001800180018401840A9
:103BC00018201830FE3F0000000000000000000038
:103BD000000000000000000000000000FE7F1870E0
:103BE000184018C018801800181018101818F81F5E
:103BF00018181810181018001800180018001800CD
:103C0000180018007E000000000000000000000006
:103C1000000000000000000000000000C013701C45
:103C2000101018100C200C200400060006000600DE
:103C30000600060006FC063006300C300C3018304A
:103C400018303008C007000000000000000000002D
:103C50000000000000000000000000003F7E0C1883
:103C60000C180C180C180C180C180C180C180C1834
:103C7000FC1F0C180C180C180C180C180C180C182D
:103C80000C180C183F7E000000000000000000002F
:103C9000000000000000000000000000F81F80018C
:103CA000800180018001800180018001800180010C
:103CB00080018001800180018001800180018001FC
:103CC00080018001F81F00000000000000000000DB
:103CD000000000000000000000000000E07F00067F
:103CE00000060006000600060006000600060006A4
:103CF0000006000600060006000600060006000694
:103D000000060006000600060E060E038E01FC00EB
:103D10000000000000000000000000007E7C181879
:103D20001808180418061802180198019801D801FB
:103D3000B803380318071806180E180C181C1818A2
:103D4000183018307EFC0000000000000000000069
:103D50000000000000000000000000007E001800CD
:103D60001800180018001800180018001800180093
:103D70001800180018001800180018001840184003
:103D800018201830FE3F0000000000000000000076
:103D90000000000000000000000000001FF81C38B8
:103DA0001C381C381C3C34343434343434367432CB
:103DB0006432643264326431C431C431C431C430D9
:103DC000C43084309FFC00000000000000000000B0
:103DD0000000000000000000000000001F7C1C101C
:103DE0003C103410341074106410E410C410C4116A
:103DF00084118413041304170416041E041C041CE9
:103E0000041C04181F18000000000000000000003F
:103E1000000000000000000000000000C003300CA3
:103E2000181808100C300C3006600660066006603A
:103E3000066006600660066006600C200C30081004
:103E40001818300CC0030000000000000000000043
:103E5000000000000000000000000000FE0F181825
:103E6000183018601860186018601860183018183A
:103E7000F80F180018001800180018001800180093
:103E8000180018007E000000000000000000000084
:103E9000000000000000000000000000C003300C23
:103EA00018180C100C300C200660066006600660C6
:103EB00006600660066006600660E4612C331C3212
:103EC0001816300EC007004C007C003800000000BF
:103ED000000000000000000000000000FE07181CA9
:103EE000183818301830183018301818180CF8070F
:103EF00098031803180718061806180E180C180C43
:103F0000181C18187E780000000000000000000057
:103F1000000000000000000000000000E027303832
:103F200018300C200C200C000C0018007800E00366
:103F3000800F001E0038007000600460046008609C
:103F400018303818C80F0000000000000000000002
:103F5000000000000000000000000000FC3F8C2179
:103F60008461824182418001800180018001800161
:103F70008001800180018001800180018001800139
:103F800080018001E0070000000000000000000048
:103F90000000000000000000000000003F7C0C104A
:103FA0000C100C100C100C100C100C100C100C1031
:103FB0000C100C100C100C100C100C100C100C1021
:103FC00008083804E00300000000000000000000C2
:103FD0000000000000000000000000003EF8182073
:103FE0001820182030103010301030106008600891
:103FF0006008E00CC004C004C00480038003800398
:10400000800300010001000000000000000000002B
:10401000000000000000000000000000DFF38661E7
:10402000862186218C210C218C238C138C138C13DC
:104030004C1358125816580E380E380E380E300CD5
:104040001004100410040000000000000000000034
:104050000000000000000000000000007E3E180884
:1040600038083004300470026002E001C001C00171
:10407000800180034003400720062006100C100C2E
:10408000081808183E7C0000000000000000000036
:104090000000000000000000000000007E7C1C10FA
:1040A000181018083008300C700460046002C00258
:1040B000C002C00180018001800180018001800177
:1040C00080018001E0070000000000000000000007
:1040D000000000000000000000000000F83F181879
:1040E0000818040C040E000600070003800380017A
:1040F000C001C000E00060007000300038201820CF
:104100001C100C18FE1F0000000000000000000042
:10411000000000000000C03F4000400040004000A0
:10412000400040004000400040004000400040008F
:10413000400040004000400040004000400040007F
:1041400040004000400040004000C03F0000000030
:104150000000000000000000000008001800180027
:10416000100030002000600060004000C0008000AF
:104170008001800100010003000200060006000427
:10418000000C00080018001800100030002000008B
:10419000000000000000FC03000200020002000218
:1041A00000020002000200020002000200020002FF
:1041B00000020002000200020002000200020002EF
:1041C00000020002000200020002FC0300000000E6
:1041D0000000000000008007C0062008101000004A
:1041E00000000000000000000000000000000000CF
:1041F00000000000000000000000000000000000BF
:1042000000000000000000000000000000000000AE
:10421000000000000000000000000000000000009E
:10422000000000000000000000000000000000008E
:10423000000000000000000000000000000000007E
:104240000000000000000000000000000000FFFF70
:104250000000000000007800C00000010000000025
:10426000000000000000000000000000000000004E
:10427000000000000000000000000000000000003E
:10428000000000000000000000000000000000002E
:10429000000000000000000000000000000000001E
:1042A00000000000000000000000F00318060C0CE5
:1042B0000C0C000C800F700C1C0C0C0C060C060C6B
:1042C000064C0C4FF8380000000000000000000011
:1042D0000000000000000000000010001E00180098
:1042E00018001800180018001800180FD8183830D7
:1042F000386018601860186018601860186018201E
:1043000038307818C80700000000000000000000E6
:10431000000000000000000000000000000000009D
:1043200000000000000000000000C007700C18181A
:1043300018180C180C000C000C000C000C20182095
:1043400018103008C0070000000000000000000046
:10435000000000000000000000000010001E001817
:1043600000180018001800180018E01B301C18185E
:1043700018180C180C180C180C180C180C18081815
:10438000181C307AE0090000000000000000000066
:10439000000000000000000000000000000000001D
:1043A00000000000000000000000C007300C1818DA
:1043B00008100C300C30FC3F0C000C000C001820D6
:1043C00018107018C0070000000000000000000076
:1043D000000000000000000000000000003E80C35C
:1043E00080C0C0C0C000C000C000FC1FC000C00032
:1043F000C000C000C000C000C000C000C000C000BD
:10440000C000C000F80F0000000000000000000025
:10441000000000000000000000000000000000009C
:1044200000000000000000000000C077306C101891
:104430001818181818181018300CF0071800180061
:10444000F00FF03F08700C600C600C603838E00F23
:104450000000000000000000000010001E00180016
:1044600018001800180018001800980FD8183830D5
:1044700018301830183018301830183018301830FC
:10448000183018307EFC0000000000000000000022
:104490000000000000000000000000008003800316
:1044A00080030000000000000001F801800180018D
:1044B00080018001800180018001800180018001F4
:1044C00080018001F81F00000000000000000000D3
:1044D000000000000000000000000000003800386C
:1044E00000380000000000000010801F00180018B5
:1044F00000180018001800180018001800180018FC
:1045000000180018001800180018180C1806F003FE
:104510000000000000000000000010001E00180055
:1045200018001800180018001800183E180C18067B
:10453000180318019801D801380318071806180C39
:10454000181C18187E7C000000000000000000000D
:10455000000000000000000000000001F8018001E0
:104560008001800180018001800180018001800143
:104570008001800180018001800180018001800133
:1045800080018001F81F0000000000000000000012
:10459000000000000000000000000000000000001B
:1045A00000000000000000000800EE1C9C338C316D
:1045B0008C318C318C318C318C318C318C318C3113
:1045C0008C318C31DE7B0000000000000000000018
:1045D00000000000000000000000000000000000DB
:1045E000000000000000000010001E0FD818383036
:1045F000183018301830183018301830183018307B
:10460000183018307EFC00000000000000000000A0
:10461000000000000000000000000000000000009A
:1046200000000000000000000000C007701C1030F7
:1046300018300C600C600C600C600C600C60183062
:1046400018303018C0070000000000000000000013
:10465000000000000000000000000000000000005A
:10466000000000000000000010009E0F58183830B5
:1046700018201860186018601860186018601830EA
:1046800038307818980718001800180018007E00B5
:10469000000000000000000000000000000000001A
:1046A00000000000000000000000C023303C18386B
:1046B00018300C300C300C300C300C300C30083012
:1046C0001838303CE033003000300030003000FC5F
:1046D00000000000000000000000000000000000DA
:1046E000000000000000000060007E3C6066606129
:1046F000E000E000600060006000600060006000BA
:1047000060006000FE0700000000000000000000E4
:104710000000000000000000000000000000000099
:1047200000000000000000000000E02730381830D2
:10473000182018007000E003800F001C04300430C3
:104740000C301C18EC0F00000000000000000000FE
:104750000000000000000000000000000000000059
:10476000800080008000C000E000FC1FC000C0008E
:10477000C000C000C000C000C000C000C000C02019
:10478000C0208011000F00000000000000000000A9
:104790000000000000000000000000000000000019
:1047A000000000000000000010201E3C18301830EF
:1047B00018301830183018301830183018301830B9
:1047C000183830F4E0130000000000000000000082
:1047D00000000000000000000000000000000000D9
:1047E000000000000000000000007E3C18181808BF
:1047F000380830043004700260026002E001C00139
:10480000C001C000800000000000000000000000A7
:104810000000000000000000000000000000000098
:1048200000000000000000000000DFF78E630C2392
:104830008C238C239813981358165816700E700EEC
:10484000700E2004200400000000000000000000A2
:104850000000000000000000000000000000000058
:1048600000000000000000000000FC3E7008700422
:10487000E004C002C0018003800340076006200CF2
:10488000100C18183E7E0000000000000000000020
:104890000000000000000000000000000000000018
:1048A000000000000000000000007E7C18181808BE
:1048B00030083008300460046004C002C002C00246
:1048C0008001800180018000800080004C003C005D
:1048D00000000000000000000000000000000000D8
:1048E00000000000000000000000FC1F0C0C040E83
:1048F0000406000380038001C000E0007020302027
:1049000038301C18FC1F00000000000000000000F0
:104910000000000000000030000800040004000453
:104920000004000400040004000400040004000269
:1049300080010002000400040004000400040004DC
:10494000000400040004000400040008003000001B
:10495000000100010001000100010001000100014F
:10496000000100010001000100010001000100013F
:10497000000100010001000100010001000100012F
:10498000000100010001000100010001000100011F
:104990000000000000000C0010002000200020009B
:1049A00020002000200020002000200020004000E7
:1049B0008001400020002000200020002000200076
:1049C0002000200020002000200010000C0000002B
:1049D00000003800C400864002610022001C000074
:1049E00000000000000000000000000000000000C7
:1049F00000000000000000000000000000000000B7
:104A000000000000000000000000000000000000A6
:104A1000C4E328002800E407240496028500A402C9
:104A2000A404A40494048400C400BAC30400E403EE
:104A300004021F0192009200F20789008A0084009C
:104A40008A00D100CAC02001240124012401FF07EB
:104A5000240124012401E40104000400FC07BDE753
:104A6000FE032202FE032202FE032000D8000707F5
:104A70008800880084008200C4E310011001100146
:104A8000887F88404C202C040A04891488244824F8
:104A900048442844080408050802BAC30800083F2F
:104AA000082008103F0824042404A47F24041204CE
:104AB000140408041404220421050002CAC040049E
:104AC0004804480448044804FF7F48044804480454
:104AD0004804C807080008000800F83F0000BDE7C8
:104AE0000000F80F88088808F80F88088808F80F71
:104AF000400130062C1A2362200210021002080224
:104B0000C4E3000000800000803100C03000C0100D
:104B10000040180020F83F200C30708408388200D4
:104B2000288200248900229804208808208C1820DC
:104B30008430208230208260208120A08000208864
:104B40000060F000204000000000BAC30000000038
:104B5000000060000060000060F81F2000182000C6
:104B600004FE030230020130020110030110012192
:104B700010FD7F180101080101880001B00001C08B
:104B8000010140030120060118000104E001028038
:104B900000000000CAC00000000000000004020085
:104BA0000C0220040220040220040220040220043B
:104BB00002FEFF3F2004022004022004022004021F
:104BC00020040220040220FC032004022004002010
:104BD0000000200010F0FF3F200000000000BDE7B3
:104BE000000000000000E0FF0760180C601804607F
:104BF0001804E0FF07601804601804E0FF07604431
:104C000004004600008301800307C0867D308230A7
:104C10000C8200008300008100808100C0800020A1
:104C20008000188000000000C4E3000000000000C5
:104C3000000000020000000E06000006070000074A
:104C4000030000030300008301008081011880C07D
:104C5000FF3FC0C00018C061080CE0213004B03133
:104C6000100290111000880910008881110084C181
:104C7000110180C1100280C110048061100C80619C
:104C800010188031103880111030800910308009E0
:104C90001030800510008001100080011F0080018D
:104CA0001C008000080000000000BAC300000000E3
:104CB000000000008000000080030000800100046C
:104CC0008081FF0F8001000E80000003C0100001F2
:104CD000FC3F8000C0106000C01060004018600001
:104CE00060186000601860002018601820E8FF3F1E
:104CF000300C6000300C6000100C6000100660008A
:104D00007006600080036000000F6000003D6000DE
:104D100080316000C02060002000600010003F0073
:104D20000C0038000000100000000000CAC00000A5
:104D30000000000000000020400000E0C001006012
:104D4000C0004060C000C061C000C060C000C06062
:104D5000C000C060C000C060C000C060C018FEFFDE
:104D6000FF3FC060C000C060C000C060C000C06045
:104D7000C000C060C000C060C000C060C000C060B3
:104D8000C000C060C000C0E0FF00C060C000C060E4
:104D9000C000C0200000C0000000C0000000C00033
:104DA0000018E0FFFF3F8000000000000000BDE7AA
:104DB0000000000000000000000000008000000172
:104DC00080FFFF0380810103808101018081010157
:104DD00080FFFF018081010180810101808101014B
:104DE0008081010180FFFF018061040100600800F3
:104DF0000030100000182000001CC0000077B00F29
:104E00008031303E603030181C18300000183000FF
:104E100000183000000C3000000C3000000630009C
:104E20008001300060003000180010000000000019
:104E3000504E000800000020380000006C010008FF
:104E4000884E00083800002028070000880100086C
:104E50000000000000000000000000000000000052
:104E6000000001020304010203040607080902040A
:104E70000608000000A24A04000000000000000034
:084E8000010203040607080902
:0400000508000131BD
:00000001FF
