:020000040800F2
:1000000058070020CD010008D5010008D7010008DD
:10001000D9010008DB010008DD0100080000000034
:10002000000000000000000000000000DF010008E8
:10003000E101000800000000E3010008E5010008FC
:10004000E7010008E7010008E7010008E7010008F0
:10005000E7010008E7010008E7010008E7010008E0
:10006000E7010008E7010008E7010008E7010008D0
:10007000E7010008E7010008E7010008E7010008C0
:10008000E7010008E7010008E7010008E7010008B0
:10009000E7010008E7010008E7010008E7010008A0
:1000A000E7010008E7010008E7010008E701000890
:1000B000E7010008E7010008E7010008E701000880
:1000C000E7010008E7010008E7010008E701000870
:1000D000E701000899080008E7010008E7010008A7
:1000E000E7010008E7010008E7010008E701000850
:1000F000E7010008E7010008E7010008E701000840
:10010000E7010008E7010008E7010008E70100082F
:10011000E7010008E7010008E7010008E70100081F
:10012000E7010008E7010008E7010008E70100080F
:1001300000F002F800F03AF80AA090E8000C8244BF
:100140008344AAF10107DA4501D100F02FF8AFF29C
:10015000090EBAE80F0013F0010F18BFFB1A43F0A5
:1001600001031847780A0000980A0000103A24BFDB
:1001700078C878C1FAD8520724BF30C830C144BF0C
:1001800004680C607047000000230024002500264E
:10019000103A28BF78C1FBD8520728BF30C148BFEA
:1001A0000B6070471FB51FBD10B510BD00F033F8D0
:1001B0001146FFF7F7FF00F0F7FC00F051F803B429
:1001C000FFF7F2FF03BC00F0C6FC000009488047BF
:1001D00009480047FEE7FEE7FEE7FEE7FEE7FEE729
:1001E000FEE7FEE7FEE7FEE704480549054A064B41
:1001F00070470000E907000831010008580100209D
:10020000580700205803002058030020704770470B
:10021000704770477047754600F02CF8AE460500F1
:100220006946534620F00700854618B020B5FFF711
:10023000DBFFBDE820404FF000064FF000074FF015
:1002400000084FF0000B21F00701AC46ACE8C009F4
:10025000ACE8C009ACE8C009ACE8C0098D467047FD
:1002600010B50446AFF300802046BDE81040FFF70C
:10027000A6BF000000487047F800002070B5054692
:10028000074800F022F9044604F47F440548405D25
:10029000C043C0B204432146014800F01EF970BDBE
:1002A000001C0140CC0B000870B50546002416E088
:1002B0004FF48070A04081B20A4800F00CF9285D2C
:1002C000FFF7DCFF4FF4FA7000F048FC4FF4807049
:1002D000A04081B2034800F0FCF8601CC4B2082CB6
:1002E000E6DB70BD001C014010B56FF0040000F0AB
:1002F00067FA0A4800680A49B0FBF1F0094908703A
:100300000846007800EB4001C1EBC0104FF6FF71CA
:1003100001EAC0000449088010BD00001C00002054
:1003200000127A00000000200200002008B5012120
:10033000842000F047F94FF40070ADF8000003206E
:100340008DF8020018208DF803006946174800F068
:1003500031F84FF48060ADF8000004208DF8030000
:100360006946124800F026F8FF20ADF80000012091
:100370008DF8020010208DF8030069460C4800F04B
:1003800019F84FF47F40ADF8000001208DF802000D
:1003900010208DF803006946054800F00BF84FF473
:1003A0007F41034800F095F808BD000000080140B7
:1003B000001C01402DE9F0410246002500260020E6
:1003C00000230024002791F803C00CF00F0591F8DA
:1003D00003C00CF0100CBCF1000F03D091F802C068
:1003E0004CEA050591F800C0BCF1000F31D014684B
:1003F00000202BE04FF0010C0CFA00F3B1F800C024
:100400000CEA03069E4220D183004FF00F0C0CFA39
:1004100003F7BC4305FA03FC4CEA040491F803C05B
:10042000BCF1280F06D14FF0010C0CFA00FCC2F809
:1004300014C00AE091F803C0BCF1480F05D14FF099
:10044000010C0CFA00FCC2F810C0401C0828D1D3E3
:100450001460B1F800C0BCF1FF0F34DD5468002017
:100460002EE000F1080C4FF0010808FA0CF3B1F887
:1004700000C00CEA03069E4221D183004FF00F0C0E
:100480000CFA03F7BC4305FA03FC4CEA040491F8A8
:1004900003C0BCF1280F05D100F1080C08FA0CF8D4
:1004A000C2F8148091F803C0BCF1480F07D100F1E5
:1004B000080C4FF0010808FA0CF8C2F81080401C34
:1004C0000828CED35460BDE8F0810146C86880B2E8
:1004D00070474161704701617047C160704710B556
:1004E00000F009F8FFF700FFFFF720FF4FF4E130BD
:1004F00000F0AAF910BD08B54FF4A06000F048F86C
:1005000025208DF8000003208DF801008DF80200F1
:1005100001208DF80300684600F002F808BD0000D5
:1005200070B5002100230F22C47804B3154C246851
:1005300004F4E064C4F5E064210AC1F10403CA4094
:10054000447804FA03F184781440214309010E4CE5
:100550000678A155047804F01F050124AC40057805
:100560006D11AD0005F1E025C5F8004109E0047802
:1005700004F01F050124AC40044D0678761145F8BF
:10058000264070BD0CED00E000E400E080E100E0FA
:1005900002490143024A1160704700000000FA0559
:1005A0000CED00E029B1064A12690243044B1A61BE
:1005B00004E0034A12698243014B1A61704700004C
:1005C0000010024029B1064A92690243044B9A6125
:1005D00004E0034A92698243014B9A61704700002C
:1005E0000010024029B1064AD2680243044BDA6087
:1005F00004E0034AD2688243014BDA60704700008E
:100600000010024030B500210022002400232D4DAF
:100610006D6805F00C0121B1042905D0082923D10A
:1006200005E0294D056022E0274D05601FE0254DBE
:100630006D6805F47012234D6D6805F48034022551
:1006400005EB92421CB9214D554305600BE01D4D51
:100650006D6805F400351DB11C4D5543056002E081
:10066000194D5543056002E0174D056000BF00BFFE
:10067000144D6D6805F0F0010909154D6B5C0568B6
:10068000DD4045600F4D6D6805F4E061090A104DCD
:100690006B5C4568DD4085600A4D6D6805F460510E
:1006A000C90A0B4D6B5C4568DD40C560054D6D6842
:1006B00005F44041890B074D6B5CC568B5FBF3F54C
:1006C000056130BD0010024000127A0000093D00B3
:1006D000060000201600002010B500F001F810BD43
:1006E0000CB50020019000903348006840F4803041
:1006F0003149086000BF3048006800F400300090C5
:100700000198401C0190009818B90198B0F5A06FAD
:10071000F1D12948006800F4003010B101200090A8
:1007200001E0002000900098012843D12348006890
:1007300040F01000214908600846006820F00700DA
:1007400008600846006840F0020008601A484068E7
:10075000194948600846406848600846406840F4C7
:10076000806048600846406820F47C104860084675
:10077000406840F4E81048600846006840F0807027
:10078000086000BF0C48006800F000700028F9D035
:100790000948406820F0030007494860084640685F
:1007A00040F00200486000BF0348406800F00C00C1
:1007B0000828F9D10CBD00000010024000200240C2
:1007C000042808D14FF0E021096941F004014FF0FD
:1007D000E022116107E04FF0E021096921F00401F6
:1007E0004FF0E0221161704710B51348006840F0E7
:1007F00001001149086008464068104908400E4948
:100800004860084600680E4908400B4908600846E1
:10081000006820F4802008600846406820F4FE004C
:1008200048604FF41F008860FFF756FF4FF00060EC
:100830000449086010BD0000001002400000FFF8ED
:10084000FFFFF6FE08ED00E01FB504460121880316
:10085000FFF7B8FE0F4800F06FF800940020ADF8E5
:100860000400ADF80600ADF80800ADF80C000C204F
:10087000ADF80A006946074800F0FCF8012240F292
:100880002551044800F0D0F80121024800F048F852
:100890001FBD00000038014010B540F225511D4831
:1008A00000F098F818B31B4800F050F9C4B21A4889
:1008B000008800F4004001282BD01748008800F47D
:1008C000804060B10A2C03D000201349088020E04A
:1008D0001148008840F400400F49088019E00D2CB1
:1008E00006D10D48008840F480400B49088010E094
:1008F00009480088C0F30D0008490C5406480088D8
:10090000401C0549088008460088C72801DD0020F2
:10091000088010BD00380140040000203000002095
:1009200021B1828942F40052828104E082894DF62D
:10093000FF731A408281704710B5044620488442F4
:1009400009D101218803FFF74DFE00214FF48040BB
:10095000FFF748FE32E01B48844209D101214804D8
:10096000FFF720FE00214FF40030FFF71BFE25E0CB
:100970001548844209D101218804FFF713FE0021A4
:100980004FF48020FFF70EFE18E01048844209D192
:100990000121C804FFF706FE00214FF40020FFF7F5
:1009A00001FE0BE00A48844208D101210805FFF747
:1009B000F9FD00214FF48010FFF7F4FD10BD000099
:1009C000003801400044004000480040004C004016
:1009D0000050004070B5024600240023002500208E
:1009E00040F66A16B14200D100BFC1F3421501F0D2
:1009F0001F03012606FA03F3012D02D19689334025
:100A000006E0022D02D1168A334001E0968A334077
:100A10000C12012606FA04F41688344013B10CB106
:100A2000012000E0002070BDF0B503460024002640
:100A30000025002040F66A17B94200D100BF1846D1
:100A4000C1F3421401F01F06012707FA06F5012C35
:100A500001D10C3004E0022C01D1103000E0143040
:100A60001AB107682F43076002E00768AF430760C9
:100A7000F0BD00002DE9F04786B005460E46002483
:100A8000A24600BFA1460027B08900B100BF2F4693
:100A90002C8A4CF6FF700440F08804432C82AC8909
:100AA0004EF6F3100440B088318908437189084339
:100AB0000443AC81AC8A4FF6FF400440B089044344
:100AC000AC8201A8FFF79EFD1F48874202D1DDF8E6
:100AD00010A001E0DDF80CA0A88900F4004040B1AE
:100AE0000AEBCA0000EB0A1031684900B0FBF1F8CC
:100AF00007E00AEBCA0000EB0A1031688900B0FB7E
:100B0000F1F86420B8FBF0F004012009642101FB36
:100B10001089A88900F4004040B1322000EBC900E0
:100B2000B0FBF1F000F00700044308E0322000EBD6
:100B300009106421B0FBF1F000F00F0004432C8198
:100B400006B0BDE8F0870000003801400146888803
:100B5000C0F30800704700BF704700000146114A0B
:100B600012784A434FF0E0235A6100229A611A46F4
:100B7000126942F001021A6100BF4FF0E0221069D1
:100B800000F001021AB100F48032002AF5D04FF0D3
:100B9000E022126922F001024FF0E0231A610022E4
:100BA0009A617047000000200EB505A207CA8DE8C3
:100BB0000700FFF794FC02E06846FFF775FBFBE7D0
:100BC0000001020304050607080000007714B3B60D
:100BD000D4E6E734F7F6F5C76397E3E1FC0B0008CA
:100BE00000000020300000006C0100082C0C000800
:100BF00030000020280700008801000800000000E5
:100C000000000000000001020304010203040607C3
:100C1000080902040608000000A24A0400000000BF
:0C0C2000000000000102030406070809A0
:0400000508000131BD
:00000001FF
