:020000040800F2
:10000000400C0020ED010008F5010008F701000890
:10001000F9010008FB010008FD01000800000000D4
:10002000000000000000000000000000FF010008C8
:100030000102000800000000030200080502000899
:10004000070200080702000807020008070200086C
:10005000070200080702000807020008070200085C
:10006000070200080702000807020008070200084C
:10007000070200080702000807020008070200083C
:10008000070200080702000807020008070200082C
:10009000070200080702000807020008070200081C
:1000A000070200080702000807020008070200080C
:1000B00007020008070200080702000807020008FC
:1000C00007020008070200080702000807020008EC
:1000D00007020008612B0008070200080702000859
:1000E00007020008070200080702000807020008CC
:1000F00007020008070200080702000807020008BC
:1001000007020008070200080702000807020008AB
:10011000070200080702000807020008070200089B
:10012000070200080702000807020008070200088B
:1001300000F002F800F04AF80AA090E8000C8244AF
:100140008344AAF10107DA4501D100F03FF8AFF28C
:10015000090EBAE80F0013F0010F18BFFB1A43F0A5
:1001600001031847C89A0000E89A0000103A24BF1B
:1001700078C878C1FAD8520724BF30C830C144BF0C
:1001800004680C607047000000230024002500264E
:10019000103A28BF78C1FBD8520728BF30C148BFEA
:1001A0000B607047662906F04287642900F0AC8036
:1001B000002070471FB500F0F3FC04000020002170
:1001C00005F054FEE0601FBD10B510BD00F018FE34
:1001D0001146FFF7EFFF04F02FFC00F036FE03B4EA
:1001E000FFF7F2FF03BC02F0B8FE000009488047A9
:1001F00009480047FEE7FEE7FEE7FEE7FEE7FEE709
:10020000FEE7FEE7FEE7FEE704480549054A064B20
:1002100070470000B12A00083101000840060020A4
:10022000400C00204008002040080020704710B516
:100230004C1084EA530404D54042C1F1000138BF98
:10024000491E1B4204D55242C3F1000338BF5B1E56
:1002500000F06AF914F0804F04D04042C1F100016F
:1002600038BF491E14F0004F04D05242C3F10003BE
:1002700038BF5B1E10BD00000FB4044910B503AABF
:10028000029800F059FC10BC5DF814FB140000202B
:100290000FB41CB5074B06AA7B446946009005982D
:1002A00000F031FC0020694600F040FC1CBC5DF809
:1002B00014FB00009108000070B5044685690068D1
:1002C000C10601D5302600E02026C00707D070BD4A
:1002D000D4E9012130469047206A401C20626D1EFF
:1002E000F6D570BD70B5044685690078C00707D1A2
:1002F00070BDD4E9012120209047206A401C206273
:100300006D1EF6D570BD00002DE9F04106460024B3
:1003100010687529314616A510D0AFF3008000286B
:1003200002DA404213A507E031688A0701D512A519
:1003300002E0490704D511A5012401E0AFF30080D4
:1003400000210A2206F1240709E0B0FBF2FCB0FB11
:10035000F2F302FB1C00303078541846491C002888
:10036000F3D123462A463046BDE8F04100F05EB99D
:10037000000000002D0000002B0000002000000005
:100380002DE9F05F894604464FF0000ADFF824B1FA
:10039000FB44C0F820A02046E168884700287DD0B3
:1003A000252806D0D4E901219047206A401C20620C
:1003B000F1E700255F462046E16888472028064689
:1003C00007DB312E05D2B81910F8200C08B105430F
:1003D000F1E7A80701D525F00405C4F81CA0002703
:1003E000C4F818A02A2E09D0304602F0AFFD38B369
:1003F00004EB8708303EC8F8186019E059F8041B70
:10040000204604EB87029161E1688847012F064688
:1004100018D1E069002820DA25F020051DE0D8F881
:10042000180000EB800006EB40003038C8F81800D8
:100430002046E1688847064602F088FD0028EED194
:10044000012F0AD02E2E08D12046E16888477F1C54
:100450000646022F45F02005C4DBA069002803DA18
:10046000404245F00105A061E80701D025F01005E4
:10047000A6B1A6F14100192802D8203645F400653E
:100480004A463146204625604D46FFF78BFE60B157
:10049000012807D0ED1D25F0070000E007E000F17E
:1004A000080978E705F1040975E730467AE7206A1C
:1004B000BDE8F09FAE96000040EA010310B59B072F
:1004C0000FD1042A0DD310C808C9121F9C42F8D0BE
:1004D00020BA19BA884201D9012010BD4FF0FF306F
:1004E00010BD1AB1D30703D0521C07E0002010BD85
:1004F00010F8013B11F8014B1B1B07D110F8013B11
:1005000011F8014B1B1B01D1921EF1D1184610BDF1
:1005100002F0FF0343EA032242EA024200F020BB5A
:10052000704770477047704753EA020C00F06980CB
:100530002DE9F04B4FF00006002B1FBFB3FA83F5F7
:1005400003FA05F424FA05F65E4012BF1643B2FA28
:1005500082F502FA05F4C5F120051EBF22FA05FC5A
:1005600044EA0C04203556EA044C4FEA144418BF00
:10057000641C4FF000084FF00009904271EB030C2F
:1005800039D3002919BFB1FA81F701FA07F6B0FA99
:1005900080F700FA07F6C7F120071EBF20FA07FC14
:1005A00046EA0C062037B6FBF4FCA7EB0507103F24
:1005B00007F01F0BCBF120060CFA0BFB2CFA06F60A
:1005C00044BFB3460026202FA4BF5E464FF0000B69
:1005D0005BEA060C08BF4FF0010B19EB0B09ABFBF4
:1005E000027C48EB0608C01B06FB02CC0BFB03CCCD
:1005F00071EB0C01C1E70B46024641464846BDE897
:10060000F08B13B54FF000004FF00001AFF3008006
:10061000BDE81C40704710B500F0C6FA006810BD78
:1006200010B5044600F0C0FA046010BD2DE9F04793
:100630000D4699469246044600F124080168880652
:1006400004D5E06921F01001216000E00120A842FA
:1006500001DD471B00E00027A1697A1902EB0900C0
:10066000081AA0612078C00602D42046FFF724FEB5
:10067000002608E0D4E901211AF806009047206A14
:10068000401C761C20624E45F4DB2078C0060AD55B
:100690002046FFF711FE06E0D4E901213020904703
:1006A000206A401C2062381EA7F10107F4DC07E035
:1006B000D4E9012118F805009047206A401C206207
:1006C000281EA5F10105F3DC2046FFF70BFE20787C
:1006D000000602D50220BDE8F0870120FBE7704745
:1006E0002DE9FF4F0C461E464FF0FF378BB0D2E985
:1006F0000001DDF860800A908A46C1F30A5505B909
:100700003D46002108464FF00000BAF1000F00F40A
:10071000400005DA00EB80004FF4400101EA500090
:100720004FEA9059B9F1010F00DDB9460A9850EA35
:100730004A000ED044F61050A5F2FF3545432F1461
:10074000B8F1000F1ED07542291E1EDDC9F100024E
:100750001CE0B8F1010F4FF0000001D0302103E0A0
:10076000F24305E02154401CB042FBDB304600223E
:10077000002121540B99C1F80880C1E900200FB075
:10078000BDE8F08FBD1B6D1CDEE74A4600DA69420A
:1007900006A800F093FA06AB93E8070003AB83E8E2
:1007A000070050460A9900F099FB8DE80700A0F574
:1007B00000501F3800900398002D0ADD42F21F01FF
:1007C0004A460844002303A90390684600F002FE4D
:1007D00009E0A0F500504A461F38002303A9039002
:1007E000684600F00CFE8DE807000004000C03D002
:1007F0004FF0FF30410800E01046B8F1000F03D081
:100800000022009215461EE0751E05D400F0D0F9B6
:10081000303262556D1EF9D5B3460122084302D02D
:1008200000227F1C04E02078302801D100227F1EA6
:10083000002A099784D01DE0112D07DA00F0B8F9DD
:10084000303262556D1C50EA0102F5D1084302D0E6
:100850000098C8B10EE00021681E05E0235C625CD0
:1008600063542254401E491C8142F7DBAB46A81B4F
:10087000401E0990002004F80B000B98099AC0F85C
:100880000880C0E9002B7AE711264FF0000857E7EF
:100890002DE9F04F88460446D21D22F0070191B0A1
:1008A000D1E90001CDE90A0102F0D3FA02460B9822
:1008B000C00F01D02D2007E02068810701D52B2033
:1008C00002E0202101EAC000032A099001D0072A92
:1008D00005DB03464146204600F0B0F90BE12078E5
:1008E000800601D5E06900E00620B8F1650F814679
:1008F00006D0B8F1660F18D0B8F1670F70D131E0AB
:100900000020B9F1110F009001DB112301E009F182
:1009100001030AAA01A90CA8FFF7E2FEDDE90C70A9
:10092000002609F10105834647E001204B4600906F
:100930004FF000470AAA01A90CA8FFF7D1FEDDE994
:100940000DB00C995D46002610B909F101000D1893
:10095000B9EB050003D4C0F1FF3609F10105A5EBA1
:1009600009002BE0B9F1010F01DA4FF00109002075
:10097000B9F1110F0090484601DD112300E0034654
:100980000AAA01A90CA8FFF7ABFEDDE90C704D46E1
:1009900000268346207800070AD4AB4500DA5D467E
:1009A00001A8012D04DD411911F8011C302907D0DF
:1009B0004F4502DA17F1040F04DA012082460FE0F6
:1009C0006D1EEEE7002F02DCED1B3E4403E0781CB9
:1009D000A84200DD7D1CB81B00F1010A4FF0004762
:1009E0002078000703D4AA4501DB4FF0FF3A00212D
:1009F000B7F1004F0DF143088DF8431024D00220C9
:100A00002B23002F01DA7F422D230A21021EA0F1A1
:100A1000010000DC5FB197FBF1FC97FBF1F201FBF9
:100A20001C7C17460CF1300C08F801CDEEE7A8F15C
:100A3000010003702188090501D5452100E06521E9
:100A4000A0F1010800F8011C09980FA9A1EB080703
:100A5000FF1D00B10120411901EBEA70A169384482
:100A6000081A401EA0612078C00602D42046FFF775
:100A700023FC099828B1D4E901219047206A401C41
:100A800020622078C00622D52046FFF715FC1EE024
:100A9000002E04DBB34502DD01A8805D00E03020BC
:100AA000D4E901219047206A401C2062761CAAF1FB
:100AB00001005FEA000A0AD100F072F8C06801681C
:100AC000405CD4E901219047206A401C2062281E26
:100AD000A5F10105DCDC07E0D4E9012118F8010BE0
:100AE0009047206A401C2062381EA7F10107F3DC02
:100AF0002046FFF7F7FB032011B041E601694A1CCD
:100B000002610878704700B58FB0CDE9013100214E
:100B1000059105497944CDE9031011466846FFF770
:100B20002FFC0FB000BD0000E5FFFFFF0A6802F8D0
:100B3000010B0A6070470000074B70B50D467B44FF
:100B4000FFF7E1FF0446284600F02AF910B14FF004
:100B5000FF3070BD204670BD873700004FF00002A7
:100B60000429C0F0128010F0030C00F01F81CCF1BA
:100B7000040CBCF1020F18BF00F8012BA8BF20F82D
:100B8000022BA1EB0C0100F011B95FEAC17C24BF7C
:100B900000F8012B00F8012B48BF00F8012B70472B
:100BA000004870470006002000487047E00500201C
:100BB00030B5B0F10A024FEA900E71F100034EEA2F
:100BC000817EB0EB0E0061EB91014FEA101E4EEA00
:100BD000017E10EB0E0041EB11114FEA102E4EEA90
:100BE000016E10EB0E0041EB11214FEA104E4EEA60
:100BF000014E10EB0E0041EB1141401841F1000194
:100C00004FEAD00040EA41704FEAD10110EB800575
:100C10004FEA810444EA907444EB01046D1944EBFB
:100C20000404521BA3414FF0000348BF0A3200D511
:100C300030BD401C41F1000130BD00002DE9F04104
:100C40001F46044603260168072A01F4006004DBFE
:100C500008B116A505E016A503E008B115A500E04A
:100C600015A521F010002060A069C01EA0610FB181
:100C7000401EA0612046FFF71FFB4FB1D4E90121C0
:100C800038469047206A401C2062C01C206206E063
:100C9000206AFAE7D4E9012115F8010B9047761E86
:100CA000F8D22046FFF71EFBBDE8F0814E414E0012
:100CB0006E616E00494E4600696E66002DE9F04790
:100CC000814616468AB0354878440DC88DE80D0037
:100CD00032487844801C03AC0DC884E80D0041F60E
:100CE0009B300844372190FBF1F290FBF1F5A5F120
:100CF000800501FB12041B3C02D56442012000E088
:100D00000020DFF898A080460027FA44AAF1BE0A26
:100D10000EE0E0070AD03246684607EB47010123A0
:100D20000AEB810100F06BFB8DE8070064107F1C6B
:100D3000002CEED1194F7F44AE3F19E0E80715D0E3
:100D400007EB04100DF1180A90E80E008AE80E0077
:100D5000C068F04201D1981908903246012306A9D3
:100D600003A800F04CFB03AB83E807006D10641C84
:100D7000002DE3D14FF0010332466946B8F1000F70
:100D800003A802D000F026FB01E000F038FBC9E91F
:100D90000001C9F808200AB0BDE8F087F88E00000D
:100DA000007B00F0800070474FF0000200B5134652
:100DB00094469646203922BFA0E80C50A0E80C507B
:100DC000B1F12001BFF4F7AF090728BFA0E80C502C
:100DD00048BF0CC05DF804EB890028BF40F8042B25
:100DE00008BF704748BF20F8022B11F0804F18BF92
:100DF00000F8012B7047000000487047E005002014
:100E00007546FFF7F9FFAE4605006946534620F0E8
:100E10000700854618B020B5FFF7F6F9BDE8204079
:100E20004FF000064FF000074FF000084FF0000BA6
:100E300021F00701AC46ACE8C009ACE8C009ACE859
:100E4000C009ACE8C0098D46704710B50446AFF341
:100E500000802046BDE81040FFF7C1B94FF0013CCB
:100E600050F8042B51F8043B9A4221D1A2EB0C0319
:100E7000934313EACC1317D150F8042B51F8043BD9
:100E80009A4215D1A2EB0C03934313EACC130BD176
:100E900050F8042B51F8043B9A4209D1A2EB0C0301
:100EA000934313EACC13DBD04FF00000704700BF30
:100EB000D01A01BAB1FA81F101F0180122FA01F059
:100EC000CB40C1F12001DBB2C0B2C01A2CFA01F351
:100ED000D11A914311EAC311E6D170475FEA400C81
:100EE00008BF91F0000F4FEA8C234FEAC12243EA7A
:100EF00051514FEA1C5018BF00F5F0404FEA300046
:100F000018BF41F000415FEA6C5C00F02980BCF141
:100F1000FF3F08BF40F080407047130C06BF12042B
:100F20004FF0100C4FF0000C130E04BF12020CF126
:100F3000080C130F04BF12010CF1040C930F04BF33
:100F400092000CF1020CD30F04BF52000CF1010C03
:100F500011464FF00002A0F11F00A0EB0C007047FB
:100F600011F0004F08BF704731F000413FF4D5AF9A
:100F70000B0C06BF09044FF0100C4FF0000C0B0EC9
:100F800004BF09020CF1080C0B0F04BF09010CF19E
:100F9000040C8B0F04BF89000CF1020CCB0F04BFB3
:100FA00049000CF1010CCCF12003A0EB0C0022FA5B
:100FB00003F302FA0CF241EA030100F10100704769
:100FC00020F07F4C80EA030023F07F47ACEB07035F
:100FD00003F57C5300F0004003F1FF032DE9804945
:100FE0004FEA154B09B44FEA144325EA0B4E24EAA5
:100FF00003480FF2042606EB132749083E785FEA00
:10100000320203FB0667C7F5000707FB06F64FEA47
:1010100054374FEAD64606F1020607FB066CCCF1C0
:10102000005C4FEA1C472CEA074C07FB06F40CFB5C
:1010300006F504EB15464FEA961634BF00204FF034
:1010400000404FEAD13706FB07FC4FEA1C4C0CFB73
:101050000BF7D21B03FB0CF761EB07010CFB0EF740
:10106000B0EB074072EB17420CFB08F734BFA2EB62
:101070000742B2EB074261EB17414FEA0C444FEADB
:10108000910706FB07FC4FEA1C4C0CFB0BF7B0EB7F
:10109000C74072EB573203FB0CF734BFA2EBC742D9
:1010A000B2EBC74261EB57310CFB0EF7B0EBC70058
:1010B00072EB57720CFB08F734BFA2EBC702B2EB1E
:1010C000C70261EB5771039F4FEA816141EA9211B8
:1010D00004EBCC044FEAD1374FEA826206FB07FCEF
:1010E00042EA90124FEA80604FEA1C4C0CFB0BF76F
:1010F000D21B03FB0CF761EB07010CFB0EF7B0EB07
:10110000074072EB17420CFB08F734BFA2EB074213
:10111000B2EB074261EB17414FEA8C554FEA91075A
:1011200004EB9C2406FB07FC4FEA1C4C0CFB0BF762
:10113000B0EBC74072EB573203FB0CF734BFA2EBA6
:10114000C742B2EBC74261EB57310CFB0EF7B0EB75
:10115000C70072EB57720CFB08F734BFA2EBC70253
:10116000B2EBC70261EB577115EB4C254FEA816179
:1011700041EA92114FEA82624FEAD13742EA901275
:1011800006FB07FC44F100044FEA80604FEA1C4C68
:101190000CFB0BF7D21B03FB0CF761EB07010CFBFD
:1011A0000EF7B0EB074072EB17420CFB08F734BFA9
:1011B000A2EB0742B2EB074261EB174115EB1C159E
:1011C0004FEA813141EA92414FEA823242EA90424B
:1011D0004FEA80304FEA0C7644F1000448EA0343BA
:1011E0004EEA0B484FF0000EB2EB080C71EB030710
:1011F00024BF624639464EEB0E0E4FF0000B00182E
:10120000524149414BEB0B0BB2EB080C71EB03075E
:101210007BF1000B24BF624639464EEB0E0E4FF0B9
:10122000000B0018524149414BEB0B0BB2EB080C81
:1012300071EB03077BF1000B24BF624639464EEB8E
:101240000E0E51EA020718BF46F0010616EB0E76A5
:1012500055F1000254F1000103D5BDE88901BDE854
:101260000088BDE88901BDE80048B619524141EB4C
:101270000101A3F10103704780807F7E7D7C7B7A32
:101280007978777676757473727171706F6E6E6D32
:101290006C6C6B6A6A6968686766666564646363D8
:1012A00062616160605F5F5E5E5D5D5C5C5B5B5A5E
:1012B0005A595958585757565655555554545353CB
:1012C00052525251515050504F4F4F4E4E4D4D4D26
:1012D0004C4C4C4B4B4B4A4A4A4949494848484771
:1012E00047474746464645454544444444434343AF
:1012F0004342424242414141002B9C4630D4770058
:101300002BD01CB54FEA370703B44FF010004FF055
:101310001001BAF1000F06D0BCF1000FDCBF40F0A5
:10132000080040F008014FF000000FBCBDE810407D
:101330000BF1010BBBF1010F08BF5FEA170722BFDA
:1013400012F1010211F101014FF0004143F10003DC
:1013500000F0004043EA00007047F9D35708D0E797
:1013600046EA064613F1400F4FEA16461FDD13F119
:10137000200FDFBF16430A46002120335B42BED058
:10138000C3F1200746EA064602FA07F74FEA164677
:1013900046EA0706C3F1200722FA03F201FA07F72B
:1013A00021FA03F14FF0000342EA0702A7E746EAF9
:1013B000020646EA06464FEA164646EA0106BCBF62
:1013C00046EA0646360C4FF000034FF000024FF09D
:1013D000000194E72DE9804C9A46934670B491E859
:1013E000380007C831EA400C48BF34EA430C03D543
:1013F000FFF7E6FDFFF780FFF0BCBDE8008C2DE9AC
:10140000804C9A46934670B491E8380007C810F0B3
:10141000804F08BF13F0804F03D100F005F8FFF7AD
:101420006BFFF0BCBDE8008C20F07F4780EA030032
:1014300023F07F4C07EB0C03A3F57C5300F0004036
:10144000A3F1FE0392F0000F00F0B38095F0000FBF
:1014500000F077802DE901494FEA11404FEA144628
:1014600021EA004800FB06FC24EA064708FB06F6D2
:1014700007FB08F800FB07F718EB06484CEB164C87
:101480004FEA124B18EB07484FEA15464CEB174052
:1014900022EA0B4E0BFB06FC25EA06470EFB06F67E
:1014A00007FB0EFE0BFB07F71EEB064E4CEB164C34
:1014B0004FF000061EEB074E4CEB174B18EB0B08DA
:1014C00040F1000018EB0E0B58EB000840F1000053
:1014D0008F1A4FF000013CBFC943661B14BFB5EB28
:1014E000040C00213CBFC943F61B4FEA17444EEAE7
:1014F0008E0E27EA04454FEA1C4704FB07622CEADC
:10150000074C05FB07F70CFB05F604FB0CFC16EB80
:10151000074642EB174216EB0C4642EB1C421BEB14
:10152000060658EB0202414146EA9E0601D5BDE897
:101530000189B619524141EB0101A3F10103BDE854
:1015400001894FEA14454FEA114724EA054621EA8A
:10155000074C05FB07F406FB07F70CFB06F105FB40
:101560000CFC11EB074144EB17444FEA124711EB17
:101570000C4144EB1C4422EA074C05FB07F206FB36
:1015800007F70CFB06F605FB0CFC16EB074642EBD7
:10159000174216EB0C4642EB1C456A1854F1000149
:1015A00048BF7047B619524141EB0101A3F1010355
:1015B000704795F0000F37D04FEA11424FEA1447B9
:1015C00021EA024624EA074C02FB07F106FB07F773
:1015D0000CFB06F402FB0CFC14EB074441EB174137
:1015E0004FEA154714EB0C4441EB1C4125EA074C2C
:1015F00002FB07F506FB07F70CFB06F602FB0CFCEB
:1016000016EB074645EB174516EB0C4645EB1C421F
:10161000121951F1000148BF7047B619524141EB10
:101620000101A3F1010370474FEA14454FEA114746
:1016300024EA054621EA074C05FB07F106FB07F7FC
:101640000CFB06F24FF0000605FB0CFC12EB074208
:1016500041EB174112EB0C4251EB1C4148BF704764
:10166000921841EB0101A3F10103704710B503F09B
:10167000CBFB08B1012010BD782004F079FA08B145
:101680000220F8E7782003F0ADFA08B10320F2E772
:10169000642004F019FA08B10420ECE702F0B0F974
:1016A00008B10520E7E7114803F08CF9044602F081
:1016B00001FC08B10620DEE740F2731002F048F8A2
:1016C00008B10720D7E7642002F024FB08B1082006
:1016D000D1E704F00AFB08B10920CCE7012004F0AF
:1016E000D3F808B10A20C6E70020C4E72271000839
:1016F0002DE9F04F93B04FF07E54002500264FF0B7
:10170000000910A811A912AB0CAACDE900107F495D
:10171000881F02F081F918B1002013B0BDE8F08FE6
:10172000BDF8440000F4807000287CD00C9805F0CF
:10173000ABFA07464FF09D4105F074F904460D9849
:1017400005F0A2FA07464FF09D4105F06BF90546FA
:101750000E9805F099FA07464FF09D4105F062F9A1
:1017600006460F9805F090FA07464FF09D4105F0A8
:1017700059F9814621464FF0804005F0E5FA31469F
:10178000069005F0E1FA294608904FF0404005F038
:10179000DBFA4946069005F0D7FA0790089905F05C
:1017A000D3F8099005F0A4F8CDE90A0101F02CFC6A
:1017B00082464FF06632564B04F0C0FD074604F0F7
:1017C0006BFB5249891F086131464FF0804005F09C
:1017D000BBFA3146039005F0B7FA824629464FF02E
:1017E000404005F0B1FA2946039005F0ADFA834672
:1017F000514605F0A7FB80464FF07E5105F0A4F856
:10180000074605F075F8CDE9060121464FF0804006
:1018100005F09AFA8346294605F096FA8246314643
:101820004FF0804000E06EE005F08EFA83464946B6
:1018300005F08AFA0746514605F086F8804605F01D
:1018400057F8CDE90401DDE9062301F025FE4FF04C
:1018500066322F4BCDE9080104F070FDCDE90A0195
:1018600004F01AFB2949891F48614946484605F09A
:101870006BFA31460590304605F066FA294603902A
:10188000284605F061FA21460290204605F05CFAF0
:101890000190029905F058F88346039905F052FB30
:1018A0000490059905F04EFB824605F021F8CDE93C
:1018B00006014946204605F047FA3146059028467C
:1018C00005F042FA0490059905F03EF883464FF082
:1018D000804105F039FA824605F00AF80746DDE94D
:1018E000062301F0D9FD4FF06632094BCDE908011E
:1018F00004F024FDCDE90A0104F0CEFA0349891F62
:101900008861012009E7002007E700003A01002074
:1019100066A64C4010B56FF0040001F0B5F80A4817
:1019200000680A49B0FBF1F00949087008460078E0
:1019300000EB4001C1EBC0104FF6FF7101EAC0009F
:101940000449088010BD00005800002000127A00F1
:10195000000000200200002008B501210D2000F049
:1019600095FF4FF40070ADF8000003208DF80200E1
:1019700018208DF803006946194800F035F84FF437
:101980008060ADF8000004208DF80300694614481B
:1019900000F02AF82020ADF8000003208DF80200A6
:1019A00010208DF8030069460E4800F01DF8202134
:1019B0000C4800F0AFF84FF44060ADF80000032091
:1019C0008DF8020010208DF803006946054800F0EC
:1019D0000BF84FF44061034800F09CF808BD00008C
:1019E00000080140000C01402DE9F04102460025AD
:1019F0000026002000230024002791F803C00CF0EB
:101A00000F0591F803C00CF0100CBCF1000F03D0CF
:101A100091F802C04CEA050591F800C0BCF1000F36
:101A200031D0146800202BE04FF0010C0CFA00F3C9
:101A3000B1F800C00CEA03069E4220D183004FF0AB
:101A40000F0C0CFA03F7BC4305FA03FC4CEA040440
:101A500091F803C0BCF1280F06D14FF0010C0CFA2D
:101A600000FCC2F814C00AE091F803C0BCF1480FB2
:101A700005D14FF0010C0CFA00FCC2F810C0401C5C
:101A80000828D1D31460B1F800C0BCF1FF0F34DDD9
:101A9000546800202EE000F1080C4FF0010808FA0D
:101AA0000CF3B1F800C00CEA03069E4221D183007A
:101AB0004FF00F0C0CFA03F7BC4305FA03FC4CEA99
:101AC000040491F803C0BCF1280F05D100F1080C03
:101AD00008FA0CF8C2F8148091F803C0BCF1480F62
:101AE00007D100F1080C4FF0010808FA0CF8C2F811
:101AF0001080401C0828CED35460BDE8F081024617
:101B0000002093680B400BB1012000E000207047DB
:101B1000416170470161704710B5C26821EA020354
:101B200002EA010443EA0443036110BD0AB1016102
:101B300000E04161704710B504461021204600F0D6
:101B40002FF961896068FFF7E5FF21892068FFF7B9
:101B5000E1FF012001F0B8FD61896068FFF7D8FF5F
:101B6000012001F0B1FD21892068FFF7D1FF10BDF0
:101B700010B504461021204600F012F92189206892
:101B8000FFF7C6FF61896068FFF7C2FF012001F01F
:101B90009BFD21892068FFF7BDFF61896068FFF721
:101BA000B9FF012001F090FD21892068FFF7B0FF07
:101BB00010BD00002DE9F04106460C4615460027F1
:101BC0003046FFF7B8FF04F0FE01304600F0F8F8A9
:101BD000304600F01FF9012800D022E029463046A7
:101BE00000F0EEF8304600F015F9012800D018E0BA
:101BF0003046FFF7A0FF44F00101304600F0E0F866
:101C0000304600F007F9012800D00AE001213046F3
:101C100000F07AF807463046FFF7AAFF3846BDE8DD
:101C2000F0813046FFF7A4FF02A0FEF725FB00205D
:101C3000F5E7000049494320526561642074696DED
:101C4000656F7574210D0A002DE9F04107460D46B8
:101C500016461C46DDF818803846FFF76CFF05F085
:101C6000FE01384600F0ACF8384600F0D3F8012801
:101C700000D02FE03146384600F0A2F8384600F098
:101C8000C9F8012800D025E03846FFF754FF45F099
:101C90000101384600F094F8384600F0BBF80128FE
:101CA00000D017E005E00021384600F02DF804F8D8
:101CB000010BA8F10100C0B2B0F10008F3D101217D
:101CC000384600F021F820703846FFF751FF012018
:101CD000BDE8F0813846FFF74BFF02A0FEF7CCFAD3
:101CE0000020F5E74949432052656164205365713E
:101CF00075656E7469616C20446174612054696D0E
:101D0000656F7574210D0A002DE9F04104460F46F8
:101D100000254821204600F043F8002618E02189DC
:101D20002068FFF7F5FE012001F0CEFC2189206834
:101D3000FFF7F0FE6806050E61896068FFF7DFFEB9
:101D400008B1681CC5B2012001F0BEFC701CC6B20F
:101D5000082EE4DB3946204600F003F82846BDE8AB
:101D6000F08170B504460D4621892068FFF7D0FE4A
:101D70001021204600F014F861892A466068FFF7B8
:101D8000D5FE012001F0A0FC21892068FFF7C2FEEA
:101D9000012001F099FC21892068FFF7B9FE70BD90
:101DA00038B504460D466089ADF8000003208DF873
:101DB00002008DF8035069466068FFF715FE38BDD4
:101DC00070B504460E4610212046FFF7E9FF218931
:101DD0002068FFF79DFE002519E0C5F1070346FACC
:101DE00003F303F0010261896068FFF79FFE218918
:101DF0002068FFF78FFE012001F066FC2189206832
:101E0000FFF786FE012001F05FFC681CC5B2082DBB
:101E1000E3DB70BD70B50446002548212046FFF77E
:101E2000BFFF61896068FFF775FE012001F04CFC7F
:101E300021892068FFF76EFE012001F045FC09E0D2
:101E40002846691CCDB2FA2804DD2046FFF790FE33
:101E5000002070BD61896068FFF751FE0028EFD156
:101E600021892068FFF754FE0120F2E72DE9F041B7
:101E700007460C4615461E463846FFF75CFE04F042
:101E8000FE013846FFF79CFF3846FFF7C3FF0128E5
:101E900000D019E029463846FFF792FF3846FFF791
:101EA000B9FF012800D00FE031463846FFF788FF20
:101EB0003846FFF7AFFF012800D005E03846FFF7AE
:101EC00057FE0120BDE8F0813846FFF751FE02A021
:101ED000FEF7D2F90020F5E74949432057726974AB
:101EE000652074696D656F7574210D0A000000002E
:101EF0002DE9F04107460D4616461C46DDF81880D0
:101F00003846FFF718FE05F0FE013846FFF758FF88
:101F10003846FFF77FFF012800D025E031463846DC
:101F2000FFF74EFF3846FFF775FF012800D01BE092
:101F30000AE014F8011B3846FFF742FF3846FFF766
:101F400069FF012800D00FE0B8F10000A8F10101FD
:101F500001F0FF08EDD13846FFF70AFE0A2001F034
:101F60008DFB0120BDE8F0813846FFF701FE02A09D
:101F7000FEF782F90020F5E7494943205061676583
:101F80002057726974652054696D656F7574210DF1
:101F90000A00000038B5002400F08EF9FFF7BAFC03
:101FA000FFF7DAFC4FF4E13000F0B2FD00F05CFA2C
:101FB0000120102314A200210090042000F006FC50
:101FC0000120102314A219460090184600F0FEFBD1
:101FD00020237C220021042000F0FEFA00F038F8D3
:101FE0000BE0214610A0FEF747F94FF4FA7001F01C
:101FF00045FB20211548FFF78FFDFFF737FB041E37
:10200000EFD100F0AFF938BD496E697469616C6950
:102010007A696E672E2E2E00506C6561736520778D
:102020006169742E00000000444D5020496E6974AF
:10203000204572726F722C206572726F7220636F0E
:1020400064653A2025642E0D0A000000000C014052
:1020500010B580236B22D0212348FFF707FF6420AF
:1020600001F00CFB00236B22D0211F48FFF7FEFE7E
:10207000032000F0C5F8002000F094F8322000F0B2
:10208000CBF800233822D0211748FFF7EFFE0023BA
:102090006A22D0211448FFF7E9FE00232322D02131
:1020A0001148FFF7E3FE80233722D0210E48FFF7C7
:1020B000DDFE7522D0210C48FFF77CFD682810D189
:1020C00001236B22D0210848FFF7D0FE00236C22A9
:1020D000D0210548FFF7CAFE322000F09DF801200C
:1020E00010BD0020FCE70000080000200EB506200F
:1020F00001AB3B22D02100901148FFF7A5FDE0B1D4
:102100009DF805009DF8041040EA012000B20D4939
:10211000C8809DF807009DF8061040EA012001B232
:10212000084801819DF809009DF8081040EA012047
:1021300001B20448418101200EBD0020FCE70000EF
:1021400008000020340100200EB5062001AB432218
:10215000D02100901148FFF777FDE0B19DF8050010
:102160009DF8041040EA012000B20D4908809DF856
:1021700007009DF8061040EA012000B20849488097
:102180009DF809009DF8081040EA012000B20449BA
:10219000888001200EBD0020FCE700000800002020
:1021A0003401002010B50446E006030E1C22D021A5
:1021B0000148FFF75BFE10BD0800002070B5044623
:1021C0000025BC2C01DB012510E0622C01DB02257F
:1021D0000CE02A2C01DB032508E0142C01DB04258C
:1021E00004E00A2C01DB052500E006252B461A2217
:1021F000D0210248FFF73AFE70BD00000800002021
:1022000010B50446E006030E1B22D0210148FFF75B
:102210002DFE10BD0800002070B50446B4F57A7F8D
:1022200001DD4FF47A74042C00DA04244FF47A7040
:1022300094FBF0F0401EC5B22B461922D021034872
:10224000FFF714FE6010FFF7B9FF70BD0800002013
:102250002DE9FC47022001AB4122D021009011481A
:10226000FFF7F2FCE0B19DF805009DF8041040EA8C
:1022700001200FFA80FA504604F048F80646002282
:10228000094B03F0EBFE0446084A094B03F036FE07
:10229000804603F001FE0749C8600120BDE8FC87C5
:1022A0000020FBE70800002000407540A4703D0AB4
:1022B000D74342403401002008B54FF4A06000F03D
:1022C00047F825208DF8000003208DF801008DF8D7
:1022D000020001208DF80300684600F001F808BDF7
:1022E00070B5002100230F22C47804B3154C246874
:1022F00004F4E064C4F5E064210AC1F10403CA40B7
:10230000447804FA03F184781440214309010E4C07
:102310000678A155047804F01F050124AC40057827
:102320006D11AD0005F1E025C5F8004109E0047824
:1023300004F01F050124AC40044D0678761145F8E1
:10234000264070BD0CED00E000E400E080E100E01C
:1023500002490143024A1160704700000000FA057B
:102360000CED00E070B500240EE0002508E0002030
:1023700004EBC401074A02EB01114855681CC5B2C1
:10238000802DF4DB601CC4B2082CEEDB00F042FAB6
:1023900070BD00006001002010B5044664B1C02388
:1023A000002278210B48FFF761FDA023002278214D
:1023B0000848FFF75BFD0BE0C823002278210548A1
:1023C000FFF754FDA123002278210248FFF74EFDBC
:1023D00010BD000008000020F0B514460B46CE17D3
:1023E00001EB5676C6F3C702CE1701EB5676F61010
:1023F000A1EBC6070126BE40F5B26CB102EBC203E9
:10240000184E06EB03131B5C2B4302EBC206154F61
:1024100007EB0616335424E002EBC203114E06EB21
:1024200003131B5CDB4302EBC2060E4F07EB0616E1
:10243000335402EBC2033E4606EB03131B5C2B43F3
:1024400002EBC20607EB0616335402EBC2033E460C
:1024500006EB03131B5CDB4302EBC20607EB06161D
:102460003354F0BD6001002010B5AE230022782166
:102470005848FFF7FBFC00231A4678215548FFF720
:10248000F5FC1023002278215248FFF7EFFC40238F
:10249000002278214F48FFF7E9FC812300227821B0
:1024A0004C48FFF7E3FCCF23002278214948FFF78F
:1024B000DDFCA123002278214648FFF7D7FCC82382
:1024C000002278214348FFF7D1FCA623002278217F
:1024D0004048FFF7CBFCA823002278213D48FFF7B6
:1024E000C5FC3F23002278213A48FFF7BFFCD323E5
:1024F000002278213748FFF7B9FC00231A467821DB
:102500003448FFF7B3FCD523002278213148FFF788
:10251000ADFC8023002278212E48FFF7A7FCD923A9
:10252000002278212B48FFF7A1FCF123002278211B
:102530002848FFF79BFCDA23002278212548FFF783
:1025400095FC1223002278212248FFF78FFCDB2321
:10255000002278211F48FFF789FC402300227821C0
:102560001C48FFF783FC2023002278211948FFF73D
:102570007DFC0223002278211648FFF777FC8D238B
:10258000002278211348FFF771FC142300227821E0
:102590001048FFF76BFCA423002278210D48FFF7B9
:1025A00065FCA623002278210A48FFF75FFCFFF7AD
:1025B000D9FEAF23002278210648FFF757FCA62357
:1025C000002278210348FFF751FC0020FFF7E4FECA
:1025D00010BD0000080000202DE9F84305460E4616
:1025E00091461C463046F11706EB5171C1F3C70105
:1025F0000E462246E31704EB5373DB10A4EBC30330
:1026000033B12146E31704EB5373DB105B1C04E08A
:102610002046C31700EB5373DB10DCB2374630E0C3
:1026200007F1B000C3B2002278211848FFF71EFC62
:10263000A846E81705EB10700011A5EB0010C3B217
:10264000002278211148FFF711FCE81705EB107004
:1026500000111030C3B2002278210C48FFF706FCAD
:10266000A9EB0500C0B2009007EBC700084901EBD9
:1026700000104319402278210448FFF739FC781CE8
:10268000C7B2A742CCDBBDE8F883000008000020F9
:10269000600100202DE9FC4F0746884616461C467F
:1026A0000197CDF80080082C01D106231DE02146BA
:1026B000E31704EB5373DB1020464FEAE47C04EB92
:1026C0005C7C4FEAEC0CA4EBCC0CBCF1000F02D00C
:1026D0004FF0010C01E04FF0000C6344224604EB84
:1026E000D27C4FEA6C0C03FB0CF303F0FF0BA6F15A
:1026F0002000C6B200255CE0082C06D00C2C0CD0C3
:10270000102C12D0182C1ED115E006EB46002B49D8
:1027100001EB400010F805A017E006EB4600284941
:1027200001EB800010F805A00FE0264800EB061032
:1027300010F805A009E006EBC600234901EB800074
:1027400010F805A001E0BDE8FC8F00BF4FF00009C4
:1027500018E00AF0010008B10B9804E00B9808B9E2
:10276000012000E00020024641463846FFF734FED3
:102770004FEA6A0A08F1010000F0FF0809F10100C0
:1027800000F0FF09B9F1080FE3DB781CC7B2082C91
:102790000BD004EBD4714A100199791A8A4204D102
:1027A000019F00980830C0B20090DDF80080681CDE
:1027B000C5B25D45A0DB00BFC5E70000727D000823
:1027C0009A7F00080E840008FE8900082DE9F84170
:1027D00006460F4614461D46DDF81C8012E0CDF873
:1027E000008014F8012B2B4639463046FFF752FF84
:1027F000082D01D1062103E0284600EBD0714910D5
:102800003144CEB22078202802DB20787E28E6DD15
:10281000BDE8F88138B5002421E004F1B000C3B26E
:10282000002278210F48FFF721FB00231A46782168
:102830000C48FFF71BFB1023002278210948FFF703
:1028400015FB8020009004EBC400074901EB001346
:10285000402278210348FFF74BFB601CC4B2082CD0
:10286000DBDB38BD080000206001002029B1064AEA
:1028700012690243044B1A6104E0034A126982435D
:10288000014B1A61704700000010024029B1064A4E
:1028900092690243044B9A6104E0034A92698243BD
:1028A000014B9A61704700000010024029B1064AAE
:1028B000D2680243044BDA6004E0034AD2688243E0
:1028C000014BDA60704700000010024030B5002173
:1028D0000022002400232D4D6D6805F00C0121B16C
:1028E000042905D0082923D105E0294D056022E0FF
:1028F000274D05601FE0254D6D6805F47012234DCE
:102900006D6805F48034022505EB92421CB9214D17
:10291000554305600BE01D4D6D6805F400351DB194
:102920001C4D5543056002E0194D5543056002E01A
:10293000174D056000BF00BF144D6D6805F0F00134
:102940000909154D6B5C0568DD4045600F4D6D68EC
:1029500005F4E061090A104D6B5C4568DD40856057
:102960000A4D6D6805F46051C90A0B4D6B5C4568F2
:10297000DD40C560054D6D6805F44041890B074D8C
:102980006B5CC568B5FBF3F5056130BD0010024016
:1029900000127A0000093D0044000020540000208D
:1029A00010B500F001F810BD0CB5002001900090AA
:1029B0003348006840F480303149086000BF304837
:1029C000006800F4003000900198401C01900098CD
:1029D00018B90198B0F5A06FF1D12948006800F44A
:1029E000003010B10120009001E00020009000981C
:1029F000012843D12348006840F0100021490860B5
:102A00000846006820F0070008600846006840F0AB
:102A1000020008601A484068194948600846406842
:102A200048600846406840F4806048600846406856
:102A300020F47C1048600846406840F4E810486084
:102A40000846006840F08070086000BF0C480068CD
:102A500000F000700028F9D00948406820F0030019
:102A6000074948600846406840F00200486000BFDF
:102A70000348406800F00C000828F9D10CBD0000A4
:102A80000010024000200240042808D14FF0E0214D
:102A9000096941F004014FF0E022116107E04FF0B5
:102AA000E021096921F004014FF0E0221161704733
:102AB00010B51348006840F001001149086008464D
:102AC0004068104908400E494860084600680E49B1
:102AD00008400B4908600846006820F48020086020
:102AE0000846406820F4FE0048604FF41F008860EC
:102AF000FFF756FF4FF000600449086010BD00006A
:102B0000001002400000FFF8FFFFF6FE08ED00E0B5
:102B10001FB5044601218803FFF7B8FE0F4800F0F7
:102B200079F800940020ADF80400ADF80600ADF887
:102B30000800ADF80C000C20ADF80A006946074803
:102B400000F012F9012240F22551044800F0E7F8A4
:102B50000121024800F051F81FBD0000003801407B
:102B600010B540F225511D4800F0AFF818B31B48CE
:102B700000F066F9C4B21A48008800F40040012849
:102B80002BD01748008800F4804060B10A2C03D095
:102B900000201349088020E01148008840F40040DC
:102BA0000F49088019E00D2C06D10D48008840F42B
:102BB00080400B49088010E009480088C0F30D00F0
:102BC00008490C5406480088401C054908800846FE
:102BD0000088C72801DD0020088010BD00380140B2
:102BE000040000206C00002001F40072B2F5007FA8
:102BF00000D100BFCA430280704721B1828942F4EC
:102C00000052828104E082894DF6FF731A4082816E
:102C10007047000010B504462048844209D10121C4
:102C20008803FFF743FE00214FF48040FFF73EFE8C
:102C300032E01B48844209D101214804FFF716FE07
:102C400000214FF40030FFF711FE25E015488442C3
:102C500009D101218804FFF709FE00214FF48020EB
:102C6000FFF704FE18E01048844209D10121C8048E
:102C7000FFF7FCFD00214FF40020FFF7F7FD0BE00C
:102C80000A48844208D101210805FFF7EFFD002121
:102C90004FF48010FFF7EAFD10BD0000003801403E
:102CA0000044004000480040004C004000500040FC
:102CB00002460020B1F5007F00D100BF13880B4011
:102CC0000BB1012000E00020704770B502460024DF
:102CD00000230025002040F66A16B14200D100BF53
:102CE000C1F3421501F01F03012606FA03F3012D7B
:102CF00002D19689334006E0022D02D1168A334074
:102D000001E0968A33400C12012606FA04F4168874
:102D1000344013B10CB1012000E0002070BDF0B5CB
:102D20000346002400260025002040F66A17B94219
:102D300000D100BF1846C1F3421401F01F0601275D
:102D400007FA06F5012C01D10C3004E0022C01D168
:102D5000103000E014301AB107682F43076002E01A
:102D60000768AF430760F0BD2DE9F04786B0054620
:102D70000E460024A24600BFA1460027B08900B13C
:102D800000BF2F462C8A4CF6FF700440F0880443A5
:102D90002C82AC894EF6F3100440B0883189084388
:102DA000718908430443AC81AC8A4FF6FF4004406C
:102DB000B0890443AC8201A8FFF788FD1F48874211
:102DC00002D1DDF810A001E0DDF80CA0A88900F424
:102DD000004040B10AEBCA0000EB0A10316849001C
:102DE000B0FBF1F807E00AEBCA0000EB0A1031680B
:102DF0008900B0FBF1F86420B8FBF0F00401200971
:102E0000642101FB1089A88900F4004040B1322000
:102E100000EBC900B0FBF1F000F00700044308E04C
:102E2000322000EB09106421B0FBF1F000F00F003C
:102E300004432C8106B0BDE8F08700000038014053
:102E400001468888C0F308007047C1F308028280F9
:102E50007047490050EAC12018BF04204A0D18BF2E
:102E600040F0010040F2FF72B2EB515F08BF40F04A
:102E70000200012808BF052070472DE9F0414F1ED0
:102E800000EBC7010446D1E9000115461E4637F0A4
:102E900006020DD02A46334603F050FA7F1E04EB9B
:102EA000C703D3E9002303F029F837F00602F1D174
:102EB000022F25D0042F13D0062F18BFBDE8F081B4
:102EC0002A46334603F03AFAD4E90A2303F016F807
:102ED0002A46334603F032FAD4E9082303F00EF809
:102EE0002A46334603F02AFAD4E9062303F006F80B
:102EF0002A46334603F022FAD4E9042302F0FEFF07
:102F00002A46334603F01AFAD4E9022302F0F6FF08
:102F10002A46334603F012FAD4E90023BDE8F04113
:102F200002F0ECBF012204F0B6B802F0E7BF0022C5
:102F300013461046114603F091B80000024A0020E3
:102F4000110704F0A8B8000001FDFFFF30380A287F
:102F500001D2012070470020704700BF7047000079
:102F60002DE9FE4F06460F460025684601F0C2F9DE
:102F7000002442E056F8240057F82410A0EB010A80
:102F8000BAF1000F01DB514601E0CAF10001084629
:102F900003F07AFE83464FF08F4103F043FD8046F5
:102FA0005DF82400002103F0FFFD16D05DF8241029
:102FB000404603F037FD82464FF07E5103F0C2FFDA
:102FC000814629F0004A0F48416A504603F088FFC5
:102FD00012D20120A04005430EE00A48C1694046D4
:102FE00003F07EFE05D30748016A404603F078FFF0
:102FF00002D20120A0400543641C032CBADB284602
:10300000BDE8FE8F547100082DE9F04D8D4F21F081
:10301000004A86B005460C46BA452ADBAAEB0700F3
:1030200028430AD08848824501DC1AD1CDB106B0C8
:103030002846BDE8F04DFFF775BF844A844B28460B
:1030400003F07CF907460E46824A834B2846214608
:1030500003F074F906B03A463346BDE8F04D02F08D
:103060004DBF0120FDF7DCFA06B0BDE8F04DFFF7DB
:103070005EBF7A48824542DABAF1795F0BDA2846B8
:10308000FFF7E7FE042808BFFFF758FF284606B001
:103090002146BDE8F08D2A460B46104603F04EF956
:1030A000834602466E480E460B4606217844FFF7DB
:1030B000E4FE5A46334603F041F9804669488A46A1
:1030C0005A46334604217844FFF7D7FE5A46334622
:1030D00003F034F900223B4602F010FF02460B4693
:1030E0004046514602F0BAFF2A46234603F026F92D
:1030F00006B02A462346BDE8F04D02F0FFBE284642
:1031000024F0004100223D463B4603F015FA4FF003
:10311000FF3203F0C0FF0646024653480F460B46F7
:1031200006217844FFF7A9FE32463B4603F006F934
:10313000CDE900014D4832463B4604217844FFF773
:103140009CFE32463B4603F0F9F800222B4602F083
:10315000D5FE834602913046394602F061FE804634
:1031600043480D46504517DCDDE900015A46029BF5
:1031700002F074FF42462B4603F0E0F842462B462D
:1031800002F0BCFE012203F086FF304A304B03F010
:10319000C5FA304A304B4CE04FF0000A52460B461D
:1031A000404602F0ABFECDE9031052462B461046D6
:1031B000194603F0C3F832463B4603F0BDF9DDE99A
:1031C000033202F04BFF06460F46DDE900015A4686
:1031D000029B02F043FF83460091012230463946AC
:1031E00003F059FF194A1A4B03F0A6F906460F4699
:1031F00001224046294603F04EFF5A46009B03F049
:103200009DF832463B4603F089FA06460F460122F6
:103210005046294603F03FFF0E4DDFF858802A46FE
:10322000434603F089F932463B4603F085F92A46C6
:10323000434603F081F9002CD8BF81F0004106B06D
:10324000BDE8F08D0000F03F0000F07F075C143314
:1032500026A6913C182D4454FB21F93F0000E03F85
:10326000A8690000BE6900003269000048690000DA
:103270003333EF3FFB21E93F2DE9F84F04460D467C
:1032800021F0004000917349814211DC724988426B
:1032900001DC06D12CB120462946BDE8F84FFFF7E6
:1032A00041BE6E48002DCCBF6D496E49BDE8F88F18
:1032B0006D49814211DD6D498142D8BF4FF0FF3623
:1032C0006DDD20462946FFF7C4FD042808BFFFF73F
:1032D00035FE20462946BDE8F88F6549654F25F043
:1032E0000045814233DD6449814219DD00263246C2
:1032F0004FF080432046294602F000FE80468A4671
:1033000001222046294603F0C6FE00223B4603F078
:1033100005FA4246534602F0A1FE04460D463EE041
:1033200001260022BA463B462046294602F0E6FD29
:1033300080460F46002253462046294603F0EEF908
:1033400042463B4602F08AFE04460D4627E04B49C2
:1033500081421BDDDFF828A10226002253462046C9
:10336000294602F0EBFF00223B4602F0C7FD8046F3
:103370000F46002253462046294603F0CFF9424625
:103380003B4602F06BFE04460D4608E0032622464B
:103390002B4600203B4902F061FE04460D462246C2
:1033A0002B461046194602F0C9FF8B46824602465C
:1033B0000B4602F0C3FF07460246334888460B46D9
:1033C00006217844FFF759FD52465B4602F0B6FFEE
:1033D00082462E488B463A46434605217844FFF7FD
:1033E0004CFD3A46434602F0A9FF02460B46002E2A
:1033F000504659460CDA02F081FD22462B4602F077
:103400009DFF01B022462B46BDE8F04F03F094B873
:1034100002F074FD22462B4602F090FF1C4A7A44CB
:1034200002EBC603D3E9002303F078F922462B46CA
:1034300003F074F9174A7A4402EBC603D3E9002378
:1034400003F07AF8009A002AB8BF81F00041BDE885
:10345000F88F0000000010440000F07F182D445445
:10346000FB21F93FFB21F9BF0000DC3F0000203EBB
:103470000000F33F0000F03F0000E63F0080034003
:103480000000F83F0000F0BF4A6700000867000036
:10349000A66600006E6600002DE9F04D9446CCF162
:1034A000000423F000464CEA0404524F46EAD47468
:1034B0009A46884621F00042BC4206D8454240EA7E
:1034C000050442EAD474BC4204D9BDE8F04D62461A
:1034D000FFF72BBDAAF14055A5F17F6555EA0C0415
:1034E0000BD0022404EAAA74434DDFF810E144EA49
:1034F000D87452EA000B04D00CE0BDE8F04DFFF7A1
:10350000BBBE002C14BF012CBDE8F08D022C30D0C6
:10351000032C32D056EA0C0B0AD0BE4220D1BA425C
:1035200009D126F0804622F080423346114617E04A
:1035300000291ADB25E0DFF8C8B0FB44002C04BFEB
:10354000DBE90001BDE8F08D012C02BFDBE90001E1
:1035500081F00041BDE8F08D022C0AD0032C0CD084
:10356000BA4212D1B8F1000F0BDA23482549BDE861
:10357000F08D28462449BDE8F08D28467146BDE807
:10358000F08D1D482149BDE8F08D921B12153C2A93
:10359000C4BF19481D490EDCBAF1000FBEBF12F1BD
:1035A0003C0F0020014606DB624602F057FD21F089
:1035B0000041FFF761FE002C08BFBDE8F08D012C33
:1035C00004BF81F00041BDE8F08D114A114B022C7F
:1035D00007D003F0A3F82A46BDE8F04D0A4B03F0EC
:1035E0009DB803F09BF82A46BDE8F04D064B02F06B
:1035F000A3BF00000000F07F182D4454FB2109C038
:1036000002660000FB21F9BFFB210940FB21F93FC5
:10361000075C143326A6A13C2DE9F0410446E0786E
:1036200000F0C006E07800F03F05607800F001008F
:1036300098B1EF102846E91705EB5171C910A5EBB9
:10364000C101491C01F0FF080B48006820B10A487D
:10365000414602683846904700BF607800F0080095
:1036600030B10548406818B1B011034A5168884725
:103670000020BDE8F0810000500100200146114A01
:1036800012884A434FF0E0235A6100229A611A4699
:10369000126942F001021A6100BF4FF0E022106986
:1036A00000F001021AB100F48032002AF5D04FF088
:1036B000E022126922F001024FF0E0231A61002299
:1036C0009A617047020000200146114A12784A436D
:1036D0004FF0E0235A6100229A611A46126942F0C3
:1036E00001021A6100BF4FF0E022106900F00102F0
:1036F0001AB100F48032002AF5D04FF0E0221269AE
:1037000022F001024FF0E0231A6100229A61704713
:103710000000002038B5044664B120208DF8000078
:1037200028208DF8010030208DF8020038208DF817
:10373000030004E0A32204216846FCF7E9FE6A4680
:10374000042140F69E2002F085FA01F0FDFD38BD0F
:103750003EB5044602208DF80000CA208DF8010015
:10376000E3208DF8020009208DF803006A46042149
:10377000682002F06FFAA3208DF8000004F04000EA
:1037800048B1C0208DF80100C8208DF80200C22089
:103790008DF8030006E0A3208DF801008DF80200EB
:1037A0008DF8030004F4C07048B1C4208DF8040003
:1037B000CC208DF80500C6208DF8060006E0A32079
:1037C0008DF804008DF805008DF80600A3208DF813
:1037D00007008DF808008DF809006A460A2140F6B6
:1037E000A72002F037FA04F0030018B120208DF86A
:1037F000000002E0D8208DF800006A46012140F662
:10380000B62002F027FA04F0200018B1012000F0E1
:10381000ADF802E0002000F0A9F804F4C07008B38D
:1038200004F4807060B1B2208DF800008B208DF818
:103830000100B6208DF802009B208DF803000BE0FC
:10384000B0208DF8000080208DF80100B4208DF8A4
:10385000020090208DF803006A46042140F6A22061
:1038600002F0F8F904F0010020B3F8208DF8000010
:103870006A4601214FF40B6002F0ECF9FA210720AF
:1038800000F02CFC072000F0F3FB012000F013FCFB
:10389000642000F0F3FC4FF4FA7000F002FDC82140
:1038A000304800F0A3FB282000F0BCFB0A2000F009
:1038B000CCFB08E0D8208DF800006A4601214FF4C7
:1038C0000B6002F0C7F904F0020018B1D9208DF89E
:1038D000000002E0D8208DF800006A46012140F285
:1038E0003D7002F0B7F904F0040018B1012000F0B7
:1038F00069F802E0002000F065F804F0100018B14B
:103900000120FFF707FF02E00020FFF703FF44F06C
:1039100008001549488101F017FD002012498873FD
:1039200004F0400018B10846807B801D887304F4C1
:10393000C07020B10C48807B801D0B49887304F057
:10394000140020B10848807B10300749887304F0C8
:10395000030020B10448807B001D034988730020C8
:103960003EBD000009E3CA02500100203EB50446F6
:103970006CB10EA1D1E900208968CDE90020029147
:103980006A4609214FF4976002F064F93EBD0AA22D
:10399000D2E900109268CDE9010200916A4609213E
:1039A0004FF4976002F056F9F0E70000B8AAB38D23
:1039B000B4980D355D000000B8AAAAAAB088C3C5A6
:1039C000C700000038B5044664B1C0208DF800007F
:1039D000C2208DF80100C4208DF80200C6208DF8A9
:1039E000030004E08B2204216846FCF791FD6A463F
:1039F000042140F6982002F02DF901F0A5FC38BD15
:103A000010B5C8234FF48062024940F6F63001F049
:103A100005FB10BD7C7100082DE9F04F8DB0074605
:103A2000884615469946DDE9166B00240020308053
:103A30006B49887B5A4605A901F0CCFB18B1601E82
:103A40000DB0BDE8F08F6648807A00F014000028C1
:103A500067D09DF8140000069DF8151040EA01405B
:103A60009DF8161040EA01209DF8171008432860C1
:103A70009DF8180000069DF8191040EA01409DF8D5
:103A80001A1040EA01209DF81B10084368609DF859
:103A90001C0000069DF81D1040EA01409DF81E1014
:103AA00040EA01209DF81F100843A8609DF82000FF
:103AB00000069DF8211040EA01409DF8221040EADE
:103AC00001209DF823100843E86004F11000C4B2FF
:103AD000286800140190686800140290A868001417
:103AE0000390E8680014049001984043029901FB98
:103AF0000100039901FB0100049901FB010ABAF1DD
:103B0000706F02DBBAF1885F05DD01F01DFC00205B
:103B10003080401E94E7B6F9000040F48070308099
:103B200000BF2F48807A00F0400020B305A9601C38
:103B3000085C095D40EA012000B2A8F8000005A970
:103B4000E01C095C05AAA01C105C41EA002000B240
:103B5000A8F8020005A9601D095C201D105C41EA5F
:103B6000002000B2A8F80400A01DC4B2B6F90000FD
:103B700040F0080030801A48408900F4C07008B353
:103B800005A9601C085C095D40EA012000B238808C
:103B900005A9E01C095C05AAA01C105C41EA0020F4
:103BA00000B2788005A9601D095C201D105C41EA07
:103BB000002000B2B880A01DC4B2B6F9000040F0E9
:103BC000700030800648807A00F0030018B105A923
:103BD0000819FFF721FD484602F086F800202FE77C
:103BE0005001002070B588B0064601A801F058F8D1
:103BF000BDF804000021C90341EA5045C40344480C
:103C0000007A00F0030056F8200005904048007A42
:103C100000F0040010B10598404205903C48007A3D
:103C2000C0F3C10056F8200006903948007A00F031
:103C3000200010B10698404206903548007AC0F343
:103C4000811056F8200007903148008900F48070F8
:103C500010B10798404207900598C117A0FB0423B4
:103C600001FB043100FB0510810041EA92700590D0
:103C70000698C117A0FB042301FB043100FB0510CB
:103C8000810041EA927006900798C117A0FB0423B7
:103C900001FB043100FB0510810041EA927007909E
:103CA0000598000E8DF808000598000C8DF80900A5
:103CB0000598000A8DF80A000598C0B28DF80B002F
:103CC0000698000E8DF80C000698000C8DF80D007B
:103CD0000698000A8DF80E000698C0B28DF80F0005
:103CE0000798000E8DF810000798000C8DF8110051
:103CF0000798000A8DF812000798C0B28DF81300DB
:103D000002AA0C214FF4257001F0A4FF08B070BD89
:103D10005001002030B585B0044616A207CA02AB98
:103D200007C3C82C03DD4FF0FF3005B030BDC820FD
:103D300090FBF4F0401E85B2280A8DF80000E8B22E
:103D40008DF801006A46022140F2162001F082FF40
:103D500010B14FF0FF30E8E702AA0C2140F6C12075
:103D600001F078FF10B14FF0FF30DEE704488481A6
:103D70000020DAE7FEF2ABC4AAF1DFDFBBAFDFDF82
:103D8000500100201FB504464848007A00F00300A7
:103D900054F8200001904548007A00F0040010B16A
:103DA0000198404201904148007AC0F3C10054F8A4
:103DB000200002903D48007A00F0200010B10298E7
:103DC000404202903948007AC0F3811054F8200034
:103DD00003903648008900F4807010B10398404287
:103DE00003903349019880FB0101800F40EA810074
:103DF00001902F49029880FB0110820042EA9170E5
:103E000002902B49039880FB0110820042EA9170D6
:103E100003900198000E8DF800000198000C8DF8B9
:103E200001000198000A8DF802000198C0B28DF8D7
:103E300003006A4604214FF4747001F00BFF18B1BF
:103E40004FF0FF3004B010BD0298000E8DF8000056
:103E50000298000C8DF801000298000A8DF802000B
:103E60000298C0B28DF803006A4604214FF47570C1
:103E700001F0F0FE10B14FF0FF30E3E70398000EC1
:103E80008DF800000398000C8DF801000398000ADB
:103E90008DF802000398C0B28DF803006A46042131
:103EA0004FF4767001F0D6FECCE700005001002000
:103EB00009E3CA0210B586B0044647A00068039023
:103EC00046A00068029046A00068019045A00068E6
:103ED000009004F0030003A9085C8DF8140003A807
:103EE000C4F3C101405C8DF8150003A8C4F381112F
:103EF000405C8DF8160004F0030002A9085C8DF800
:103F0000100002A8C4F3C101405C8DF8110002A8A2
:103F1000C4F38111405C8DF8120005AA032140F220
:103F2000264001F097FE18B14FF0FF3006B010BDEB
:103F300004AA032140F22A4001F08CFE10B14FF098
:103F4000FF30F3E7019805900098049004F0040016
:103F500058B19DF8140040F001008DF814009DF850
:103F6000100040F001008DF8100004F0200058B15E
:103F70009DF8150040F001008DF815009DF8110026
:103F800040F001008DF8110004F4807058B19DF8E4
:103F9000160040F001008DF816009DF8120040F068
:103FA00001008DF8120005AA03214FF4886001F08A
:103FB00051FE10B14FF0FF30B8E704AA032140F2E0
:103FC000314001F047FE10B14FF0FF30AEE7064838
:103FD00004810020AAE700004CCD6C000CC92C0025
:103FE000365676002646660050010020F8B5054694
:103FF0000E464FF47A7095FBF0F000FB06F4200EAD
:104000008DF80000200C8DF80100200A8DF80200C8
:10401000E0B28DF803006A4604214FF4AE7001F05F
:1040200019FEF8BD38B50446052094FBF0F084B2C3
:1040300020128DF80000E0B28DF801006A460221DE
:104040004FF4AD7001F006FE38BD38B504460520CA
:1040500094FBF0F084B220128DF80000E0B28DF8ED
:1040600001006A4602214FF4AC7001F0F3FD38BD47
:1040700038B504460020009004F0010020B19DF8FE
:10408000000040F03000009004F0020020B19DF8E4
:10409000000040F00C00009004F0040020B19DF8F6
:1040A000000040F0030000906A4601214FF4A47024
:1040B00001F0D0FD38BD38B50446012C01DA0124E9
:1040C00002E0042C00DD0424601EC0B200906A46A9
:1040D000012140F24F1001F0BDFD38BD2DE9FC4734
:1040E00006460F4606F0070010B1B7F5C86F03DDAE
:1040F0004FF0FF30BDE8FC87384602F0DDFD814619
:10410000594902F08FFC8046684600F0A3FD9DF8F7
:104110000000022806D0042816D0082826D010282F
:1041200048D135E04FF08D41404602F00DFE81460A
:1041300002F08AFD84B24D49404602F005FE8146F8
:1041400002F082FD85B238E04FF08C41404602F02B
:10415000FBFD814602F078FD84B24549404602F0FD
:10416000F3FD814602F070FD85B226E04FF08B41F1
:10417000404602F0E9FD814602F066FD84B23D4909
:10418000404602F0E1FD814602F05EFD85B214E09A
:104190004FF08A41404602F0D7FD814602F054FDBF
:1041A00084B23549404602F0CFFD814602F04CFD15
:1041B00085B202E04FF0FF309CE700BF20128DF87F
:1041C0000400E0B28DF8050028128DF80600E8B270
:1041D0008DF8070006F00100A0B101AA02214FF4FA
:1041E000EA7001F037FD10B14FF0FF3082E70DF1BA
:1041F000060202214FF4927001F02CFD10B14FF035
:10420000FF3077E706F00200A0B101AA02214FF4C7
:10421000EC7001F01FFD10B14FF0FF306AE70DF1B7
:10422000060202214FF4947001F014FD10B14FF01A
:10423000FF305FE706F00400A0B101AA02214FF4AD
:10424000EE7001F007FD10B14FF0FF3052E70DF1B5
:10425000060202214FF4967001F0FCFC10B14FF001
:10426000FF3047E7002045E7000048430000404694
:104270000000C045000040450000C04438B5044679
:10428000052094FBF0F085B228128DF80000E8B20A
:104290008DF801006A4602214FF4EF7001F0DAFC5C
:1042A00038BD38B50446052094FBF0F085B22812DD
:1042B0008DF80000E8B28DF801006A4602214FF443
:1042C000ED7001F0C7FC38BD70B504460D464021C5
:1042D0000748FEF789FCE1B20548FEF7B6FD00BFCE
:1042E00080210348FEF7E4FC0028F9D0204670BD89
:1042F000003801403EB5054604200090294840683A
:1043000000784006010E02AB0D222748FDF79CFC09
:1043100008B907203EBD9DF80B00C0F301109DF8C1
:10432000081001F0E00140EAE1008DF804009DF87A
:104330000B00C0F381009DF8091001F0E00140EA94
:10434000E1008DF805009DF80B0000F003009DF8DA
:104350000A1001F0E00140EAE1008DF806000024B7
:104360001CE001A8005D18B9002045F8240013E006
:104370000E4845F8240006E055F824000C4902F0E8
:10438000E3FC45F8240001A8005D401EC0B201A96D
:1043900008550028F0D100BF601CC4B2032CE0DB3C
:1043A0000020B7E718000020080000207B14AE3E74
:1043B0001D5A843F2DE9F04F89B005460C469146C1
:1043C00001208DF8180000208DF8190002200090BF
:1043D000FE480068827CFD48406800784006010E77
:1043E00006ABFB48FDF784FD20B94FF0FF3009B064
:1043F000BDE8F08FC820FFF741F900208DF81800C4
:1044000001200090F1480068C27BF04840680078C5
:104410004006010E06ABEE48FDF76AFD10B94FF0FD
:10442000FF30E4E701200090E84800684279E7485F
:10443000406800784006010E06ABE548FDF758FDE0
:1044400010B94FF0FF30D2E701200090DF4800683C
:10445000827CDE48406800784006010E06ABDC48EE
:10446000FDF746FD10B94FF0FF30C0E70120009086
:10447000D6480068C27DD548406800784006010EE5
:1044800006ABD348FDF734FD10B94FF0FF30AEE76F
:1044900001200090CD4800680279CC48406800783F
:1044A0004006010E06ABCA48FDF722FD10B94FF0D9
:1044B000FF309CE70C208DF8180001200090C348C5
:1044C00000680279C148406800784006010E06ABDA
:1044D000BF48FDF70DFD10B94FF0FF3087E70F2003
:1044E000FFF7CCF8B948806A407A8DF818000120AF
:1044F0000090B64800688278B4484068007840066A
:10450000010E06ABB248FDF7F3FC10B94FF0FF30D7
:104510006DE7AE48806A007A8DF81800012000909F
:10452000AA4800684278A948406800784006010E11
:1045300006ABA748FDF7DCFC10B94FF0FF3056E79B
:10454000B9F1000F07D0A148806A807A40F0E000FE
:104550008DF8180004E09D48806A807A8DF8180074
:104560000120009099480068827998484068007856
:104570004006010E06AB9648FDF7BAFC10B94FF0A5
:10458000FF3034E7B9F1000F07D09048806AC07A55
:1045900040F0E0008DF8180003E08E48C07A8DF8F6
:1045A00018000120009089480068C2798748406857
:1045B00000784006010E06AB8548FDF799FC10B95E
:1045C0004FF0FF3013E7B9F1000F02D0C820FFF71A
:1045D00055F840208DF81800012000907B480068B5
:1045E00002797A48406800784006010E06AB7848A8
:1045F000FDF77EFC10B94FF0FF30F8E678208DF81B
:104600001800012000907148006842796F484068A6
:1046100000784006010E06AB6D48FDF769FC10B945
:104620004FF0FF30E3E66B498889FFF727F8002059
:104630008DF81800012000906448006842796348B2
:10464000406800784006010E06AB6148FDF750FC5B
:1046500010B94FF0FF30CAE6022000905B480068B6
:10466000827A5A48406800784006010E06AB5848E6
:10467000FDF7EAFA10B94FF0FF30B8E69DF81900DF
:104680009DF8181040EA012B0C209BFBF0F0C6B2FD
:104690000020A86068602860A0606060206082469A
:1046A00069E00C20009049480068C27A4748406899
:1046B00000784006010E06AB4548FDF7C5FA10B973
:1046C0004FF0FF3093E69DF819009DF8181040EA6E
:1046D000012000B2ADF810009DF81B009DF81A10E3
:1046E00040EA012000B2ADF812009DF81D009DF8CF
:1046F0001C1040EA012000B2ADF81400BDF9101002
:10470000206808442060BDF91210606808446060A9
:10471000BDF91410A0680844A0609DF81F009DF822
:104720001E1040EA012000B2ADF808009DF82100FB
:104730009DF8201040EA012000B2ADF80A009DF873
:1047400023009DF8221040EA012000B2ADF80C00D1
:10475000BDF90810286808442860BDF90A10686887
:1047600008446860BDF90C10A8680844A8600AF104
:10477000010000F0FF0AB24593DB1648D0F800C0F4
:104780002868C117090441EA104107046246002362
:104790003846FBF74CFD32460023CDE90401FBF718
:1047A00046FD28600B48D0F800C06968C8170004AF
:1047B00040EA11480F046246002338464146FBF7A1
:1047C00036FD32460023CDE9040105E01800002043
:1047D0000800002054710008FBF729FD686031488B
:1047E000D0F800C0A868C117090441EA10410704C5
:1047F000624600233846FBF71AFD32460023CDE916
:104800000401FBF714FDA8602648D0F804C0206816
:10481000C117090441EA10410704624600233846E3
:10482000FBF705FD32460023CDE90401FBF7FFFC51
:1048300020601C48D0F804C06068C117090441EA30
:1048400010410704624600233846FBF7F0FC32466D
:104850000023CDE90401FBF7EAFC60601148D0F8C1
:1048600004C0A068C117090441EA10410704624668
:1048700000233846FBF7DBFC32460023CDE9040178
:10488000FBF7D5FCA060A068002804DDA068A0F5B7
:104890008030A06003E0A06800F58030A0600020B8
:1048A000A5E50000547100082DE9FC5F06460F469F
:1048B0000025032000903E48406800784006010E25
:1048C00001AB0D223B48FDF7BFF910B90720BDE849
:1048D000FC9F9DF8040000F01F008DF804009DF877
:1048E000050000F01F008DF805009DF8060000F09F
:1048F0001F008DF80600002456E056F8240057F8F3
:104900002410A0EB010BBBF1000F01DB594601E0C5
:10491000CBF10001084602F0B7F94FF08F4100904B
:1049200002F080F8814601A8005D68B3224908685A
:1049300002F0C2F983465946204802F073F88046D7
:1049400004E01F49404602F0FFF9804601A8005DDF
:10495000401EC0B201A908550028F2D14146484680
:1049600002F060F883464FF07E5102F0EBFA824687
:104970002AF0004B10488169584602F0B1FA12D271
:104980000120A04005430EE00B480169484602F0B3
:10499000A7F905D308484169484602F0A1FA02D2B6
:1049A0000120A0400543641C032CA6DB28468EE7AB
:1049B00018000020080000205471000800B04C4589
:1049C00054E3853F00B50346184600F00DF8024653
:1049D000D81C00F009F842EAC002981D00F004F863
:1049E00042EA8012104600BD014691F900000028FD
:1049F00001DD0020704791F90000002801DA042051
:104A0000F8E791F90100002801DD0120F2E791F9B2
:104A10000100002801DA0520ECE791F902000028E6
:104A200001DD0220E6E791F90200002801DA062004
:104A3000E0E70720DEE7000088B000200490059042
:104A400006900790FDF7A6FA012010234CA2002142
:104A500000900820FDF7BAFE012010234AA2194653
:104A600000901846FDF7B2FE0120102348A2202135
:104A700000901846FDF7AAFE0120102346A230211F
:104A800000901846FDF7A2FE40231A460021084672
:104A9000FDF7A2FD73E0FDF757FBFDF727FBFDF7E0
:104AA000D7FBFCF725FE4049886901F021FF044649
:104AB0000D463D49486901F01BFF06460F463A493D
:104AC000086901F015FF804642460B4637A0CDE944
:104AD0000067CDE90245FBF7CFFB3349086901F0D8
:104AE00007FF044622460B463AA104A8FBF7D0FB79
:104AF0000120102304AA002100904020FDF766FE4B
:104B00002949486901F0F4FE044622460B4631A1CA
:104B100004A8FBF7BDFB0120102304AA194600904E
:104B20004020FDF753FE2049886901F0E1FE04466C
:104B300022460B4627A104A8FBF7AAFB012010235D
:104B400004AA202100904020FDF740FE1649C868C5
:104B500001F0CEFE044622460B4620A104A8FBF736
:104B600097FB0120102304AA302100904020FDF77C
:104B70002DFE4023802200211846FDF72DFD8AE7F7
:104B80005069746368203A00526F6C6C203A0000E0
:104B900020596177203A000054656D70203A20203A
:104BA000202020204300000034010020506974635D
:104BB000683A252D392E316620526F6C6C3A252DBE
:104BC000392E3166205961773A252D392E31660DFF
:104BD0000A00000025362E316600000025352E31F2
:104BE0006600000070B50446002624F00104184851
:104BF00090F8240008B1002070BD1548807A10B9E3
:104C00004FF0FF30F8E71248057C807A20401049C9
:104C100008740846007CA04202D04FF0FF3600E046
:104C2000002614B90A48007D18B1012001F0A6F849
:104C300002E0002001F0A2F83CB100F085FB20B1B9
:104C4000034805744FF0FF30D6E73046D4E7000044
:104C50001800002001461148407A30B1012807D0E1
:104C6000022808D003280CD108E0022008700BE0CD
:104C70000420087008E00820087005E01020087083
:104C800002E04FF0FF30704700BF0448C07C18B10D
:104C900008784006000E08700020F4E71800002095
:104CA00001461348407A30B1012808D002280AD0C2
:104CB000032810D10BE04FF4804008800EE041F64D
:104CC0009C7008800AE04FF48050088006E04FF4A2
:104CD0000060088002E04FF0FF30704700BF0448DA
:104CE000C07C10B10888401008800020F5E7000063
:104CF0001800002001460248007C08700020704720
:104D00001800002001460F48007A30B1012807D072
:104D1000022809D003280FD10AE0FA2008800EE00B
:104D20004FF4FA7008800AE04FF47A70088006E0C9
:104D30004FF4FA60088002E00020088000BF00BF46
:104D4000002070471800002001460E48007A30B15C
:104D5000012807D0022808D003280CD108E00A480F
:104D600008600BE00948086008E00948086005E0B1
:104D70000848086002E04FF0FF30704700BF002095
:104D8000FBE70000180000200000034300008342FE
:104D9000333303423333834101461248C07A082833
:104DA00017D2DFE800F01704070A0D101318BC2013
:104DB000088013E06220088010E02A2008800DE0BF
:104DC000142008800AE00A20088007E005200880F7
:104DD00004E000BF00BF0020088000BF00BF00202B
:104DE00070470000180000200146064890F8240093
:104DF00010B14FF0FF3070470248C0890880002092
:104E0000F9E70000180000203EB580208DF804006E
:104E1000012000906C480068827C6B4840680078F4
:104E20004006010E01AB6948FDF762F810B94FF07A
:104E3000FF303EBD6420FEF721FC00208DF8040009
:104E40000120009060480068827C5F4840680078DC
:104E50004006010E01AB5D48FDF74AF810B94FF06E
:104E6000FF30E6E70620009057480068827D5648EC
:104E7000406800784006010E01AB5448FCF7E4FEA0
:104E800010B94FF0FF30D4E79DF80900C007400F7C
:104E90009DF8071001F0010140EA41009DF805105E
:104EA00001F0010140EA010494B1012C03D1012178
:104EB0004548C17435E0022C03D100214248C17439
:104EC0002FE0214642A0FBF7D7F94FF0FF30B0E7C3
:104ED000012000903C480068C2783B484068007858
:104EE0004006010E01AB3948FCF7AEFE10B94FF099
:104EF000FF309EE79DF8040000F00F042CB93E48F7
:104F0000FBF7BAF94FF0FF3093E7042C06D13BA032
:104F1000FBF7B2F901212C48C17402E000212A48B4
:104F2000C174FF2128488172FF2027490872FF21A0
:104F300025484172C1724FF6FF71C181FF21017492
:104F400081740121017380F82210002180F8231060
:104F5000417501751630016041608160163880F836
:104F6000241080F82510C1844FF4FA6000F0DEFCB4
:104F700010B14FF0FF305CE7022000F07DFB10B174
:104F80004FF0FF3055E72A2000F056FD10B14FF0EA
:104F9000FF304EE7322000F097FD10B14FF0FF30A8
:104FA00047E70020FFF71EFE10B14FF0FF3040E74B
:104FB000002000F0A9FB10B14FF0FF3039E70020CE
:104FC00000F0D6FD002034E7180000200800002083
:104FD000556E737570706F7274656420736F66744C
:104FE000776172652070726F647563742072657684
:104FF0002025642E0A000000DC9B000848616C66D6
:105000002073656E73697469766974792070617252
:105010007420666F756E642E0D0A00002DE9F04352
:1050200087B005460E46904699462B4890F82500D5
:1050300020B14FF0FF3007B0BDE8F08316B94FF054
:10504000FF30F8E7002423E0281B102801DD1020A2
:1050500000E0281B87B232193946204600F0FAFDDD
:1050600010B14FF0FF30E6E703AA3946204600F0C2
:1050700021F910B14FF0FF30DDE730193A4603A9AE
:10508000FBF71AFA10B16FF00100D4E7E01984B20F
:10509000AC42D9DB4FEA28208DF8080008F0FF0069
:1050A0008DF80900022000900B480068827E0A48B3
:1050B000406800784006010E02AB0848FCF718FF74
:1050C00010B94FF0FF30B6E70121034880F82510F2
:1050D000A0F826900020AEE718000020080000206D
:1050E0001CB50446282C02DD4FF0FF301CBDFCB976
:1050F000002000F065FC00208DF8040007208DF8EA
:1051000005000220009031480068827C2F484068EA
:1051100000784006010E01AB2D48FCF7E9FE10B9FE
:105120004FF0FF30E2E70021284801750020DDE75D
:10513000012000F045FC20208DF80400012C06D150
:1051400000208DF80500052000F076FC17E0052C06
:1051500006DC01208DF80500052000F06DFC0EE056
:10516000142C06DC02208DF805000A2000F064FCF7
:1051700005E003208DF80500142000F05DFC9DF88B
:105180000500072101EB8010C0B28DF80500022058
:1051900000900E480068827C0C4840680078400609
:1051A000010E01AB0A48FCF7A3FE10B94FF0FF3027
:1051B0009CE70821054881720021017301210175D6
:1051C0000020FFF70FFD002090E7000018000020EE
:1051D000080000202DE9FC4104460F4616463348DE
:1051E00090F8240018B94FF0FF30BDE8FC812F483B
:1051F000807A10B94FF0FF30F7E7022000902B487B
:105200000068827A2948406800784006010E01ABA8
:105210002748FCF719FD10B94FF0FF30E5E79DF87E
:1052200005009DF8041040EA0125A54203DA00209C
:105230003070401ED9E71D4840684088B5EB600FCC
:105240001BDD0120009019480068427C1748406827
:1052500000784006010E01AB1548FCF7F5FC10B9CB
:105260004FF0FF30C1E79DF8040000F0100020B1BE
:1052700000F06AF86FF00100B7E7E0B200900B4869
:105280000068C27A0948406800784006010E3B4633
:105290000748FCF7D9FC10B94FF0FF30A5E795FBA4
:1052A000F4F0401E307000209FE70000180000203E
:1052B000080000207CB504460D46164616B94FF08E
:1052C000FF307CBD1E48807A10B94FF0FF30F8E700
:1052D00020128DF80400E0B28DF805009DF805005D
:1052E0002844174949684989884202DD4FF0FF3058
:1052F000E7E70220009012480068027E10484068EC
:1053000000784006010E01AB0E48FCF7F1FD10B924
:105310004FF0FF30D5E7E8B2009009480068427DC1
:105320000748406800784006010E33460548FCF700
:105330008BFC10B94FF0FF30C3E70020C1E700003D
:1053400018000020080000201CB58248807A10B99F
:105350004FF0FF301CBD00200190012000907D48DF
:105360000068C27B7B48406800784006010E01ABB4
:105370007948FCF7BDFD10B94FF0FF30EAE7012096
:10538000009074480068427972484068007840068E
:10539000010E01AB7048FCF7ABFD10B94FF0FF30C8
:1053A000D8E7012000906B4800680279694840689E
:1053B00000784006010E01AB6748FCF799FD10B973
:1053C0004FF0FF30C6E7634890F8240000285FD014
:1053D0000C200190012000905E48006802795D4831
:1053E000406800784006010E01AB5B48FCF780FD89
:1053F00010B94FF0FF30ADE7C02001905548807ADA
:1054000000F0010020B19DF8040040F02000019060
:10541000012000904F48006802794E4840680078AB
:105420004006010E01AB4C48FCF762FD10B94FF08D
:10543000FF308FE74748407C10B10220019001E027
:10544000002001900120009042480068C27B414842
:10545000406800784006010E01AB3F48FCF748FD6C
:1054600010B94FF0FF3075E7002001900120009047
:105470003848006842793748406800784006010E95
:1054800001AB3548FCF734FD002861D1401E61E7CF
:1054900004200190012000902E48006802792D48D8
:1054A000406800784006010E01AB2B48FCF720FD58
:1054B00010B94FF0FF304DE72648807C20B92548D1
:1054C000807A00F0010010B94020019001E06020D6
:1054D0000190012000901F48006802791D48406833
:1054E00000784006010E01AB1B48FCF701FD10B926
:1054F0004FF0FF302EE71748407C10B1012001909B
:1055000001E0002001900120009012480068C27B59
:105510001048406800784006010E01AB0E48FCF7C9
:10552000E7FC10B94FF0FF3014E701200090094864
:10553000006842790748406800784006010E054B34
:1055400010330548FCF7D4FC10B94FF0FF3001E7E9
:105550000020FFE618000020080000202DE9F04F91
:105560008DB083460F4602200C90424890F82400EC
:1055700020B1002000F088F9012600E0002603A8F1
:10558000FFF7C0FB05A8FFF765FB01A8FFF704FCC8
:1055900002A8FFF729FC374890F80AA004A8FFF7F3
:1055A000A9FB002407E0002239465846FEF702FF17
:1055B00000B902E0641C022CF5DB00BF022C01D113
:1055C000002528E0002407E0012206A909A8FEF72B
:1055D000F1FE00B902E0641C022CF5DB00BF022CD6
:1055E00001D1002517E006A93846FDF7B9FC00F007
:1055F000FF0809A95846FFF757F900F0FF090025F1
:10560000B9F1000F01D145F00105B8F1000F01D14A
:1056100045F0020500BFFF2016490872FF2115481A
:105620004172C1724FF6FF71C181FF218172017415
:1056300001210173BDF80C0000F078F99DF8140009
:1056400000F01AF8BDF8040000F0F6F9BDF8080003
:1056500000F03AFA504600F08BFA9DF81000FFF780
:10566000C1FA16B1012000F00FF928460DB0BDE8CF
:10567000F08F0000180000201CB504462048807AF6
:1056800010B94FF0FF301CBD022C06D0042C07D0FF
:10569000082C08D0102C0CD108E0002001900BE061
:1056A0000820019008E01020019005E018200190EA
:1056B00002E04FF0FF30E6E700BF1148407A9DF866
:1056C0000410B0EBE10F01D10020DCE701200090D5
:1056D0000B480068C2790A48406800784006010E0D
:1056E00001AB0848FCF704FC10B94FF0FF30CAE7E3
:1056F0009DF80400C110024841720020C3E7000079
:1057000018000020080000201CB504465C48807C7E
:10571000A04201D100201CBD002C51D001200090DE
:105720005748006802795648406800784006010EE4
:1057300001AB5448FCF788FA10B94FF0FF30EAE7A4
:105740009DF8040020F020000190012000904C48BA
:10575000006802794A48406800784006010E01ABB3
:105760004848FCF7C5FB10B94FF0FF30D3E70320E2
:10577000FDF784FF02200190414890F8220020B1FB
:105780009DF8040040F0800001903D4890F823000F
:1057900020B19DF8040040F03000019001200090FD
:1057A00037480068027D3648406800784006010EA0
:1057B00001AB3448FCF79CFB00285CD1401EAAE7F3
:1057C000012000902E48006802792D48406800783A
:1057D0004006010E01AB2B48FCF736FA10B94FF02A
:1057E000FF3098E72648807A00F0010028B19DF844
:1057F000040040F02000019004E09DF8040020F037
:1058000020000190012000901D48006802791C488A
:10581000406800784006010E01AB1A48FCF768FBAF
:1058200010B94FF0FF3076E70320FDF727FF14484B
:1058300090F8220010B18020019001E0002001903A
:105840000F4890F8230020B19DF8040040F030008C
:105850000190012000900A480068027D08484068D5
:1058600000784006010E01AB0648FCF741FB10B979
:105870004FF0FF304FE70248847400204BE70000F0
:1058800018000020080000201CB50446254890F8A8
:105890002400A04201D100201CBD44B3214890F84F
:1058A000250010B94FF0FF30F6E7002000F066FA4F
:1058B0000020FFF729FF1B49C88C00F005F90020E4
:1058C0000190012000901748406800784006010EC2
:1058D00001AB23221448FCF70BFB0121114880F88F
:1058E0002410012000F04AFAFFF72EFD17E00020F7
:1058F00000F044FA0B48007C019001200090094818
:10590000406800784006010E01AB23220648FCF7F0
:10591000EFFA0021034880F82410FFF715FD00205E
:10592000BAE7000018000020080000201CB504465B
:105930002148807A10B94FF0FF301CBDFA2C09D0F5
:10594000B4F5FA7F09D0B4F57A7F09D0B4F5FA6FCF
:105950000CD108E0002001900BE00820019008E045
:105960001020019005E01820019002E04FF0FF3078
:10597000E3E700BF1048007A9DF80410B0EBE10F98
:1059800001D10020D9E7012000900B4800688279FE
:105990000948406800784006010E01AB0748FCF753
:1059A000A7FA10B94FF0FF30C7E79DF80400C01008
:1059B000014908720020C0E71800002008000020FC
:1059C0001CB504461A4890F82300A04201D10020DB
:1059D0001CBD14B13020019001E00020019014485A
:1059E000807C20B19DF8040040F002000190104836
:1059F00090F8220020B19DF8040040F08000019052
:105A0000012000900A480068027D0948406800783B
:105A10004006010E01AB0748FCF76AFA10B94FF0D7
:105A2000FF30D5E7024880F823400020D0E700008F
:105A300018000020080000201CB504462048807A89
:105A400010B94FF0FF301CBDBC2C02DB01200190CF
:105A500015E0622C02DB0220019010E02A2C02DB10
:105A6000032001900BE0142C02DB0420019006E0DF
:105A70000A2C02DB0520019001E00620019010486D
:105A8000C07A9DF80410884201D10020DBE7012094
:105A900000900B480068827809484068007840060A
:105AA000010E01AB0748FCF723FA10B94FF0FF30A5
:105AB000C9E79DF804100248C1720020C3E7000046
:105AC00018000020080000201CB504462648807AF3
:105AD00010B94FF0FF301CBD234890F8240010B1DE
